{
  "abi": [
    {
      "inputs": [],
      "stateMutability": "nonpayable",
      "type": "constructor"
    },
    {
      "anonymous": false,
      "inputs": [
        {
          "indexed": true,
          "internalType": "address",
          "name": "owner",
          "type": "address"
        },
        {
          "indexed": true,
          "internalType": "address",
          "name": "approved",
          "type": "address"
        },
        {
          "indexed": true,
          "internalType": "uint256",
          "name": "tokenId",
          "type": "uint256"
        }
      ],
      "name": "Approval",
      "type": "event"
    },
    {
      "anonymous": false,
      "inputs": [
        {
          "indexed": true,
          "internalType": "address",
          "name": "owner",
          "type": "address"
        },
        {
          "indexed": true,
          "internalType": "address",
          "name": "operator",
          "type": "address"
        },
        {
          "indexed": false,
          "internalType": "bool",
          "name": "approved",
          "type": "bool"
        }
      ],
      "name": "ApprovalForAll",
      "type": "event"
    },
    {
      "anonymous": false,
      "inputs": [
        {
          "indexed": true,
          "internalType": "address",
          "name": "previousOwner",
          "type": "address"
        },
        {
          "indexed": true,
          "internalType": "address",
          "name": "newOwner",
          "type": "address"
        }
      ],
      "name": "OwnershipTransferred",
      "type": "event"
    },
    {
      "anonymous": false,
      "inputs": [
        {
          "indexed": true,
          "internalType": "address",
          "name": "from",
          "type": "address"
        },
        {
          "indexed": true,
          "internalType": "address",
          "name": "to",
          "type": "address"
        },
        {
          "indexed": true,
          "internalType": "uint256",
          "name": "tokenId",
          "type": "uint256"
        }
      ],
      "name": "Transfer",
      "type": "event"
    },
    {
      "anonymous": false,
      "inputs": [
        {
          "indexed": true,
          "internalType": "uint256",
          "name": "tokenId",
          "type": "uint256"
        },
        {
          "indexed": true,
          "internalType": "address",
          "name": "user",
          "type": "address"
        },
        {
          "indexed": false,
          "internalType": "uint64",
          "name": "expires",
          "type": "uint64"
        }
      ],
      "name": "UpdateUser",
      "type": "event"
    },
    {
      "inputs": [
        {
          "internalType": "address",
          "name": "to",
          "type": "address"
        },
        {
          "internalType": "uint256",
          "name": "tokenId",
          "type": "uint256"
        }
      ],
      "name": "approve",
      "outputs": [],
      "stateMutability": "nonpayable",
      "type": "function"
    },
    {
      "inputs": [
        {
          "internalType": "address",
          "name": "owner",
          "type": "address"
        }
      ],
      "name": "balanceOf",
      "outputs": [
        {
          "internalType": "uint256",
          "name": "",
          "type": "uint256"
        }
      ],
      "stateMutability": "view",
      "type": "function"
    },
    {
      "inputs": [],
      "name": "baseTokenURI",
      "outputs": [
        {
          "internalType": "string",
          "name": "",
          "type": "string"
        }
      ],
      "stateMutability": "view",
      "type": "function"
    },
    {
      "inputs": [],
      "name": "flipMembershipState",
      "outputs": [],
      "stateMutability": "nonpayable",
      "type": "function"
    },
    {
      "inputs": [],
      "name": "flipSubscriptionState",
      "outputs": [],
      "stateMutability": "nonpayable",
      "type": "function"
    },
    {
      "inputs": [
        {
          "internalType": "uint256",
          "name": "tokenId",
          "type": "uint256"
        }
      ],
      "name": "getApproved",
      "outputs": [
        {
          "internalType": "address",
          "name": "",
          "type": "address"
        }
      ],
      "stateMutability": "view",
      "type": "function"
    },
    {
      "inputs": [],
      "name": "getLatestPrice",
      "outputs": [
        {
          "internalType": "int256",
          "name": "",
          "type": "int256"
        }
      ],
      "stateMutability": "view",
      "type": "function"
    },
    {
      "inputs": [],
      "name": "getMembersToken",
      "outputs": [],
      "stateMutability": "nonpayable",
      "type": "function"
    },
    {
      "inputs": [
        {
          "internalType": "address",
          "name": "owner",
          "type": "address"
        },
        {
          "internalType": "address",
          "name": "operator",
          "type": "address"
        }
      ],
      "name": "isApprovedForAll",
      "outputs": [
        {
          "internalType": "bool",
          "name": "",
          "type": "bool"
        }
      ],
      "stateMutability": "view",
      "type": "function"
    },
    {
      "inputs": [],
      "name": "maxMonthlySubs",
      "outputs": [
        {
          "internalType": "uint256",
          "name": "",
          "type": "uint256"
        }
      ],
      "stateMutability": "view",
      "type": "function"
    },
    {
      "inputs": [
        {
          "internalType": "address",
          "name": "",
          "type": "address"
        }
      ],
      "name": "membership",
      "outputs": [
        {
          "internalType": "bool",
          "name": "",
          "type": "bool"
        }
      ],
      "stateMutability": "view",
      "type": "function"
    },
    {
      "inputs": [],
      "name": "membershipIsActive",
      "outputs": [
        {
          "internalType": "bool",
          "name": "",
          "type": "bool"
        }
      ],
      "stateMutability": "view",
      "type": "function"
    },
    {
      "inputs": [],
      "name": "name",
      "outputs": [
        {
          "internalType": "string",
          "name": "",
          "type": "string"
        }
      ],
      "stateMutability": "view",
      "type": "function"
    },
    {
      "inputs": [],
      "name": "owner",
      "outputs": [
        {
          "internalType": "address",
          "name": "",
          "type": "address"
        }
      ],
      "stateMutability": "view",
      "type": "function"
    },
    {
      "inputs": [
        {
          "internalType": "uint256",
          "name": "tokenId",
          "type": "uint256"
        }
      ],
      "name": "ownerOf",
      "outputs": [
        {
          "internalType": "address",
          "name": "",
          "type": "address"
        }
      ],
      "stateMutability": "view",
      "type": "function"
    },
    {
      "inputs": [],
      "name": "renounceOwnership",
      "outputs": [],
      "stateMutability": "nonpayable",
      "type": "function"
    },
    {
      "inputs": [
        {
          "internalType": "address",
          "name": "from",
          "type": "address"
        },
        {
          "internalType": "address",
          "name": "to",
          "type": "address"
        },
        {
          "internalType": "uint256",
          "name": "tokenId",
          "type": "uint256"
        }
      ],
      "name": "safeTransferFrom",
      "outputs": [],
      "stateMutability": "nonpayable",
      "type": "function"
    },
    {
      "inputs": [
        {
          "internalType": "address",
          "name": "from",
          "type": "address"
        },
        {
          "internalType": "address",
          "name": "to",
          "type": "address"
        },
        {
          "internalType": "uint256",
          "name": "tokenId",
          "type": "uint256"
        },
        {
          "internalType": "bytes",
          "name": "data",
          "type": "bytes"
        }
      ],
      "name": "safeTransferFrom",
      "outputs": [],
      "stateMutability": "nonpayable",
      "type": "function"
    },
    {
      "inputs": [
        {
          "internalType": "address",
          "name": "operator",
          "type": "address"
        },
        {
          "internalType": "bool",
          "name": "approved",
          "type": "bool"
        }
      ],
      "name": "setApprovalForAll",
      "outputs": [],
      "stateMutability": "nonpayable",
      "type": "function"
    },
    {
      "inputs": [
        {
          "internalType": "string",
          "name": "newuri",
          "type": "string"
        }
      ],
      "name": "setBaseTokenURI",
      "outputs": [],
      "stateMutability": "nonpayable",
      "type": "function"
    },
    {
      "inputs": [
        {
          "internalType": "uint256",
          "name": "newSubscriptionFee",
          "type": "uint256"
        },
        {
          "internalType": "uint256",
          "name": "newMaxMonthlySubs",
          "type": "uint256"
        }
      ],
      "name": "setFeesMaxMonth",
      "outputs": [],
      "stateMutability": "nonpayable",
      "type": "function"
    },
    {
      "inputs": [
        {
          "internalType": "uint256",
          "name": "tokenId",
          "type": "uint256"
        },
        {
          "internalType": "address",
          "name": "user",
          "type": "address"
        },
        {
          "internalType": "uint64",
          "name": "expires",
          "type": "uint64"
        }
      ],
      "name": "setUser",
      "outputs": [],
      "stateMutability": "payable",
      "type": "function"
    },
    {
      "inputs": [],
      "name": "subscriptionFee",
      "outputs": [
        {
          "internalType": "uint256",
          "name": "",
          "type": "uint256"
        }
      ],
      "stateMutability": "view",
      "type": "function"
    },
    {
      "inputs": [],
      "name": "subscriptionIsActive",
      "outputs": [
        {
          "internalType": "bool",
          "name": "",
          "type": "bool"
        }
      ],
      "stateMutability": "view",
      "type": "function"
    },
    {
      "inputs": [
        {
          "internalType": "bytes4",
          "name": "interfaceId",
          "type": "bytes4"
        }
      ],
      "name": "supportsInterface",
      "outputs": [
        {
          "internalType": "bool",
          "name": "",
          "type": "bool"
        }
      ],
      "stateMutability": "view",
      "type": "function"
    },
    {
      "inputs": [],
      "name": "symbol",
      "outputs": [
        {
          "internalType": "string",
          "name": "",
          "type": "string"
        }
      ],
      "stateMutability": "view",
      "type": "function"
    },
    {
      "inputs": [
        {
          "internalType": "uint256",
          "name": "tokenId",
          "type": "uint256"
        }
      ],
      "name": "tokenURI",
      "outputs": [
        {
          "internalType": "string",
          "name": "",
          "type": "string"
        }
      ],
      "stateMutability": "view",
      "type": "function"
    },
    {
      "inputs": [],
      "name": "totalMembers",
      "outputs": [
        {
          "internalType": "uint256",
          "name": "",
          "type": "uint256"
        }
      ],
      "stateMutability": "view",
      "type": "function"
    },
    {
      "inputs": [
        {
          "internalType": "address",
          "name": "from",
          "type": "address"
        },
        {
          "internalType": "address",
          "name": "to",
          "type": "address"
        },
        {
          "internalType": "uint256",
          "name": "tokenId",
          "type": "uint256"
        }
      ],
      "name": "transferFrom",
      "outputs": [],
      "stateMutability": "nonpayable",
      "type": "function"
    },
    {
      "inputs": [
        {
          "internalType": "address",
          "name": "newOwner",
          "type": "address"
        }
      ],
      "name": "transferOwnership",
      "outputs": [],
      "stateMutability": "nonpayable",
      "type": "function"
    },
    {
      "inputs": [
        {
          "internalType": "uint256",
          "name": "tokenId",
          "type": "uint256"
        }
      ],
      "name": "userExpires",
      "outputs": [
        {
          "internalType": "uint256",
          "name": "",
          "type": "uint256"
        }
      ],
      "stateMutability": "view",
      "type": "function"
    },
    {
      "inputs": [
        {
          "internalType": "uint256",
          "name": "tokenId",
          "type": "uint256"
        }
      ],
      "name": "userOf",
      "outputs": [
        {
          "internalType": "address",
          "name": "",
          "type": "address"
        }
      ],
      "stateMutability": "view",
      "type": "function"
    },
    {
      "inputs": [],
      "name": "withdraw",
      "outputs": [],
      "stateMutability": "nonpayable",
      "type": "function"
    },
    {
      "inputs": [
        {
          "internalType": "address",
          "name": "erc20Contract",
          "type": "address"
        }
      ],
      "name": "withdrawERC20",
      "outputs": [],
      "stateMutability": "nonpayable",
      "type": "function"
    }
  ],
  "devdoc": {
    "kind": "dev",
    "methods": {
      "approve(address,uint256)": {
        "details": "See {IERC721-approve}."
      },
      "balanceOf(address)": {
        "details": "See {IERC721-balanceOf}."
      },
      "getApproved(uint256)": {
        "details": "See {IERC721-getApproved}."
      },
      "isApprovedForAll(address,address)": {
        "details": "See {IERC721-isApprovedForAll}."
      },
      "name()": {
        "details": "See {IERC721Metadata-name}."
      },
      "owner()": {
        "details": "Returns the address of the current owner."
      },
      "ownerOf(uint256)": {
        "details": "See {IERC721-ownerOf}."
      },
      "renounceOwnership()": {
        "details": "Leaves the contract without owner. It will not be possible to call `onlyOwner` functions anymore. Can only be called by the current owner. NOTE: Renouncing ownership will leave the contract without an owner, thereby removing any functionality that is only available to the owner."
      },
      "safeTransferFrom(address,address,uint256)": {
        "details": "See {IERC721-safeTransferFrom}."
      },
      "safeTransferFrom(address,address,uint256,bytes)": {
        "details": "See {IERC721-safeTransferFrom}."
      },
      "setApprovalForAll(address,bool)": {
        "details": "See {IERC721-setApprovalForAll}."
      },
      "setUser(uint256,address,uint64)": {
        "details": "The zero address indicates there is no user Throws if `tokenId` is not valid NFT",
        "params": {
          "expires": "UNIX timestamp, The new user could use the NFT before expires",
          "user": "The new user of the NFT"
        }
      },
      "supportsInterface(bytes4)": {
        "details": "See {IERC165-supportsInterface}."
      },
      "symbol()": {
        "details": "See {IERC721Metadata-symbol}."
      },
      "tokenURI(uint256)": {
        "details": "See {ERC721Metadata-tokenURI}."
      },
      "transferFrom(address,address,uint256)": {
        "details": "See {IERC721-transferFrom}."
      },
      "transferOwnership(address)": {
        "details": "Transfers ownership of the contract to a new account (`newOwner`). Can only be called by the current owner."
      },
      "userExpires(uint256)": {
        "details": "The zero value indicates that there is no user",
        "params": {
          "tokenId": "The NFT to get the user expires for"
        },
        "returns": {
          "_0": "The user expires for this NFT"
        }
      },
      "userOf(uint256)": {
        "details": "The zero address indicates that there is no user or the user is expired",
        "params": {
          "tokenId": "The NFT to get the user address for"
        },
        "returns": {
          "_0": "The user address for this NFT"
        }
      }
    },
    "version": 1
  },
  "evm": {
    "assembly": "    /* \"SmokleySLounge.sol\":430:7973  contract Solscription is ERC721, IERC4907, Ownable, ReentrancyGuard {... */\n  mstore(0x40, 0x80)\n    /* \"SmokleySLounge.sol\":585:625  bool public subscriptionIsActive = false */\n  0x08\n  dup1\n  sload\n  not(shl(0xa0, 0xffff))\n    /* \"SmokleySLounge.sol\":632:670  bool public membershipIsActive = false */\n  and\n  swap1\n  sstore\n    /* \"SmokleySLounge.sol\":1124:1684  constructor() ERC721(\"SmokleyS Lounge\", \"SSL\") {... */\n  callvalue\n  dup1\n  iszero\n  tag_1\n  jumpi\n  0x00\n  dup1\n  revert\ntag_1:\n  pop\n    /* \"@openzeppelin/contracts/token/ERC721/ERC721.sol\":1390:1503   */\n  mload(0x40)\n  dup1\n  0x40\n  add\n  0x40\n  mstore\n  dup1\n  0x0f\n  dup2\n  mstore\n  0x20\n  add\n  shl(0x88, 0x536d6f6b6c657953204c6f756e6765)\n  dup2\n  mstore\n  pop\n  mload(0x40)\n  dup1\n  0x40\n  add\n  0x40\n  mstore\n  dup1\n  0x03\n  dup2\n  mstore\n  0x20\n  add\n  shl(0xea, 0x14d4d3)\n  dup2\n  mstore\n  pop\n    /* \"@openzeppelin/contracts/token/ERC721/ERC721.sol\":1464:1469   */\n  dup2\n    /* \"@openzeppelin/contracts/token/ERC721/ERC721.sol\":1456:1461   */\n  0x00\n    /* \"@openzeppelin/contracts/token/ERC721/ERC721.sol\":1456:1469   */\n  swap1\n  dup2\n  tag_7\n  swap2\n  swap1\n  tag_8\n  jump\t// in\ntag_7:\n  pop\n    /* \"@openzeppelin/contracts/token/ERC721/ERC721.sol\":1479:1486   */\n  0x01\n    /* \"@openzeppelin/contracts/token/ERC721/ERC721.sol\":1479:1496   */\n  tag_9\n    /* \"@openzeppelin/contracts/token/ERC721/ERC721.sol\":1489:1496   */\n  dup3\n    /* \"@openzeppelin/contracts/token/ERC721/ERC721.sol\":1479:1486   */\n  dup3\n    /* \"@openzeppelin/contracts/token/ERC721/ERC721.sol\":1479:1496   */\n  tag_8\n  jump\t// in\ntag_9:\n  pop\n    /* \"@openzeppelin/contracts/token/ERC721/ERC721.sol\":1390:1503   */\n  pop\n  pop\n    /* \"@openzeppelin/contracts/access/Ownable.sol\":936:968   */\n  tag_11\n    /* \"@openzeppelin/contracts/access/Ownable.sol\":955:967   */\n  tag_12\n    /* \"@openzeppelin/contracts/access/Ownable.sol\":955:965   */\n  shl(0x20, tag_13)\n    /* \"@openzeppelin/contracts/access/Ownable.sol\":955:967   */\n  0x20\n  shr\n  jump\t// in\ntag_12:\n    /* \"@openzeppelin/contracts/access/Ownable.sol\":936:954   */\n  tag_14\n    /* \"@openzeppelin/contracts/access/Ownable.sol\":936:968   */\n  jump\t// in\ntag_11:\n    /* \"@openzeppelin/contracts/security/ReentrancyGuard.sol\":1716:1717   */\n  0x01\n    /* \"@openzeppelin/contracts/security/ReentrancyGuard.sol\":1821:1828   */\n  0x07\n    /* \"@openzeppelin/contracts/security/ReentrancyGuard.sol\":1821:1843   */\n  sstore\n    /* \"SmokleySLounge.sol\":1527:1536  priceFeed */\n  0x08\n    /* \"SmokleySLounge.sol\":1527:1676  priceFeed = AggregatorV3Interface(... */\n  dup1\n  sload\n  not(sub(shl(0xa0, 0x01), 0x01))\n  and\n    /* \"SmokleySLounge.sol\":1575:1617  0x694AA1769357215DE4FAC081bf1f309aDC325306 */\n  0x694aa1769357215de4fac081bf1f309adc325306\n    /* \"SmokleySLounge.sol\":1527:1676  priceFeed = AggregatorV3Interface(... */\n  or\n  swap1\n  sstore\n    /* \"SmokleySLounge.sol\":430:7973  contract Solscription is ERC721, IERC4907, Ownable, ReentrancyGuard {... */\n  jump(tag_25)\n    /* \"@openzeppelin/contracts/utils/Context.sol\":640:736   */\ntag_13:\n    /* \"@openzeppelin/contracts/utils/Context.sol\":719:729   */\n  caller\n  swap1\n    /* \"@openzeppelin/contracts/utils/Context.sol\":640:736   */\n  jump\t// out\n    /* \"@openzeppelin/contracts/access/Ownable.sol\":2433:2620   */\ntag_14:\n    /* \"@openzeppelin/contracts/access/Ownable.sol\":2525:2531   */\n  0x06\n  dup1\n  sload\n  sub(shl(0xa0, 0x01), 0x01)\n    /* \"@openzeppelin/contracts/access/Ownable.sol\":2541:2558   */\n  dup4\n  dup2\n  and\n  not(sub(shl(0xa0, 0x01), 0x01))\n  dup4\n  and\n  dup2\n  or\n  swap1\n  swap4\n  sstore\n    /* \"@openzeppelin/contracts/access/Ownable.sol\":2573:2613   */\n  mload(0x40)\n    /* \"@openzeppelin/contracts/access/Ownable.sol\":2525:2531   */\n  swap2\n  and\n  swap2\n    /* \"@openzeppelin/contracts/access/Ownable.sol\":2541:2558   */\n  swap1\n    /* \"@openzeppelin/contracts/access/Ownable.sol\":2525:2531   */\n  dup3\n  swap1\n    /* \"@openzeppelin/contracts/access/Ownable.sol\":2573:2613   */\n  0x8be0079c531659141344cd1fd0a4f28419497f9722a3daafe3b4186f6b6457e0\n  swap1\n    /* \"@openzeppelin/contracts/access/Ownable.sol\":2506:2522   */\n  0x00\n  swap1\n    /* \"@openzeppelin/contracts/access/Ownable.sol\":2573:2613   */\n  log3\n    /* \"@openzeppelin/contracts/access/Ownable.sol\":2496:2620   */\n  pop\n    /* \"@openzeppelin/contracts/access/Ownable.sol\":2433:2620   */\n  pop\n  jump\t// out\n    /* \"#utility.yul\":14:141   */\ntag_20:\n    /* \"#utility.yul\":75:85   */\n  0x4e487b71\n    /* \"#utility.yul\":70:73   */\n  0xe0\n    /* \"#utility.yul\":66:86   */\n  shl\n    /* \"#utility.yul\":63:64   */\n  0x00\n    /* \"#utility.yul\":56:87   */\n  mstore\n    /* \"#utility.yul\":106:110   */\n  0x41\n    /* \"#utility.yul\":103:104   */\n  0x04\n    /* \"#utility.yul\":96:111   */\n  mstore\n    /* \"#utility.yul\":130:134   */\n  0x24\n    /* \"#utility.yul\":127:128   */\n  0x00\n    /* \"#utility.yul\":120:135   */\n  revert\n    /* \"#utility.yul\":146:526   */\ntag_21:\n    /* \"#utility.yul\":225:226   */\n  0x01\n    /* \"#utility.yul\":221:233   */\n  dup2\n  dup2\n  shr\n  swap1\n    /* \"#utility.yul\":268:280   */\n  dup3\n  and\n  dup1\n    /* \"#utility.yul\":289:350   */\n  tag_28\n  jumpi\n    /* \"#utility.yul\":343:347   */\n  0x7f\n    /* \"#utility.yul\":335:341   */\n  dup3\n    /* \"#utility.yul\":331:348   */\n  and\n    /* \"#utility.yul\":321:348   */\n  swap2\n  pop\n    /* \"#utility.yul\":289:350   */\ntag_28:\n    /* \"#utility.yul\":396:398   */\n  0x20\n    /* \"#utility.yul\":388:394   */\n  dup3\n    /* \"#utility.yul\":385:399   */\n  lt\n    /* \"#utility.yul\":365:383   */\n  dup2\n    /* \"#utility.yul\":362:400   */\n  sub\n    /* \"#utility.yul\":359:520   */\n  tag_29\n  jumpi\n    /* \"#utility.yul\":442:452   */\n  0x4e487b71\n    /* \"#utility.yul\":437:440   */\n  0xe0\n    /* \"#utility.yul\":433:453   */\n  shl\n    /* \"#utility.yul\":430:431   */\n  0x00\n    /* \"#utility.yul\":423:454   */\n  mstore\n    /* \"#utility.yul\":477:481   */\n  0x22\n    /* \"#utility.yul\":474:475   */\n  0x04\n    /* \"#utility.yul\":467:482   */\n  mstore\n    /* \"#utility.yul\":505:509   */\n  0x24\n    /* \"#utility.yul\":502:503   */\n  0x00\n    /* \"#utility.yul\":495:510   */\n  revert\n    /* \"#utility.yul\":359:520   */\ntag_29:\n  pop\n    /* \"#utility.yul\":146:526   */\n  swap2\n  swap1\n  pop\n  jump\t// out\n    /* \"#utility.yul\":657:1202   */\ntag_23:\n    /* \"#utility.yul\":759:761   */\n  0x1f\n    /* \"#utility.yul\":754:757   */\n  dup3\n    /* \"#utility.yul\":751:762   */\n  gt\n    /* \"#utility.yul\":748:1196   */\n  iszero\n  tag_32\n  jumpi\n    /* \"#utility.yul\":795:796   */\n  0x00\n    /* \"#utility.yul\":820:825   */\n  dup2\n    /* \"#utility.yul\":816:818   */\n  dup2\n    /* \"#utility.yul\":809:826   */\n  mstore\n    /* \"#utility.yul\":865:869   */\n  0x20\n    /* \"#utility.yul\":861:863   */\n  dup2\n    /* \"#utility.yul\":851:870   */\n  keccak256\n    /* \"#utility.yul\":935:937   */\n  0x1f\n    /* \"#utility.yul\":923:933   */\n  dup6\n    /* \"#utility.yul\":919:938   */\n  add\n    /* \"#utility.yul\":916:917   */\n  0x05\n    /* \"#utility.yul\":912:939   */\n  shr\n    /* \"#utility.yul\":906:910   */\n  dup2\n    /* \"#utility.yul\":902:940   */\n  add\n    /* \"#utility.yul\":971:975   */\n  0x20\n    /* \"#utility.yul\":959:969   */\n  dup7\n    /* \"#utility.yul\":956:976   */\n  lt\n    /* \"#utility.yul\":953:1000   */\n  iszero\n  tag_33\n  jumpi\n  pop\n    /* \"#utility.yul\":994:998   */\n  dup1\n    /* \"#utility.yul\":953:1000   */\ntag_33:\n    /* \"#utility.yul\":1049:1051   */\n  0x1f\n    /* \"#utility.yul\":1044:1047   */\n  dup6\n    /* \"#utility.yul\":1040:1052   */\n  add\n    /* \"#utility.yul\":1037:1038   */\n  0x05\n    /* \"#utility.yul\":1033:1053   */\n  shr\n    /* \"#utility.yul\":1027:1031   */\n  dup3\n    /* \"#utility.yul\":1023:1054   */\n  add\n    /* \"#utility.yul\":1013:1054   */\n  swap2\n  pop\n    /* \"#utility.yul\":1104:1186   */\ntag_34:\n    /* \"#utility.yul\":1122:1124   */\n  dup2\n    /* \"#utility.yul\":1115:1120   */\n  dup2\n    /* \"#utility.yul\":1112:1125   */\n  lt\n    /* \"#utility.yul\":1104:1186   */\n  iszero\n  tag_36\n  jumpi\n    /* \"#utility.yul\":1167:1184   */\n  dup3\n  dup2\n  sstore\n    /* \"#utility.yul\":1148:1149   */\n  0x01\n    /* \"#utility.yul\":1137:1150   */\n  add\n    /* \"#utility.yul\":1104:1186   */\n  jump(tag_34)\ntag_36:\n    /* \"#utility.yul\":1108:1111   */\n  pop\n  pop\n  pop\n    /* \"#utility.yul\":748:1196   */\ntag_32:\n    /* \"#utility.yul\":657:1202   */\n  pop\n  pop\n  pop\n  jump\t// out\n    /* \"#utility.yul\":1378:2730   */\ntag_8:\n    /* \"#utility.yul\":1498:1508   */\n  dup2\n  mload\n  sub(shl(0x40, 0x01), 0x01)\n    /* \"#utility.yul\":1520:1550   */\n  dup2\n  gt\n    /* \"#utility.yul\":1517:1573   */\n  iszero\n  tag_40\n  jumpi\n    /* \"#utility.yul\":1553:1571   */\n  tag_40\n  tag_20\n  jump\t// in\ntag_40:\n    /* \"#utility.yul\":1582:1679   */\n  tag_41\n    /* \"#utility.yul\":1672:1678   */\n  dup2\n    /* \"#utility.yul\":1632:1670   */\n  tag_42\n    /* \"#utility.yul\":1664:1668   */\n  dup5\n    /* \"#utility.yul\":1658:1669   */\n  sload\n    /* \"#utility.yul\":1632:1670   */\n  tag_21\n  jump\t// in\ntag_42:\n    /* \"#utility.yul\":1626:1630   */\n  dup5\n    /* \"#utility.yul\":1582:1679   */\n  tag_23\n  jump\t// in\ntag_41:\n    /* \"#utility.yul\":1734:1738   */\n  0x20\n  dup1\n    /* \"#utility.yul\":1798:1800   */\n  0x1f\n    /* \"#utility.yul\":1787:1801   */\n  dup4\n  gt\n    /* \"#utility.yul\":1815:1816   */\n  0x01\n    /* \"#utility.yul\":1810:2473   */\n  dup2\n  eq\n  tag_44\n  jumpi\n    /* \"#utility.yul\":2517:2518   */\n  0x00\n    /* \"#utility.yul\":2534:2540   */\n  dup5\n    /* \"#utility.yul\":2531:2620   */\n  iszero\n  tag_45\n  jumpi\n  pop\n    /* \"#utility.yul\":2586:2605   */\n  dup6\n  dup4\n  add\n    /* \"#utility.yul\":2580:2606   */\n  mload\n    /* \"#utility.yul\":2531:2620   */\ntag_45:\n  not(0x00)\n    /* \"#utility.yul\":1335:1336   */\n  0x03\n    /* \"#utility.yul\":1331:1342   */\n  dup7\n  swap1\n  shl\n    /* \"#utility.yul\":1327:1351   */\n  shr\n    /* \"#utility.yul\":1323:1352   */\n  not\n    /* \"#utility.yul\":1313:1353   */\n  and\n    /* \"#utility.yul\":1359:1360   */\n  0x01\n    /* \"#utility.yul\":1355:1366   */\n  dup6\n  swap1\n  shl\n    /* \"#utility.yul\":1310:1367   */\n  or\n    /* \"#utility.yul\":2633:2714   */\n  dup6\n  sstore\n    /* \"#utility.yul\":1780:2724   */\n  jump(tag_36)\n    /* \"#utility.yul\":1810:2473   */\ntag_44:\n    /* \"#utility.yul\":604:605   */\n  0x00\n    /* \"#utility.yul\":597:611   */\n  dup6\n  dup2\n  mstore\n    /* \"#utility.yul\":641:645   */\n  0x20\n    /* \"#utility.yul\":628:646   */\n  dup2\n  keccak256\n  not(0x1f)\n    /* \"#utility.yul\":1846:1866   */\n  dup7\n  and\n  swap2\n    /* \"#utility.yul\":1964:2200   */\ntag_48:\n    /* \"#utility.yul\":1978:1985   */\n  dup3\n    /* \"#utility.yul\":1975:1976   */\n  dup2\n    /* \"#utility.yul\":1972:1986   */\n  lt\n    /* \"#utility.yul\":1964:2200   */\n  iszero\n  tag_50\n  jumpi\n    /* \"#utility.yul\":2067:2086   */\n  dup9\n  dup7\n  add\n    /* \"#utility.yul\":2061:2087   */\n  mload\n    /* \"#utility.yul\":2046:2088   */\n  dup3\n  sstore\n    /* \"#utility.yul\":2159:2186   */\n  swap5\n  dup5\n  add\n  swap5\n    /* \"#utility.yul\":2127:2128   */\n  0x01\n    /* \"#utility.yul\":2115:2129   */\n  swap1\n  swap2\n  add\n  swap1\n    /* \"#utility.yul\":1994:2013   */\n  dup5\n  add\n    /* \"#utility.yul\":1964:2200   */\n  jump(tag_48)\ntag_50:\n    /* \"#utility.yul\":1968:1971   */\n  pop\n    /* \"#utility.yul\":2228:2234   */\n  dup6\n    /* \"#utility.yul\":2219:2226   */\n  dup3\n    /* \"#utility.yul\":2216:2235   */\n  lt\n    /* \"#utility.yul\":2213:2414   */\n  iszero\n  tag_51\n  jumpi\n    /* \"#utility.yul\":2289:2308   */\n  dup8\n  dup6\n  add\n    /* \"#utility.yul\":2283:2309   */\n  mload\n  not(0x00)\n    /* \"#utility.yul\":2372:2373   */\n  0x03\n    /* \"#utility.yul\":2368:2382   */\n  dup9\n  swap1\n  shl\n    /* \"#utility.yul\":2384:2387   */\n  0xf8\n    /* \"#utility.yul\":2364:2388   */\n  and\n    /* \"#utility.yul\":2360:2397   */\n  shr\n    /* \"#utility.yul\":2356:2398   */\n  not\n    /* \"#utility.yul\":2341:2399   */\n  and\n    /* \"#utility.yul\":2326:2400   */\n  dup2\n  sstore\n    /* \"#utility.yul\":2213:2414   */\ntag_51:\n  pop\n  pop\n  pop\n  pop\n  pop\n    /* \"#utility.yul\":2460:2461   */\n  0x01\n    /* \"#utility.yul\":2444:2458   */\n  swap1\n  dup2\n  shl\n    /* \"#utility.yul\":2440:2462   */\n  add\n    /* \"#utility.yul\":2427:2463   */\n  swap1\n  sstore\n  pop\n    /* \"#utility.yul\":1378:2730   */\n  jump\t// out\ntag_25:\n    /* \"SmokleySLounge.sol\":430:7973  contract Solscription is ERC721, IERC4907, Ownable, ReentrancyGuard {... */\n  dataSize(sub_0)\n  dup1\n  dataOffset(sub_0)\n  0x00\n  codecopy\n  0x00\n  return\nstop\n\nsub_0: assembly {\n        /* \"SmokleySLounge.sol\":430:7973  contract Solscription is ERC721, IERC4907, Ownable, ReentrancyGuard {... */\n      mstore(0x40, 0x80)\n      jumpi(tag_1, lt(calldatasize, 0x04))\n      shr(0xe0, calldataload(0x00))\n      dup1\n      0x772ccf5d\n      gt\n      tag_36\n      jumpi\n      dup1\n      0xc2f1f14a\n      gt\n      tag_37\n      jumpi\n      dup1\n      0xe030565e\n      gt\n      tag_38\n      jumpi\n      dup1\n      0xf2fde38b\n      gt\n      tag_39\n      jumpi\n      dup1\n      0xf2fde38b\n      eq\n      tag_33\n      jumpi\n      dup1\n      0xf4f3b200\n      eq\n      tag_34\n      jumpi\n      dup1\n      0xffe0afc7\n      eq\n      tag_35\n      jumpi\n      0x00\n      dup1\n      revert\n    tag_39:\n      dup1\n      0xe030565e\n      eq\n      tag_31\n      jumpi\n      dup1\n      0xe985e9c5\n      eq\n      tag_32\n      jumpi\n      0x00\n      dup1\n      revert\n    tag_38:\n      dup1\n      0xc2f1f14a\n      eq\n      tag_27\n      jumpi\n      dup1\n      0xc657d33f\n      eq\n      tag_28\n      jumpi\n      dup1\n      0xc87b56dd\n      eq\n      tag_29\n      jumpi\n      dup1\n      0xd547cfb7\n      eq\n      tag_30\n      jumpi\n      0x00\n      dup1\n      revert\n    tag_37:\n      dup1\n      0x95d89b41\n      gt\n      tag_40\n      jumpi\n      dup1\n      0x95d89b41\n      eq\n      tag_23\n      jumpi\n      dup1\n      0xa22cb465\n      eq\n      tag_24\n      jumpi\n      dup1\n      0xad567b7d\n      eq\n      tag_25\n      jumpi\n      dup1\n      0xb88d4fde\n      eq\n      tag_26\n      jumpi\n      0x00\n      dup1\n      revert\n    tag_40:\n      dup1\n      0x772ccf5d\n      eq\n      tag_19\n      jumpi\n      dup1\n      0x8da5cb5b\n      eq\n      tag_20\n      jumpi\n      dup1\n      0x8e15f473\n      eq\n      tag_21\n      jumpi\n      dup1\n      0x8fc88c48\n      eq\n      tag_22\n      jumpi\n      0x00\n      dup1\n      revert\n    tag_36:\n      dup1\n      0x3ccfd60b\n      gt\n      tag_41\n      jumpi\n      dup1\n      0x6352211e\n      gt\n      tag_42\n      jumpi\n      dup1\n      0x715018a6\n      gt\n      tag_43\n      jumpi\n      dup1\n      0x715018a6\n      eq\n      tag_16\n      jumpi\n      dup1\n      0x735de366\n      eq\n      tag_17\n      jumpi\n      dup1\n      0x76e92559\n      eq\n      tag_18\n      jumpi\n      0x00\n      dup1\n      revert\n    tag_43:\n      dup1\n      0x6352211e\n      eq\n      tag_14\n      jumpi\n      dup1\n      0x70a08231\n      eq\n      tag_15\n      jumpi\n      0x00\n      dup1\n      revert\n    tag_42:\n      dup1\n      0x3ccfd60b\n      eq\n      tag_10\n      jumpi\n      dup1\n      0x42842e0e\n      eq\n      tag_11\n      jumpi\n      dup1\n      0x5bc10977\n      eq\n      tag_12\n      jumpi\n      dup1\n      0x62a6068f\n      eq\n      tag_13\n      jumpi\n      0x00\n      dup1\n      revert\n    tag_41:\n      dup1\n      0x0aa0a175\n      gt\n      tag_44\n      jumpi\n      dup1\n      0x0aa0a175\n      eq\n      tag_6\n      jumpi\n      dup1\n      0x1829a936\n      eq\n      tag_7\n      jumpi\n      dup1\n      0x23b872dd\n      eq\n      tag_8\n      jumpi\n      dup1\n      0x30176e13\n      eq\n      tag_9\n      jumpi\n      0x00\n      dup1\n      revert\n    tag_44:\n      dup1\n      0x01ffc9a7\n      eq\n      tag_2\n      jumpi\n      dup1\n      0x06fdde03\n      eq\n      tag_3\n      jumpi\n      dup1\n      0x081812fc\n      eq\n      tag_4\n      jumpi\n      dup1\n      0x095ea7b3\n      eq\n      tag_5\n      jumpi\n    tag_1:\n      0x00\n      dup1\n      revert\n        /* \"SmokleySLounge.sol\":7390:7644  function supportsInterface(bytes4 interfaceId) ... */\n    tag_2:\n      callvalue\n      dup1\n      iszero\n      tag_45\n      jumpi\n      0x00\n      dup1\n      revert\n    tag_45:\n      pop\n      tag_46\n      tag_47\n      calldatasize\n      0x04\n      tag_48\n      jump\t// in\n    tag_47:\n      tag_49\n      jump\t// in\n    tag_46:\n      mload(0x40)\n        /* \"#utility.yul\":565:579   */\n      swap1\n      iszero\n        /* \"#utility.yul\":558:580   */\n      iszero\n        /* \"#utility.yul\":540:581   */\n      dup2\n      mstore\n        /* \"#utility.yul\":528:530   */\n      0x20\n        /* \"#utility.yul\":513:531   */\n      add\n        /* \"SmokleySLounge.sol\":7390:7644  function supportsInterface(bytes4 interfaceId) ... */\n    tag_50:\n      mload(0x40)\n      dup1\n      swap2\n      sub\n      swap1\n      return\n        /* \"@openzeppelin/contracts/token/ERC721/ERC721.sol\":2471:2569   */\n    tag_3:\n      callvalue\n      dup1\n      iszero\n      tag_52\n      jumpi\n      0x00\n      dup1\n      revert\n    tag_52:\n      pop\n      tag_53\n      tag_54\n      jump\t// in\n    tag_53:\n      mload(0x40)\n      tag_50\n      swap2\n      swap1\n      tag_56\n      jump\t// in\n        /* \"@openzeppelin/contracts/token/ERC721/ERC721.sol\":3935:4102   */\n    tag_4:\n      callvalue\n      dup1\n      iszero\n      tag_57\n      jumpi\n      0x00\n      dup1\n      revert\n    tag_57:\n      pop\n      tag_58\n      tag_59\n      calldatasize\n      0x04\n      tag_60\n      jump\t// in\n    tag_59:\n      tag_61\n      jump\t// in\n    tag_58:\n      mload(0x40)\n      sub(shl(0xa0, 0x01), 0x01)\n        /* \"#utility.yul\":1697:1752   */\n      swap1\n      swap2\n      and\n        /* \"#utility.yul\":1679:1753   */\n      dup2\n      mstore\n        /* \"#utility.yul\":1667:1669   */\n      0x20\n        /* \"#utility.yul\":1652:1670   */\n      add\n        /* \"@openzeppelin/contracts/token/ERC721/ERC721.sol\":3935:4102   */\n      tag_50\n        /* \"#utility.yul\":1533:1759   */\n      jump\n        /* \"@openzeppelin/contracts/token/ERC721/ERC721.sol\":3468:3874   */\n    tag_5:\n      callvalue\n      dup1\n      iszero\n      tag_64\n      jumpi\n      0x00\n      dup1\n      revert\n    tag_64:\n      pop\n      tag_65\n      tag_66\n      calldatasize\n      0x04\n      tag_67\n      jump\t// in\n    tag_66:\n      tag_68\n      jump\t// in\n    tag_65:\n      stop\n        /* \"SmokleySLounge.sol\":715:745  uint256 public subscriptionFee */\n    tag_6:\n      callvalue\n      dup1\n      iszero\n      tag_69\n      jumpi\n      0x00\n      dup1\n      revert\n    tag_69:\n      pop\n      tag_70\n      sload(0x0a)\n      dup2\n      jump\n    tag_70:\n      mload(0x40)\n        /* \"#utility.yul\":2370:2395   */\n      swap1\n      dup2\n      mstore\n        /* \"#utility.yul\":2358:2360   */\n      0x20\n        /* \"#utility.yul\":2343:2361   */\n      add\n        /* \"SmokleySLounge.sol\":715:745  uint256 public subscriptionFee */\n      tag_50\n        /* \"#utility.yul\":2224:2401   */\n      jump\n        /* \"SmokleySLounge.sol\":632:670  bool public membershipIsActive = false */\n    tag_7:\n      callvalue\n      dup1\n      iszero\n      tag_74\n      jumpi\n      0x00\n      dup1\n      revert\n    tag_74:\n      pop\n      sload(0x08)\n      tag_46\n      swap1\n      shl(0xa8, 0x01)\n      swap1\n      div\n      0xff\n      and\n      dup2\n      jump\n        /* \"@openzeppelin/contracts/token/ERC721/ERC721.sol\":4612:4938   */\n    tag_8:\n      callvalue\n      dup1\n      iszero\n      tag_78\n      jumpi\n      0x00\n      dup1\n      revert\n    tag_78:\n      pop\n      tag_65\n      tag_80\n      calldatasize\n      0x04\n      tag_81\n      jump\t// in\n    tag_80:\n      tag_82\n      jump\t// in\n        /* \"SmokleySLounge.sol\":2727:2857  function setBaseTokenURI(string memory newuri) ... */\n    tag_9:\n      callvalue\n      dup1\n      iszero\n      tag_83\n      jumpi\n      0x00\n      dup1\n      revert\n    tag_83:\n      pop\n      tag_65\n      tag_85\n      calldatasize\n      0x04\n      tag_86\n      jump\t// in\n    tag_85:\n      tag_87\n      jump\t// in\n        /* \"SmokleySLounge.sol\":1732:1950  function withdraw() ... */\n    tag_10:\n      callvalue\n      dup1\n      iszero\n      tag_88\n      jumpi\n      0x00\n      dup1\n      revert\n    tag_88:\n      pop\n      tag_65\n      tag_90\n      jump\t// in\n        /* \"@openzeppelin/contracts/token/ERC721/ERC721.sol\":5004:5183   */\n    tag_11:\n      callvalue\n      dup1\n      iszero\n      tag_91\n      jumpi\n      0x00\n      dup1\n      revert\n    tag_91:\n      pop\n      tag_65\n      tag_93\n      calldatasize\n      0x04\n      tag_81\n      jump\t// in\n    tag_93:\n      tag_94\n      jump\t// in\n        /* \"SmokleySLounge.sol\":3167:3300  function flipMembershipState() ... */\n    tag_12:\n      callvalue\n      dup1\n      iszero\n      tag_95\n      jumpi\n      0x00\n      dup1\n      revert\n    tag_95:\n      pop\n      tag_65\n      tag_97\n      jump\t// in\n        /* \"SmokleySLounge.sol\":3840:4234  function getMembersToken() ... */\n    tag_13:\n      callvalue\n      dup1\n      iszero\n      tag_98\n      jumpi\n      0x00\n      dup1\n      revert\n    tag_98:\n      pop\n      tag_65\n      tag_100\n      jump\t// in\n        /* \"@openzeppelin/contracts/token/ERC721/ERC721.sol\":2190:2409   */\n    tag_14:\n      callvalue\n      dup1\n      iszero\n      tag_101\n      jumpi\n      0x00\n      dup1\n      revert\n    tag_101:\n      pop\n      tag_58\n      tag_103\n      calldatasize\n      0x04\n      tag_60\n      jump\t// in\n    tag_103:\n      tag_104\n      jump\t// in\n        /* \"@openzeppelin/contracts/token/ERC721/ERC721.sol\":1929:2133   */\n    tag_15:\n      callvalue\n      dup1\n      iszero\n      tag_106\n      jumpi\n      0x00\n      dup1\n      revert\n    tag_106:\n      pop\n      tag_70\n      tag_108\n      calldatasize\n      0x04\n      tag_109\n      jump\t// in\n    tag_108:\n      tag_110\n      jump\t// in\n        /* \"@openzeppelin/contracts/access/Ownable.sol\":1831:1932   */\n    tag_16:\n      callvalue\n      dup1\n      iszero\n      tag_112\n      jumpi\n      0x00\n      dup1\n      revert\n    tag_112:\n      pop\n      tag_65\n      tag_114\n      jump\t// in\n        /* \"SmokleySLounge.sol\":585:625  bool public subscriptionIsActive = false */\n    tag_17:\n      callvalue\n      dup1\n      iszero\n      tag_115\n      jumpi\n      0x00\n      dup1\n      revert\n    tag_115:\n      pop\n      sload(0x08)\n      tag_46\n      swap1\n      shl(0xa0, 0x01)\n      swap1\n      div\n      0xff\n      and\n      dup2\n      jump\n        /* \"SmokleySLounge.sol\":802:829  uint256 public totalMembers */\n    tag_18:\n      callvalue\n      dup1\n      iszero\n      tag_119\n      jumpi\n      0x00\n      dup1\n      revert\n    tag_119:\n      pop\n      tag_70\n      sload(0x0b)\n      dup2\n      jump\n        /* \"SmokleySLounge.sol\":1019:1062  mapping (address => bool) public membership */\n    tag_19:\n      callvalue\n      dup1\n      iszero\n      tag_123\n      jumpi\n      0x00\n      dup1\n      revert\n    tag_123:\n      pop\n      tag_46\n      tag_125\n      calldatasize\n      0x04\n      tag_109\n      jump\t// in\n    tag_125:\n      mstore(0x20, 0x0d)\n      0x00\n      swap1\n      dup2\n      mstore\n      0x40\n      swap1\n      keccak256\n      sload\n      0xff\n      and\n      dup2\n      jump\n        /* \"@openzeppelin/contracts/access/Ownable.sol\":1201:1286   */\n    tag_20:\n      callvalue\n      dup1\n      iszero\n      tag_128\n      jumpi\n      0x00\n      dup1\n      revert\n    tag_128:\n      pop\n        /* \"@openzeppelin/contracts/access/Ownable.sol\":1273:1279   */\n      and(sub(shl(0xa0, 0x01), 0x01), sload(0x06))\n        /* \"@openzeppelin/contracts/access/Ownable.sol\":1201:1286   */\n      jump(tag_58)\n        /* \"SmokleySLounge.sol\":3362:3786  function getLatestPrice() ... */\n    tag_21:\n      callvalue\n      dup1\n      iszero\n      tag_132\n      jumpi\n      0x00\n      dup1\n      revert\n    tag_132:\n      pop\n      tag_70\n      tag_134\n      jump\t// in\n        /* \"SmokleySLounge.sol\":6441:6752  function userExpires(uint256 tokenId) ... */\n    tag_22:\n      callvalue\n      dup1\n      iszero\n      tag_137\n      jumpi\n      0x00\n      dup1\n      revert\n    tag_137:\n      pop\n      tag_70\n      tag_139\n      calldatasize\n      0x04\n      tag_60\n      jump\t// in\n    tag_139:\n      tag_140\n      jump\t// in\n        /* \"@openzeppelin/contracts/token/ERC721/ERC721.sol\":2633:2735   */\n    tag_23:\n      callvalue\n      dup1\n      iszero\n      tag_142\n      jumpi\n      0x00\n      dup1\n      revert\n    tag_142:\n      pop\n      tag_53\n      tag_144\n      jump\t// in\n        /* \"@openzeppelin/contracts/token/ERC721/ERC721.sol\":4169:4322   */\n    tag_24:\n      callvalue\n      dup1\n      iszero\n      tag_146\n      jumpi\n      0x00\n      dup1\n      revert\n    tag_146:\n      pop\n      tag_65\n      tag_148\n      calldatasize\n      0x04\n      tag_149\n      jump\t// in\n    tag_148:\n      tag_150\n      jump\t// in\n        /* \"SmokleySLounge.sol\":2938:3077  function flipSubscriptionState() ... */\n    tag_25:\n      callvalue\n      dup1\n      iszero\n      tag_151\n      jumpi\n      0x00\n      dup1\n      revert\n    tag_151:\n      pop\n      tag_65\n      tag_153\n      jump\t// in\n        /* \"@openzeppelin/contracts/token/ERC721/ERC721.sol\":5249:5563   */\n    tag_26:\n      callvalue\n      dup1\n      iszero\n      tag_154\n      jumpi\n      0x00\n      dup1\n      revert\n    tag_154:\n      pop\n      tag_65\n      tag_156\n      calldatasize\n      0x04\n      tag_157\n      jump\t// in\n    tag_156:\n      tag_158\n      jump\t// in\n        /* \"SmokleySLounge.sol\":5914:6217  function userOf(uint256 tokenId) ... */\n    tag_27:\n      callvalue\n      dup1\n      iszero\n      tag_159\n      jumpi\n      0x00\n      dup1\n      revert\n    tag_159:\n      pop\n      tag_58\n      tag_161\n      calldatasize\n      0x04\n      tag_60\n      jump\t// in\n    tag_161:\n      tag_162\n      jump\t// in\n        /* \"SmokleySLounge.sol\":679:708  uint256 public maxMonthlySubs */\n    tag_28:\n      callvalue\n      dup1\n      iszero\n      tag_164\n      jumpi\n      0x00\n      dup1\n      revert\n    tag_164:\n      pop\n      tag_70\n      sload(0x09)\n      dup2\n      jump\n        /* \"SmokleySLounge.sol\":6848:7173  function tokenURI(uint256 tokenId) ... */\n    tag_29:\n      callvalue\n      dup1\n      iszero\n      tag_168\n      jumpi\n      0x00\n      dup1\n      revert\n    tag_168:\n      pop\n      tag_53\n      tag_170\n      calldatasize\n      0x04\n      tag_60\n      jump\t// in\n    tag_170:\n      tag_171\n      jump\t// in\n        /* \"SmokleySLounge.sol\":838:864  string public baseTokenURI */\n    tag_30:\n      callvalue\n      dup1\n      iszero\n      tag_173\n      jumpi\n      0x00\n      dup1\n      revert\n    tag_173:\n      pop\n      tag_53\n      tag_175\n      jump\t// in\n        /* \"SmokleySLounge.sol\":4541:5665  function setUser(uint256 tokenId, address user, uint64 expires) ... */\n    tag_31:\n      tag_65\n      tag_178\n      calldatasize\n      0x04\n      tag_179\n      jump\t// in\n    tag_178:\n      tag_180\n      jump\t// in\n        /* \"@openzeppelin/contracts/token/ERC721/ERC721.sol\":4388:4550   */\n    tag_32:\n      callvalue\n      dup1\n      iszero\n      tag_181\n      jumpi\n      0x00\n      dup1\n      revert\n    tag_181:\n      pop\n      tag_46\n      tag_183\n      calldatasize\n      0x04\n      tag_184\n      jump\t// in\n    tag_183:\n      sub(shl(0xa0, 0x01), 0x01)\n        /* \"@openzeppelin/contracts/token/ERC721/ERC721.sol\":4508:4533   */\n      swap2\n      dup3\n      and\n        /* \"@openzeppelin/contracts/token/ERC721/ERC721.sol\":4485:4489   */\n      0x00\n        /* \"@openzeppelin/contracts/token/ERC721/ERC721.sol\":4508:4533   */\n      swap1\n      dup2\n      mstore\n        /* \"@openzeppelin/contracts/token/ERC721/ERC721.sol\":4508:4526   */\n      0x05\n        /* \"@openzeppelin/contracts/token/ERC721/ERC721.sol\":4508:4533   */\n      0x20\n      swap1\n      dup2\n      mstore\n      0x40\n      dup1\n      dup4\n      keccak256\n        /* \"@openzeppelin/contracts/token/ERC721/ERC721.sol\":4508:4543   */\n      swap4\n      swap1\n      swap5\n      and\n      dup3\n      mstore\n      swap2\n      swap1\n      swap2\n      mstore\n      keccak256\n      sload\n      0xff\n      and\n      swap1\n        /* \"@openzeppelin/contracts/token/ERC721/ERC721.sol\":4388:4550   */\n      jump\n        /* \"@openzeppelin/contracts/access/Ownable.sol\":2081:2279   */\n    tag_33:\n      callvalue\n      dup1\n      iszero\n      tag_187\n      jumpi\n      0x00\n      dup1\n      revert\n    tag_187:\n      pop\n      tag_65\n      tag_189\n      calldatasize\n      0x04\n      tag_109\n      jump\t// in\n    tag_189:\n      tag_190\n      jump\t// in\n        /* \"SmokleySLounge.sol\":1958:2348  function withdrawERC20(address erc20Contract) ... */\n    tag_34:\n      callvalue\n      dup1\n      iszero\n      tag_191\n      jumpi\n      0x00\n      dup1\n      revert\n    tag_191:\n      pop\n      tag_65\n      tag_193\n      calldatasize\n      0x04\n      tag_109\n      jump\t// in\n    tag_193:\n      tag_194\n      jump\t// in\n        /* \"SmokleySLounge.sol\":2450:2674  function setFeesMaxMonth(uint256 newSubscriptionFee,  uint256 newMaxMonthlySubs) ... */\n    tag_35:\n      callvalue\n      dup1\n      iszero\n      tag_195\n      jumpi\n      0x00\n      dup1\n      revert\n    tag_195:\n      pop\n      tag_65\n      tag_197\n      calldatasize\n      0x04\n      tag_198\n      jump\t// in\n    tag_197:\n      tag_199\n      jump\t// in\n        /* \"SmokleySLounge.sol\":7390:7644  function supportsInterface(bytes4 interfaceId) ... */\n    tag_49:\n        /* \"SmokleySLounge.sol\":7525:7529  bool */\n      0x00\n      not(sub(shl(0xe0, 0x01), 0x01))\n        /* \"SmokleySLounge.sol\":7555:7596  interfaceId == type(IERC4907).interfaceId */\n      dup3\n      and\n      shl(0xe2, 0x2b424ad7)\n      eq\n      dup1\n        /* \"SmokleySLounge.sol\":7555:7636  interfaceId == type(IERC4907).interfaceId || super.supportsInterface(interfaceId) */\n      tag_202\n      jumpi\n      pop\n        /* \"SmokleySLounge.sol\":7600:7636  super.supportsInterface(interfaceId) */\n      tag_202\n        /* \"SmokleySLounge.sol\":7624:7635  interfaceId */\n      dup3\n        /* \"SmokleySLounge.sol\":7600:7623  super.supportsInterface */\n      tag_203\n        /* \"SmokleySLounge.sol\":7600:7636  super.supportsInterface(interfaceId) */\n      jump\t// in\n    tag_202:\n        /* \"SmokleySLounge.sol\":7548:7636  return interfaceId == type(IERC4907).interfaceId || super.supportsInterface(interfaceId) */\n      swap3\n        /* \"SmokleySLounge.sol\":7390:7644  function supportsInterface(bytes4 interfaceId) ... */\n      swap2\n      pop\n      pop\n      jump\t// out\n        /* \"@openzeppelin/contracts/token/ERC721/ERC721.sol\":2471:2569   */\n    tag_54:\n        /* \"@openzeppelin/contracts/token/ERC721/ERC721.sol\":2525:2538   */\n      0x60\n        /* \"@openzeppelin/contracts/token/ERC721/ERC721.sol\":2557:2562   */\n      0x00\n        /* \"@openzeppelin/contracts/token/ERC721/ERC721.sol\":2550:2562   */\n      dup1\n      sload\n      tag_205\n      swap1\n      tag_206\n      jump\t// in\n    tag_205:\n      dup1\n      0x1f\n      add\n      0x20\n      dup1\n      swap2\n      div\n      mul\n      0x20\n      add\n      mload(0x40)\n      swap1\n      dup2\n      add\n      0x40\n      mstore\n      dup1\n      swap3\n      swap2\n      swap1\n      dup2\n      dup2\n      mstore\n      0x20\n      add\n      dup3\n      dup1\n      sload\n      tag_207\n      swap1\n      tag_206\n      jump\t// in\n    tag_207:\n      dup1\n      iszero\n      tag_208\n      jumpi\n      dup1\n      0x1f\n      lt\n      tag_209\n      jumpi\n      0x0100\n      dup1\n      dup4\n      sload\n      div\n      mul\n      dup4\n      mstore\n      swap2\n      0x20\n      add\n      swap2\n      jump(tag_208)\n    tag_209:\n      dup3\n      add\n      swap2\n      swap1\n      0x00\n      mstore\n      keccak256(0x00, 0x20)\n      swap1\n    tag_210:\n      dup2\n      sload\n      dup2\n      mstore\n      swap1\n      0x01\n      add\n      swap1\n      0x20\n      add\n      dup1\n      dup4\n      gt\n      tag_210\n      jumpi\n      dup3\n      swap1\n      sub\n      0x1f\n      and\n      dup3\n      add\n      swap2\n    tag_208:\n      pop\n      pop\n      pop\n      pop\n      pop\n      swap1\n      pop\n        /* \"@openzeppelin/contracts/token/ERC721/ERC721.sol\":2471:2569   */\n      swap1\n      jump\t// out\n        /* \"@openzeppelin/contracts/token/ERC721/ERC721.sol\":3935:4102   */\n    tag_61:\n        /* \"@openzeppelin/contracts/token/ERC721/ERC721.sol\":4011:4018   */\n      0x00\n        /* \"@openzeppelin/contracts/token/ERC721/ERC721.sol\":4030:4053   */\n      tag_212\n        /* \"@openzeppelin/contracts/token/ERC721/ERC721.sol\":4045:4052   */\n      dup3\n        /* \"@openzeppelin/contracts/token/ERC721/ERC721.sol\":4030:4044   */\n      tag_213\n        /* \"@openzeppelin/contracts/token/ERC721/ERC721.sol\":4030:4053   */\n      jump\t// in\n    tag_212:\n      pop\n        /* \"@openzeppelin/contracts/token/ERC721/ERC721.sol\":4071:4095   */\n      0x00\n      swap1\n      dup2\n      mstore\n        /* \"@openzeppelin/contracts/token/ERC721/ERC721.sol\":4071:4086   */\n      0x04\n        /* \"@openzeppelin/contracts/token/ERC721/ERC721.sol\":4071:4095   */\n      0x20\n      mstore\n      0x40\n      swap1\n      keccak256\n      sload\n      sub(shl(0xa0, 0x01), 0x01)\n      and\n      swap1\n        /* \"@openzeppelin/contracts/token/ERC721/ERC721.sol\":3935:4102   */\n      jump\t// out\n        /* \"@openzeppelin/contracts/token/ERC721/ERC721.sol\":3468:3874   */\n    tag_68:\n        /* \"@openzeppelin/contracts/token/ERC721/ERC721.sol\":3548:3561   */\n      0x00\n        /* \"@openzeppelin/contracts/token/ERC721/ERC721.sol\":3564:3587   */\n      tag_215\n        /* \"@openzeppelin/contracts/token/ERC721/ERC721.sol\":3579:3586   */\n      dup3\n        /* \"@openzeppelin/contracts/token/ERC721/ERC721.sol\":3564:3578   */\n      tag_104\n        /* \"@openzeppelin/contracts/token/ERC721/ERC721.sol\":3564:3587   */\n      jump\t// in\n    tag_215:\n        /* \"@openzeppelin/contracts/token/ERC721/ERC721.sol\":3548:3587   */\n      swap1\n      pop\n        /* \"@openzeppelin/contracts/token/ERC721/ERC721.sol\":3611:3616   */\n      dup1\n      sub(shl(0xa0, 0x01), 0x01)\n        /* \"@openzeppelin/contracts/token/ERC721/ERC721.sol\":3605:3616   */\n      and\n        /* \"@openzeppelin/contracts/token/ERC721/ERC721.sol\":3605:3607   */\n      dup4\n      sub(shl(0xa0, 0x01), 0x01)\n        /* \"@openzeppelin/contracts/token/ERC721/ERC721.sol\":3605:3616   */\n      and\n      sub\n        /* \"@openzeppelin/contracts/token/ERC721/ERC721.sol\":3597:3654   */\n      tag_216\n      jumpi\n      mload(0x40)\n      shl(0xe5, 0x461bcd)\n      dup2\n      mstore\n        /* \"#utility.yul\":6986:6988   */\n      0x20\n        /* \"@openzeppelin/contracts/token/ERC721/ERC721.sol\":3597:3654   */\n      0x04\n      dup3\n      add\n        /* \"#utility.yul\":6968:6989   */\n      mstore\n        /* \"#utility.yul\":7025:7027   */\n      0x21\n        /* \"#utility.yul\":7005:7023   */\n      0x24\n      dup3\n      add\n        /* \"#utility.yul\":6998:7028   */\n      mstore\n        /* \"#utility.yul\":7064:7098   */\n      0x4552433732313a20617070726f76616c20746f2063757272656e74206f776e65\n        /* \"#utility.yul\":7044:7062   */\n      0x44\n      dup3\n      add\n        /* \"#utility.yul\":7037:7099   */\n      mstore\n      shl(0xf9, 0x39)\n        /* \"#utility.yul\":7115:7133   */\n      0x64\n      dup3\n      add\n        /* \"#utility.yul\":7108:7139   */\n      mstore\n        /* \"#utility.yul\":7156:7175   */\n      0x84\n      add\n        /* \"@openzeppelin/contracts/token/ERC721/ERC721.sol\":3597:3654   */\n    tag_217:\n      mload(0x40)\n      dup1\n      swap2\n      sub\n      swap1\n      revert\n    tag_216:\n        /* \"@openzeppelin/contracts/utils/Context.sol\":719:729   */\n      caller\n      sub(shl(0xa0, 0x01), 0x01)\n        /* \"@openzeppelin/contracts/token/ERC721/ERC721.sol\":3686:3707   */\n      dup3\n      and\n      eq\n      dup1\n        /* \"@openzeppelin/contracts/token/ERC721/ERC721.sol\":3686:3748   */\n      tag_222\n      jumpi\n      pop\n      sub(shl(0xa0, 0x01), 0x01)\n        /* \"@openzeppelin/contracts/token/ERC721/ERC721.sol\":4508:4533   */\n      dup2\n      and\n        /* \"@openzeppelin/contracts/token/ERC721/ERC721.sol\":4485:4489   */\n      0x00\n        /* \"@openzeppelin/contracts/token/ERC721/ERC721.sol\":4508:4533   */\n      swap1\n      dup2\n      mstore\n        /* \"@openzeppelin/contracts/token/ERC721/ERC721.sol\":4508:4526   */\n      0x05\n        /* \"@openzeppelin/contracts/token/ERC721/ERC721.sol\":4508:4533   */\n      0x20\n      swap1\n      dup2\n      mstore\n      0x40\n      dup1\n      dup4\n      keccak256\n        /* \"@openzeppelin/contracts/utils/Context.sol\":719:729   */\n      caller\n        /* \"@openzeppelin/contracts/token/ERC721/ERC721.sol\":4508:4543   */\n      dup5\n      mstore\n      swap1\n      swap2\n      mstore\n      swap1\n      keccak256\n      sload\n      0xff\n      and\n        /* \"@openzeppelin/contracts/token/ERC721/ERC721.sol\":3711:3748   */\n    tag_222:\n        /* \"@openzeppelin/contracts/token/ERC721/ERC721.sol\":3665:3835   */\n      tag_224\n      jumpi\n      mload(0x40)\n      shl(0xe5, 0x461bcd)\n      dup2\n      mstore\n        /* \"#utility.yul\":7388:7390   */\n      0x20\n        /* \"@openzeppelin/contracts/token/ERC721/ERC721.sol\":3665:3835   */\n      0x04\n      dup3\n      add\n        /* \"#utility.yul\":7370:7391   */\n      mstore\n        /* \"#utility.yul\":7427:7429   */\n      0x3d\n        /* \"#utility.yul\":7407:7425   */\n      0x24\n      dup3\n      add\n        /* \"#utility.yul\":7400:7430   */\n      mstore\n        /* \"#utility.yul\":7466:7500   */\n      0x4552433732313a20617070726f76652063616c6c6572206973206e6f7420746f\n        /* \"#utility.yul\":7446:7464   */\n      0x44\n      dup3\n      add\n        /* \"#utility.yul\":7439:7501   */\n      mstore\n        /* \"#utility.yul\":7537:7568   */\n      0x6b656e206f776e6572206f7220617070726f76656420666f7220616c6c000000\n        /* \"#utility.yul\":7517:7535   */\n      0x64\n      dup3\n      add\n        /* \"#utility.yul\":7510:7569   */\n      mstore\n        /* \"#utility.yul\":7586:7605   */\n      0x84\n      add\n        /* \"@openzeppelin/contracts/token/ERC721/ERC721.sol\":3665:3835   */\n      tag_217\n        /* \"#utility.yul\":7186:7611   */\n      jump\n        /* \"@openzeppelin/contracts/token/ERC721/ERC721.sol\":3665:3835   */\n    tag_224:\n        /* \"@openzeppelin/contracts/token/ERC721/ERC721.sol\":3846:3867   */\n      tag_227\n        /* \"@openzeppelin/contracts/token/ERC721/ERC721.sol\":3855:3857   */\n      dup4\n        /* \"@openzeppelin/contracts/token/ERC721/ERC721.sol\":3859:3866   */\n      dup4\n        /* \"@openzeppelin/contracts/token/ERC721/ERC721.sol\":3846:3854   */\n      tag_228\n        /* \"@openzeppelin/contracts/token/ERC721/ERC721.sol\":3846:3867   */\n      jump\t// in\n    tag_227:\n        /* \"@openzeppelin/contracts/token/ERC721/ERC721.sol\":3538:3874   */\n      pop\n        /* \"@openzeppelin/contracts/token/ERC721/ERC721.sol\":3468:3874   */\n      pop\n      pop\n      jump\t// out\n        /* \"@openzeppelin/contracts/token/ERC721/ERC721.sol\":4612:4938   */\n    tag_82:\n        /* \"@openzeppelin/contracts/token/ERC721/ERC721.sol\":4801:4842   */\n      tag_230\n        /* \"@openzeppelin/contracts/utils/Context.sol\":719:729   */\n      caller\n        /* \"@openzeppelin/contracts/token/ERC721/ERC721.sol\":4834:4841   */\n      dup3\n        /* \"@openzeppelin/contracts/token/ERC721/ERC721.sol\":4801:4819   */\n      tag_232\n        /* \"@openzeppelin/contracts/token/ERC721/ERC721.sol\":4801:4842   */\n      jump\t// in\n    tag_230:\n        /* \"@openzeppelin/contracts/token/ERC721/ERC721.sol\":4793:4892   */\n      tag_233\n      jumpi\n      mload(0x40)\n      shl(0xe5, 0x461bcd)\n      dup2\n      mstore\n        /* \"#utility.yul\":7818:7820   */\n      0x20\n        /* \"@openzeppelin/contracts/token/ERC721/ERC721.sol\":4793:4892   */\n      0x04\n      dup3\n      add\n        /* \"#utility.yul\":7800:7821   */\n      mstore\n        /* \"#utility.yul\":7857:7859   */\n      0x2d\n        /* \"#utility.yul\":7837:7855   */\n      0x24\n      dup3\n      add\n        /* \"#utility.yul\":7830:7860   */\n      mstore\n        /* \"#utility.yul\":7896:7930   */\n      0x4552433732313a2063616c6c6572206973206e6f7420746f6b656e206f776e65\n        /* \"#utility.yul\":7876:7894   */\n      0x44\n      dup3\n      add\n        /* \"#utility.yul\":7869:7931   */\n      mstore\n      shl(0x9a, 0x1c881bdc88185c1c1c9bdd9959)\n        /* \"#utility.yul\":7947:7965   */\n      0x64\n      dup3\n      add\n        /* \"#utility.yul\":7940:7983   */\n      mstore\n        /* \"#utility.yul\":8000:8019   */\n      0x84\n      add\n        /* \"@openzeppelin/contracts/token/ERC721/ERC721.sol\":4793:4892   */\n      tag_217\n        /* \"#utility.yul\":7616:8025   */\n      jump\n        /* \"@openzeppelin/contracts/token/ERC721/ERC721.sol\":4793:4892   */\n    tag_233:\n        /* \"@openzeppelin/contracts/token/ERC721/ERC721.sol\":4903:4931   */\n      tag_227\n        /* \"@openzeppelin/contracts/token/ERC721/ERC721.sol\":4913:4917   */\n      dup4\n        /* \"@openzeppelin/contracts/token/ERC721/ERC721.sol\":4919:4921   */\n      dup4\n        /* \"@openzeppelin/contracts/token/ERC721/ERC721.sol\":4923:4930   */\n      dup4\n        /* \"@openzeppelin/contracts/token/ERC721/ERC721.sol\":4903:4912   */\n      tag_237\n        /* \"@openzeppelin/contracts/token/ERC721/ERC721.sol\":4903:4931   */\n      jump\t// in\n        /* \"SmokleySLounge.sol\":2727:2857  function setBaseTokenURI(string memory newuri) ... */\n    tag_87:\n        /* \"@openzeppelin/contracts/access/Ownable.sol\":1094:1107   */\n      tag_239\n        /* \"@openzeppelin/contracts/access/Ownable.sol\":1094:1105   */\n      tag_240\n        /* \"@openzeppelin/contracts/access/Ownable.sol\":1094:1107   */\n      jump\t// in\n    tag_239:\n        /* \"SmokleySLounge.sol\":2828:2840  baseTokenURI */\n      0x0c\n        /* \"SmokleySLounge.sol\":2828:2849  baseTokenURI = newuri */\n      tag_242\n        /* \"SmokleySLounge.sol\":2843:2849  newuri */\n      dup3\n        /* \"SmokleySLounge.sol\":2828:2840  baseTokenURI */\n      dup3\n        /* \"SmokleySLounge.sol\":2828:2849  baseTokenURI = newuri */\n      tag_243\n      jump\t// in\n    tag_242:\n      pop\n        /* \"SmokleySLounge.sol\":2727:2857  function setBaseTokenURI(string memory newuri) ... */\n      pop\n      jump\t// out\n        /* \"SmokleySLounge.sol\":1732:1950  function withdraw() ... */\n    tag_90:\n        /* \"@openzeppelin/contracts/access/Ownable.sol\":1094:1107   */\n      tag_245\n        /* \"@openzeppelin/contracts/access/Ownable.sol\":1094:1105   */\n      tag_240\n        /* \"@openzeppelin/contracts/access/Ownable.sol\":1094:1107   */\n      jump\t// in\n    tag_245:\n        /* \"@openzeppelin/contracts/security/ReentrancyGuard.sol\":2261:2282   */\n      tag_247\n        /* \"@openzeppelin/contracts/security/ReentrancyGuard.sol\":2261:2280   */\n      tag_248\n        /* \"@openzeppelin/contracts/security/ReentrancyGuard.sol\":2261:2282   */\n      jump\t// in\n    tag_247:\n        /* \"SmokleySLounge.sol\":1831:1843  bool success */\n      0x00\n        /* \"SmokleySLounge.sol\":1849:1856  owner() */\n      tag_250\n        /* \"@openzeppelin/contracts/access/Ownable.sol\":1273:1279   */\n      and(sub(shl(0xa0, 0x01), 0x01), sload(0x06))\n      swap1\n        /* \"@openzeppelin/contracts/access/Ownable.sol\":1201:1286   */\n      jump\n        /* \"SmokleySLounge.sol\":1849:1856  owner() */\n    tag_250:\n      sub(shl(0xa0, 0x01), 0x01)\n        /* \"SmokleySLounge.sol\":1849:1861  owner().call */\n      and\n        /* \"SmokleySLounge.sol\":1869:1890  address(this).balance */\n      selfbalance\n        /* \"SmokleySLounge.sol\":1849:1895  owner().call{value: address(this).balance}(\"\") */\n      mload(0x40)\n      0x00\n      mload(0x40)\n      dup1\n      dup4\n      sub\n      dup2\n      dup6\n      dup8\n      gas\n      call\n      swap3\n      pop\n      pop\n      pop\n      returndatasize\n      dup1\n      0x00\n      dup2\n      eq\n      tag_255\n      jumpi\n      mload(0x40)\n      swap2\n      pop\n      and(add(returndatasize, 0x3f), not(0x1f))\n      dup3\n      add\n      0x40\n      mstore\n      returndatasize\n      dup3\n      mstore\n      returndatasize\n      0x00\n      0x20\n      dup5\n      add\n      returndatacopy\n      jump(tag_254)\n    tag_255:\n      0x60\n      swap2\n      pop\n    tag_254:\n      pop\n        /* \"SmokleySLounge.sol\":1830:1895  (bool success, ) = owner().call{value: address(this).balance}(\"\") */\n      pop\n      swap1\n      pop\n        /* \"SmokleySLounge.sol\":1915:1922  success */\n      dup1\n        /* \"SmokleySLounge.sol\":1907:1942  require(success, \"Transfer failed\") */\n      tag_256\n      jumpi\n      mload(0x40)\n      shl(0xe5, 0x461bcd)\n      dup2\n      mstore\n        /* \"#utility.yul\":10646:10648   */\n      0x20\n        /* \"SmokleySLounge.sol\":1907:1942  require(success, \"Transfer failed\") */\n      0x04\n      dup3\n      add\n        /* \"#utility.yul\":10628:10649   */\n      mstore\n        /* \"#utility.yul\":10685:10687   */\n      0x0f\n        /* \"#utility.yul\":10665:10683   */\n      0x24\n      dup3\n      add\n        /* \"#utility.yul\":10658:10688   */\n      mstore\n      shl(0x8a, 0x151c985b9cd9995c8819985a5b1959)\n        /* \"#utility.yul\":10704:10722   */\n      0x44\n      dup3\n      add\n        /* \"#utility.yul\":10697:10742   */\n      mstore\n        /* \"#utility.yul\":10759:10777   */\n      0x64\n      add\n        /* \"SmokleySLounge.sol\":1907:1942  require(success, \"Transfer failed\") */\n      tag_217\n        /* \"#utility.yul\":10444:10783   */\n      jump\n        /* \"SmokleySLounge.sol\":1907:1942  require(success, \"Transfer failed\") */\n    tag_256:\n        /* \"SmokleySLounge.sol\":1819:1950  {... */\n      pop\n        /* \"@openzeppelin/contracts/security/ReentrancyGuard.sol\":2303:2323   */\n      tag_259\n        /* \"@openzeppelin/contracts/security/ReentrancyGuard.sol\":1716:1717   */\n      0x01\n        /* \"@openzeppelin/contracts/security/ReentrancyGuard.sol\":2809:2816   */\n      0x07\n        /* \"@openzeppelin/contracts/security/ReentrancyGuard.sol\":2809:2831   */\n      sstore\n        /* \"@openzeppelin/contracts/security/ReentrancyGuard.sol\":2629:2838   */\n      jump\n        /* \"@openzeppelin/contracts/security/ReentrancyGuard.sol\":2303:2323   */\n    tag_259:\n        /* \"SmokleySLounge.sol\":1732:1950  function withdraw() ... */\n      jump\t// out\n        /* \"@openzeppelin/contracts/token/ERC721/ERC721.sol\":5004:5183   */\n    tag_94:\n        /* \"@openzeppelin/contracts/token/ERC721/ERC721.sol\":5137:5176   */\n      tag_227\n        /* \"@openzeppelin/contracts/token/ERC721/ERC721.sol\":5154:5158   */\n      dup4\n        /* \"@openzeppelin/contracts/token/ERC721/ERC721.sol\":5160:5162   */\n      dup4\n        /* \"@openzeppelin/contracts/token/ERC721/ERC721.sol\":5164:5171   */\n      dup4\n        /* \"@openzeppelin/contracts/token/ERC721/ERC721.sol\":5137:5176   */\n      mload(0x40)\n      dup1\n      0x20\n      add\n      0x40\n      mstore\n      dup1\n      0x00\n      dup2\n      mstore\n      pop\n        /* \"@openzeppelin/contracts/token/ERC721/ERC721.sol\":5137:5153   */\n      tag_158\n        /* \"@openzeppelin/contracts/token/ERC721/ERC721.sol\":5137:5176   */\n      jump\t// in\n        /* \"SmokleySLounge.sol\":3167:3300  function flipMembershipState() ... */\n    tag_97:\n        /* \"@openzeppelin/contracts/access/Ownable.sol\":1094:1107   */\n      tag_264\n        /* \"@openzeppelin/contracts/access/Ownable.sol\":1094:1105   */\n      tag_240\n        /* \"@openzeppelin/contracts/access/Ownable.sol\":1094:1107   */\n      jump\t// in\n    tag_264:\n        /* \"SmokleySLounge.sol\":3274:3292  membershipIsActive */\n      0x08\n      dup1\n      sload\n        /* \"SmokleySLounge.sol\":3252:3292  membershipIsActive = !membershipIsActive */\n      0xffffffffffffffffffff00ffffffffffffffffffffffffffffffffffffffffff\n      dup2\n      and\n      shl(0xa8, 0x01)\n        /* \"SmokleySLounge.sol\":3274:3292  membershipIsActive */\n      swap2\n      dup3\n      swap1\n      div\n      0xff\n      and\n        /* \"SmokleySLounge.sol\":3273:3292  !membershipIsActive */\n      iszero\n        /* \"SmokleySLounge.sol\":3252:3292  membershipIsActive = !membershipIsActive */\n      swap1\n      swap2\n      mul\n      or\n      swap1\n      sstore\n        /* \"SmokleySLounge.sol\":3167:3300  function flipMembershipState() ... */\n      jump\t// out\n        /* \"SmokleySLounge.sol\":3840:4234  function getMembersToken() ... */\n    tag_100:\n        /* \"@openzeppelin/contracts/security/ReentrancyGuard.sol\":2261:2282   */\n      tag_267\n        /* \"@openzeppelin/contracts/security/ReentrancyGuard.sol\":2261:2280   */\n      tag_248\n        /* \"@openzeppelin/contracts/security/ReentrancyGuard.sol\":2261:2282   */\n      jump\t// in\n    tag_267:\n        /* \"SmokleySLounge.sol\":3932:3950  membershipIsActive */\n      sload(0x08)\n      shl(0xa8, 0x01)\n      swap1\n      div\n      0xff\n      and\n        /* \"SmokleySLounge.sol\":3924:3972  require(membershipIsActive, \"membership closed\") */\n      tag_269\n      jumpi\n      mload(0x40)\n      shl(0xe5, 0x461bcd)\n      dup2\n      mstore\n        /* \"#utility.yul\":10990:10992   */\n      0x20\n        /* \"SmokleySLounge.sol\":3924:3972  require(membershipIsActive, \"membership closed\") */\n      0x04\n      dup3\n      add\n        /* \"#utility.yul\":10972:10993   */\n      mstore\n        /* \"#utility.yul\":11029:11031   */\n      0x11\n        /* \"#utility.yul\":11009:11027   */\n      0x24\n      dup3\n      add\n        /* \"#utility.yul\":11002:11032   */\n      mstore\n        /* \"#utility.yul\":11068:11087   */\n      0x6d656d6265727368697020636c6f736564000000000000000000000000000000\n        /* \"#utility.yul\":11048:11066   */\n      0x44\n      dup3\n      add\n        /* \"#utility.yul\":11041:11088   */\n      mstore\n        /* \"#utility.yul\":11105:11123   */\n      0x64\n      add\n        /* \"SmokleySLounge.sol\":3924:3972  require(membershipIsActive, \"membership closed\") */\n      tag_217\n        /* \"#utility.yul\":10788:11129   */\n      jump\n        /* \"SmokleySLounge.sol\":3924:3972  require(membershipIsActive, \"membership closed\") */\n    tag_269:\n        /* \"SmokleySLounge.sol\":4003:4013  msg.sender */\n      caller\n        /* \"SmokleySLounge.sol\":3992:4014  membership[msg.sender] */\n      0x00\n      swap1\n      dup2\n      mstore\n        /* \"SmokleySLounge.sol\":3992:4002  membership */\n      0x0d\n        /* \"SmokleySLounge.sol\":3992:4014  membership[msg.sender] */\n      0x20\n      mstore\n      0x40\n      swap1\n      keccak256\n      sload\n      0xff\n      and\n        /* \"SmokleySLounge.sol\":3991:4014  !membership[msg.sender] */\n      iszero\n        /* \"SmokleySLounge.sol\":3983:4048  require(!membership[msg.sender], \"already have membership token\") */\n      tag_272\n      jumpi\n      mload(0x40)\n      shl(0xe5, 0x461bcd)\n      dup2\n      mstore\n        /* \"#utility.yul\":11336:11338   */\n      0x20\n        /* \"SmokleySLounge.sol\":3983:4048  require(!membership[msg.sender], \"already have membership token\") */\n      0x04\n      dup3\n      add\n        /* \"#utility.yul\":11318:11339   */\n      mstore\n        /* \"#utility.yul\":11375:11377   */\n      0x1d\n        /* \"#utility.yul\":11355:11373   */\n      0x24\n      dup3\n      add\n        /* \"#utility.yul\":11348:11378   */\n      mstore\n        /* \"#utility.yul\":11414:11445   */\n      0x616c72656164792068617665206d656d6265727368697020746f6b656e000000\n        /* \"#utility.yul\":11394:11412   */\n      0x44\n      dup3\n      add\n        /* \"#utility.yul\":11387:11446   */\n      mstore\n        /* \"#utility.yul\":11463:11481   */\n      0x64\n      add\n        /* \"SmokleySLounge.sol\":3983:4048  require(!membership[msg.sender], \"already have membership token\") */\n      tag_217\n        /* \"#utility.yul\":11134:11487   */\n      jump\n        /* \"SmokleySLounge.sol\":3983:4048  require(!membership[msg.sender], \"already have membership token\") */\n    tag_272:\n        /* \"SmokleySLounge.sol\":4079:4091  totalMembers */\n      sload(0x0b)\n        /* \"SmokleySLounge.sol\":4106:4136  _safeMint(msg.sender, tokenId) */\n      tag_275\n        /* \"SmokleySLounge.sol\":4116:4126  msg.sender */\n      caller\n        /* \"SmokleySLounge.sol\":4079:4091  totalMembers */\n      dup3\n        /* \"SmokleySLounge.sol\":4106:4115  _safeMint */\n      tag_276\n        /* \"SmokleySLounge.sol\":4106:4136  _safeMint(msg.sender, tokenId) */\n      jump\t// in\n    tag_275:\n        /* \"SmokleySLounge.sol\":4173:4174  1 */\n      0x01\n        /* \"SmokleySLounge.sol\":4157:4169  totalMembers */\n      0x0b\n      0x00\n        /* \"SmokleySLounge.sol\":4157:4174  totalMembers += 1 */\n      dup3\n      dup3\n      sload\n      tag_277\n      swap2\n      swap1\n      tag_278\n      jump\t// in\n    tag_277:\n      swap1\n      swap2\n      sstore\n      pop\n      pop\n        /* \"SmokleySLounge.sol\":4196:4206  msg.sender */\n      caller\n        /* \"SmokleySLounge.sol\":4185:4207  membership[msg.sender] */\n      0x00\n      swap1\n      dup2\n      mstore\n        /* \"SmokleySLounge.sol\":4185:4195  membership */\n      0x0d\n        /* \"SmokleySLounge.sol\":4185:4207  membership[msg.sender] */\n      0x20\n      mstore\n      0x40\n      swap1\n      keccak256\n        /* \"SmokleySLounge.sol\":4185:4214  membership[msg.sender] = true */\n      dup1\n      sload\n      not(0xff)\n      and\n        /* \"SmokleySLounge.sol\":4210:4214  true */\n      0x01\n        /* \"SmokleySLounge.sol\":4185:4214  membership[msg.sender] = true */\n      or\n      swap1\n      sstore\n      pop\n        /* \"@openzeppelin/contracts/security/ReentrancyGuard.sol\":2303:2323   */\n      tag_259\n        /* \"@openzeppelin/contracts/security/ReentrancyGuard.sol\":1716:1717   */\n      0x01\n        /* \"@openzeppelin/contracts/security/ReentrancyGuard.sol\":2809:2816   */\n      0x07\n        /* \"@openzeppelin/contracts/security/ReentrancyGuard.sol\":2809:2831   */\n      sstore\n        /* \"@openzeppelin/contracts/security/ReentrancyGuard.sol\":2629:2838   */\n      jump\n        /* \"@openzeppelin/contracts/token/ERC721/ERC721.sol\":2190:2409   */\n    tag_104:\n        /* \"@openzeppelin/contracts/token/ERC721/ERC721.sol\":2262:2269   */\n      0x00\n        /* \"@openzeppelin/contracts/token/ERC721/ERC721.sol\":6930:6946   */\n      dup2\n      dup2\n      mstore\n        /* \"@openzeppelin/contracts/token/ERC721/ERC721.sol\":6930:6937   */\n      0x02\n        /* \"@openzeppelin/contracts/token/ERC721/ERC721.sol\":6930:6946   */\n      0x20\n      mstore\n      0x40\n      dup2\n      keccak256\n      sload\n      sub(shl(0xa0, 0x01), 0x01)\n      and\n      dup1\n        /* \"@openzeppelin/contracts/token/ERC721/ERC721.sol\":2324:2380   */\n      tag_202\n      jumpi\n      mload(0x40)\n      shl(0xe5, 0x461bcd)\n      dup2\n      mstore\n        /* \"#utility.yul\":11956:11958   */\n      0x20\n        /* \"@openzeppelin/contracts/token/ERC721/ERC721.sol\":2324:2380   */\n      0x04\n      dup3\n      add\n        /* \"#utility.yul\":11938:11959   */\n      mstore\n        /* \"#utility.yul\":11995:11997   */\n      0x18\n        /* \"#utility.yul\":11975:11993   */\n      0x24\n      dup3\n      add\n        /* \"#utility.yul\":11968:11998   */\n      mstore\n        /* \"#utility.yul\":12034:12060   */\n      0x4552433732313a20696e76616c696420746f6b656e2049440000000000000000\n        /* \"#utility.yul\":12014:12032   */\n      0x44\n      dup3\n      add\n        /* \"#utility.yul\":12007:12061   */\n      mstore\n        /* \"#utility.yul\":12078:12096   */\n      0x64\n      add\n        /* \"@openzeppelin/contracts/token/ERC721/ERC721.sol\":2324:2380   */\n      tag_217\n        /* \"#utility.yul\":11754:12102   */\n      jump\n        /* \"@openzeppelin/contracts/token/ERC721/ERC721.sol\":1929:2133   */\n    tag_110:\n        /* \"@openzeppelin/contracts/token/ERC721/ERC721.sol\":2001:2008   */\n      0x00\n      sub(shl(0xa0, 0x01), 0x01)\n        /* \"@openzeppelin/contracts/token/ERC721/ERC721.sol\":2028:2047   */\n      dup3\n      and\n        /* \"@openzeppelin/contracts/token/ERC721/ERC721.sol\":2020:2093   */\n      tag_287\n      jumpi\n      mload(0x40)\n      shl(0xe5, 0x461bcd)\n      dup2\n      mstore\n        /* \"#utility.yul\":12309:12311   */\n      0x20\n        /* \"@openzeppelin/contracts/token/ERC721/ERC721.sol\":2020:2093   */\n      0x04\n      dup3\n      add\n        /* \"#utility.yul\":12291:12312   */\n      mstore\n        /* \"#utility.yul\":12348:12350   */\n      0x29\n        /* \"#utility.yul\":12328:12346   */\n      0x24\n      dup3\n      add\n        /* \"#utility.yul\":12321:12351   */\n      mstore\n        /* \"#utility.yul\":12387:12421   */\n      0x4552433732313a2061646472657373207a65726f206973206e6f742061207661\n        /* \"#utility.yul\":12367:12385   */\n      0x44\n      dup3\n      add\n        /* \"#utility.yul\":12360:12422   */\n      mstore\n        /* \"#utility.yul\":12458:12469   */\n      0x6c6964206f776e65720000000000000000000000000000000000000000000000\n        /* \"#utility.yul\":12438:12456   */\n      0x64\n      dup3\n      add\n        /* \"#utility.yul\":12431:12470   */\n      mstore\n        /* \"#utility.yul\":12487:12506   */\n      0x84\n      add\n        /* \"@openzeppelin/contracts/token/ERC721/ERC721.sol\":2020:2093   */\n      tag_217\n        /* \"#utility.yul\":12107:12512   */\n      jump\n        /* \"@openzeppelin/contracts/token/ERC721/ERC721.sol\":2020:2093   */\n    tag_287:\n      pop\n      sub(shl(0xa0, 0x01), 0x01)\n        /* \"@openzeppelin/contracts/token/ERC721/ERC721.sol\":2110:2126   */\n      and\n      0x00\n      swap1\n      dup2\n      mstore\n        /* \"@openzeppelin/contracts/token/ERC721/ERC721.sol\":2110:2119   */\n      0x03\n        /* \"@openzeppelin/contracts/token/ERC721/ERC721.sol\":2110:2126   */\n      0x20\n      mstore\n      0x40\n      swap1\n      keccak256\n      sload\n      swap1\n        /* \"@openzeppelin/contracts/token/ERC721/ERC721.sol\":1929:2133   */\n      jump\t// out\n        /* \"@openzeppelin/contracts/access/Ownable.sol\":1831:1932   */\n    tag_114:\n        /* \"@openzeppelin/contracts/access/Ownable.sol\":1094:1107   */\n      tag_291\n        /* \"@openzeppelin/contracts/access/Ownable.sol\":1094:1105   */\n      tag_240\n        /* \"@openzeppelin/contracts/access/Ownable.sol\":1094:1107   */\n      jump\t// in\n    tag_291:\n        /* \"@openzeppelin/contracts/access/Ownable.sol\":1895:1925   */\n      tag_259\n        /* \"@openzeppelin/contracts/access/Ownable.sol\":1922:1923   */\n      0x00\n        /* \"@openzeppelin/contracts/access/Ownable.sol\":1895:1913   */\n      tag_294\n        /* \"@openzeppelin/contracts/access/Ownable.sol\":1895:1925   */\n      jump\t// in\n        /* \"SmokleySLounge.sol\":3362:3786  function getLatestPrice() ... */\n    tag_134:\n        /* \"SmokleySLounge.sol\":3439:3442  int */\n      0x00\n        /* \"SmokleySLounge.sol\":3545:3559  int etherPrice */\n      dup1\n        /* \"SmokleySLounge.sol\":3680:3689  priceFeed */\n      0x08\n      0x00\n      swap1\n      sload\n      swap1\n      0x0100\n      exp\n      swap1\n      div\n      sub(shl(0xa0, 0x01), 0x01)\n      and\n      sub(shl(0xa0, 0x01), 0x01)\n        /* \"SmokleySLounge.sol\":3680:3705  priceFeed.latestRoundData */\n      and\n      0xfeaf968c\n        /* \"SmokleySLounge.sol\":3680:3707  priceFeed.latestRoundData() */\n      mload(0x40)\n      dup2\n      0xffffffff\n      and\n      0xe0\n      shl\n      dup2\n      mstore\n      0x04\n      add\n      0xa0\n      mload(0x40)\n      dup1\n      dup4\n      sub\n      dup2\n      dup7\n      gas\n      staticcall\n      iszero\n      dup1\n      iszero\n      tag_298\n      jumpi\n      returndatasize\n      0x00\n      dup1\n      returndatacopy\n      revert(0x00, returndatasize)\n    tag_298:\n      pop\n      pop\n      pop\n      pop\n      mload(0x40)\n      returndatasize\n      not(0x1f)\n      0x1f\n      dup3\n      add\n      and\n      dup3\n      add\n      dup1\n      0x40\n      mstore\n      pop\n      dup2\n      add\n      swap1\n      tag_299\n      swap2\n      swap1\n      tag_300\n      jump\t// in\n    tag_299:\n        /* \"SmokleySLounge.sol\":3495:3707  (... */\n      pop\n      pop\n      pop\n      swap2\n      pop\n      pop\n        /* \"SmokleySLounge.sol\":3761:3776  subscriptionFee */\n      sload(0x0a)\n        /* \"SmokleySLounge.sol\":3746:3756  etherPrice */\n      dup2\n        /* \"SmokleySLounge.sol\":3746:3777  etherPrice/int(subscriptionFee) */\n      tag_301\n      swap2\n      swap1\n      tag_302\n      jump\t// in\n    tag_301:\n        /* \"SmokleySLounge.sol\":3725:3778  1000000000000000000/(etherPrice/int(subscriptionFee)) */\n      tag_303\n      swap1\n        /* \"SmokleySLounge.sol\":3725:3744  1000000000000000000 */\n      0x0de0b6b3a7640000\n        /* \"SmokleySLounge.sol\":3725:3778  1000000000000000000/(etherPrice/int(subscriptionFee)) */\n      tag_302\n      jump\t// in\n    tag_303:\n        /* \"SmokleySLounge.sol\":3718:3778  return 1000000000000000000/(etherPrice/int(subscriptionFee)) */\n      swap2\n      pop\n      pop\n        /* \"SmokleySLounge.sol\":3362:3786  function getLatestPrice() ... */\n      swap1\n      jump\t// out\n        /* \"SmokleySLounge.sol\":6441:6752  function userExpires(uint256 tokenId) ... */\n    tag_140:\n        /* \"SmokleySLounge.sol\":6547:6554  uint256 */\n      0x00\n        /* \"SmokleySLounge.sol\":6584:6599  _users[tokenId] */\n      dup2\n      dup2\n      mstore\n        /* \"SmokleySLounge.sol\":6584:6590  _users */\n      0x0e\n        /* \"SmokleySLounge.sol\":6584:6599  _users[tokenId] */\n      0x20\n      mstore\n      0x40\n      dup2\n      keccak256\n        /* \"SmokleySLounge.sol\":6584:6607  _users[tokenId].expires */\n      sload\n        /* \"SmokleySLounge.sol\":6613:6628  block.timestamp */\n      timestamp\n      shl(0xa0, 0x01)\n        /* \"SmokleySLounge.sol\":6584:6607  _users[tokenId].expires */\n      swap1\n      swap2\n      div\n      0xffffffffffffffff\n      and\n        /* \"SmokleySLounge.sol\":6576:6628  uint256(_users[tokenId].expires) >=  block.timestamp */\n      lt\n        /* \"SmokleySLounge.sol\":6572:6745  if( uint256(_users[tokenId].expires) >=  block.timestamp){... */\n      tag_305\n      jumpi\n      pop\n        /* \"SmokleySLounge.sol\":6652:6667  _users[tokenId] */\n      0x00\n      swap1\n      dup2\n      mstore\n        /* \"SmokleySLounge.sol\":6652:6658  _users */\n      0x0e\n        /* \"SmokleySLounge.sol\":6652:6667  _users[tokenId] */\n      0x20\n      mstore\n      0x40\n      swap1\n      keccak256\n        /* \"SmokleySLounge.sol\":6652:6675  _users[tokenId].expires */\n      sload\n      shl(0xa0, 0x01)\n      swap1\n      div\n      0xffffffffffffffff\n      and\n      swap1\n        /* \"SmokleySLounge.sol\":6441:6752  function userExpires(uint256 tokenId) ... */\n      jump\t// out\n        /* \"SmokleySLounge.sol\":6572:6745  if( uint256(_users[tokenId].expires) >=  block.timestamp){... */\n    tag_305:\n      pop\n        /* \"SmokleySLounge.sol\":6731:6732  0 */\n      0x00\n      swap2\n        /* \"SmokleySLounge.sol\":6441:6752  function userExpires(uint256 tokenId) ... */\n      swap1\n      pop\n      jump\t// out\n        /* \"SmokleySLounge.sol\":6572:6745  if( uint256(_users[tokenId].expires) >=  block.timestamp){... */\n    tag_306:\n        /* \"SmokleySLounge.sol\":6441:6752  function userExpires(uint256 tokenId) ... */\n      swap2\n      swap1\n      pop\n      jump\t// out\n        /* \"@openzeppelin/contracts/token/ERC721/ERC721.sol\":2633:2735   */\n    tag_144:\n        /* \"@openzeppelin/contracts/token/ERC721/ERC721.sol\":2689:2702   */\n      0x60\n        /* \"@openzeppelin/contracts/token/ERC721/ERC721.sol\":2721:2728   */\n      0x01\n        /* \"@openzeppelin/contracts/token/ERC721/ERC721.sol\":2714:2728   */\n      dup1\n      sload\n      tag_205\n      swap1\n      tag_206\n      jump\t// in\n        /* \"@openzeppelin/contracts/token/ERC721/ERC721.sol\":4169:4322   */\n    tag_150:\n        /* \"@openzeppelin/contracts/token/ERC721/ERC721.sol\":4263:4315   */\n      tag_242\n        /* \"@openzeppelin/contracts/utils/Context.sol\":719:729   */\n      caller\n        /* \"@openzeppelin/contracts/token/ERC721/ERC721.sol\":4296:4304   */\n      dup4\n        /* \"@openzeppelin/contracts/token/ERC721/ERC721.sol\":4306:4314   */\n      dup4\n        /* \"@openzeppelin/contracts/token/ERC721/ERC721.sol\":4263:4281   */\n      tag_316\n        /* \"@openzeppelin/contracts/token/ERC721/ERC721.sol\":4263:4315   */\n      jump\t// in\n        /* \"SmokleySLounge.sol\":2938:3077  function flipSubscriptionState() ... */\n    tag_153:\n        /* \"@openzeppelin/contracts/access/Ownable.sol\":1094:1107   */\n      tag_318\n        /* \"@openzeppelin/contracts/access/Ownable.sol\":1094:1105   */\n      tag_240\n        /* \"@openzeppelin/contracts/access/Ownable.sol\":1094:1107   */\n      jump\t// in\n    tag_318:\n        /* \"SmokleySLounge.sol\":3049:3069  subscriptionIsActive */\n      0x08\n      dup1\n      sload\n        /* \"SmokleySLounge.sol\":3025:3069  subscriptionIsActive = !subscriptionIsActive */\n      0xffffffffffffffffffffff00ffffffffffffffffffffffffffffffffffffffff\n      dup2\n      and\n      shl(0xa0, 0x01)\n        /* \"SmokleySLounge.sol\":3049:3069  subscriptionIsActive */\n      swap2\n      dup3\n      swap1\n      div\n      0xff\n      and\n        /* \"SmokleySLounge.sol\":3048:3069  !subscriptionIsActive */\n      iszero\n        /* \"SmokleySLounge.sol\":3025:3069  subscriptionIsActive = !subscriptionIsActive */\n      swap1\n      swap2\n      mul\n      or\n      swap1\n      sstore\n        /* \"SmokleySLounge.sol\":2938:3077  function flipSubscriptionState() ... */\n      jump\t// out\n        /* \"@openzeppelin/contracts/token/ERC721/ERC721.sol\":5249:5563   */\n    tag_158:\n        /* \"@openzeppelin/contracts/token/ERC721/ERC721.sol\":5417:5458   */\n      tag_321\n        /* \"@openzeppelin/contracts/utils/Context.sol\":719:729   */\n      caller\n        /* \"@openzeppelin/contracts/token/ERC721/ERC721.sol\":5450:5457   */\n      dup4\n        /* \"@openzeppelin/contracts/token/ERC721/ERC721.sol\":5417:5435   */\n      tag_232\n        /* \"@openzeppelin/contracts/token/ERC721/ERC721.sol\":5417:5458   */\n      jump\t// in\n    tag_321:\n        /* \"@openzeppelin/contracts/token/ERC721/ERC721.sol\":5409:5508   */\n      tag_323\n      jumpi\n      mload(0x40)\n      shl(0xe5, 0x461bcd)\n      dup2\n      mstore\n        /* \"#utility.yul\":7818:7820   */\n      0x20\n        /* \"@openzeppelin/contracts/token/ERC721/ERC721.sol\":5409:5508   */\n      0x04\n      dup3\n      add\n        /* \"#utility.yul\":7800:7821   */\n      mstore\n        /* \"#utility.yul\":7857:7859   */\n      0x2d\n        /* \"#utility.yul\":7837:7855   */\n      0x24\n      dup3\n      add\n        /* \"#utility.yul\":7830:7860   */\n      mstore\n        /* \"#utility.yul\":7896:7930   */\n      0x4552433732313a2063616c6c6572206973206e6f7420746f6b656e206f776e65\n        /* \"#utility.yul\":7876:7894   */\n      0x44\n      dup3\n      add\n        /* \"#utility.yul\":7869:7931   */\n      mstore\n      shl(0x9a, 0x1c881bdc88185c1c1c9bdd9959)\n        /* \"#utility.yul\":7947:7965   */\n      0x64\n      dup3\n      add\n        /* \"#utility.yul\":7940:7983   */\n      mstore\n        /* \"#utility.yul\":8000:8019   */\n      0x84\n      add\n        /* \"@openzeppelin/contracts/token/ERC721/ERC721.sol\":5409:5508   */\n      tag_217\n        /* \"#utility.yul\":7616:8025   */\n      jump\n        /* \"@openzeppelin/contracts/token/ERC721/ERC721.sol\":5409:5508   */\n    tag_323:\n        /* \"@openzeppelin/contracts/token/ERC721/ERC721.sol\":5518:5556   */\n      tag_325\n        /* \"@openzeppelin/contracts/token/ERC721/ERC721.sol\":5532:5536   */\n      dup5\n        /* \"@openzeppelin/contracts/token/ERC721/ERC721.sol\":5538:5540   */\n      dup5\n        /* \"@openzeppelin/contracts/token/ERC721/ERC721.sol\":5542:5549   */\n      dup5\n        /* \"@openzeppelin/contracts/token/ERC721/ERC721.sol\":5551:5555   */\n      dup5\n        /* \"@openzeppelin/contracts/token/ERC721/ERC721.sol\":5518:5531   */\n      tag_326\n        /* \"@openzeppelin/contracts/token/ERC721/ERC721.sol\":5518:5556   */\n      jump\t// in\n    tag_325:\n        /* \"@openzeppelin/contracts/token/ERC721/ERC721.sol\":5249:5563   */\n      pop\n      pop\n      pop\n      pop\n      jump\t// out\n        /* \"SmokleySLounge.sol\":5914:6217  function userOf(uint256 tokenId) ... */\n    tag_162:\n        /* \"SmokleySLounge.sol\":6015:6022  address */\n      0x00\n        /* \"SmokleySLounge.sol\":6052:6067  _users[tokenId] */\n      dup2\n      dup2\n      mstore\n        /* \"SmokleySLounge.sol\":6052:6058  _users */\n      0x0e\n        /* \"SmokleySLounge.sol\":6052:6067  _users[tokenId] */\n      0x20\n      mstore\n      0x40\n      dup2\n      keccak256\n        /* \"SmokleySLounge.sol\":6052:6075  _users[tokenId].expires */\n      sload\n        /* \"SmokleySLounge.sol\":6081:6096  block.timestamp */\n      timestamp\n      shl(0xa0, 0x01)\n        /* \"SmokleySLounge.sol\":6052:6075  _users[tokenId].expires */\n      swap1\n      swap2\n      div\n      0xffffffffffffffff\n      and\n        /* \"SmokleySLounge.sol\":6044:6096  uint256(_users[tokenId].expires) >=  block.timestamp */\n      lt\n        /* \"SmokleySLounge.sol\":6040:6210  if( uint256(_users[tokenId].expires) >=  block.timestamp){... */\n      tag_305\n      jumpi\n      pop\n        /* \"SmokleySLounge.sol\":6120:6135  _users[tokenId] */\n      0x00\n      swap1\n      dup2\n      mstore\n        /* \"SmokleySLounge.sol\":6120:6126  _users */\n      0x0e\n        /* \"SmokleySLounge.sol\":6120:6135  _users[tokenId] */\n      0x20\n      mstore\n      0x40\n      swap1\n      keccak256\n        /* \"SmokleySLounge.sol\":6120:6140  _users[tokenId].user */\n      sload\n      sub(shl(0xa0, 0x01), 0x01)\n      and\n      swap1\n        /* \"SmokleySLounge.sol\":5914:6217  function userOf(uint256 tokenId) ... */\n      jump\t// out\n        /* \"SmokleySLounge.sol\":6848:7173  function tokenURI(uint256 tokenId) ... */\n    tag_171:\n        /* \"@openzeppelin/contracts/token/ERC721/ERC721.sol\":7321:7325   */\n      0x00\n        /* \"@openzeppelin/contracts/token/ERC721/ERC721.sol\":6930:6946   */\n      dup2\n      dup2\n      mstore\n        /* \"@openzeppelin/contracts/token/ERC721/ERC721.sol\":6930:6937   */\n      0x02\n        /* \"@openzeppelin/contracts/token/ERC721/ERC721.sol\":6930:6946   */\n      0x20\n      mstore\n      0x40\n      swap1\n      keccak256\n      sload\n        /* \"SmokleySLounge.sol\":6953:6966  string memory */\n      0x60\n      swap1\n      sub(shl(0xa0, 0x01), 0x01)\n        /* \"@openzeppelin/contracts/token/ERC721/ERC721.sol\":6930:6946   */\n      and\n        /* \"SmokleySLounge.sol\":6985:7031  require(_exists(tokenId), \"nonexistent token\") */\n      tag_333\n      jumpi\n      mload(0x40)\n      shl(0xe5, 0x461bcd)\n      dup2\n      mstore\n        /* \"#utility.yul\":13808:13810   */\n      0x20\n        /* \"SmokleySLounge.sol\":6985:7031  require(_exists(tokenId), \"nonexistent token\") */\n      0x04\n      dup3\n      add\n        /* \"#utility.yul\":13790:13811   */\n      mstore\n        /* \"#utility.yul\":13847:13849   */\n      0x11\n        /* \"#utility.yul\":13827:13845   */\n      0x24\n      dup3\n      add\n        /* \"#utility.yul\":13820:13850   */\n      mstore\n        /* \"#utility.yul\":13886:13905   */\n      0x6e6f6e6578697374656e7420746f6b656e000000000000000000000000000000\n        /* \"#utility.yul\":13866:13884   */\n      0x44\n      dup3\n      add\n        /* \"#utility.yul\":13859:13906   */\n      mstore\n        /* \"#utility.yul\":13923:13941   */\n      0x64\n      add\n        /* \"SmokleySLounge.sol\":6985:7031  require(_exists(tokenId), \"nonexistent token\") */\n      tag_217\n        /* \"#utility.yul\":13606:13947   */\n      jump\n        /* \"SmokleySLounge.sol\":6985:7031  require(_exists(tokenId), \"nonexistent token\") */\n    tag_333:\n        /* \"SmokleySLounge.sol\":7044:7065  string memory baseURI */\n      0x00\n        /* \"SmokleySLounge.sol\":7068:7078  _baseURI() */\n      tag_336\n        /* \"SmokleySLounge.sol\":7068:7076  _baseURI */\n      tag_337\n        /* \"SmokleySLounge.sol\":7068:7078  _baseURI() */\n      jump\t// in\n    tag_336:\n        /* \"SmokleySLounge.sol\":7044:7078  string memory baseURI = _baseURI() */\n      swap1\n      pop\n        /* \"SmokleySLounge.sol\":7120:7127  baseURI */\n      dup1\n        /* \"SmokleySLounge.sol\":7129:7154  Strings.toString(tokenId) */\n      tag_338\n        /* \"SmokleySLounge.sol\":7146:7153  tokenId */\n      dup5\n        /* \"SmokleySLounge.sol\":7129:7145  Strings.toString */\n      tag_339\n        /* \"SmokleySLounge.sol\":7129:7154  Strings.toString(tokenId) */\n      jump\t// in\n    tag_338:\n        /* \"SmokleySLounge.sol\":7103:7164  abi.encodePacked(baseURI, Strings.toString(tokenId), \".json\") */\n      add(0x20, mload(0x40))\n      tag_340\n      swap3\n      swap2\n      swap1\n      tag_341\n      jump\t// in\n    tag_340:\n      mload(0x40)\n      0x20\n      dup2\n      dup4\n      sub\n      sub\n      dup2\n      mstore\n      swap1\n      0x40\n      mstore\n        /* \"SmokleySLounge.sol\":7089:7165  return string(abi.encodePacked(baseURI, Strings.toString(tokenId), \".json\")) */\n      swap2\n      pop\n      pop\n        /* \"SmokleySLounge.sol\":6848:7173  function tokenURI(uint256 tokenId) ... */\n      swap2\n      swap1\n      pop\n      jump\t// out\n        /* \"SmokleySLounge.sol\":838:864  string public baseTokenURI */\n    tag_175:\n      0x0c\n      dup1\n      sload\n      tag_342\n      swap1\n      tag_206\n      jump\t// in\n    tag_342:\n      dup1\n      0x1f\n      add\n      0x20\n      dup1\n      swap2\n      div\n      mul\n      0x20\n      add\n      mload(0x40)\n      swap1\n      dup2\n      add\n      0x40\n      mstore\n      dup1\n      swap3\n      swap2\n      swap1\n      dup2\n      dup2\n      mstore\n      0x20\n      add\n      dup3\n      dup1\n      sload\n      tag_343\n      swap1\n      tag_206\n      jump\t// in\n    tag_343:\n      dup1\n      iszero\n      tag_344\n      jumpi\n      dup1\n      0x1f\n      lt\n      tag_345\n      jumpi\n      0x0100\n      dup1\n      dup4\n      sload\n      div\n      mul\n      dup4\n      mstore\n      swap2\n      0x20\n      add\n      swap2\n      jump(tag_344)\n    tag_345:\n      dup3\n      add\n      swap2\n      swap1\n      0x00\n      mstore\n      keccak256(0x00, 0x20)\n      swap1\n    tag_346:\n      dup2\n      sload\n      dup2\n      mstore\n      swap1\n      0x01\n      add\n      swap1\n      0x20\n      add\n      dup1\n      dup4\n      gt\n      tag_346\n      jumpi\n      dup3\n      swap1\n      sub\n      0x1f\n      and\n      dup3\n      add\n      swap2\n    tag_344:\n      pop\n      pop\n      pop\n      pop\n      pop\n      dup2\n      jump\t// out\n        /* \"SmokleySLounge.sol\":4541:5665  function setUser(uint256 tokenId, address user, uint64 expires) ... */\n    tag_180:\n        /* \"@openzeppelin/contracts/security/ReentrancyGuard.sol\":2261:2282   */\n      tag_348\n        /* \"@openzeppelin/contracts/security/ReentrancyGuard.sol\":2261:2280   */\n      tag_248\n        /* \"@openzeppelin/contracts/security/ReentrancyGuard.sol\":2261:2282   */\n      jump\t// in\n    tag_348:\n        /* \"SmokleySLounge.sol\":4704:4743  _isApprovedOrOwner(msg.sender, tokenId) */\n      tag_350\n        /* \"SmokleySLounge.sol\":4723:4733  msg.sender */\n      caller\n        /* \"SmokleySLounge.sol\":4735:4742  tokenId */\n      dup5\n        /* \"SmokleySLounge.sol\":4704:4722  _isApprovedOrOwner */\n      tag_232\n        /* \"SmokleySLounge.sol\":4704:4743  _isApprovedOrOwner(msg.sender, tokenId) */\n      jump\t// in\n    tag_350:\n        /* \"SmokleySLounge.sol\":4696:4773  require(_isApprovedOrOwner(msg.sender, tokenId), \"yo! Cant do that shit lol\") */\n      tag_351\n      jumpi\n      mload(0x40)\n      shl(0xe5, 0x461bcd)\n      dup2\n      mstore\n        /* \"#utility.yul\":14822:14824   */\n      0x20\n        /* \"SmokleySLounge.sol\":4696:4773  require(_isApprovedOrOwner(msg.sender, tokenId), \"yo! Cant do that shit lol\") */\n      0x04\n      dup3\n      add\n        /* \"#utility.yul\":14804:14825   */\n      mstore\n        /* \"#utility.yul\":14861:14863   */\n      0x19\n        /* \"#utility.yul\":14841:14859   */\n      0x24\n      dup3\n      add\n        /* \"#utility.yul\":14834:14864   */\n      mstore\n        /* \"#utility.yul\":14900:14927   */\n      0x796f212043616e7420646f20746861742073686974206c6f6c00000000000000\n        /* \"#utility.yul\":14880:14898   */\n      0x44\n      dup3\n      add\n        /* \"#utility.yul\":14873:14928   */\n      mstore\n        /* \"#utility.yul\":14945:14963   */\n      0x64\n      add\n        /* \"SmokleySLounge.sol\":4696:4773  require(_isApprovedOrOwner(msg.sender, tokenId), \"yo! Cant do that shit lol\") */\n      tag_217\n        /* \"#utility.yul\":14620:14969   */\n      jump\n        /* \"SmokleySLounge.sol\":4696:4773  require(_isApprovedOrOwner(msg.sender, tokenId), \"yo! Cant do that shit lol\") */\n    tag_351:\n        /* \"SmokleySLounge.sol\":4812:4816  user */\n      dup2\n      sub(shl(0xa0, 0x01), 0x01)\n        /* \"SmokleySLounge.sol\":4792:4816  ownerOf(tokenId) == user */\n      and\n        /* \"SmokleySLounge.sol\":4792:4808  ownerOf(tokenId) */\n      tag_354\n        /* \"SmokleySLounge.sol\":4800:4807  tokenId */\n      dup5\n        /* \"SmokleySLounge.sol\":4792:4799  ownerOf */\n      tag_104\n        /* \"SmokleySLounge.sol\":4792:4808  ownerOf(tokenId) */\n      jump\t// in\n    tag_354:\n      sub(shl(0xa0, 0x01), 0x01)\n        /* \"SmokleySLounge.sol\":4792:4816  ownerOf(tokenId) == user */\n      and\n      eq\n        /* \"SmokleySLounge.sol\":4784:4839  require(ownerOf(tokenId) == user, \"owner must be user\") */\n      tag_355\n      jumpi\n      mload(0x40)\n      shl(0xe5, 0x461bcd)\n      dup2\n      mstore\n        /* \"#utility.yul\":15176:15178   */\n      0x20\n        /* \"SmokleySLounge.sol\":4784:4839  require(ownerOf(tokenId) == user, \"owner must be user\") */\n      0x04\n      dup3\n      add\n        /* \"#utility.yul\":15158:15179   */\n      mstore\n        /* \"#utility.yul\":15215:15217   */\n      0x12\n        /* \"#utility.yul\":15195:15213   */\n      0x24\n      dup3\n      add\n        /* \"#utility.yul\":15188:15218   */\n      mstore\n        /* \"#utility.yul\":15254:15274   */\n      0x6f776e6572206d75737420626520757365720000000000000000000000000000\n        /* \"#utility.yul\":15234:15252   */\n      0x44\n      dup3\n      add\n        /* \"#utility.yul\":15227:15275   */\n      mstore\n        /* \"#utility.yul\":15292:15310   */\n      0x64\n      add\n        /* \"SmokleySLounge.sol\":4784:4839  require(ownerOf(tokenId) == user, \"owner must be user\") */\n      tag_217\n        /* \"#utility.yul\":14974:15316   */\n      jump\n        /* \"SmokleySLounge.sol\":4784:4839  require(ownerOf(tokenId) == user, \"owner must be user\") */\n    tag_355:\n        /* \"SmokleySLounge.sol\":4858:4878  subscriptionIsActive */\n      sload(0x08)\n      shl(0xa0, 0x01)\n      swap1\n      div\n      0xff\n      and\n        /* \"SmokleySLounge.sol\":4850:4906  require(subscriptionIsActive, \"subscription not active\") */\n      tag_358\n      jumpi\n      mload(0x40)\n      shl(0xe5, 0x461bcd)\n      dup2\n      mstore\n        /* \"#utility.yul\":15523:15525   */\n      0x20\n        /* \"SmokleySLounge.sol\":4850:4906  require(subscriptionIsActive, \"subscription not active\") */\n      0x04\n      dup3\n      add\n        /* \"#utility.yul\":15505:15526   */\n      mstore\n        /* \"#utility.yul\":15562:15564   */\n      0x17\n        /* \"#utility.yul\":15542:15560   */\n      0x24\n      dup3\n      add\n        /* \"#utility.yul\":15535:15565   */\n      mstore\n        /* \"#utility.yul\":15601:15626   */\n      0x737562736372697074696f6e206e6f7420616374697665000000000000000000\n        /* \"#utility.yul\":15581:15599   */\n      0x44\n      dup3\n      add\n        /* \"#utility.yul\":15574:15627   */\n      mstore\n        /* \"#utility.yul\":15644:15662   */\n      0x64\n      add\n        /* \"SmokleySLounge.sol\":4850:4906  require(subscriptionIsActive, \"subscription not active\") */\n      tag_217\n        /* \"#utility.yul\":15321:15668   */\n      jump\n        /* \"SmokleySLounge.sol\":4850:4906  require(subscriptionIsActive, \"subscription not active\") */\n    tag_358:\n        /* \"SmokleySLounge.sol\":4936:4946  msg.sender */\n      caller\n        /* \"SmokleySLounge.sol\":4925:4947  membership[msg.sender] */\n      0x00\n      swap1\n      dup2\n      mstore\n        /* \"SmokleySLounge.sol\":4925:4935  membership */\n      0x0d\n        /* \"SmokleySLounge.sol\":4925:4947  membership[msg.sender] */\n      0x20\n      mstore\n      0x40\n      swap1\n      keccak256\n      sload\n      0xff\n      and\n        /* \"SmokleySLounge.sol\":4917:4978  require(membership[msg.sender], \"not a member, cannot renew\") */\n      tag_361\n      jumpi\n      mload(0x40)\n      shl(0xe5, 0x461bcd)\n      dup2\n      mstore\n        /* \"#utility.yul\":15875:15877   */\n      0x20\n        /* \"SmokleySLounge.sol\":4917:4978  require(membership[msg.sender], \"not a member, cannot renew\") */\n      0x04\n      dup3\n      add\n        /* \"#utility.yul\":15857:15878   */\n      mstore\n        /* \"#utility.yul\":15914:15916   */\n      0x1a\n        /* \"#utility.yul\":15894:15912   */\n      0x24\n      dup3\n      add\n        /* \"#utility.yul\":15887:15917   */\n      mstore\n        /* \"#utility.yul\":15953:15981   */\n      0x6e6f742061206d656d6265722c2063616e6e6f742072656e6577000000000000\n        /* \"#utility.yul\":15933:15951   */\n      0x44\n      dup3\n      add\n        /* \"#utility.yul\":15926:15982   */\n      mstore\n        /* \"#utility.yul\":15999:16017   */\n      0x64\n      add\n        /* \"SmokleySLounge.sol\":4917:4978  require(membership[msg.sender], \"not a member, cannot renew\") */\n      tag_217\n        /* \"#utility.yul\":15673:16023   */\n      jump\n        /* \"SmokleySLounge.sol\":4917:4978  require(membership[msg.sender], \"not a member, cannot renew\") */\n    tag_361:\n        /* \"SmokleySLounge.sol\":5008:5022  maxMonthlySubs */\n      sload(0x09)\n        /* \"SmokleySLounge.sol\":4997:5004  expires */\n      dup2\n        /* \"SmokleySLounge.sol\":4997:5022  expires <= maxMonthlySubs */\n      0xffffffffffffffff\n      and\n      gt\n      iszero\n        /* \"SmokleySLounge.sol\":4989:5049  require(expires <= maxMonthlySubs, \"Exceeds max sub period\") */\n      tag_364\n      jumpi\n      mload(0x40)\n      shl(0xe5, 0x461bcd)\n      dup2\n      mstore\n        /* \"#utility.yul\":16230:16232   */\n      0x20\n        /* \"SmokleySLounge.sol\":4989:5049  require(expires <= maxMonthlySubs, \"Exceeds max sub period\") */\n      0x04\n      dup3\n      add\n        /* \"#utility.yul\":16212:16233   */\n      mstore\n        /* \"#utility.yul\":16269:16271   */\n      0x16\n        /* \"#utility.yul\":16249:16267   */\n      0x24\n      dup3\n      add\n        /* \"#utility.yul\":16242:16272   */\n      mstore\n        /* \"#utility.yul\":16308:16332   */\n      0x45786365656473206d61782073756220706572696f6400000000000000000000\n        /* \"#utility.yul\":16288:16306   */\n      0x44\n      dup3\n      add\n        /* \"#utility.yul\":16281:16333   */\n      mstore\n        /* \"#utility.yul\":16350:16368   */\n      0x64\n      add\n        /* \"SmokleySLounge.sol\":4989:5049  require(expires <= maxMonthlySubs, \"Exceeds max sub period\") */\n      tag_217\n        /* \"#utility.yul\":16028:16374   */\n      jump\n        /* \"SmokleySLounge.sol\":4989:5049  require(expires <= maxMonthlySubs, \"Exceeds max sub period\") */\n    tag_364:\n        /* \"SmokleySLounge.sol\":5062:5081  uint256 latestPrice */\n      0x00\n        /* \"SmokleySLounge.sol\":5092:5108  getLatestPrice() */\n      tag_367\n        /* \"SmokleySLounge.sol\":5092:5106  getLatestPrice */\n      tag_134\n        /* \"SmokleySLounge.sol\":5092:5108  getLatestPrice() */\n      jump\t// in\n    tag_367:\n        /* \"SmokleySLounge.sol\":5062:5109  uint256 latestPrice = uint256(getLatestPrice()) */\n      swap1\n      pop\n        /* \"SmokleySLounge.sol\":5153:5162  msg.value */\n      callvalue\n        /* \"SmokleySLounge.sol\":5128:5149  expires * latestPrice */\n      tag_368\n        /* \"SmokleySLounge.sol\":5062:5109  uint256 latestPrice = uint256(getLatestPrice()) */\n      dup3\n        /* \"SmokleySLounge.sol\":5128:5149  expires * latestPrice */\n      0xffffffffffffffff\n      dup6\n      and\n      tag_369\n      jump\t// in\n    tag_368:\n        /* \"SmokleySLounge.sol\":5128:5162  expires * latestPrice == msg.value */\n      eq\n        /* \"SmokleySLounge.sol\":5120:5192  require(expires * latestPrice == msg.value, \"value sent is not correct\") */\n      tag_370\n      jumpi\n      mload(0x40)\n      shl(0xe5, 0x461bcd)\n      dup2\n      mstore\n        /* \"#utility.yul\":16754:16756   */\n      0x20\n        /* \"SmokleySLounge.sol\":5120:5192  require(expires * latestPrice == msg.value, \"value sent is not correct\") */\n      0x04\n      dup3\n      add\n        /* \"#utility.yul\":16736:16757   */\n      mstore\n        /* \"#utility.yul\":16793:16795   */\n      0x19\n        /* \"#utility.yul\":16773:16791   */\n      0x24\n      dup3\n      add\n        /* \"#utility.yul\":16766:16796   */\n      mstore\n        /* \"#utility.yul\":16832:16859   */\n      0x76616c75652073656e74206973206e6f7420636f727265637400000000000000\n        /* \"#utility.yul\":16812:16830   */\n      0x44\n      dup3\n      add\n        /* \"#utility.yul\":16805:16860   */\n      mstore\n        /* \"#utility.yul\":16877:16895   */\n      0x64\n      add\n        /* \"SmokleySLounge.sol\":5120:5192  require(expires * latestPrice == msg.value, \"value sent is not correct\") */\n      tag_217\n        /* \"#utility.yul\":16552:16901   */\n      jump\n        /* \"SmokleySLounge.sol\":5120:5192  require(expires * latestPrice == msg.value, \"value sent is not correct\") */\n    tag_370:\n        /* \"SmokleySLounge.sol\":5213:5238  uint64 subscriptionPeriod */\n      0x00\n        /* \"SmokleySLounge.sol\":5241:5258  expires * 2592000 */\n      tag_373\n        /* \"SmokleySLounge.sol\":5241:5248  expires */\n      dup4\n        /* \"SmokleySLounge.sol\":5251:5258  2592000 */\n      0x278d00\n        /* \"SmokleySLounge.sol\":5241:5258  expires * 2592000 */\n      tag_374\n      jump\t// in\n    tag_373:\n        /* \"SmokleySLounge.sol\":5325:5341  uint64 timestamp */\n      0x00\n        /* \"SmokleySLounge.sol\":5405:5420  _users[tokenId] */\n      dup7\n      dup2\n      mstore\n        /* \"SmokleySLounge.sol\":5405:5411  _users */\n      0x0e\n        /* \"SmokleySLounge.sol\":5405:5420  _users[tokenId] */\n      0x20\n      mstore\n      0x40\n      swap1\n      keccak256\n        /* \"SmokleySLounge.sol\":5439:5451  info.expires */\n      dup1\n      sload\n        /* \"SmokleySLounge.sol\":5213:5258  uint64 subscriptionPeriod = expires * 2592000 */\n      swap2\n      swap3\n      pop\n        /* \"SmokleySLounge.sol\":5351:5366  block.timestamp */\n      timestamp\n      swap2\n        /* \"SmokleySLounge.sol\":5439:5463  info.expires < timestamp */\n      0xffffffffffffffff\n      dup1\n      dup5\n      and\n      shl(0xa0, 0x01)\n        /* \"SmokleySLounge.sol\":5439:5451  info.expires */\n      swap1\n      swap3\n      div\n      and\n        /* \"SmokleySLounge.sol\":5439:5463  info.expires < timestamp */\n      lt\n        /* \"SmokleySLounge.sol\":5431:5491  require(info.expires < timestamp, \"user already subscribed\") */\n      tag_375\n      jumpi\n      mload(0x40)\n      shl(0xe5, 0x461bcd)\n      dup2\n      mstore\n        /* \"#utility.yul\":17370:17372   */\n      0x20\n        /* \"SmokleySLounge.sol\":5431:5491  require(info.expires < timestamp, \"user already subscribed\") */\n      0x04\n      dup3\n      add\n        /* \"#utility.yul\":17352:17373   */\n      mstore\n        /* \"#utility.yul\":17409:17411   */\n      0x17\n        /* \"#utility.yul\":17389:17407   */\n      0x24\n      dup3\n      add\n        /* \"#utility.yul\":17382:17412   */\n      mstore\n        /* \"#utility.yul\":17448:17473   */\n      0x7573657220616c72656164792073756273637269626564000000000000000000\n        /* \"#utility.yul\":17428:17446   */\n      0x44\n      dup3\n      add\n        /* \"#utility.yul\":17421:17474   */\n      mstore\n        /* \"#utility.yul\":17491:17509   */\n      0x64\n      add\n        /* \"SmokleySLounge.sol\":5431:5491  require(info.expires < timestamp, \"user already subscribed\") */\n      tag_217\n        /* \"#utility.yul\":17168:17515   */\n      jump\n        /* \"SmokleySLounge.sol\":5431:5491  require(info.expires < timestamp, \"user already subscribed\") */\n    tag_375:\n        /* \"SmokleySLounge.sol\":5512:5528  info.user = user */\n      dup1\n      sload\n      not(sub(shl(0xa0, 0x01), 0x01))\n      and\n      sub(shl(0xa0, 0x01), 0x01)\n      dup8\n      and\n      or\n      dup2\n      sstore\n        /* \"SmokleySLounge.sol\":5554:5584  subscriptionPeriod + timestamp */\n      tag_378\n        /* \"SmokleySLounge.sol\":5575:5584  timestamp */\n      dup3\n        /* \"SmokleySLounge.sol\":5554:5572  subscriptionPeriod */\n      dup5\n        /* \"SmokleySLounge.sol\":5554:5584  subscriptionPeriod + timestamp */\n      tag_379\n      jump\t// in\n    tag_378:\n        /* \"SmokleySLounge.sol\":5539:5584  info.expires = subscriptionPeriod + timestamp */\n      dup2\n      sload\n      0xffffffffffffffff\n      swap2\n      swap1\n      swap2\n      and\n      shl(0xa0, 0x01)\n      mul\n      0xffffffff0000000000000000ffffffffffffffffffffffffffffffffffffffff\n      swap1\n      swap2\n      and\n      or\n      dup2\n      sstore\n      sub(shl(0xa0, 0x01), 0x01)\n        /* \"SmokleySLounge.sol\":5600:5657  UpdateUser(tokenId, user, subscriptionPeriod + timestamp) */\n      dup7\n      and\n        /* \"SmokleySLounge.sol\":5611:5618  tokenId */\n      dup8\n        /* \"SmokleySLounge.sol\":5600:5657  UpdateUser(tokenId, user, subscriptionPeriod + timestamp) */\n      0x4e06b4e7000e659094299b3533b47b6aa8ad048e95e872d23d1f4ee55af89cfe\n        /* \"SmokleySLounge.sol\":5626:5656  subscriptionPeriod + timestamp */\n      tag_380\n        /* \"SmokleySLounge.sol\":5647:5656  timestamp */\n      dup6\n        /* \"SmokleySLounge.sol\":5626:5644  subscriptionPeriod */\n      dup8\n        /* \"SmokleySLounge.sol\":5626:5656  subscriptionPeriod + timestamp */\n      tag_379\n      jump\t// in\n    tag_380:\n        /* \"SmokleySLounge.sol\":5600:5657  UpdateUser(tokenId, user, subscriptionPeriod + timestamp) */\n      mload(0x40)\n        /* \"#utility.yul\":17879:17897   */\n      0xffffffffffffffff\n        /* \"#utility.yul\":17867:17898   */\n      swap1\n      swap2\n      and\n        /* \"#utility.yul\":17849:17899   */\n      dup2\n      mstore\n        /* \"#utility.yul\":17837:17839   */\n      0x20\n        /* \"#utility.yul\":17822:17840   */\n      add\n        /* \"SmokleySLounge.sol\":5600:5657  UpdateUser(tokenId, user, subscriptionPeriod + timestamp) */\n      mload(0x40)\n      dup1\n      swap2\n      sub\n      swap1\n      log3\n        /* \"SmokleySLounge.sol\":4685:5665  {... */\n      pop\n      pop\n      pop\n      pop\n        /* \"@openzeppelin/contracts/security/ReentrancyGuard.sol\":2303:2323   */\n      tag_227\n        /* \"@openzeppelin/contracts/security/ReentrancyGuard.sol\":1716:1717   */\n      0x01\n        /* \"@openzeppelin/contracts/security/ReentrancyGuard.sol\":2809:2816   */\n      0x07\n        /* \"@openzeppelin/contracts/security/ReentrancyGuard.sol\":2809:2831   */\n      sstore\n        /* \"@openzeppelin/contracts/security/ReentrancyGuard.sol\":2629:2838   */\n      jump\n        /* \"@openzeppelin/contracts/access/Ownable.sol\":2081:2279   */\n    tag_190:\n        /* \"@openzeppelin/contracts/access/Ownable.sol\":1094:1107   */\n      tag_386\n        /* \"@openzeppelin/contracts/access/Ownable.sol\":1094:1105   */\n      tag_240\n        /* \"@openzeppelin/contracts/access/Ownable.sol\":1094:1107   */\n      jump\t// in\n    tag_386:\n      sub(shl(0xa0, 0x01), 0x01)\n        /* \"@openzeppelin/contracts/access/Ownable.sol\":2169:2191   */\n      dup2\n      and\n        /* \"@openzeppelin/contracts/access/Ownable.sol\":2161:2234   */\n      tag_388\n      jumpi\n      mload(0x40)\n      shl(0xe5, 0x461bcd)\n      dup2\n      mstore\n        /* \"#utility.yul\":18112:18114   */\n      0x20\n        /* \"@openzeppelin/contracts/access/Ownable.sol\":2161:2234   */\n      0x04\n      dup3\n      add\n        /* \"#utility.yul\":18094:18115   */\n      mstore\n        /* \"#utility.yul\":18151:18153   */\n      0x26\n        /* \"#utility.yul\":18131:18149   */\n      0x24\n      dup3\n      add\n        /* \"#utility.yul\":18124:18154   */\n      mstore\n        /* \"#utility.yul\":18190:18224   */\n      0x4f776e61626c653a206e6577206f776e657220697320746865207a65726f2061\n        /* \"#utility.yul\":18170:18188   */\n      0x44\n      dup3\n      add\n        /* \"#utility.yul\":18163:18225   */\n      mstore\n        /* \"#utility.yul\":18261:18269   */\n      0x6464726573730000000000000000000000000000000000000000000000000000\n        /* \"#utility.yul\":18241:18259   */\n      0x64\n      dup3\n      add\n        /* \"#utility.yul\":18234:18270   */\n      mstore\n        /* \"#utility.yul\":18287:18306   */\n      0x84\n      add\n        /* \"@openzeppelin/contracts/access/Ownable.sol\":2161:2234   */\n      tag_217\n        /* \"#utility.yul\":17910:18312   */\n      jump\n        /* \"@openzeppelin/contracts/access/Ownable.sol\":2161:2234   */\n    tag_388:\n        /* \"@openzeppelin/contracts/access/Ownable.sol\":2244:2272   */\n      tag_391\n        /* \"@openzeppelin/contracts/access/Ownable.sol\":2263:2271   */\n      dup2\n        /* \"@openzeppelin/contracts/access/Ownable.sol\":2244:2262   */\n      tag_294\n        /* \"@openzeppelin/contracts/access/Ownable.sol\":2244:2272   */\n      jump\t// in\n    tag_391:\n        /* \"@openzeppelin/contracts/access/Ownable.sol\":2081:2279   */\n      pop\n      jump\t// out\n        /* \"SmokleySLounge.sol\":1958:2348  function withdrawERC20(address erc20Contract) ... */\n    tag_194:\n        /* \"@openzeppelin/contracts/access/Ownable.sol\":1094:1107   */\n      tag_393\n        /* \"@openzeppelin/contracts/access/Ownable.sol\":1094:1105   */\n      tag_240\n        /* \"@openzeppelin/contracts/access/Ownable.sol\":1094:1107   */\n      jump\t// in\n    tag_393:\n        /* \"@openzeppelin/contracts/security/ReentrancyGuard.sol\":2261:2282   */\n      tag_395\n        /* \"@openzeppelin/contracts/security/ReentrancyGuard.sol\":2261:2280   */\n      tag_248\n        /* \"@openzeppelin/contracts/security/ReentrancyGuard.sol\":2261:2282   */\n      jump\t// in\n    tag_395:\n        /* \"SmokleySLounge.sol\":2161:2199  tokenContract.balanceOf(address(this)) */\n      mload(0x40)\n      shl(0xe0, 0x70a08231)\n      dup2\n      mstore\n        /* \"SmokleySLounge.sol\":2193:2197  this */\n      address\n        /* \"SmokleySLounge.sol\":2161:2199  tokenContract.balanceOf(address(this)) */\n      0x04\n      dup3\n      add\n        /* \"#utility.yul\":1679:1753   */\n      mstore\n        /* \"SmokleySLounge.sol\":2111:2124  erc20Contract */\n      dup2\n      swap1\n        /* \"SmokleySLounge.sol\":2081:2101  IERC20 tokenContract */\n      0x00\n      swap1\n      sub(shl(0xa0, 0x01), 0x01)\n        /* \"SmokleySLounge.sol\":2161:2184  tokenContract.balanceOf */\n      dup4\n      and\n      swap1\n      0x70a08231\n      swap1\n        /* \"#utility.yul\":1652:1670   */\n      0x24\n      add\n        /* \"SmokleySLounge.sol\":2161:2199  tokenContract.balanceOf(address(this)) */\n      0x20\n      mload(0x40)\n      dup1\n      dup4\n      sub\n      dup2\n      dup7\n      gas\n      staticcall\n      iszero\n      dup1\n      iszero\n      tag_399\n      jumpi\n      returndatasize\n      0x00\n      dup1\n      returndatacopy\n      revert(0x00, returndatasize)\n    tag_399:\n      pop\n      pop\n      pop\n      pop\n      mload(0x40)\n      returndatasize\n      not(0x1f)\n      0x1f\n      dup3\n      add\n      and\n      dup3\n      add\n      dup1\n      0x40\n      mstore\n      pop\n      dup2\n      add\n      swap1\n      tag_400\n      swap2\n      swap1\n      tag_401\n      jump\t// in\n    tag_400:\n        /* \"SmokleySLounge.sol\":2138:2199  uint256 totalBalance = tokenContract.balanceOf(address(this)) */\n      swap1\n      pop\n        /* \"SmokleySLounge.sol\":2220:2238  bool ownerTransfer */\n      0x00\n        /* \"SmokleySLounge.sol\":2241:2254  tokenContract */\n      dup3\n      sub(shl(0xa0, 0x01), 0x01)\n        /* \"SmokleySLounge.sol\":2241:2263  tokenContract.transfer */\n      and\n      0xa9059cbb\n        /* \"SmokleySLounge.sol\":2264:2271  owner() */\n      tag_402\n        /* \"@openzeppelin/contracts/access/Ownable.sol\":1273:1279   */\n      and(sub(shl(0xa0, 0x01), 0x01), sload(0x06))\n      swap1\n        /* \"@openzeppelin/contracts/access/Ownable.sol\":1201:1286   */\n      jump\n        /* \"SmokleySLounge.sol\":2264:2271  owner() */\n    tag_402:\n        /* \"SmokleySLounge.sol\":2241:2286  tokenContract.transfer(owner(), totalBalance) */\n      mload(0x40)\n      not(sub(shl(0xe0, 0x01), 0x01))\n      0xe0\n      dup5\n      swap1\n      shl\n      and\n      dup2\n      mstore\n      sub(shl(0xa0, 0x01), 0x01)\n        /* \"#utility.yul\":18698:18753   */\n      swap1\n      swap2\n      and\n        /* \"SmokleySLounge.sol\":2241:2286  tokenContract.transfer(owner(), totalBalance) */\n      0x04\n      dup3\n      add\n        /* \"#utility.yul\":18680:18754   */\n      mstore\n        /* \"#utility.yul\":18770:18788   */\n      0x24\n      dup2\n      add\n        /* \"#utility.yul\":18763:18797   */\n      dup6\n      swap1\n      mstore\n        /* \"#utility.yul\":18653:18671   */\n      0x44\n      add\n        /* \"SmokleySLounge.sol\":2241:2286  tokenContract.transfer(owner(), totalBalance) */\n      0x20\n      mload(0x40)\n      dup1\n      dup4\n      sub\n      dup2\n      0x00\n      dup8\n      gas\n      call\n      iszero\n      dup1\n      iszero\n      tag_406\n      jumpi\n      returndatasize\n      0x00\n      dup1\n      returndatacopy\n      revert(0x00, returndatasize)\n    tag_406:\n      pop\n      pop\n      pop\n      pop\n      mload(0x40)\n      returndatasize\n      not(0x1f)\n      0x1f\n      dup3\n      add\n      and\n      dup3\n      add\n      dup1\n      0x40\n      mstore\n      pop\n      dup2\n      add\n      swap1\n      tag_407\n      swap2\n      swap1\n      tag_408\n      jump\t// in\n    tag_407:\n        /* \"SmokleySLounge.sol\":2220:2286  bool ownerTransfer = tokenContract.transfer(owner(), totalBalance) */\n      swap1\n      pop\n        /* \"SmokleySLounge.sol\":2307:2320  ownerTransfer */\n      dup1\n        /* \"SmokleySLounge.sol\":2299:2340  require(ownerTransfer, \"Transfer failed\") */\n      tag_409\n      jumpi\n      mload(0x40)\n      shl(0xe5, 0x461bcd)\n      dup2\n      mstore\n        /* \"#utility.yul\":10646:10648   */\n      0x20\n        /* \"SmokleySLounge.sol\":2299:2340  require(ownerTransfer, \"Transfer failed\") */\n      0x04\n      dup3\n      add\n        /* \"#utility.yul\":10628:10649   */\n      mstore\n        /* \"#utility.yul\":10685:10687   */\n      0x0f\n        /* \"#utility.yul\":10665:10683   */\n      0x24\n      dup3\n      add\n        /* \"#utility.yul\":10658:10688   */\n      mstore\n      shl(0x8a, 0x151c985b9cd9995c8819985a5b1959)\n        /* \"#utility.yul\":10704:10722   */\n      0x44\n      dup3\n      add\n        /* \"#utility.yul\":10697:10742   */\n      mstore\n        /* \"#utility.yul\":10759:10777   */\n      0x64\n      add\n        /* \"SmokleySLounge.sol\":2299:2340  require(ownerTransfer, \"Transfer failed\") */\n      tag_217\n        /* \"#utility.yul\":10444:10783   */\n      jump\n        /* \"SmokleySLounge.sol\":2299:2340  require(ownerTransfer, \"Transfer failed\") */\n    tag_409:\n        /* \"SmokleySLounge.sol\":2070:2348  {... */\n      pop\n      pop\n      pop\n        /* \"@openzeppelin/contracts/security/ReentrancyGuard.sol\":2303:2323   */\n      tag_391\n        /* \"@openzeppelin/contracts/security/ReentrancyGuard.sol\":1716:1717   */\n      0x01\n        /* \"@openzeppelin/contracts/security/ReentrancyGuard.sol\":2809:2816   */\n      0x07\n        /* \"@openzeppelin/contracts/security/ReentrancyGuard.sol\":2809:2831   */\n      sstore\n        /* \"@openzeppelin/contracts/security/ReentrancyGuard.sol\":2629:2838   */\n      jump\n        /* \"SmokleySLounge.sol\":2450:2674  function setFeesMaxMonth(uint256 newSubscriptionFee,  uint256 newMaxMonthlySubs) ... */\n    tag_199:\n        /* \"@openzeppelin/contracts/access/Ownable.sol\":1094:1107   */\n      tag_413\n        /* \"@openzeppelin/contracts/access/Ownable.sol\":1094:1105   */\n      tag_240\n        /* \"@openzeppelin/contracts/access/Ownable.sol\":1094:1107   */\n      jump\t// in\n    tag_413:\n        /* \"SmokleySLounge.sol\":2585:2600  subscriptionFee */\n      0x0a\n        /* \"SmokleySLounge.sol\":2585:2621  subscriptionFee = newSubscriptionFee */\n      swap2\n      swap1\n      swap2\n      sstore\n        /* \"SmokleySLounge.sol\":2632:2646  maxMonthlySubs */\n      0x09\n        /* \"SmokleySLounge.sol\":2632:2666  maxMonthlySubs = newMaxMonthlySubs */\n      sstore\n        /* \"SmokleySLounge.sol\":2450:2674  function setFeesMaxMonth(uint256 newSubscriptionFee,  uint256 newMaxMonthlySubs) ... */\n      jump\t// out\n        /* \"@openzeppelin/contracts/token/ERC721/ERC721.sol\":1570:1870   */\n    tag_203:\n        /* \"@openzeppelin/contracts/token/ERC721/ERC721.sol\":1672:1676   */\n      0x00\n      not(sub(shl(0xe0, 0x01), 0x01))\n        /* \"@openzeppelin/contracts/token/ERC721/ERC721.sol\":1707:1747   */\n      dup3\n      and\n      shl(0xe0, 0x80ac58cd)\n      eq\n      dup1\n        /* \"@openzeppelin/contracts/token/ERC721/ERC721.sol\":1707:1811   */\n      tag_416\n      jumpi\n      pop\n      not(sub(shl(0xe0, 0x01), 0x01))\n        /* \"@openzeppelin/contracts/token/ERC721/ERC721.sol\":1763:1811   */\n      dup3\n      and\n      shl(0xe0, 0x5b5e139f)\n      eq\n        /* \"@openzeppelin/contracts/token/ERC721/ERC721.sol\":1707:1811   */\n    tag_416:\n        /* \"@openzeppelin/contracts/token/ERC721/ERC721.sol\":1707:1863   */\n      dup1\n      tag_202\n      jumpi\n      pop\n      shl(0xe0, 0x01ffc9a7)\n      not(sub(shl(0xe0, 0x01), 0x01))\n        /* \"@openzeppelin/contracts/utils/introspection/ERC165.sol\":937:977   */\n      dup4\n      and\n      eq\n        /* \"@openzeppelin/contracts/token/ERC721/ERC721.sol\":1827:1863   */\n      tag_202\n        /* \"@openzeppelin/contracts/utils/introspection/ERC165.sol\":829:984   */\n      jump\n        /* \"@openzeppelin/contracts/token/ERC721/ERC721.sol\":13466:13599   */\n    tag_213:\n        /* \"@openzeppelin/contracts/token/ERC721/ERC721.sol\":7321:7325   */\n      0x00\n        /* \"@openzeppelin/contracts/token/ERC721/ERC721.sol\":6930:6946   */\n      dup2\n      dup2\n      mstore\n        /* \"@openzeppelin/contracts/token/ERC721/ERC721.sol\":6930:6937   */\n      0x02\n        /* \"@openzeppelin/contracts/token/ERC721/ERC721.sol\":6930:6946   */\n      0x20\n      mstore\n      0x40\n      swap1\n      keccak256\n      sload\n      sub(shl(0xa0, 0x01), 0x01)\n      and\n        /* \"@openzeppelin/contracts/token/ERC721/ERC721.sol\":13539:13592   */\n      tag_391\n      jumpi\n      mload(0x40)\n      shl(0xe5, 0x461bcd)\n      dup2\n      mstore\n        /* \"#utility.yul\":11956:11958   */\n      0x20\n        /* \"@openzeppelin/contracts/token/ERC721/ERC721.sol\":13539:13592   */\n      0x04\n      dup3\n      add\n        /* \"#utility.yul\":11938:11959   */\n      mstore\n        /* \"#utility.yul\":11995:11997   */\n      0x18\n        /* \"#utility.yul\":11975:11993   */\n      0x24\n      dup3\n      add\n        /* \"#utility.yul\":11968:11998   */\n      mstore\n        /* \"#utility.yul\":12034:12060   */\n      0x4552433732313a20696e76616c696420746f6b656e2049440000000000000000\n        /* \"#utility.yul\":12014:12032   */\n      0x44\n      dup3\n      add\n        /* \"#utility.yul\":12007:12061   */\n      mstore\n        /* \"#utility.yul\":12078:12096   */\n      0x64\n      add\n        /* \"@openzeppelin/contracts/token/ERC721/ERC721.sol\":13539:13592   */\n      tag_217\n        /* \"#utility.yul\":11754:12102   */\n      jump\n        /* \"@openzeppelin/contracts/token/ERC721/ERC721.sol\":12768:12939   */\n    tag_228:\n        /* \"@openzeppelin/contracts/token/ERC721/ERC721.sol\":12842:12866   */\n      0x00\n      dup2\n      dup2\n      mstore\n        /* \"@openzeppelin/contracts/token/ERC721/ERC721.sol\":12842:12857   */\n      0x04\n        /* \"@openzeppelin/contracts/token/ERC721/ERC721.sol\":12842:12866   */\n      0x20\n      mstore\n      0x40\n      swap1\n      keccak256\n        /* \"@openzeppelin/contracts/token/ERC721/ERC721.sol\":12842:12871   */\n      dup1\n      sload\n      not(sub(shl(0xa0, 0x01), 0x01))\n      and\n      sub(shl(0xa0, 0x01), 0x01)\n      dup5\n      and\n      swap1\n      dup2\n      or\n      swap1\n      swap2\n      sstore\n        /* \"@openzeppelin/contracts/token/ERC721/ERC721.sol\":12842:12866   */\n      dup2\n      swap1\n        /* \"@openzeppelin/contracts/token/ERC721/ERC721.sol\":12895:12918   */\n      tag_426\n        /* \"@openzeppelin/contracts/token/ERC721/ERC721.sol\":12842:12866   */\n      dup3\n        /* \"@openzeppelin/contracts/token/ERC721/ERC721.sol\":12895:12909   */\n      tag_104\n        /* \"@openzeppelin/contracts/token/ERC721/ERC721.sol\":12895:12918   */\n      jump\t// in\n    tag_426:\n      sub(shl(0xa0, 0x01), 0x01)\n        /* \"@openzeppelin/contracts/token/ERC721/ERC721.sol\":12886:12932   */\n      and\n      0x8c5be1e5ebec7d5bd14f71427d1e84f3dd0314c0f7b2291e5b200ac8c7c3b925\n      mload(0x40)\n      mload(0x40)\n      dup1\n      swap2\n      sub\n      swap1\n      log4\n        /* \"@openzeppelin/contracts/token/ERC721/ERC721.sol\":12768:12939   */\n      pop\n      pop\n      jump\t// out\n        /* \"@openzeppelin/contracts/token/ERC721/ERC721.sol\":7540:7801   */\n    tag_232:\n        /* \"@openzeppelin/contracts/token/ERC721/ERC721.sol\":7633:7637   */\n      0x00\n        /* \"@openzeppelin/contracts/token/ERC721/ERC721.sol\":7649:7662   */\n      dup1\n        /* \"@openzeppelin/contracts/token/ERC721/ERC721.sol\":7665:7688   */\n      tag_428\n        /* \"@openzeppelin/contracts/token/ERC721/ERC721.sol\":7680:7687   */\n      dup4\n        /* \"@openzeppelin/contracts/token/ERC721/ERC721.sol\":7665:7679   */\n      tag_104\n        /* \"@openzeppelin/contracts/token/ERC721/ERC721.sol\":7665:7688   */\n      jump\t// in\n    tag_428:\n        /* \"@openzeppelin/contracts/token/ERC721/ERC721.sol\":7649:7688   */\n      swap1\n      pop\n        /* \"@openzeppelin/contracts/token/ERC721/ERC721.sol\":7717:7722   */\n      dup1\n      sub(shl(0xa0, 0x01), 0x01)\n        /* \"@openzeppelin/contracts/token/ERC721/ERC721.sol\":7706:7722   */\n      and\n        /* \"@openzeppelin/contracts/token/ERC721/ERC721.sol\":7706:7713   */\n      dup5\n      sub(shl(0xa0, 0x01), 0x01)\n        /* \"@openzeppelin/contracts/token/ERC721/ERC721.sol\":7706:7722   */\n      and\n      eq\n        /* \"@openzeppelin/contracts/token/ERC721/ERC721.sol\":7706:7758   */\n      dup1\n      tag_430\n      jumpi\n      pop\n      sub(shl(0xa0, 0x01), 0x01)\n        /* \"@openzeppelin/contracts/token/ERC721/ERC721.sol\":4508:4533   */\n      dup1\n      dup3\n      and\n        /* \"@openzeppelin/contracts/token/ERC721/ERC721.sol\":4485:4489   */\n      0x00\n        /* \"@openzeppelin/contracts/token/ERC721/ERC721.sol\":4508:4533   */\n      swap1\n      dup2\n      mstore\n        /* \"@openzeppelin/contracts/token/ERC721/ERC721.sol\":4508:4526   */\n      0x05\n        /* \"@openzeppelin/contracts/token/ERC721/ERC721.sol\":4508:4533   */\n      0x20\n      swap1\n      dup2\n      mstore\n      0x40\n      dup1\n      dup4\n      keccak256\n        /* \"@openzeppelin/contracts/token/ERC721/ERC721.sol\":4508:4543   */\n      swap4\n      dup9\n      and\n      dup4\n      mstore\n      swap3\n      swap1\n      mstore\n      keccak256\n      sload\n      0xff\n      and\n        /* \"@openzeppelin/contracts/token/ERC721/ERC721.sol\":7726:7758   */\n    tag_430:\n        /* \"@openzeppelin/contracts/token/ERC721/ERC721.sol\":7706:7793   */\n      dup1\n      tag_431\n      jumpi\n      pop\n        /* \"@openzeppelin/contracts/token/ERC721/ERC721.sol\":7786:7793   */\n      dup4\n      sub(shl(0xa0, 0x01), 0x01)\n        /* \"@openzeppelin/contracts/token/ERC721/ERC721.sol\":7762:7793   */\n      and\n        /* \"@openzeppelin/contracts/token/ERC721/ERC721.sol\":7762:7782   */\n      tag_432\n        /* \"@openzeppelin/contracts/token/ERC721/ERC721.sol\":7774:7781   */\n      dup5\n        /* \"@openzeppelin/contracts/token/ERC721/ERC721.sol\":7762:7773   */\n      tag_61\n        /* \"@openzeppelin/contracts/token/ERC721/ERC721.sol\":7762:7782   */\n      jump\t// in\n    tag_432:\n      sub(shl(0xa0, 0x01), 0x01)\n        /* \"@openzeppelin/contracts/token/ERC721/ERC721.sol\":7762:7793   */\n      and\n      eq\n        /* \"@openzeppelin/contracts/token/ERC721/ERC721.sol\":7706:7793   */\n    tag_431:\n        /* \"@openzeppelin/contracts/token/ERC721/ERC721.sol\":7698:7794   */\n      swap5\n        /* \"@openzeppelin/contracts/token/ERC721/ERC721.sol\":7540:7801   */\n      swap4\n      pop\n      pop\n      pop\n      pop\n      jump\t// out\n        /* \"@openzeppelin/contracts/token/ERC721/ERC721.sol\":11423:12656   */\n    tag_237:\n        /* \"@openzeppelin/contracts/token/ERC721/ERC721.sol\":11577:11581   */\n      dup3\n      sub(shl(0xa0, 0x01), 0x01)\n        /* \"@openzeppelin/contracts/token/ERC721/ERC721.sol\":11550:11581   */\n      and\n        /* \"@openzeppelin/contracts/token/ERC721/ERC721.sol\":11550:11573   */\n      tag_434\n        /* \"@openzeppelin/contracts/token/ERC721/ERC721.sol\":11565:11572   */\n      dup3\n        /* \"@openzeppelin/contracts/token/ERC721/ERC721.sol\":11550:11564   */\n      tag_104\n        /* \"@openzeppelin/contracts/token/ERC721/ERC721.sol\":11550:11573   */\n      jump\t// in\n    tag_434:\n      sub(shl(0xa0, 0x01), 0x01)\n        /* \"@openzeppelin/contracts/token/ERC721/ERC721.sol\":11550:11581   */\n      and\n      eq\n        /* \"@openzeppelin/contracts/token/ERC721/ERC721.sol\":11542:11623   */\n      tag_435\n      jumpi\n      mload(0x40)\n      shl(0xe5, 0x461bcd)\n      dup2\n      mstore\n        /* \"#utility.yul\":19260:19262   */\n      0x20\n        /* \"@openzeppelin/contracts/token/ERC721/ERC721.sol\":11542:11623   */\n      0x04\n      dup3\n      add\n        /* \"#utility.yul\":19242:19263   */\n      mstore\n        /* \"#utility.yul\":19299:19301   */\n      0x25\n        /* \"#utility.yul\":19279:19297   */\n      0x24\n      dup3\n      add\n        /* \"#utility.yul\":19272:19302   */\n      mstore\n        /* \"#utility.yul\":19338:19372   */\n      0x4552433732313a207472616e736665722066726f6d20696e636f727265637420\n        /* \"#utility.yul\":19318:19336   */\n      0x44\n      dup3\n      add\n        /* \"#utility.yul\":19311:19373   */\n      mstore\n      shl(0xd9, 0x37bbb732b9)\n        /* \"#utility.yul\":19389:19407   */\n      0x64\n      dup3\n      add\n        /* \"#utility.yul\":19382:19417   */\n      mstore\n        /* \"#utility.yul\":19434:19453   */\n      0x84\n      add\n        /* \"@openzeppelin/contracts/token/ERC721/ERC721.sol\":11542:11623   */\n      tag_217\n        /* \"#utility.yul\":19058:19459   */\n      jump\n        /* \"@openzeppelin/contracts/token/ERC721/ERC721.sol\":11542:11623   */\n    tag_435:\n      sub(shl(0xa0, 0x01), 0x01)\n        /* \"@openzeppelin/contracts/token/ERC721/ERC721.sol\":11641:11657   */\n      dup3\n      and\n        /* \"@openzeppelin/contracts/token/ERC721/ERC721.sol\":11633:11698   */\n      tag_438\n      jumpi\n      mload(0x40)\n      shl(0xe5, 0x461bcd)\n      dup2\n      mstore\n        /* \"#utility.yul\":19666:19668   */\n      0x20\n        /* \"@openzeppelin/contracts/token/ERC721/ERC721.sol\":11633:11698   */\n      0x04\n      dup3\n      add\n        /* \"#utility.yul\":19648:19669   */\n      mstore\n        /* \"#utility.yul\":19705:19707   */\n      0x24\n        /* \"#utility.yul\":19685:19703   */\n      dup1\n      dup3\n      add\n        /* \"#utility.yul\":19678:19708   */\n      mstore\n        /* \"#utility.yul\":19744:19778   */\n      0x4552433732313a207472616e7366657220746f20746865207a65726f20616464\n        /* \"#utility.yul\":19724:19742   */\n      0x44\n      dup3\n      add\n        /* \"#utility.yul\":19717:19779   */\n      mstore\n      shl(0xe0, 0x72657373)\n        /* \"#utility.yul\":19795:19813   */\n      0x64\n      dup3\n      add\n        /* \"#utility.yul\":19788:19822   */\n      mstore\n        /* \"#utility.yul\":19839:19858   */\n      0x84\n      add\n        /* \"@openzeppelin/contracts/token/ERC721/ERC721.sol\":11633:11698   */\n      tag_217\n        /* \"#utility.yul\":19464:19864   */\n      jump\n        /* \"@openzeppelin/contracts/token/ERC721/ERC721.sol\":11633:11698   */\n    tag_438:\n        /* \"@openzeppelin/contracts/token/ERC721/ERC721.sol\":11709:11751   */\n      tag_441\n        /* \"@openzeppelin/contracts/token/ERC721/ERC721.sol\":11730:11734   */\n      dup4\n        /* \"@openzeppelin/contracts/token/ERC721/ERC721.sol\":11736:11738   */\n      dup4\n        /* \"@openzeppelin/contracts/token/ERC721/ERC721.sol\":11740:11747   */\n      dup4\n        /* \"@openzeppelin/contracts/token/ERC721/ERC721.sol\":11749:11750   */\n      0x01\n        /* \"@openzeppelin/contracts/token/ERC721/ERC721.sol\":11709:11729   */\n      tag_442\n        /* \"@openzeppelin/contracts/token/ERC721/ERC721.sol\":11709:11751   */\n      jump\t// in\n    tag_441:\n        /* \"@openzeppelin/contracts/token/ERC721/ERC721.sol\":11878:11882   */\n      dup3\n      sub(shl(0xa0, 0x01), 0x01)\n        /* \"@openzeppelin/contracts/token/ERC721/ERC721.sol\":11851:11882   */\n      and\n        /* \"@openzeppelin/contracts/token/ERC721/ERC721.sol\":11851:11874   */\n      tag_443\n        /* \"@openzeppelin/contracts/token/ERC721/ERC721.sol\":11866:11873   */\n      dup3\n        /* \"@openzeppelin/contracts/token/ERC721/ERC721.sol\":11851:11865   */\n      tag_104\n        /* \"@openzeppelin/contracts/token/ERC721/ERC721.sol\":11851:11874   */\n      jump\t// in\n    tag_443:\n      sub(shl(0xa0, 0x01), 0x01)\n        /* \"@openzeppelin/contracts/token/ERC721/ERC721.sol\":11851:11882   */\n      and\n      eq\n        /* \"@openzeppelin/contracts/token/ERC721/ERC721.sol\":11843:11924   */\n      tag_444\n      jumpi\n      mload(0x40)\n      shl(0xe5, 0x461bcd)\n      dup2\n      mstore\n        /* \"#utility.yul\":19260:19262   */\n      0x20\n        /* \"@openzeppelin/contracts/token/ERC721/ERC721.sol\":11843:11924   */\n      0x04\n      dup3\n      add\n        /* \"#utility.yul\":19242:19263   */\n      mstore\n        /* \"#utility.yul\":19299:19301   */\n      0x25\n        /* \"#utility.yul\":19279:19297   */\n      0x24\n      dup3\n      add\n        /* \"#utility.yul\":19272:19302   */\n      mstore\n        /* \"#utility.yul\":19338:19372   */\n      0x4552433732313a207472616e736665722066726f6d20696e636f727265637420\n        /* \"#utility.yul\":19318:19336   */\n      0x44\n      dup3\n      add\n        /* \"#utility.yul\":19311:19373   */\n      mstore\n      shl(0xd9, 0x37bbb732b9)\n        /* \"#utility.yul\":19389:19407   */\n      0x64\n      dup3\n      add\n        /* \"#utility.yul\":19382:19417   */\n      mstore\n        /* \"#utility.yul\":19434:19453   */\n      0x84\n      add\n        /* \"@openzeppelin/contracts/token/ERC721/ERC721.sol\":11843:11924   */\n      tag_217\n        /* \"#utility.yul\":19058:19459   */\n      jump\n        /* \"@openzeppelin/contracts/token/ERC721/ERC721.sol\":11843:11924   */\n    tag_444:\n        /* \"@openzeppelin/contracts/token/ERC721/ERC721.sol\":11993:12017   */\n      0x00\n      dup2\n      dup2\n      mstore\n        /* \"@openzeppelin/contracts/token/ERC721/ERC721.sol\":11993:12008   */\n      0x04\n        /* \"@openzeppelin/contracts/token/ERC721/ERC721.sol\":11993:12017   */\n      0x20\n      swap1\n      dup2\n      mstore\n      0x40\n      dup1\n      dup4\n      keccak256\n        /* \"@openzeppelin/contracts/token/ERC721/ERC721.sol\":11986:12017   */\n      dup1\n      sload\n      not(sub(shl(0xa0, 0x01), 0x01))\n      swap1\n      dup2\n      and\n      swap1\n      swap2\n      sstore\n      sub(shl(0xa0, 0x01), 0x01)\n        /* \"@openzeppelin/contracts/token/ERC721/ERC721.sol\":12461:12476   */\n      dup8\n      dup2\n      and\n      dup1\n      dup7\n      mstore\n        /* \"@openzeppelin/contracts/token/ERC721/ERC721.sol\":12461:12470   */\n      0x03\n        /* \"@openzeppelin/contracts/token/ERC721/ERC721.sol\":12461:12476   */\n      dup6\n      mstore\n      dup4\n      dup7\n      keccak256\n        /* \"@openzeppelin/contracts/token/ERC721/ERC721.sol\":12461:12481   */\n      dup1\n      sload\n      not(0x00)\n      add\n      swap1\n      sstore\n        /* \"@openzeppelin/contracts/token/ERC721/ERC721.sol\":12495:12508   */\n      swap1\n      dup8\n      and\n      dup1\n      dup7\n      mstore\n      dup4\n      dup7\n      keccak256\n        /* \"@openzeppelin/contracts/token/ERC721/ERC721.sol\":12495:12513   */\n      dup1\n      sload\n        /* \"@openzeppelin/contracts/token/ERC721/ERC721.sol\":11986:12017   */\n      0x01\n        /* \"@openzeppelin/contracts/token/ERC721/ERC721.sol\":12495:12513   */\n      add\n      swap1\n      sstore\n        /* \"@openzeppelin/contracts/token/ERC721/ERC721.sol\":12533:12549   */\n      dup7\n      dup7\n      mstore\n        /* \"@openzeppelin/contracts/token/ERC721/ERC721.sol\":12533:12540   */\n      0x02\n        /* \"@openzeppelin/contracts/token/ERC721/ERC721.sol\":12533:12549   */\n      swap1\n      swap5\n      mstore\n      dup3\n      dup6\n      keccak256\n        /* \"@openzeppelin/contracts/token/ERC721/ERC721.sol\":12533:12554   */\n      dup1\n      sload\n      swap1\n      swap3\n      and\n      dup5\n      or\n      swap1\n      swap2\n      sstore\n        /* \"@openzeppelin/contracts/token/ERC721/ERC721.sol\":12570:12597   */\n      swap1\n      mload\n        /* \"@openzeppelin/contracts/token/ERC721/ERC721.sol\":12009:12016   */\n      dup5\n      swap4\n        /* \"@openzeppelin/contracts/token/ERC721/ERC721.sol\":12570:12597   */\n      0xddf252ad1be2c89b69c2b068fc378daa952ba7f163c4a11628f55a4df523b3ef\n      swap2\n      log4\n        /* \"@openzeppelin/contracts/token/ERC721/ERC721.sol\":3538:3874   */\n      pop\n        /* \"@openzeppelin/contracts/token/ERC721/ERC721.sol\":3468:3874   */\n      pop\n      pop\n      jump\t// out\n        /* \"@openzeppelin/contracts/access/Ownable.sol\":1359:1489   */\n    tag_240:\n        /* \"@openzeppelin/contracts/access/Ownable.sol\":1273:1279   */\n      and(sub(shl(0xa0, 0x01), 0x01), sload(0x06))\n        /* \"@openzeppelin/contracts/utils/Context.sol\":719:729   */\n      caller\n        /* \"@openzeppelin/contracts/access/Ownable.sol\":1422:1445   */\n      eq\n        /* \"@openzeppelin/contracts/access/Ownable.sol\":1414:1482   */\n      tag_259\n      jumpi\n      mload(0x40)\n      shl(0xe5, 0x461bcd)\n      dup2\n      mstore\n        /* \"#utility.yul\":20071:20073   */\n      0x20\n        /* \"@openzeppelin/contracts/access/Ownable.sol\":1414:1482   */\n      0x04\n      dup3\n      add\n        /* \"#utility.yul\":20053:20074   */\n      dup2\n      swap1\n      mstore\n        /* \"#utility.yul\":20090:20108   */\n      0x24\n      dup3\n      add\n        /* \"#utility.yul\":20083:20113   */\n      mstore\n        /* \"#utility.yul\":20149:20183   */\n      0x4f776e61626c653a2063616c6c6572206973206e6f7420746865206f776e6572\n        /* \"#utility.yul\":20129:20147   */\n      0x44\n      dup3\n      add\n        /* \"#utility.yul\":20122:20184   */\n      mstore\n        /* \"#utility.yul\":20201:20219   */\n      0x64\n      add\n        /* \"@openzeppelin/contracts/access/Ownable.sol\":1414:1482   */\n      tag_217\n        /* \"#utility.yul\":19869:20225   */\n      jump\n        /* \"@openzeppelin/contracts/security/ReentrancyGuard.sol\":2336:2623   */\n    tag_248:\n        /* \"@openzeppelin/contracts/security/ReentrancyGuard.sol\":1759:1760   */\n      0x02\n        /* \"@openzeppelin/contracts/security/ReentrancyGuard.sol\":2468:2475   */\n      sload(0x07)\n        /* \"@openzeppelin/contracts/security/ReentrancyGuard.sol\":2468:2487   */\n      sub\n        /* \"@openzeppelin/contracts/security/ReentrancyGuard.sol\":2460:2523   */\n      tag_455\n      jumpi\n      mload(0x40)\n      shl(0xe5, 0x461bcd)\n      dup2\n      mstore\n        /* \"#utility.yul\":20432:20434   */\n      0x20\n        /* \"@openzeppelin/contracts/security/ReentrancyGuard.sol\":2460:2523   */\n      0x04\n      dup3\n      add\n        /* \"#utility.yul\":20414:20435   */\n      mstore\n        /* \"#utility.yul\":20471:20473   */\n      0x1f\n        /* \"#utility.yul\":20451:20469   */\n      0x24\n      dup3\n      add\n        /* \"#utility.yul\":20444:20474   */\n      mstore\n        /* \"#utility.yul\":20510:20543   */\n      0x5265656e7472616e637947756172643a207265656e7472616e742063616c6c00\n        /* \"#utility.yul\":20490:20508   */\n      0x44\n      dup3\n      add\n        /* \"#utility.yul\":20483:20544   */\n      mstore\n        /* \"#utility.yul\":20561:20579   */\n      0x64\n      add\n        /* \"@openzeppelin/contracts/security/ReentrancyGuard.sol\":2460:2523   */\n      tag_217\n        /* \"#utility.yul\":20230:20585   */\n      jump\n        /* \"@openzeppelin/contracts/security/ReentrancyGuard.sol\":2460:2523   */\n    tag_455:\n        /* \"@openzeppelin/contracts/security/ReentrancyGuard.sol\":1759:1760   */\n      0x02\n        /* \"@openzeppelin/contracts/security/ReentrancyGuard.sol\":2598:2605   */\n      0x07\n        /* \"@openzeppelin/contracts/security/ReentrancyGuard.sol\":2598:2616   */\n      sstore\n        /* \"@openzeppelin/contracts/security/ReentrancyGuard.sol\":2336:2623   */\n      jump\t// out\n        /* \"@openzeppelin/contracts/token/ERC721/ERC721.sol\":8131:8239   */\n    tag_276:\n        /* \"@openzeppelin/contracts/token/ERC721/ERC721.sol\":8206:8232   */\n      tag_242\n        /* \"@openzeppelin/contracts/token/ERC721/ERC721.sol\":8216:8218   */\n      dup3\n        /* \"@openzeppelin/contracts/token/ERC721/ERC721.sol\":8220:8227   */\n      dup3\n        /* \"@openzeppelin/contracts/token/ERC721/ERC721.sol\":8206:8232   */\n      mload(0x40)\n      dup1\n      0x20\n      add\n      0x40\n      mstore\n      dup1\n      0x00\n      dup2\n      mstore\n      pop\n        /* \"@openzeppelin/contracts/token/ERC721/ERC721.sol\":8206:8215   */\n      tag_461\n        /* \"@openzeppelin/contracts/token/ERC721/ERC721.sol\":8206:8232   */\n      jump\t// in\n        /* \"@openzeppelin/contracts/access/Ownable.sol\":2433:2620   */\n    tag_294:\n        /* \"@openzeppelin/contracts/access/Ownable.sol\":2525:2531   */\n      0x06\n      dup1\n      sload\n      sub(shl(0xa0, 0x01), 0x01)\n        /* \"@openzeppelin/contracts/access/Ownable.sol\":2541:2558   */\n      dup4\n      dup2\n      and\n      not(sub(shl(0xa0, 0x01), 0x01))\n      dup4\n      and\n      dup2\n      or\n      swap1\n      swap4\n      sstore\n        /* \"@openzeppelin/contracts/access/Ownable.sol\":2573:2613   */\n      mload(0x40)\n        /* \"@openzeppelin/contracts/access/Ownable.sol\":2525:2531   */\n      swap2\n      and\n      swap2\n        /* \"@openzeppelin/contracts/access/Ownable.sol\":2541:2558   */\n      swap1\n        /* \"@openzeppelin/contracts/access/Ownable.sol\":2525:2531   */\n      dup3\n      swap1\n        /* \"@openzeppelin/contracts/access/Ownable.sol\":2573:2613   */\n      0x8be0079c531659141344cd1fd0a4f28419497f9722a3daafe3b4186f6b6457e0\n      swap1\n        /* \"@openzeppelin/contracts/access/Ownable.sol\":2506:2522   */\n      0x00\n      swap1\n        /* \"@openzeppelin/contracts/access/Ownable.sol\":2573:2613   */\n      log3\n        /* \"@openzeppelin/contracts/access/Ownable.sol\":2496:2620   */\n      pop\n        /* \"@openzeppelin/contracts/access/Ownable.sol\":2433:2620   */\n      pop\n      jump\t// out\n        /* \"@openzeppelin/contracts/token/ERC721/ERC721.sol\":13075:13382   */\n    tag_316:\n        /* \"@openzeppelin/contracts/token/ERC721/ERC721.sol\":13225:13233   */\n      dup2\n      sub(shl(0xa0, 0x01), 0x01)\n        /* \"@openzeppelin/contracts/token/ERC721/ERC721.sol\":13216:13233   */\n      and\n        /* \"@openzeppelin/contracts/token/ERC721/ERC721.sol\":13216:13221   */\n      dup4\n      sub(shl(0xa0, 0x01), 0x01)\n        /* \"@openzeppelin/contracts/token/ERC721/ERC721.sol\":13216:13233   */\n      and\n      sub\n        /* \"@openzeppelin/contracts/token/ERC721/ERC721.sol\":13208:13263   */\n      tag_465\n      jumpi\n      mload(0x40)\n      shl(0xe5, 0x461bcd)\n      dup2\n      mstore\n        /* \"#utility.yul\":20792:20794   */\n      0x20\n        /* \"@openzeppelin/contracts/token/ERC721/ERC721.sol\":13208:13263   */\n      0x04\n      dup3\n      add\n        /* \"#utility.yul\":20774:20795   */\n      mstore\n        /* \"#utility.yul\":20831:20833   */\n      0x19\n        /* \"#utility.yul\":20811:20829   */\n      0x24\n      dup3\n      add\n        /* \"#utility.yul\":20804:20834   */\n      mstore\n        /* \"#utility.yul\":20870:20897   */\n      0x4552433732313a20617070726f766520746f2063616c6c657200000000000000\n        /* \"#utility.yul\":20850:20868   */\n      0x44\n      dup3\n      add\n        /* \"#utility.yul\":20843:20898   */\n      mstore\n        /* \"#utility.yul\":20915:20933   */\n      0x64\n      add\n        /* \"@openzeppelin/contracts/token/ERC721/ERC721.sol\":13208:13263   */\n      tag_217\n        /* \"#utility.yul\":20590:20939   */\n      jump\n        /* \"@openzeppelin/contracts/token/ERC721/ERC721.sol\":13208:13263   */\n    tag_465:\n      sub(shl(0xa0, 0x01), 0x01)\n        /* \"@openzeppelin/contracts/token/ERC721/ERC721.sol\":13273:13298   */\n      dup4\n      dup2\n      and\n      0x00\n      dup2\n      dup2\n      mstore\n        /* \"@openzeppelin/contracts/token/ERC721/ERC721.sol\":13273:13291   */\n      0x05\n        /* \"@openzeppelin/contracts/token/ERC721/ERC721.sol\":13273:13298   */\n      0x20\n      swap1\n      dup2\n      mstore\n      0x40\n      dup1\n      dup4\n      keccak256\n        /* \"@openzeppelin/contracts/token/ERC721/ERC721.sol\":13273:13308   */\n      swap5\n      dup8\n      and\n      dup1\n      dup5\n      mstore\n      swap5\n      dup3\n      mstore\n      swap2\n      dup3\n      swap1\n      keccak256\n        /* \"@openzeppelin/contracts/token/ERC721/ERC721.sol\":13273:13319   */\n      dup1\n      sload\n      not(0xff)\n      and\n      dup7\n      iszero\n      iszero\n      swap1\n      dup2\n      or\n      swap1\n      swap2\n      sstore\n        /* \"@openzeppelin/contracts/token/ERC721/ERC721.sol\":13334:13375   */\n      swap2\n      mload\n        /* \"#utility.yul\":540:581   */\n      swap2\n      dup3\n      mstore\n        /* \"@openzeppelin/contracts/token/ERC721/ERC721.sol\":13334:13375   */\n      0x17307eab39ab6107e8899845ad3d59bd9653f200f220920489ca2b5937696c31\n      swap2\n        /* \"#utility.yul\":513:531   */\n      add\n        /* \"@openzeppelin/contracts/token/ERC721/ERC721.sol\":13334:13375   */\n      mload(0x40)\n      dup1\n      swap2\n      sub\n      swap1\n      log3\n        /* \"@openzeppelin/contracts/token/ERC721/ERC721.sol\":13075:13382   */\n      pop\n      pop\n      pop\n      jump\t// out\n        /* \"@openzeppelin/contracts/token/ERC721/ERC721.sol\":6424:6729   */\n    tag_326:\n        /* \"@openzeppelin/contracts/token/ERC721/ERC721.sol\":6574:6602   */\n      tag_470\n        /* \"@openzeppelin/contracts/token/ERC721/ERC721.sol\":6584:6588   */\n      dup5\n        /* \"@openzeppelin/contracts/token/ERC721/ERC721.sol\":6590:6592   */\n      dup5\n        /* \"@openzeppelin/contracts/token/ERC721/ERC721.sol\":6594:6601   */\n      dup5\n        /* \"@openzeppelin/contracts/token/ERC721/ERC721.sol\":6574:6583   */\n      tag_237\n        /* \"@openzeppelin/contracts/token/ERC721/ERC721.sol\":6574:6602   */\n      jump\t// in\n    tag_470:\n        /* \"@openzeppelin/contracts/token/ERC721/ERC721.sol\":6620:6667   */\n      tag_471\n        /* \"@openzeppelin/contracts/token/ERC721/ERC721.sol\":6643:6647   */\n      dup5\n        /* \"@openzeppelin/contracts/token/ERC721/ERC721.sol\":6649:6651   */\n      dup5\n        /* \"@openzeppelin/contracts/token/ERC721/ERC721.sol\":6653:6660   */\n      dup5\n        /* \"@openzeppelin/contracts/token/ERC721/ERC721.sol\":6662:6666   */\n      dup5\n        /* \"@openzeppelin/contracts/token/ERC721/ERC721.sol\":6620:6642   */\n      tag_472\n        /* \"@openzeppelin/contracts/token/ERC721/ERC721.sol\":6620:6667   */\n      jump\t// in\n    tag_471:\n        /* \"@openzeppelin/contracts/token/ERC721/ERC721.sol\":6612:6722   */\n      tag_325\n      jumpi\n      mload(0x40)\n      shl(0xe5, 0x461bcd)\n      dup2\n      mstore\n        /* \"#utility.yul\":21146:21148   */\n      0x20\n        /* \"@openzeppelin/contracts/token/ERC721/ERC721.sol\":6612:6722   */\n      0x04\n      dup3\n      add\n        /* \"#utility.yul\":21128:21149   */\n      mstore\n        /* \"#utility.yul\":21185:21187   */\n      0x32\n        /* \"#utility.yul\":21165:21183   */\n      0x24\n      dup3\n      add\n        /* \"#utility.yul\":21158:21188   */\n      mstore\n        /* \"#utility.yul\":21224:21258   */\n      0x4552433732313a207472616e7366657220746f206e6f6e204552433732315265\n        /* \"#utility.yul\":21204:21222   */\n      0x44\n      dup3\n      add\n        /* \"#utility.yul\":21197:21259   */\n      mstore\n      shl(0x71, 0x31b2b4bb32b91034b6b83632b6b2b73a32b9)\n        /* \"#utility.yul\":21275:21293   */\n      0x64\n      dup3\n      add\n        /* \"#utility.yul\":21268:21316   */\n      mstore\n        /* \"#utility.yul\":21333:21352   */\n      0x84\n      add\n        /* \"@openzeppelin/contracts/token/ERC721/ERC721.sol\":6612:6722   */\n      tag_217\n        /* \"#utility.yul\":20944:21358   */\n      jump\n        /* \"SmokleySLounge.sol\":7181:7333  function _baseURI() ... */\n    tag_337:\n        /* \"SmokleySLounge.sol\":7274:7287  string memory */\n      0x60\n        /* \"SmokleySLounge.sol\":7313:7325  baseTokenURI */\n      0x0c\n        /* \"SmokleySLounge.sol\":7306:7325  return baseTokenURI */\n      dup1\n      sload\n      tag_205\n      swap1\n      tag_206\n      jump\t// in\n        /* \"@openzeppelin/contracts/utils/Strings.sol\":415:1111   */\n    tag_339:\n        /* \"@openzeppelin/contracts/utils/Strings.sol\":471:484   */\n      0x60\n        /* \"@openzeppelin/contracts/utils/Strings.sol\":520:534   */\n      0x00\n        /* \"@openzeppelin/contracts/utils/Strings.sol\":537:554   */\n      tag_485\n        /* \"@openzeppelin/contracts/utils/Strings.sol\":548:553   */\n      dup4\n        /* \"@openzeppelin/contracts/utils/Strings.sol\":537:547   */\n      tag_486\n        /* \"@openzeppelin/contracts/utils/Strings.sol\":537:554   */\n      jump\t// in\n    tag_485:\n        /* \"@openzeppelin/contracts/utils/Strings.sol\":557:558   */\n      0x01\n        /* \"@openzeppelin/contracts/utils/Strings.sol\":537:558   */\n      add\n        /* \"@openzeppelin/contracts/utils/Strings.sol\":520:558   */\n      swap1\n      pop\n        /* \"@openzeppelin/contracts/utils/Strings.sol\":572:592   */\n      0x00\n        /* \"@openzeppelin/contracts/utils/Strings.sol\":606:612   */\n      dup2\n        /* \"@openzeppelin/contracts/utils/Strings.sol\":595:613   */\n      0xffffffffffffffff\n      dup2\n      gt\n      iszero\n      tag_488\n      jumpi\n      tag_488\n      tag_489\n      jump\t// in\n    tag_488:\n      mload(0x40)\n      swap1\n      dup1\n      dup3\n      mstore\n      dup1\n      0x1f\n      add\n      not(0x1f)\n      and\n      0x20\n      add\n      dup3\n      add\n      0x40\n      mstore\n      dup1\n      iszero\n      tag_490\n      jumpi\n      0x20\n      dup3\n      add\n      dup2\n      dup1\n      calldatasize\n      dup4\n      calldatacopy\n      add\n      swap1\n      pop\n    tag_490:\n      pop\n        /* \"@openzeppelin/contracts/utils/Strings.sol\":572:613   */\n      swap1\n      pop\n        /* \"@openzeppelin/contracts/utils/Strings.sol\":733:761   */\n      dup2\n      dup2\n      add\n        /* \"@openzeppelin/contracts/utils/Strings.sol\":749:751   */\n      0x20\n        /* \"@openzeppelin/contracts/utils/Strings.sol\":733:761   */\n      add\n        /* \"@openzeppelin/contracts/utils/Strings.sol\":788:1068   */\n    tag_491:\n      not(0x00)\n        /* \"@openzeppelin/contracts/utils/Strings.sol\":819:824   */\n      add\n        /* \"@openzeppelin/contracts/utils/Strings.sol\":958:966   */\n      0x3031323334353637383961626364656600000000000000000000000000000000\n        /* \"@openzeppelin/contracts/utils/Strings.sol\":953:955   */\n      0x0a\n        /* \"@openzeppelin/contracts/utils/Strings.sol\":942:956   */\n      dup7\n      mod\n        /* \"@openzeppelin/contracts/utils/Strings.sol\":937:967   */\n      byte\n        /* \"@openzeppelin/contracts/utils/Strings.sol\":819:824   */\n      dup2\n        /* \"@openzeppelin/contracts/utils/Strings.sol\":924:968   */\n      mstore8\n        /* \"@openzeppelin/contracts/utils/Strings.sol\":1012:1014   */\n      0x0a\n        /* \"@openzeppelin/contracts/utils/Strings.sol\":1003:1014   */\n      dup6\n      div\n      swap5\n      pop\n        /* \"@openzeppelin/contracts/utils/Strings.sol\":1032:1053   */\n      dup5\n        /* \"@openzeppelin/contracts/utils/Strings.sol\":788:1068   */\n      tag_491\n        /* \"@openzeppelin/contracts/utils/Strings.sol\":1032:1053   */\n      jumpi\n      pop\n        /* \"@openzeppelin/contracts/utils/Strings.sol\":1088:1094   */\n      swap4\n        /* \"@openzeppelin/contracts/utils/Strings.sol\":415:1111   */\n      swap3\n      pop\n      pop\n      pop\n      jump\t// out\n        /* \"SmokleySLounge.sol\":7658:7968  function _beforeTokenTransfer(... */\n    tag_442:\n      sub(shl(0xa0, 0x01), 0x01)\n        /* \"SmokleySLounge.sol\":7907:7925  from == address(0) */\n      dup5\n      and\n      iszero\n        /* \"SmokleySLounge.sol\":7899:7950  require(from == address(0), \"can't transfer token\") */\n      tag_325\n      jumpi\n      mload(0x40)\n      shl(0xe5, 0x461bcd)\n      dup2\n      mstore\n        /* \"#utility.yul\":21565:21567   */\n      0x20\n        /* \"SmokleySLounge.sol\":7899:7950  require(from == address(0), \"can't transfer token\") */\n      0x04\n      dup3\n      add\n        /* \"#utility.yul\":21547:21568   */\n      mstore\n        /* \"#utility.yul\":21604:21606   */\n      0x14\n        /* \"#utility.yul\":21584:21602   */\n      0x24\n      dup3\n      add\n        /* \"#utility.yul\":21577:21607   */\n      mstore\n        /* \"#utility.yul\":21643:21665   */\n      0x63616e2774207472616e7366657220746f6b656e000000000000000000000000\n        /* \"#utility.yul\":21623:21641   */\n      0x44\n      dup3\n      add\n        /* \"#utility.yul\":21616:21666   */\n      mstore\n        /* \"#utility.yul\":21683:21701   */\n      0x64\n      add\n        /* \"SmokleySLounge.sol\":7899:7950  require(from == address(0), \"can't transfer token\") */\n      tag_217\n        /* \"#utility.yul\":21363:21707   */\n      jump\n        /* \"@openzeppelin/contracts/token/ERC721/ERC721.sol\":8460:8769   */\n    tag_461:\n        /* \"@openzeppelin/contracts/token/ERC721/ERC721.sol\":8584:8602   */\n      tag_504\n        /* \"@openzeppelin/contracts/token/ERC721/ERC721.sol\":8590:8592   */\n      dup4\n        /* \"@openzeppelin/contracts/token/ERC721/ERC721.sol\":8594:8601   */\n      dup4\n        /* \"@openzeppelin/contracts/token/ERC721/ERC721.sol\":8584:8589   */\n      tag_505\n        /* \"@openzeppelin/contracts/token/ERC721/ERC721.sol\":8584:8602   */\n      jump\t// in\n    tag_504:\n        /* \"@openzeppelin/contracts/token/ERC721/ERC721.sol\":8633:8686   */\n      tag_506\n        /* \"@openzeppelin/contracts/token/ERC721/ERC721.sol\":8664:8665   */\n      0x00\n        /* \"@openzeppelin/contracts/token/ERC721/ERC721.sol\":8668:8670   */\n      dup5\n        /* \"@openzeppelin/contracts/token/ERC721/ERC721.sol\":8672:8679   */\n      dup5\n        /* \"@openzeppelin/contracts/token/ERC721/ERC721.sol\":8681:8685   */\n      dup5\n        /* \"@openzeppelin/contracts/token/ERC721/ERC721.sol\":8633:8655   */\n      tag_472\n        /* \"@openzeppelin/contracts/token/ERC721/ERC721.sol\":8633:8686   */\n      jump\t// in\n    tag_506:\n        /* \"@openzeppelin/contracts/token/ERC721/ERC721.sol\":8612:8762   */\n      tag_227\n      jumpi\n      mload(0x40)\n      shl(0xe5, 0x461bcd)\n      dup2\n      mstore\n        /* \"#utility.yul\":21146:21148   */\n      0x20\n        /* \"@openzeppelin/contracts/token/ERC721/ERC721.sol\":8612:8762   */\n      0x04\n      dup3\n      add\n        /* \"#utility.yul\":21128:21149   */\n      mstore\n        /* \"#utility.yul\":21185:21187   */\n      0x32\n        /* \"#utility.yul\":21165:21183   */\n      0x24\n      dup3\n      add\n        /* \"#utility.yul\":21158:21188   */\n      mstore\n        /* \"#utility.yul\":21224:21258   */\n      0x4552433732313a207472616e7366657220746f206e6f6e204552433732315265\n        /* \"#utility.yul\":21204:21222   */\n      0x44\n      dup3\n      add\n        /* \"#utility.yul\":21197:21259   */\n      mstore\n      shl(0x71, 0x31b2b4bb32b91034b6b83632b6b2b73a32b9)\n        /* \"#utility.yul\":21275:21293   */\n      0x64\n      dup3\n      add\n        /* \"#utility.yul\":21268:21316   */\n      mstore\n        /* \"#utility.yul\":21333:21352   */\n      0x84\n      add\n        /* \"@openzeppelin/contracts/token/ERC721/ERC721.sol\":8612:8762   */\n      tag_217\n        /* \"#utility.yul\":20944:21358   */\n      jump\n        /* \"@openzeppelin/contracts/token/ERC721/ERC721.sol\":14151:14982   */\n    tag_472:\n        /* \"@openzeppelin/contracts/token/ERC721/ERC721.sol\":14300:14304   */\n      0x00\n      sub(shl(0xa0, 0x01), 0x01)\n        /* \"@openzeppelin/contracts/token/ERC721/ERC721.sol\":14320:14333   */\n      dup5\n      and\n        /* \"@openzeppelin/contracts/utils/Address.sol\":1465:1484   */\n      extcodesize\n        /* \"@openzeppelin/contracts/utils/Address.sol\":1465:1488   */\n      iszero\n        /* \"@openzeppelin/contracts/token/ERC721/ERC721.sol\":14316:14976   */\n      tag_512\n      jumpi\n        /* \"@openzeppelin/contracts/token/ERC721/ERC721.sol\":14355:14426   */\n      mload(0x40)\n      shl(0xe1, 0x0a85bd01)\n      dup2\n      mstore\n      sub(shl(0xa0, 0x01), 0x01)\n        /* \"@openzeppelin/contracts/token/ERC721/ERC721.sol\":14355:14391   */\n      dup6\n      and\n      swap1\n      0x150b7a02\n      swap1\n        /* \"@openzeppelin/contracts/token/ERC721/ERC721.sol\":14355:14426   */\n      tag_514\n      swap1\n        /* \"@openzeppelin/contracts/utils/Context.sol\":719:729   */\n      caller\n      swap1\n        /* \"@openzeppelin/contracts/token/ERC721/ERC721.sol\":14406:14410   */\n      dup10\n      swap1\n        /* \"@openzeppelin/contracts/token/ERC721/ERC721.sol\":14412:14419   */\n      dup9\n      swap1\n        /* \"@openzeppelin/contracts/token/ERC721/ERC721.sol\":14421:14425   */\n      dup9\n      swap1\n        /* \"@openzeppelin/contracts/token/ERC721/ERC721.sol\":14355:14426   */\n      0x04\n      add\n      tag_515\n      jump\t// in\n    tag_514:\n      0x20\n      mload(0x40)\n      dup1\n      dup4\n      sub\n      dup2\n      0x00\n      dup8\n      gas\n      call\n      swap3\n      pop\n      pop\n      pop\n      dup1\n      iszero\n      tag_516\n      jumpi\n      pop\n      0x40\n      dup1\n      mload\n      0x1f\n      returndatasize\n      swap1\n      dup2\n      add\n      not(0x1f)\n      and\n      dup3\n      add\n      swap1\n      swap3\n      mstore\n      tag_517\n      swap2\n      dup2\n      add\n      swap1\n      tag_518\n      jump\t// in\n    tag_517:\n      0x01\n    tag_516:\n        /* \"@openzeppelin/contracts/token/ERC721/ERC721.sol\":14351:14924   */\n      tag_519\n      jumpi\n      returndatasize\n      dup1\n      dup1\n      iszero\n      tag_524\n      jumpi\n      mload(0x40)\n      swap2\n      pop\n      and(add(returndatasize, 0x3f), not(0x1f))\n      dup3\n      add\n      0x40\n      mstore\n      returndatasize\n      dup3\n      mstore\n      returndatasize\n      0x00\n      0x20\n      dup5\n      add\n      returndatacopy\n      jump(tag_523)\n    tag_524:\n      0x60\n      swap2\n      pop\n    tag_523:\n      pop\n        /* \"@openzeppelin/contracts/token/ERC721/ERC721.sol\":14593:14599   */\n      dup1\n        /* \"@openzeppelin/contracts/token/ERC721/ERC721.sol\":14593:14606   */\n      mload\n        /* \"@openzeppelin/contracts/token/ERC721/ERC721.sol\":14610:14611   */\n      0x00\n        /* \"@openzeppelin/contracts/token/ERC721/ERC721.sol\":14593:14611   */\n      sub\n        /* \"@openzeppelin/contracts/token/ERC721/ERC721.sol\":14589:14910   */\n      tag_525\n      jumpi\n        /* \"@openzeppelin/contracts/token/ERC721/ERC721.sol\":14635:14695   */\n      mload(0x40)\n      shl(0xe5, 0x461bcd)\n      dup2\n      mstore\n        /* \"#utility.yul\":21146:21148   */\n      0x20\n        /* \"@openzeppelin/contracts/token/ERC721/ERC721.sol\":14635:14695   */\n      0x04\n      dup3\n      add\n        /* \"#utility.yul\":21128:21149   */\n      mstore\n        /* \"#utility.yul\":21185:21187   */\n      0x32\n        /* \"#utility.yul\":21165:21183   */\n      0x24\n      dup3\n      add\n        /* \"#utility.yul\":21158:21188   */\n      mstore\n        /* \"#utility.yul\":21224:21258   */\n      0x4552433732313a207472616e7366657220746f206e6f6e204552433732315265\n        /* \"#utility.yul\":21204:21222   */\n      0x44\n      dup3\n      add\n        /* \"#utility.yul\":21197:21259   */\n      mstore\n      shl(0x71, 0x31b2b4bb32b91034b6b83632b6b2b73a32b9)\n        /* \"#utility.yul\":21275:21293   */\n      0x64\n      dup3\n      add\n        /* \"#utility.yul\":21268:21316   */\n      mstore\n        /* \"#utility.yul\":21333:21352   */\n      0x84\n      add\n        /* \"@openzeppelin/contracts/token/ERC721/ERC721.sol\":14635:14695   */\n      tag_217\n        /* \"#utility.yul\":20944:21358   */\n      jump\n        /* \"@openzeppelin/contracts/token/ERC721/ERC721.sol\":14589:14910   */\n    tag_525:\n        /* \"@openzeppelin/contracts/token/ERC721/ERC721.sol\":14862:14868   */\n      dup1\n        /* \"@openzeppelin/contracts/token/ERC721/ERC721.sol\":14856:14869   */\n      mload\n        /* \"@openzeppelin/contracts/token/ERC721/ERC721.sol\":14847:14853   */\n      dup2\n        /* \"@openzeppelin/contracts/token/ERC721/ERC721.sol\":14843:14845   */\n      0x20\n        /* \"@openzeppelin/contracts/token/ERC721/ERC721.sol\":14839:14854   */\n      add\n        /* \"@openzeppelin/contracts/token/ERC721/ERC721.sol\":14832:14870   */\n      revert\n        /* \"@openzeppelin/contracts/token/ERC721/ERC721.sol\":14351:14924   */\n    tag_519:\n      not(sub(shl(0xe0, 0x01), 0x01))\n        /* \"@openzeppelin/contracts/token/ERC721/ERC721.sol\":14476:14527   */\n      and\n      shl(0xe1, 0x0a85bd01)\n      eq\n      swap1\n      pop\n        /* \"@openzeppelin/contracts/token/ERC721/ERC721.sol\":14469:14527   */\n      jump(tag_431)\n        /* \"@openzeppelin/contracts/token/ERC721/ERC721.sol\":14316:14976   */\n    tag_512:\n      pop\n        /* \"@openzeppelin/contracts/token/ERC721/ERC721.sol\":14961:14965   */\n      0x01\n        /* \"@openzeppelin/contracts/token/ERC721/ERC721.sol\":14151:14982   */\n      swap5\n      swap4\n      pop\n      pop\n      pop\n      pop\n      jump\t// out\n        /* \"@openzeppelin/contracts/utils/math/Math.sol\":9889:10779   */\n    tag_486:\n        /* \"@openzeppelin/contracts/utils/math/Math.sol\":9942:9949   */\n      0x00\n      dup1\n        /* \"@openzeppelin/contracts/utils/math/Math.sol\":10026:10032   */\n      0x184f03e93ff9f4daa797ed6e38ed64bf6a1f010000000000000000\n        /* \"@openzeppelin/contracts/utils/math/Math.sol\":10017:10032   */\n      dup4\n      lt\n        /* \"@openzeppelin/contracts/utils/math/Math.sol\":10013:10112   */\n      tag_531\n      jumpi\n        /* \"@openzeppelin/contracts/utils/math/Math.sol\":10061:10067   */\n      0x184f03e93ff9f4daa797ed6e38ed64bf6a1f010000000000000000\n        /* \"@openzeppelin/contracts/utils/math/Math.sol\":10052:10067   */\n      dup4\n      div\n      swap3\n      pop\n        /* \"@openzeppelin/contracts/utils/math/Math.sol\":10095:10097   */\n      0x40\n        /* \"@openzeppelin/contracts/utils/math/Math.sol\":10085:10097   */\n      add\n        /* \"@openzeppelin/contracts/utils/math/Math.sol\":10013:10112   */\n    tag_531:\n        /* \"@openzeppelin/contracts/utils/math/Math.sol\":10138:10144   */\n      0x04ee2d6d415b85acef8100000000\n        /* \"@openzeppelin/contracts/utils/math/Math.sol\":10129:10134   */\n      dup4\n        /* \"@openzeppelin/contracts/utils/math/Math.sol\":10129:10144   */\n      lt\n        /* \"@openzeppelin/contracts/utils/math/Math.sol\":10125:10224   */\n      tag_534\n      jumpi\n        /* \"@openzeppelin/contracts/utils/math/Math.sol\":10173:10179   */\n      0x04ee2d6d415b85acef8100000000\n        /* \"@openzeppelin/contracts/utils/math/Math.sol\":10164:10179   */\n      dup4\n      div\n      swap3\n      pop\n        /* \"@openzeppelin/contracts/utils/math/Math.sol\":10207:10209   */\n      0x20\n        /* \"@openzeppelin/contracts/utils/math/Math.sol\":10197:10209   */\n      add\n        /* \"@openzeppelin/contracts/utils/math/Math.sol\":10125:10224   */\n    tag_534:\n        /* \"@openzeppelin/contracts/utils/math/Math.sol\":10250:10256   */\n      0x2386f26fc10000\n        /* \"@openzeppelin/contracts/utils/math/Math.sol\":10241:10246   */\n      dup4\n        /* \"@openzeppelin/contracts/utils/math/Math.sol\":10241:10256   */\n      lt\n        /* \"@openzeppelin/contracts/utils/math/Math.sol\":10237:10336   */\n      tag_537\n      jumpi\n        /* \"@openzeppelin/contracts/utils/math/Math.sol\":10285:10291   */\n      0x2386f26fc10000\n        /* \"@openzeppelin/contracts/utils/math/Math.sol\":10276:10291   */\n      dup4\n      div\n      swap3\n      pop\n        /* \"@openzeppelin/contracts/utils/math/Math.sol\":10319:10321   */\n      0x10\n        /* \"@openzeppelin/contracts/utils/math/Math.sol\":10309:10321   */\n      add\n        /* \"@openzeppelin/contracts/utils/math/Math.sol\":10237:10336   */\n    tag_537:\n        /* \"@openzeppelin/contracts/utils/math/Math.sol\":10362:10367   */\n      0x05f5e100\n        /* \"@openzeppelin/contracts/utils/math/Math.sol\":10353:10358   */\n      dup4\n        /* \"@openzeppelin/contracts/utils/math/Math.sol\":10353:10367   */\n      lt\n        /* \"@openzeppelin/contracts/utils/math/Math.sol\":10349:10445   */\n      tag_540\n      jumpi\n        /* \"@openzeppelin/contracts/utils/math/Math.sol\":10396:10401   */\n      0x05f5e100\n        /* \"@openzeppelin/contracts/utils/math/Math.sol\":10387:10401   */\n      dup4\n      div\n      swap3\n      pop\n        /* \"@openzeppelin/contracts/utils/math/Math.sol\":10429:10430   */\n      0x08\n        /* \"@openzeppelin/contracts/utils/math/Math.sol\":10419:10430   */\n      add\n        /* \"@openzeppelin/contracts/utils/math/Math.sol\":10349:10445   */\n    tag_540:\n        /* \"@openzeppelin/contracts/utils/math/Math.sol\":10471:10476   */\n      0x2710\n        /* \"@openzeppelin/contracts/utils/math/Math.sol\":10462:10467   */\n      dup4\n        /* \"@openzeppelin/contracts/utils/math/Math.sol\":10462:10476   */\n      lt\n        /* \"@openzeppelin/contracts/utils/math/Math.sol\":10458:10554   */\n      tag_543\n      jumpi\n        /* \"@openzeppelin/contracts/utils/math/Math.sol\":10505:10510   */\n      0x2710\n        /* \"@openzeppelin/contracts/utils/math/Math.sol\":10496:10510   */\n      dup4\n      div\n      swap3\n      pop\n        /* \"@openzeppelin/contracts/utils/math/Math.sol\":10538:10539   */\n      0x04\n        /* \"@openzeppelin/contracts/utils/math/Math.sol\":10528:10539   */\n      add\n        /* \"@openzeppelin/contracts/utils/math/Math.sol\":10458:10554   */\n    tag_543:\n        /* \"@openzeppelin/contracts/utils/math/Math.sol\":10580:10585   */\n      0x64\n        /* \"@openzeppelin/contracts/utils/math/Math.sol\":10571:10576   */\n      dup4\n        /* \"@openzeppelin/contracts/utils/math/Math.sol\":10571:10585   */\n      lt\n        /* \"@openzeppelin/contracts/utils/math/Math.sol\":10567:10663   */\n      tag_546\n      jumpi\n        /* \"@openzeppelin/contracts/utils/math/Math.sol\":10614:10619   */\n      0x64\n        /* \"@openzeppelin/contracts/utils/math/Math.sol\":10605:10619   */\n      dup4\n      div\n      swap3\n      pop\n        /* \"@openzeppelin/contracts/utils/math/Math.sol\":10647:10648   */\n      0x02\n        /* \"@openzeppelin/contracts/utils/math/Math.sol\":10637:10648   */\n      add\n        /* \"@openzeppelin/contracts/utils/math/Math.sol\":10567:10663   */\n    tag_546:\n        /* \"@openzeppelin/contracts/utils/math/Math.sol\":10689:10694   */\n      0x0a\n        /* \"@openzeppelin/contracts/utils/math/Math.sol\":10680:10685   */\n      dup4\n        /* \"@openzeppelin/contracts/utils/math/Math.sol\":10680:10694   */\n      lt\n        /* \"@openzeppelin/contracts/utils/math/Math.sol\":10676:10740   */\n      tag_202\n      jumpi\n        /* \"@openzeppelin/contracts/utils/math/Math.sol\":10724:10725   */\n      0x01\n        /* \"@openzeppelin/contracts/utils/math/Math.sol\":10714:10725   */\n      add\n        /* \"@openzeppelin/contracts/utils/math/Math.sol\":10766:10772   */\n      swap3\n        /* \"@openzeppelin/contracts/utils/math/Math.sol\":9889:10779   */\n      swap2\n      pop\n      pop\n      jump\t// out\n        /* \"@openzeppelin/contracts/token/ERC721/ERC721.sol\":9091:10011   */\n    tag_505:\n      sub(shl(0xa0, 0x01), 0x01)\n        /* \"@openzeppelin/contracts/token/ERC721/ERC721.sol\":9170:9186   */\n      dup3\n      and\n        /* \"@openzeppelin/contracts/token/ERC721/ERC721.sol\":9162:9223   */\n      tag_551\n      jumpi\n      mload(0x40)\n      shl(0xe5, 0x461bcd)\n      dup2\n      mstore\n        /* \"#utility.yul\":22685:22687   */\n      0x20\n        /* \"@openzeppelin/contracts/token/ERC721/ERC721.sol\":9162:9223   */\n      0x04\n      dup3\n      add\n        /* \"#utility.yul\":22667:22688   */\n      dup2\n      swap1\n      mstore\n        /* \"#utility.yul\":22704:22722   */\n      0x24\n      dup3\n      add\n        /* \"#utility.yul\":22697:22727   */\n      mstore\n        /* \"#utility.yul\":22763:22797   */\n      0x4552433732313a206d696e7420746f20746865207a65726f2061646472657373\n        /* \"#utility.yul\":22743:22761   */\n      0x44\n      dup3\n      add\n        /* \"#utility.yul\":22736:22798   */\n      mstore\n        /* \"#utility.yul\":22815:22833   */\n      0x64\n      add\n        /* \"@openzeppelin/contracts/token/ERC721/ERC721.sol\":9162:9223   */\n      tag_217\n        /* \"#utility.yul\":22483:22839   */\n      jump\n        /* \"@openzeppelin/contracts/token/ERC721/ERC721.sol\":9162:9223   */\n    tag_551:\n        /* \"@openzeppelin/contracts/token/ERC721/ERC721.sol\":7321:7325   */\n      0x00\n        /* \"@openzeppelin/contracts/token/ERC721/ERC721.sol\":6930:6946   */\n      dup2\n      dup2\n      mstore\n        /* \"@openzeppelin/contracts/token/ERC721/ERC721.sol\":6930:6937   */\n      0x02\n        /* \"@openzeppelin/contracts/token/ERC721/ERC721.sol\":6930:6946   */\n      0x20\n      mstore\n      0x40\n      swap1\n      keccak256\n      sload\n      sub(shl(0xa0, 0x01), 0x01)\n      and\n        /* \"@openzeppelin/contracts/token/ERC721/ERC721.sol\":7344:7375   */\n      iszero\n        /* \"@openzeppelin/contracts/token/ERC721/ERC721.sol\":9233:9291   */\n      tag_555\n      jumpi\n      mload(0x40)\n      shl(0xe5, 0x461bcd)\n      dup2\n      mstore\n        /* \"#utility.yul\":23046:23048   */\n      0x20\n        /* \"@openzeppelin/contracts/token/ERC721/ERC721.sol\":9233:9291   */\n      0x04\n      dup3\n      add\n        /* \"#utility.yul\":23028:23049   */\n      mstore\n        /* \"#utility.yul\":23085:23087   */\n      0x1c\n        /* \"#utility.yul\":23065:23083   */\n      0x24\n      dup3\n      add\n        /* \"#utility.yul\":23058:23088   */\n      mstore\n        /* \"#utility.yul\":23124:23154   */\n      0x4552433732313a20746f6b656e20616c7265616479206d696e74656400000000\n        /* \"#utility.yul\":23104:23122   */\n      0x44\n      dup3\n      add\n        /* \"#utility.yul\":23097:23155   */\n      mstore\n        /* \"#utility.yul\":23172:23190   */\n      0x64\n      add\n        /* \"@openzeppelin/contracts/token/ERC721/ERC721.sol\":9233:9291   */\n      tag_217\n        /* \"#utility.yul\":22844:23196   */\n      jump\n        /* \"@openzeppelin/contracts/token/ERC721/ERC721.sol\":9233:9291   */\n    tag_555:\n        /* \"@openzeppelin/contracts/token/ERC721/ERC721.sol\":9302:9350   */\n      tag_558\n        /* \"@openzeppelin/contracts/token/ERC721/ERC721.sol\":9331:9332   */\n      0x00\n        /* \"@openzeppelin/contracts/token/ERC721/ERC721.sol\":9335:9337   */\n      dup4\n        /* \"@openzeppelin/contracts/token/ERC721/ERC721.sol\":9339:9346   */\n      dup4\n        /* \"@openzeppelin/contracts/token/ERC721/ERC721.sol\":9348:9349   */\n      0x01\n        /* \"@openzeppelin/contracts/token/ERC721/ERC721.sol\":9302:9322   */\n      tag_442\n        /* \"@openzeppelin/contracts/token/ERC721/ERC721.sol\":9302:9350   */\n      jump\t// in\n    tag_558:\n        /* \"@openzeppelin/contracts/token/ERC721/ERC721.sol\":7321:7325   */\n      0x00\n        /* \"@openzeppelin/contracts/token/ERC721/ERC721.sol\":6930:6946   */\n      dup2\n      dup2\n      mstore\n        /* \"@openzeppelin/contracts/token/ERC721/ERC721.sol\":6930:6937   */\n      0x02\n        /* \"@openzeppelin/contracts/token/ERC721/ERC721.sol\":6930:6946   */\n      0x20\n      mstore\n      0x40\n      swap1\n      keccak256\n      sload\n      sub(shl(0xa0, 0x01), 0x01)\n      and\n        /* \"@openzeppelin/contracts/token/ERC721/ERC721.sol\":7344:7375   */\n      iszero\n        /* \"@openzeppelin/contracts/token/ERC721/ERC721.sol\":9437:9495   */\n      tag_560\n      jumpi\n      mload(0x40)\n      shl(0xe5, 0x461bcd)\n      dup2\n      mstore\n        /* \"#utility.yul\":23046:23048   */\n      0x20\n        /* \"@openzeppelin/contracts/token/ERC721/ERC721.sol\":9437:9495   */\n      0x04\n      dup3\n      add\n        /* \"#utility.yul\":23028:23049   */\n      mstore\n        /* \"#utility.yul\":23085:23087   */\n      0x1c\n        /* \"#utility.yul\":23065:23083   */\n      0x24\n      dup3\n      add\n        /* \"#utility.yul\":23058:23088   */\n      mstore\n        /* \"#utility.yul\":23124:23154   */\n      0x4552433732313a20746f6b656e20616c7265616479206d696e74656400000000\n        /* \"#utility.yul\":23104:23122   */\n      0x44\n      dup3\n      add\n        /* \"#utility.yul\":23097:23155   */\n      mstore\n        /* \"#utility.yul\":23172:23190   */\n      0x64\n      add\n        /* \"@openzeppelin/contracts/token/ERC721/ERC721.sol\":9437:9495   */\n      tag_217\n        /* \"#utility.yul\":22844:23196   */\n      jump\n        /* \"@openzeppelin/contracts/token/ERC721/ERC721.sol\":9437:9495   */\n    tag_560:\n      sub(shl(0xa0, 0x01), 0x01)\n        /* \"@openzeppelin/contracts/token/ERC721/ERC721.sol\":9837:9850   */\n      dup3\n      and\n      0x00\n      dup2\n      dup2\n      mstore\n        /* \"@openzeppelin/contracts/token/ERC721/ERC721.sol\":9837:9846   */\n      0x03\n        /* \"@openzeppelin/contracts/token/ERC721/ERC721.sol\":9837:9850   */\n      0x20\n      swap1\n      dup2\n      mstore\n      0x40\n      dup1\n      dup4\n      keccak256\n        /* \"@openzeppelin/contracts/token/ERC721/ERC721.sol\":9837:9855   */\n      dup1\n      sload\n        /* \"@openzeppelin/contracts/token/ERC721/ERC721.sol\":9854:9855   */\n      0x01\n        /* \"@openzeppelin/contracts/token/ERC721/ERC721.sol\":9837:9855   */\n      add\n      swap1\n      sstore\n        /* \"@openzeppelin/contracts/token/ERC721/ERC721.sol\":9876:9892   */\n      dup5\n      dup4\n      mstore\n        /* \"@openzeppelin/contracts/token/ERC721/ERC721.sol\":9876:9883   */\n      0x02\n        /* \"@openzeppelin/contracts/token/ERC721/ERC721.sol\":9876:9892   */\n      swap1\n      swap2\n      mstore\n      dup1\n      dup3\n      keccak256\n        /* \"@openzeppelin/contracts/token/ERC721/ERC721.sol\":9876:9897   */\n      dup1\n      sload\n      not(sub(shl(0xa0, 0x01), 0x01))\n      and\n      dup5\n      or\n      swap1\n      sstore\n        /* \"@openzeppelin/contracts/token/ERC721/ERC721.sol\":9913:9946   */\n      mload\n        /* \"@openzeppelin/contracts/token/ERC721/ERC721.sol\":9884:9891   */\n      dup4\n      swap3\n        /* \"@openzeppelin/contracts/token/ERC721/ERC721.sol\":9837:9850   */\n      swap2\n      swap1\n        /* \"@openzeppelin/contracts/token/ERC721/ERC721.sol\":9913:9946   */\n      0xddf252ad1be2c89b69c2b068fc378daa952ba7f163c4a11628f55a4df523b3ef\n      swap1\n        /* \"@openzeppelin/contracts/token/ERC721/ERC721.sol\":9837:9850   */\n      dup3\n      swap1\n        /* \"@openzeppelin/contracts/token/ERC721/ERC721.sol\":9913:9946   */\n      log4\n        /* \"SmokleySLounge.sol\":2828:2849  baseTokenURI = newuri */\n      pop\n        /* \"SmokleySLounge.sol\":2727:2857  function setBaseTokenURI(string memory newuri) ... */\n      pop\n      jump\t// out\n        /* \"#utility.yul\":14:145   */\n    tag_564:\n      not(sub(shl(0xe0, 0x01), 0x01))\n        /* \"#utility.yul\":88:120   */\n      dup2\n      and\n        /* \"#utility.yul\":78:121   */\n      dup2\n      eq\n        /* \"#utility.yul\":68:139   */\n      tag_391\n      jumpi\n        /* \"#utility.yul\":135:136   */\n      0x00\n        /* \"#utility.yul\":132:133   */\n      dup1\n        /* \"#utility.yul\":125:137   */\n      revert\n        /* \"#utility.yul\":150:395   */\n    tag_48:\n        /* \"#utility.yul\":208:214   */\n      0x00\n        /* \"#utility.yul\":261:263   */\n      0x20\n        /* \"#utility.yul\":249:258   */\n      dup3\n        /* \"#utility.yul\":240:247   */\n      dup5\n        /* \"#utility.yul\":236:259   */\n      sub\n        /* \"#utility.yul\":232:264   */\n      slt\n        /* \"#utility.yul\":229:281   */\n      iszero\n      tag_579\n      jumpi\n        /* \"#utility.yul\":277:278   */\n      0x00\n        /* \"#utility.yul\":274:275   */\n      dup1\n        /* \"#utility.yul\":267:279   */\n      revert\n        /* \"#utility.yul\":229:281   */\n    tag_579:\n        /* \"#utility.yul\":316:325   */\n      dup2\n        /* \"#utility.yul\":303:326   */\n      calldataload\n        /* \"#utility.yul\":335:365   */\n      tag_580\n        /* \"#utility.yul\":359:364   */\n      dup2\n        /* \"#utility.yul\":335:365   */\n      tag_564\n      jump\t// in\n    tag_580:\n        /* \"#utility.yul\":384:389   */\n      swap4\n        /* \"#utility.yul\":150:395   */\n      swap3\n      pop\n      pop\n      pop\n      jump\t// out\n        /* \"#utility.yul\":592:842   */\n    tag_565:\n        /* \"#utility.yul\":677:678   */\n      0x00\n        /* \"#utility.yul\":687:800   */\n    tag_583:\n        /* \"#utility.yul\":701:707   */\n      dup4\n        /* \"#utility.yul\":698:699   */\n      dup2\n        /* \"#utility.yul\":695:708   */\n      lt\n        /* \"#utility.yul\":687:800   */\n      iszero\n      tag_585\n      jumpi\n        /* \"#utility.yul\":777:788   */\n      dup2\n      dup2\n      add\n        /* \"#utility.yul\":771:789   */\n      mload\n        /* \"#utility.yul\":758:769   */\n      dup4\n      dup3\n      add\n        /* \"#utility.yul\":751:790   */\n      mstore\n        /* \"#utility.yul\":723:725   */\n      0x20\n        /* \"#utility.yul\":716:726   */\n      add\n        /* \"#utility.yul\":687:800   */\n      jump(tag_583)\n    tag_585:\n      pop\n      pop\n        /* \"#utility.yul\":834:835   */\n      0x00\n        /* \"#utility.yul\":816:832   */\n      swap2\n      add\n        /* \"#utility.yul\":809:836   */\n      mstore\n        /* \"#utility.yul\":592:842   */\n      jump\t// out\n        /* \"#utility.yul\":847:1118   */\n    tag_566:\n        /* \"#utility.yul\":889:892   */\n      0x00\n        /* \"#utility.yul\":927:932   */\n      dup2\n        /* \"#utility.yul\":921:933   */\n      mload\n        /* \"#utility.yul\":954:960   */\n      dup1\n        /* \"#utility.yul\":949:952   */\n      dup5\n        /* \"#utility.yul\":942:961   */\n      mstore\n        /* \"#utility.yul\":970:1046   */\n      tag_587\n        /* \"#utility.yul\":1039:1045   */\n      dup2\n        /* \"#utility.yul\":1032:1036   */\n      0x20\n        /* \"#utility.yul\":1027:1030   */\n      dup7\n        /* \"#utility.yul\":1023:1037   */\n      add\n        /* \"#utility.yul\":1016:1020   */\n      0x20\n        /* \"#utility.yul\":1009:1014   */\n      dup7\n        /* \"#utility.yul\":1005:1021   */\n      add\n        /* \"#utility.yul\":970:1046   */\n      tag_565\n      jump\t// in\n    tag_587:\n        /* \"#utility.yul\":1100:1102   */\n      0x1f\n        /* \"#utility.yul\":1079:1094   */\n      add\n      not(0x1f)\n        /* \"#utility.yul\":1075:1104   */\n      and\n        /* \"#utility.yul\":1066:1105   */\n      swap3\n      swap1\n      swap3\n      add\n        /* \"#utility.yul\":1107:1111   */\n      0x20\n        /* \"#utility.yul\":1062:1112   */\n      add\n      swap3\n        /* \"#utility.yul\":847:1118   */\n      swap2\n      pop\n      pop\n      jump\t// out\n        /* \"#utility.yul\":1123:1343   */\n    tag_56:\n        /* \"#utility.yul\":1272:1274   */\n      0x20\n        /* \"#utility.yul\":1261:1270   */\n      dup2\n        /* \"#utility.yul\":1254:1275   */\n      mstore\n        /* \"#utility.yul\":1235:1239   */\n      0x00\n        /* \"#utility.yul\":1292:1337   */\n      tag_580\n        /* \"#utility.yul\":1333:1335   */\n      0x20\n        /* \"#utility.yul\":1322:1331   */\n      dup4\n        /* \"#utility.yul\":1318:1336   */\n      add\n        /* \"#utility.yul\":1310:1316   */\n      dup5\n        /* \"#utility.yul\":1292:1337   */\n      tag_566\n      jump\t// in\n        /* \"#utility.yul\":1348:1528   */\n    tag_60:\n        /* \"#utility.yul\":1407:1413   */\n      0x00\n        /* \"#utility.yul\":1460:1462   */\n      0x20\n        /* \"#utility.yul\":1448:1457   */\n      dup3\n        /* \"#utility.yul\":1439:1446   */\n      dup5\n        /* \"#utility.yul\":1435:1458   */\n      sub\n        /* \"#utility.yul\":1431:1463   */\n      slt\n        /* \"#utility.yul\":1428:1480   */\n      iszero\n      tag_591\n      jumpi\n        /* \"#utility.yul\":1476:1477   */\n      0x00\n        /* \"#utility.yul\":1473:1474   */\n      dup1\n        /* \"#utility.yul\":1466:1478   */\n      revert\n        /* \"#utility.yul\":1428:1480   */\n    tag_591:\n      pop\n        /* \"#utility.yul\":1499:1522   */\n      calldataload\n      swap2\n        /* \"#utility.yul\":1348:1528   */\n      swap1\n      pop\n      jump\t// out\n        /* \"#utility.yul\":1764:1960   */\n    tag_567:\n        /* \"#utility.yul\":1832:1852   */\n      dup1\n      calldataload\n      sub(shl(0xa0, 0x01), 0x01)\n        /* \"#utility.yul\":1881:1935   */\n      dup2\n      and\n        /* \"#utility.yul\":1871:1936   */\n      dup2\n      eq\n        /* \"#utility.yul\":1861:1954   */\n      tag_306\n      jumpi\n        /* \"#utility.yul\":1950:1951   */\n      0x00\n        /* \"#utility.yul\":1947:1948   */\n      dup1\n        /* \"#utility.yul\":1940:1952   */\n      revert\n        /* \"#utility.yul\":1965:2219   */\n    tag_67:\n        /* \"#utility.yul\":2033:2039   */\n      0x00\n        /* \"#utility.yul\":2041:2047   */\n      dup1\n        /* \"#utility.yul\":2094:2096   */\n      0x40\n        /* \"#utility.yul\":2082:2091   */\n      dup4\n        /* \"#utility.yul\":2073:2080   */\n      dup6\n        /* \"#utility.yul\":2069:2092   */\n      sub\n        /* \"#utility.yul\":2065:2097   */\n      slt\n        /* \"#utility.yul\":2062:2114   */\n      iszero\n      tag_596\n      jumpi\n        /* \"#utility.yul\":2110:2111   */\n      0x00\n        /* \"#utility.yul\":2107:2108   */\n      dup1\n        /* \"#utility.yul\":2100:2112   */\n      revert\n        /* \"#utility.yul\":2062:2114   */\n    tag_596:\n        /* \"#utility.yul\":2133:2162   */\n      tag_597\n        /* \"#utility.yul\":2152:2161   */\n      dup4\n        /* \"#utility.yul\":2133:2162   */\n      tag_567\n      jump\t// in\n    tag_597:\n        /* \"#utility.yul\":2123:2162   */\n      swap5\n        /* \"#utility.yul\":2209:2211   */\n      0x20\n        /* \"#utility.yul\":2194:2212   */\n      swap4\n      swap1\n      swap4\n      add\n        /* \"#utility.yul\":2181:2213   */\n      calldataload\n      swap4\n      pop\n      pop\n      pop\n        /* \"#utility.yul\":1965:2219   */\n      jump\t// out\n        /* \"#utility.yul\":2406:2734   */\n    tag_81:\n        /* \"#utility.yul\":2483:2489   */\n      0x00\n        /* \"#utility.yul\":2491:2497   */\n      dup1\n        /* \"#utility.yul\":2499:2505   */\n      0x00\n        /* \"#utility.yul\":2552:2554   */\n      0x60\n        /* \"#utility.yul\":2540:2549   */\n      dup5\n        /* \"#utility.yul\":2531:2538   */\n      dup7\n        /* \"#utility.yul\":2527:2550   */\n      sub\n        /* \"#utility.yul\":2523:2555   */\n      slt\n        /* \"#utility.yul\":2520:2572   */\n      iszero\n      tag_600\n      jumpi\n        /* \"#utility.yul\":2568:2569   */\n      0x00\n        /* \"#utility.yul\":2565:2566   */\n      dup1\n        /* \"#utility.yul\":2558:2570   */\n      revert\n        /* \"#utility.yul\":2520:2572   */\n    tag_600:\n        /* \"#utility.yul\":2591:2620   */\n      tag_601\n        /* \"#utility.yul\":2610:2619   */\n      dup5\n        /* \"#utility.yul\":2591:2620   */\n      tag_567\n      jump\t// in\n    tag_601:\n        /* \"#utility.yul\":2581:2620   */\n      swap3\n      pop\n        /* \"#utility.yul\":2639:2677   */\n      tag_602\n        /* \"#utility.yul\":2673:2675   */\n      0x20\n        /* \"#utility.yul\":2662:2671   */\n      dup6\n        /* \"#utility.yul\":2658:2676   */\n      add\n        /* \"#utility.yul\":2639:2677   */\n      tag_567\n      jump\t// in\n    tag_602:\n        /* \"#utility.yul\":2629:2677   */\n      swap2\n      pop\n        /* \"#utility.yul\":2724:2726   */\n      0x40\n        /* \"#utility.yul\":2713:2722   */\n      dup5\n        /* \"#utility.yul\":2709:2727   */\n      add\n        /* \"#utility.yul\":2696:2728   */\n      calldataload\n        /* \"#utility.yul\":2686:2728   */\n      swap1\n      pop\n        /* \"#utility.yul\":2406:2734   */\n      swap3\n      pop\n      swap3\n      pop\n      swap3\n      jump\t// out\n        /* \"#utility.yul\":2739:2866   */\n    tag_489:\n        /* \"#utility.yul\":2800:2810   */\n      0x4e487b71\n        /* \"#utility.yul\":2795:2798   */\n      0xe0\n        /* \"#utility.yul\":2791:2811   */\n      shl\n        /* \"#utility.yul\":2788:2789   */\n      0x00\n        /* \"#utility.yul\":2781:2812   */\n      mstore\n        /* \"#utility.yul\":2831:2835   */\n      0x41\n        /* \"#utility.yul\":2828:2829   */\n      0x04\n        /* \"#utility.yul\":2821:2836   */\n      mstore\n        /* \"#utility.yul\":2855:2859   */\n      0x24\n        /* \"#utility.yul\":2852:2853   */\n      0x00\n        /* \"#utility.yul\":2845:2860   */\n      revert\n        /* \"#utility.yul\":2871:3503   */\n    tag_568:\n        /* \"#utility.yul\":2936:2941   */\n      0x00\n        /* \"#utility.yul\":2966:2984   */\n      0xffffffffffffffff\n        /* \"#utility.yul\":3007:3009   */\n      dup1\n        /* \"#utility.yul\":2999:3005   */\n      dup5\n        /* \"#utility.yul\":2996:3010   */\n      gt\n        /* \"#utility.yul\":2993:3033   */\n      iszero\n      tag_606\n      jumpi\n        /* \"#utility.yul\":3013:3031   */\n      tag_606\n      tag_489\n      jump\t// in\n    tag_606:\n        /* \"#utility.yul\":3088:3090   */\n      0x40\n        /* \"#utility.yul\":3082:3091   */\n      mload\n        /* \"#utility.yul\":3056:3058   */\n      0x1f\n        /* \"#utility.yul\":3142:3157   */\n      dup6\n      add\n      not(0x1f)\n        /* \"#utility.yul\":3138:3162   */\n      swap1\n      dup2\n      and\n        /* \"#utility.yul\":3164:3166   */\n      0x3f\n        /* \"#utility.yul\":3134:3167   */\n      add\n        /* \"#utility.yul\":3130:3172   */\n      and\n        /* \"#utility.yul\":3118:3173   */\n      dup2\n      add\n      swap1\n        /* \"#utility.yul\":3188:3206   */\n      dup3\n      dup3\n      gt\n        /* \"#utility.yul\":3208:3230   */\n      dup2\n      dup4\n      lt\n        /* \"#utility.yul\":3185:3231   */\n      or\n        /* \"#utility.yul\":3182:3254   */\n      iszero\n      tag_608\n      jumpi\n        /* \"#utility.yul\":3234:3252   */\n      tag_608\n      tag_489\n      jump\t// in\n    tag_608:\n        /* \"#utility.yul\":3274:3284   */\n      dup2\n        /* \"#utility.yul\":3270:3272   */\n      0x40\n        /* \"#utility.yul\":3263:3285   */\n      mstore\n        /* \"#utility.yul\":3303:3309   */\n      dup1\n        /* \"#utility.yul\":3294:3309   */\n      swap4\n      pop\n        /* \"#utility.yul\":3333:3339   */\n      dup6\n        /* \"#utility.yul\":3325:3331   */\n      dup2\n        /* \"#utility.yul\":3318:3340   */\n      mstore\n        /* \"#utility.yul\":3373:3376   */\n      dup7\n        /* \"#utility.yul\":3364:3370   */\n      dup7\n        /* \"#utility.yul\":3359:3362   */\n      dup7\n        /* \"#utility.yul\":3355:3371   */\n      add\n        /* \"#utility.yul\":3352:3377   */\n      gt\n        /* \"#utility.yul\":3349:3394   */\n      iszero\n      tag_609\n      jumpi\n        /* \"#utility.yul\":3390:3391   */\n      0x00\n        /* \"#utility.yul\":3387:3388   */\n      dup1\n        /* \"#utility.yul\":3380:3392   */\n      revert\n        /* \"#utility.yul\":3349:3394   */\n    tag_609:\n        /* \"#utility.yul\":3440:3446   */\n      dup6\n        /* \"#utility.yul\":3435:3438   */\n      dup6\n        /* \"#utility.yul\":3428:3432   */\n      0x20\n        /* \"#utility.yul\":3420:3426   */\n      dup4\n        /* \"#utility.yul\":3416:3433   */\n      add\n        /* \"#utility.yul\":3403:3447   */\n      calldatacopy\n        /* \"#utility.yul\":3495:3496   */\n      0x00\n        /* \"#utility.yul\":3488:3492   */\n      0x20\n        /* \"#utility.yul\":3479:3485   */\n      dup8\n        /* \"#utility.yul\":3471:3477   */\n      dup4\n        /* \"#utility.yul\":3467:3486   */\n      add\n        /* \"#utility.yul\":3463:3493   */\n      add\n        /* \"#utility.yul\":3456:3497   */\n      mstore\n      pop\n      pop\n      pop\n        /* \"#utility.yul\":2871:3503   */\n      swap4\n      swap3\n      pop\n      pop\n      pop\n      jump\t// out\n        /* \"#utility.yul\":3508:3959   */\n    tag_86:\n        /* \"#utility.yul\":3577:3583   */\n      0x00\n        /* \"#utility.yul\":3630:3632   */\n      0x20\n        /* \"#utility.yul\":3618:3627   */\n      dup3\n        /* \"#utility.yul\":3609:3616   */\n      dup5\n        /* \"#utility.yul\":3605:3628   */\n      sub\n        /* \"#utility.yul\":3601:3633   */\n      slt\n        /* \"#utility.yul\":3598:3650   */\n      iszero\n      tag_611\n      jumpi\n        /* \"#utility.yul\":3646:3647   */\n      0x00\n        /* \"#utility.yul\":3643:3644   */\n      dup1\n        /* \"#utility.yul\":3636:3648   */\n      revert\n        /* \"#utility.yul\":3598:3650   */\n    tag_611:\n        /* \"#utility.yul\":3686:3695   */\n      dup2\n        /* \"#utility.yul\":3673:3696   */\n      calldataload\n        /* \"#utility.yul\":3719:3737   */\n      0xffffffffffffffff\n        /* \"#utility.yul\":3711:3717   */\n      dup2\n        /* \"#utility.yul\":3708:3738   */\n      gt\n        /* \"#utility.yul\":3705:3755   */\n      iszero\n      tag_612\n      jumpi\n        /* \"#utility.yul\":3751:3752   */\n      0x00\n        /* \"#utility.yul\":3748:3749   */\n      dup1\n        /* \"#utility.yul\":3741:3753   */\n      revert\n        /* \"#utility.yul\":3705:3755   */\n    tag_612:\n        /* \"#utility.yul\":3774:3796   */\n      dup3\n      add\n        /* \"#utility.yul\":3827:3831   */\n      0x1f\n        /* \"#utility.yul\":3819:3832   */\n      dup2\n      add\n        /* \"#utility.yul\":3815:3842   */\n      dup5\n      sgt\n        /* \"#utility.yul\":3805:3860   */\n      tag_613\n      jumpi\n        /* \"#utility.yul\":3856:3857   */\n      0x00\n        /* \"#utility.yul\":3853:3854   */\n      dup1\n        /* \"#utility.yul\":3846:3858   */\n      revert\n        /* \"#utility.yul\":3805:3860   */\n    tag_613:\n        /* \"#utility.yul\":3879:3953   */\n      tag_431\n        /* \"#utility.yul\":3945:3952   */\n      dup5\n        /* \"#utility.yul\":3940:3942   */\n      dup3\n        /* \"#utility.yul\":3927:3943   */\n      calldataload\n        /* \"#utility.yul\":3922:3924   */\n      0x20\n        /* \"#utility.yul\":3918:3920   */\n      dup5\n        /* \"#utility.yul\":3914:3925   */\n      add\n        /* \"#utility.yul\":3879:3953   */\n      tag_568\n      jump\t// in\n        /* \"#utility.yul\":3964:4150   */\n    tag_109:\n        /* \"#utility.yul\":4023:4029   */\n      0x00\n        /* \"#utility.yul\":4076:4078   */\n      0x20\n        /* \"#utility.yul\":4064:4073   */\n      dup3\n        /* \"#utility.yul\":4055:4062   */\n      dup5\n        /* \"#utility.yul\":4051:4074   */\n      sub\n        /* \"#utility.yul\":4047:4079   */\n      slt\n        /* \"#utility.yul\":4044:4096   */\n      iszero\n      tag_616\n      jumpi\n        /* \"#utility.yul\":4092:4093   */\n      0x00\n        /* \"#utility.yul\":4089:4090   */\n      dup1\n        /* \"#utility.yul\":4082:4094   */\n      revert\n        /* \"#utility.yul\":4044:4096   */\n    tag_616:\n        /* \"#utility.yul\":4115:4144   */\n      tag_580\n        /* \"#utility.yul\":4134:4143   */\n      dup3\n        /* \"#utility.yul\":4115:4144   */\n      tag_567\n      jump\t// in\n        /* \"#utility.yul\":4335:4453   */\n    tag_569:\n        /* \"#utility.yul\":4421:4426   */\n      dup1\n        /* \"#utility.yul\":4414:4427   */\n      iszero\n        /* \"#utility.yul\":4407:4428   */\n      iszero\n        /* \"#utility.yul\":4400:4405   */\n      dup2\n        /* \"#utility.yul\":4397:4429   */\n      eq\n        /* \"#utility.yul\":4387:4447   */\n      tag_391\n      jumpi\n        /* \"#utility.yul\":4443:4444   */\n      0x00\n        /* \"#utility.yul\":4440:4441   */\n      dup1\n        /* \"#utility.yul\":4433:4445   */\n      revert\n        /* \"#utility.yul\":4458:4773   */\n    tag_149:\n        /* \"#utility.yul\":4523:4529   */\n      0x00\n        /* \"#utility.yul\":4531:4537   */\n      dup1\n        /* \"#utility.yul\":4584:4586   */\n      0x40\n        /* \"#utility.yul\":4572:4581   */\n      dup4\n        /* \"#utility.yul\":4563:4570   */\n      dup6\n        /* \"#utility.yul\":4559:4582   */\n      sub\n        /* \"#utility.yul\":4555:4587   */\n      slt\n        /* \"#utility.yul\":4552:4604   */\n      iszero\n      tag_622\n      jumpi\n        /* \"#utility.yul\":4600:4601   */\n      0x00\n        /* \"#utility.yul\":4597:4598   */\n      dup1\n        /* \"#utility.yul\":4590:4602   */\n      revert\n        /* \"#utility.yul\":4552:4604   */\n    tag_622:\n        /* \"#utility.yul\":4623:4652   */\n      tag_623\n        /* \"#utility.yul\":4642:4651   */\n      dup4\n        /* \"#utility.yul\":4623:4652   */\n      tag_567\n      jump\t// in\n    tag_623:\n        /* \"#utility.yul\":4613:4652   */\n      swap2\n      pop\n        /* \"#utility.yul\":4702:4704   */\n      0x20\n        /* \"#utility.yul\":4691:4700   */\n      dup4\n        /* \"#utility.yul\":4687:4705   */\n      add\n        /* \"#utility.yul\":4674:4706   */\n      calldataload\n        /* \"#utility.yul\":4715:4743   */\n      tag_624\n        /* \"#utility.yul\":4737:4742   */\n      dup2\n        /* \"#utility.yul\":4715:4743   */\n      tag_569\n      jump\t// in\n    tag_624:\n        /* \"#utility.yul\":4762:4767   */\n      dup1\n        /* \"#utility.yul\":4752:4767   */\n      swap2\n      pop\n      pop\n        /* \"#utility.yul\":4458:4773   */\n      swap3\n      pop\n      swap3\n      swap1\n      pop\n      jump\t// out\n        /* \"#utility.yul\":4778:5445   */\n    tag_157:\n        /* \"#utility.yul\":4873:4879   */\n      0x00\n        /* \"#utility.yul\":4881:4887   */\n      dup1\n        /* \"#utility.yul\":4889:4895   */\n      0x00\n        /* \"#utility.yul\":4897:4903   */\n      dup1\n        /* \"#utility.yul\":4950:4953   */\n      0x80\n        /* \"#utility.yul\":4938:4947   */\n      dup6\n        /* \"#utility.yul\":4929:4936   */\n      dup8\n        /* \"#utility.yul\":4925:4948   */\n      sub\n        /* \"#utility.yul\":4921:4954   */\n      slt\n        /* \"#utility.yul\":4918:4971   */\n      iszero\n      tag_626\n      jumpi\n        /* \"#utility.yul\":4967:4968   */\n      0x00\n        /* \"#utility.yul\":4964:4965   */\n      dup1\n        /* \"#utility.yul\":4957:4969   */\n      revert\n        /* \"#utility.yul\":4918:4971   */\n    tag_626:\n        /* \"#utility.yul\":4990:5019   */\n      tag_627\n        /* \"#utility.yul\":5009:5018   */\n      dup6\n        /* \"#utility.yul\":4990:5019   */\n      tag_567\n      jump\t// in\n    tag_627:\n        /* \"#utility.yul\":4980:5019   */\n      swap4\n      pop\n        /* \"#utility.yul\":5038:5076   */\n      tag_628\n        /* \"#utility.yul\":5072:5074   */\n      0x20\n        /* \"#utility.yul\":5061:5070   */\n      dup7\n        /* \"#utility.yul\":5057:5075   */\n      add\n        /* \"#utility.yul\":5038:5076   */\n      tag_567\n      jump\t// in\n    tag_628:\n        /* \"#utility.yul\":5028:5076   */\n      swap3\n      pop\n        /* \"#utility.yul\":5123:5125   */\n      0x40\n        /* \"#utility.yul\":5112:5121   */\n      dup6\n        /* \"#utility.yul\":5108:5126   */\n      add\n        /* \"#utility.yul\":5095:5127   */\n      calldataload\n        /* \"#utility.yul\":5085:5127   */\n      swap2\n      pop\n        /* \"#utility.yul\":5178:5180   */\n      0x60\n        /* \"#utility.yul\":5167:5176   */\n      dup6\n        /* \"#utility.yul\":5163:5181   */\n      add\n        /* \"#utility.yul\":5150:5182   */\n      calldataload\n        /* \"#utility.yul\":5205:5223   */\n      0xffffffffffffffff\n        /* \"#utility.yul\":5197:5203   */\n      dup2\n        /* \"#utility.yul\":5194:5224   */\n      gt\n        /* \"#utility.yul\":5191:5241   */\n      iszero\n      tag_629\n      jumpi\n        /* \"#utility.yul\":5237:5238   */\n      0x00\n        /* \"#utility.yul\":5234:5235   */\n      dup1\n        /* \"#utility.yul\":5227:5239   */\n      revert\n        /* \"#utility.yul\":5191:5241   */\n    tag_629:\n        /* \"#utility.yul\":5260:5282   */\n      dup6\n      add\n        /* \"#utility.yul\":5313:5317   */\n      0x1f\n        /* \"#utility.yul\":5305:5318   */\n      dup2\n      add\n        /* \"#utility.yul\":5301:5328   */\n      dup8\n      sgt\n        /* \"#utility.yul\":5291:5346   */\n      tag_630\n      jumpi\n        /* \"#utility.yul\":5342:5343   */\n      0x00\n        /* \"#utility.yul\":5339:5340   */\n      dup1\n        /* \"#utility.yul\":5332:5344   */\n      revert\n        /* \"#utility.yul\":5291:5346   */\n    tag_630:\n        /* \"#utility.yul\":5365:5439   */\n      tag_631\n        /* \"#utility.yul\":5431:5438   */\n      dup8\n        /* \"#utility.yul\":5426:5428   */\n      dup3\n        /* \"#utility.yul\":5413:5429   */\n      calldataload\n        /* \"#utility.yul\":5408:5410   */\n      0x20\n        /* \"#utility.yul\":5404:5406   */\n      dup5\n        /* \"#utility.yul\":5400:5411   */\n      add\n        /* \"#utility.yul\":5365:5439   */\n      tag_568\n      jump\t// in\n    tag_631:\n        /* \"#utility.yul\":5355:5439   */\n      swap2\n      pop\n      pop\n        /* \"#utility.yul\":4778:5445   */\n      swap3\n      swap6\n      swap2\n      swap5\n      pop\n      swap3\n      pop\n      jump\t// out\n        /* \"#utility.yul\":5450:5876   */\n    tag_179:\n        /* \"#utility.yul\":5526:5532   */\n      0x00\n        /* \"#utility.yul\":5534:5540   */\n      dup1\n        /* \"#utility.yul\":5542:5548   */\n      0x00\n        /* \"#utility.yul\":5595:5597   */\n      0x60\n        /* \"#utility.yul\":5583:5592   */\n      dup5\n        /* \"#utility.yul\":5574:5581   */\n      dup7\n        /* \"#utility.yul\":5570:5593   */\n      sub\n        /* \"#utility.yul\":5566:5598   */\n      slt\n        /* \"#utility.yul\":5563:5615   */\n      iszero\n      tag_633\n      jumpi\n        /* \"#utility.yul\":5611:5612   */\n      0x00\n        /* \"#utility.yul\":5608:5609   */\n      dup1\n        /* \"#utility.yul\":5601:5613   */\n      revert\n        /* \"#utility.yul\":5563:5615   */\n    tag_633:\n        /* \"#utility.yul\":5647:5656   */\n      dup4\n        /* \"#utility.yul\":5634:5657   */\n      calldataload\n        /* \"#utility.yul\":5624:5657   */\n      swap3\n      pop\n        /* \"#utility.yul\":5676:5714   */\n      tag_634\n        /* \"#utility.yul\":5710:5712   */\n      0x20\n        /* \"#utility.yul\":5699:5708   */\n      dup6\n        /* \"#utility.yul\":5695:5713   */\n      add\n        /* \"#utility.yul\":5676:5714   */\n      tag_567\n      jump\t// in\n    tag_634:\n        /* \"#utility.yul\":5666:5714   */\n      swap2\n      pop\n        /* \"#utility.yul\":5764:5766   */\n      0x40\n        /* \"#utility.yul\":5753:5762   */\n      dup5\n        /* \"#utility.yul\":5749:5767   */\n      add\n        /* \"#utility.yul\":5736:5768   */\n      calldataload\n        /* \"#utility.yul\":5808:5826   */\n      0xffffffffffffffff\n        /* \"#utility.yul\":5801:5806   */\n      dup2\n        /* \"#utility.yul\":5797:5827   */\n      and\n        /* \"#utility.yul\":5790:5795   */\n      dup2\n        /* \"#utility.yul\":5787:5828   */\n      eq\n        /* \"#utility.yul\":5777:5846   */\n      tag_635\n      jumpi\n        /* \"#utility.yul\":5842:5843   */\n      0x00\n        /* \"#utility.yul\":5839:5840   */\n      dup1\n        /* \"#utility.yul\":5832:5844   */\n      revert\n        /* \"#utility.yul\":5777:5846   */\n    tag_635:\n        /* \"#utility.yul\":5865:5870   */\n      dup1\n        /* \"#utility.yul\":5855:5870   */\n      swap2\n      pop\n      pop\n        /* \"#utility.yul\":5450:5876   */\n      swap3\n      pop\n      swap3\n      pop\n      swap3\n      jump\t// out\n        /* \"#utility.yul\":5881:6141   */\n    tag_184:\n        /* \"#utility.yul\":5949:5955   */\n      0x00\n        /* \"#utility.yul\":5957:5963   */\n      dup1\n        /* \"#utility.yul\":6010:6012   */\n      0x40\n        /* \"#utility.yul\":5998:6007   */\n      dup4\n        /* \"#utility.yul\":5989:5996   */\n      dup6\n        /* \"#utility.yul\":5985:6008   */\n      sub\n        /* \"#utility.yul\":5981:6013   */\n      slt\n        /* \"#utility.yul\":5978:6030   */\n      iszero\n      tag_637\n      jumpi\n        /* \"#utility.yul\":6026:6027   */\n      0x00\n        /* \"#utility.yul\":6023:6024   */\n      dup1\n        /* \"#utility.yul\":6016:6028   */\n      revert\n        /* \"#utility.yul\":5978:6030   */\n    tag_637:\n        /* \"#utility.yul\":6049:6078   */\n      tag_638\n        /* \"#utility.yul\":6068:6077   */\n      dup4\n        /* \"#utility.yul\":6049:6078   */\n      tag_567\n      jump\t// in\n    tag_638:\n        /* \"#utility.yul\":6039:6078   */\n      swap2\n      pop\n        /* \"#utility.yul\":6097:6135   */\n      tag_639\n        /* \"#utility.yul\":6131:6133   */\n      0x20\n        /* \"#utility.yul\":6120:6129   */\n      dup5\n        /* \"#utility.yul\":6116:6134   */\n      add\n        /* \"#utility.yul\":6097:6135   */\n      tag_567\n      jump\t// in\n    tag_639:\n        /* \"#utility.yul\":6087:6135   */\n      swap1\n      pop\n        /* \"#utility.yul\":5881:6141   */\n      swap3\n      pop\n      swap3\n      swap1\n      pop\n      jump\t// out\n        /* \"#utility.yul\":6146:6394   */\n    tag_198:\n        /* \"#utility.yul\":6214:6220   */\n      0x00\n        /* \"#utility.yul\":6222:6228   */\n      dup1\n        /* \"#utility.yul\":6275:6277   */\n      0x40\n        /* \"#utility.yul\":6263:6272   */\n      dup4\n        /* \"#utility.yul\":6254:6261   */\n      dup6\n        /* \"#utility.yul\":6250:6273   */\n      sub\n        /* \"#utility.yul\":6246:6278   */\n      slt\n        /* \"#utility.yul\":6243:6295   */\n      iszero\n      tag_641\n      jumpi\n        /* \"#utility.yul\":6291:6292   */\n      0x00\n        /* \"#utility.yul\":6288:6289   */\n      dup1\n        /* \"#utility.yul\":6281:6293   */\n      revert\n        /* \"#utility.yul\":6243:6295   */\n    tag_641:\n      pop\n      pop\n        /* \"#utility.yul\":6314:6337   */\n      dup1\n      calldataload\n      swap3\n        /* \"#utility.yul\":6384:6386   */\n      0x20\n        /* \"#utility.yul\":6369:6387   */\n      swap1\n      swap2\n      add\n        /* \"#utility.yul\":6356:6388   */\n      calldataload\n      swap2\n      pop\n        /* \"#utility.yul\":6146:6394   */\n      jump\t// out\n        /* \"#utility.yul\":6399:6779   */\n    tag_206:\n        /* \"#utility.yul\":6478:6479   */\n      0x01\n        /* \"#utility.yul\":6474:6486   */\n      dup2\n      dup2\n      shr\n      swap1\n        /* \"#utility.yul\":6521:6533   */\n      dup3\n      and\n      dup1\n        /* \"#utility.yul\":6542:6603   */\n      tag_643\n      jumpi\n        /* \"#utility.yul\":6596:6600   */\n      0x7f\n        /* \"#utility.yul\":6588:6594   */\n      dup3\n        /* \"#utility.yul\":6584:6601   */\n      and\n        /* \"#utility.yul\":6574:6601   */\n      swap2\n      pop\n        /* \"#utility.yul\":6542:6603   */\n    tag_643:\n        /* \"#utility.yul\":6649:6651   */\n      0x20\n        /* \"#utility.yul\":6641:6647   */\n      dup3\n        /* \"#utility.yul\":6638:6652   */\n      lt\n        /* \"#utility.yul\":6618:6636   */\n      dup2\n        /* \"#utility.yul\":6615:6653   */\n      sub\n        /* \"#utility.yul\":6612:6773   */\n      tag_644\n      jumpi\n        /* \"#utility.yul\":6695:6705   */\n      0x4e487b71\n        /* \"#utility.yul\":6690:6693   */\n      0xe0\n        /* \"#utility.yul\":6686:6706   */\n      shl\n        /* \"#utility.yul\":6683:6684   */\n      0x00\n        /* \"#utility.yul\":6676:6707   */\n      mstore\n        /* \"#utility.yul\":6730:6734   */\n      0x22\n        /* \"#utility.yul\":6727:6728   */\n      0x04\n        /* \"#utility.yul\":6720:6735   */\n      mstore\n        /* \"#utility.yul\":6758:6762   */\n      0x24\n        /* \"#utility.yul\":6755:6756   */\n      0x00\n        /* \"#utility.yul\":6748:6763   */\n      revert\n        /* \"#utility.yul\":6612:6773   */\n    tag_644:\n      pop\n        /* \"#utility.yul\":6399:6779   */\n      swap2\n      swap1\n      pop\n      jump\t// out\n        /* \"#utility.yul\":8156:8701   */\n    tag_571:\n        /* \"#utility.yul\":8258:8260   */\n      0x1f\n        /* \"#utility.yul\":8253:8256   */\n      dup3\n        /* \"#utility.yul\":8250:8261   */\n      gt\n        /* \"#utility.yul\":8247:8695   */\n      iszero\n      tag_227\n      jumpi\n        /* \"#utility.yul\":8294:8295   */\n      0x00\n        /* \"#utility.yul\":8319:8324   */\n      dup2\n        /* \"#utility.yul\":8315:8317   */\n      dup2\n        /* \"#utility.yul\":8308:8325   */\n      mstore\n        /* \"#utility.yul\":8364:8368   */\n      0x20\n        /* \"#utility.yul\":8360:8362   */\n      dup2\n        /* \"#utility.yul\":8350:8369   */\n      keccak256\n        /* \"#utility.yul\":8434:8436   */\n      0x1f\n        /* \"#utility.yul\":8422:8432   */\n      dup6\n        /* \"#utility.yul\":8418:8437   */\n      add\n        /* \"#utility.yul\":8415:8416   */\n      0x05\n        /* \"#utility.yul\":8411:8438   */\n      shr\n        /* \"#utility.yul\":8405:8409   */\n      dup2\n        /* \"#utility.yul\":8401:8439   */\n      add\n        /* \"#utility.yul\":8470:8474   */\n      0x20\n        /* \"#utility.yul\":8458:8468   */\n      dup7\n        /* \"#utility.yul\":8455:8475   */\n      lt\n        /* \"#utility.yul\":8452:8499   */\n      iszero\n      tag_651\n      jumpi\n      pop\n        /* \"#utility.yul\":8493:8497   */\n      dup1\n        /* \"#utility.yul\":8452:8499   */\n    tag_651:\n        /* \"#utility.yul\":8548:8550   */\n      0x1f\n        /* \"#utility.yul\":8543:8546   */\n      dup6\n        /* \"#utility.yul\":8539:8551   */\n      add\n        /* \"#utility.yul\":8536:8537   */\n      0x05\n        /* \"#utility.yul\":8532:8552   */\n      shr\n        /* \"#utility.yul\":8526:8530   */\n      dup3\n        /* \"#utility.yul\":8522:8553   */\n      add\n        /* \"#utility.yul\":8512:8553   */\n      swap2\n      pop\n        /* \"#utility.yul\":8603:8685   */\n    tag_652:\n        /* \"#utility.yul\":8621:8623   */\n      dup2\n        /* \"#utility.yul\":8614:8619   */\n      dup2\n        /* \"#utility.yul\":8611:8624   */\n      lt\n        /* \"#utility.yul\":8603:8685   */\n      iszero\n      tag_654\n      jumpi\n        /* \"#utility.yul\":8666:8683   */\n      dup3\n      dup2\n      sstore\n        /* \"#utility.yul\":8647:8648   */\n      0x01\n        /* \"#utility.yul\":8636:8649   */\n      add\n        /* \"#utility.yul\":8603:8685   */\n      jump(tag_652)\n    tag_654:\n        /* \"#utility.yul\":8607:8610   */\n      pop\n      pop\n      pop\n        /* \"#utility.yul\":8156:8701   */\n      pop\n      pop\n      pop\n      jump\t// out\n        /* \"#utility.yul\":8877:10229   */\n    tag_243:\n        /* \"#utility.yul\":9003:9006   */\n      dup2\n        /* \"#utility.yul\":8997:9007   */\n      mload\n        /* \"#utility.yul\":9030:9048   */\n      0xffffffffffffffff\n        /* \"#utility.yul\":9022:9028   */\n      dup2\n        /* \"#utility.yul\":9019:9049   */\n      gt\n        /* \"#utility.yul\":9016:9072   */\n      iszero\n      tag_658\n      jumpi\n        /* \"#utility.yul\":9052:9070   */\n      tag_658\n      tag_489\n      jump\t// in\n    tag_658:\n        /* \"#utility.yul\":9081:9178   */\n      tag_659\n        /* \"#utility.yul\":9171:9177   */\n      dup2\n        /* \"#utility.yul\":9131:9169   */\n      tag_660\n        /* \"#utility.yul\":9163:9167   */\n      dup5\n        /* \"#utility.yul\":9157:9168   */\n      sload\n        /* \"#utility.yul\":9131:9169   */\n      tag_206\n      jump\t// in\n    tag_660:\n        /* \"#utility.yul\":9125:9129   */\n      dup5\n        /* \"#utility.yul\":9081:9178   */\n      tag_571\n      jump\t// in\n    tag_659:\n        /* \"#utility.yul\":9233:9237   */\n      0x20\n      dup1\n        /* \"#utility.yul\":9297:9299   */\n      0x1f\n        /* \"#utility.yul\":9286:9300   */\n      dup4\n      gt\n        /* \"#utility.yul\":9314:9315   */\n      0x01\n        /* \"#utility.yul\":9309:9972   */\n      dup2\n      eq\n      tag_662\n      jumpi\n        /* \"#utility.yul\":10016:10017   */\n      0x00\n        /* \"#utility.yul\":10033:10039   */\n      dup5\n        /* \"#utility.yul\":10030:10119   */\n      iszero\n      tag_663\n      jumpi\n      pop\n        /* \"#utility.yul\":10085:10104   */\n      dup6\n      dup4\n      add\n        /* \"#utility.yul\":10079:10105   */\n      mload\n        /* \"#utility.yul\":10030:10119   */\n    tag_663:\n      not(0x00)\n        /* \"#utility.yul\":8834:8835   */\n      0x03\n        /* \"#utility.yul\":8830:8841   */\n      dup7\n      swap1\n      shl\n        /* \"#utility.yul\":8826:8850   */\n      shr\n        /* \"#utility.yul\":8822:8851   */\n      not\n        /* \"#utility.yul\":8812:8852   */\n      and\n        /* \"#utility.yul\":8858:8859   */\n      0x01\n        /* \"#utility.yul\":8854:8865   */\n      dup6\n      swap1\n      shl\n        /* \"#utility.yul\":8809:8866   */\n      or\n        /* \"#utility.yul\":10132:10213   */\n      dup6\n      sstore\n        /* \"#utility.yul\":9279:10223   */\n      jump(tag_654)\n        /* \"#utility.yul\":9309:9972   */\n    tag_662:\n        /* \"#utility.yul\":8103:8104   */\n      0x00\n        /* \"#utility.yul\":8096:8110   */\n      dup6\n      dup2\n      mstore\n        /* \"#utility.yul\":8140:8144   */\n      0x20\n        /* \"#utility.yul\":8127:8145   */\n      dup2\n      keccak256\n      not(0x1f)\n        /* \"#utility.yul\":9345:9365   */\n      dup7\n      and\n      swap2\n        /* \"#utility.yul\":9463:9699   */\n    tag_666:\n        /* \"#utility.yul\":9477:9484   */\n      dup3\n        /* \"#utility.yul\":9474:9475   */\n      dup2\n        /* \"#utility.yul\":9471:9485   */\n      lt\n        /* \"#utility.yul\":9463:9699   */\n      iszero\n      tag_668\n      jumpi\n        /* \"#utility.yul\":9566:9585   */\n      dup9\n      dup7\n      add\n        /* \"#utility.yul\":9560:9586   */\n      mload\n        /* \"#utility.yul\":9545:9587   */\n      dup3\n      sstore\n        /* \"#utility.yul\":9658:9685   */\n      swap5\n      dup5\n      add\n      swap5\n        /* \"#utility.yul\":9626:9627   */\n      0x01\n        /* \"#utility.yul\":9614:9628   */\n      swap1\n      swap2\n      add\n      swap1\n        /* \"#utility.yul\":9493:9512   */\n      dup5\n      add\n        /* \"#utility.yul\":9463:9699   */\n      jump(tag_666)\n    tag_668:\n        /* \"#utility.yul\":9467:9470   */\n      pop\n        /* \"#utility.yul\":9727:9733   */\n      dup6\n        /* \"#utility.yul\":9718:9725   */\n      dup3\n        /* \"#utility.yul\":9715:9734   */\n      lt\n        /* \"#utility.yul\":9712:9913   */\n      iszero\n      tag_669\n      jumpi\n        /* \"#utility.yul\":9788:9807   */\n      dup8\n      dup6\n      add\n        /* \"#utility.yul\":9782:9808   */\n      mload\n      not(0x00)\n        /* \"#utility.yul\":9871:9872   */\n      0x03\n        /* \"#utility.yul\":9867:9881   */\n      dup9\n      swap1\n      shl\n        /* \"#utility.yul\":9883:9886   */\n      0xf8\n        /* \"#utility.yul\":9863:9887   */\n      and\n        /* \"#utility.yul\":9859:9896   */\n      shr\n        /* \"#utility.yul\":9855:9897   */\n      not\n        /* \"#utility.yul\":9840:9898   */\n      and\n        /* \"#utility.yul\":9825:9899   */\n      dup2\n      sstore\n        /* \"#utility.yul\":9712:9913   */\n    tag_669:\n      pop\n      pop\n      pop\n      pop\n      pop\n        /* \"#utility.yul\":9959:9960   */\n      0x01\n        /* \"#utility.yul\":9943:9957   */\n      swap1\n      dup2\n      shl\n        /* \"#utility.yul\":9939:9961   */\n      add\n        /* \"#utility.yul\":9926:9962   */\n      swap1\n      sstore\n      pop\n        /* \"#utility.yul\":8877:10229   */\n      jump\t// out\n        /* \"#utility.yul\":11492:11619   */\n    tag_573:\n        /* \"#utility.yul\":11553:11563   */\n      0x4e487b71\n        /* \"#utility.yul\":11548:11551   */\n      0xe0\n        /* \"#utility.yul\":11544:11564   */\n      shl\n        /* \"#utility.yul\":11541:11542   */\n      0x00\n        /* \"#utility.yul\":11534:11565   */\n      mstore\n        /* \"#utility.yul\":11584:11588   */\n      0x11\n        /* \"#utility.yul\":11581:11582   */\n      0x04\n        /* \"#utility.yul\":11574:11589   */\n      mstore\n        /* \"#utility.yul\":11608:11612   */\n      0x24\n        /* \"#utility.yul\":11605:11606   */\n      0x00\n        /* \"#utility.yul\":11598:11613   */\n      revert\n        /* \"#utility.yul\":11624:11749   */\n    tag_278:\n        /* \"#utility.yul\":11689:11698   */\n      dup1\n      dup3\n      add\n        /* \"#utility.yul\":11710:11720   */\n      dup1\n      dup3\n      gt\n        /* \"#utility.yul\":11707:11743   */\n      iszero\n      tag_202\n      jumpi\n        /* \"#utility.yul\":11723:11741   */\n      tag_202\n      tag_573\n      jump\t// in\n        /* \"#utility.yul\":12517:12696   */\n    tag_574:\n        /* \"#utility.yul\":12595:12608   */\n      dup1\n      mload\n        /* \"#utility.yul\":12648:12670   */\n      0xffffffffffffffffffff\n        /* \"#utility.yul\":12637:12671   */\n      dup2\n      and\n        /* \"#utility.yul\":12627:12672   */\n      dup2\n      eq\n        /* \"#utility.yul\":12617:12690   */\n      tag_306\n      jumpi\n        /* \"#utility.yul\":12686:12687   */\n      0x00\n        /* \"#utility.yul\":12683:12684   */\n      dup1\n        /* \"#utility.yul\":12676:12688   */\n      revert\n        /* \"#utility.yul\":12701:13174   */\n    tag_300:\n        /* \"#utility.yul\":12804:12810   */\n      0x00\n        /* \"#utility.yul\":12812:12818   */\n      dup1\n        /* \"#utility.yul\":12820:12826   */\n      0x00\n        /* \"#utility.yul\":12828:12834   */\n      dup1\n        /* \"#utility.yul\":12836:12842   */\n      0x00\n        /* \"#utility.yul\":12889:12892   */\n      0xa0\n        /* \"#utility.yul\":12877:12886   */\n      dup7\n        /* \"#utility.yul\":12868:12875   */\n      dup9\n        /* \"#utility.yul\":12864:12887   */\n      sub\n        /* \"#utility.yul\":12860:12893   */\n      slt\n        /* \"#utility.yul\":12857:12910   */\n      iszero\n      tag_683\n      jumpi\n        /* \"#utility.yul\":12906:12907   */\n      0x00\n        /* \"#utility.yul\":12903:12904   */\n      dup1\n        /* \"#utility.yul\":12896:12908   */\n      revert\n        /* \"#utility.yul\":12857:12910   */\n    tag_683:\n        /* \"#utility.yul\":12929:12968   */\n      tag_684\n        /* \"#utility.yul\":12958:12967   */\n      dup7\n        /* \"#utility.yul\":12929:12968   */\n      tag_574\n      jump\t// in\n    tag_684:\n        /* \"#utility.yul\":12919:12968   */\n      swap5\n      pop\n        /* \"#utility.yul\":13008:13010   */\n      0x20\n        /* \"#utility.yul\":12997:13006   */\n      dup7\n        /* \"#utility.yul\":12993:13011   */\n      add\n        /* \"#utility.yul\":12987:13012   */\n      mload\n        /* \"#utility.yul\":12977:13012   */\n      swap4\n      pop\n        /* \"#utility.yul\":13052:13054   */\n      0x40\n        /* \"#utility.yul\":13041:13050   */\n      dup7\n        /* \"#utility.yul\":13037:13055   */\n      add\n        /* \"#utility.yul\":13031:13056   */\n      mload\n        /* \"#utility.yul\":13021:13056   */\n      swap3\n      pop\n        /* \"#utility.yul\":13096:13098   */\n      0x60\n        /* \"#utility.yul\":13085:13094   */\n      dup7\n        /* \"#utility.yul\":13081:13099   */\n      add\n        /* \"#utility.yul\":13075:13100   */\n      mload\n        /* \"#utility.yul\":13065:13100   */\n      swap2\n      pop\n        /* \"#utility.yul\":13119:13168   */\n      tag_685\n        /* \"#utility.yul\":13163:13166   */\n      0x80\n        /* \"#utility.yul\":13152:13161   */\n      dup8\n        /* \"#utility.yul\":13148:13167   */\n      add\n        /* \"#utility.yul\":13119:13168   */\n      tag_574\n      jump\t// in\n    tag_685:\n        /* \"#utility.yul\":13109:13168   */\n      swap1\n      pop\n        /* \"#utility.yul\":12701:13174   */\n      swap3\n      swap6\n      pop\n      swap3\n      swap6\n      swap1\n      swap4\n      pop\n      jump\t// out\n        /* \"#utility.yul\":13311:13601   */\n    tag_302:\n        /* \"#utility.yul\":13350:13351   */\n      0x00\n        /* \"#utility.yul\":13376:13377   */\n      dup3\n        /* \"#utility.yul\":13366:13498   */\n      tag_688\n      jumpi\n        /* \"#utility.yul\":13420:13430   */\n      0x4e487b71\n        /* \"#utility.yul\":13415:13418   */\n      0xe0\n        /* \"#utility.yul\":13411:13431   */\n      shl\n        /* \"#utility.yul\":13408:13409   */\n      0x00\n        /* \"#utility.yul\":13401:13432   */\n      mstore\n        /* \"#utility.yul\":13455:13459   */\n      0x12\n        /* \"#utility.yul\":13452:13453   */\n      0x04\n        /* \"#utility.yul\":13445:13460   */\n      mstore\n        /* \"#utility.yul\":13483:13487   */\n      0x24\n        /* \"#utility.yul\":13480:13481   */\n      0x00\n        /* \"#utility.yul\":13473:13488   */\n      revert\n        /* \"#utility.yul\":13366:13498   */\n    tag_688:\n      shl(0xff, 0x01)\n        /* \"#utility.yul\":13514:13532   */\n      dup3\n      eq\n      not(0x00)\n        /* \"#utility.yul\":13534:13547   */\n      dup5\n      eq\n        /* \"#utility.yul\":13510:13548   */\n      and\n        /* \"#utility.yul\":13507:13571   */\n      iszero\n      tag_690\n      jumpi\n        /* \"#utility.yul\":13551:13569   */\n      tag_690\n      tag_573\n      jump\t// in\n    tag_690:\n      pop\n        /* \"#utility.yul\":13585:13595   */\n      sdiv\n      swap1\n        /* \"#utility.yul\":13311:13601   */\n      jump\t// out\n        /* \"#utility.yul\":13952:14615   */\n    tag_341:\n        /* \"#utility.yul\":14232:14235   */\n      0x00\n        /* \"#utility.yul\":14270:14276   */\n      dup4\n        /* \"#utility.yul\":14264:14277   */\n      mload\n        /* \"#utility.yul\":14286:14352   */\n      tag_693\n        /* \"#utility.yul\":14345:14351   */\n      dup2\n        /* \"#utility.yul\":14340:14343   */\n      dup5\n        /* \"#utility.yul\":14333:14337   */\n      0x20\n        /* \"#utility.yul\":14325:14331   */\n      dup9\n        /* \"#utility.yul\":14321:14338   */\n      add\n        /* \"#utility.yul\":14286:14352   */\n      tag_565\n      jump\t// in\n    tag_693:\n        /* \"#utility.yul\":14415:14428   */\n      dup4\n      mload\n        /* \"#utility.yul\":14374:14390   */\n      swap1\n      dup4\n      add\n      swap1\n        /* \"#utility.yul\":14437:14507   */\n      tag_694\n        /* \"#utility.yul\":14415:14428   */\n      dup2\n        /* \"#utility.yul\":14374:14390   */\n      dup4\n        /* \"#utility.yul\":14484:14488   */\n      0x20\n        /* \"#utility.yul\":14472:14489   */\n      dup9\n      add\n        /* \"#utility.yul\":14437:14507   */\n      tag_565\n      jump\t// in\n    tag_694:\n        /* \"#utility.yul\":14572:14579   */\n      0x2e6a736f6e000000000000000000000000000000000000000000000000000000\n        /* \"#utility.yul\":14529:14549   */\n      swap2\n      add\n        /* \"#utility.yul\":14558:14580   */\n      swap1\n      dup2\n      mstore\n        /* \"#utility.yul\":14607:14608   */\n      0x05\n        /* \"#utility.yul\":14596:14609   */\n      add\n      swap5\n        /* \"#utility.yul\":13952:14615   */\n      swap4\n      pop\n      pop\n      pop\n      pop\n      jump\t// out\n        /* \"#utility.yul\":16379:16547   */\n    tag_369:\n        /* \"#utility.yul\":16452:16461   */\n      dup1\n      dup3\n      mul\n        /* \"#utility.yul\":16483:16492   */\n      dup2\n      iszero\n        /* \"#utility.yul\":16500:16515   */\n      dup3\n      dup3\n      div\n        /* \"#utility.yul\":16494:16516   */\n      dup5\n      eq\n        /* \"#utility.yul\":16480:16517   */\n      or\n        /* \"#utility.yul\":16470:16541   */\n      tag_202\n      jumpi\n        /* \"#utility.yul\":16521:16539   */\n      tag_202\n      tag_573\n      jump\t// in\n        /* \"#utility.yul\":16906:17163   */\n    tag_374:\n        /* \"#utility.yul\":16977:16995   */\n      0xffffffffffffffff\n        /* \"#utility.yul\":17027:17037   */\n      dup2\n      dup2\n      and\n        /* \"#utility.yul\":17039:17049   */\n      dup4\n      dup3\n      and\n        /* \"#utility.yul\":17023:17050   */\n      mul\n        /* \"#utility.yul\":17070:17090   */\n      dup1\n      dup3\n      and\n      swap2\n        /* \"#utility.yul\":16977:16995   */\n      swap1\n        /* \"#utility.yul\":17109:17133   */\n      dup3\n      dup2\n      eq\n        /* \"#utility.yul\":17099:17157   */\n      tag_706\n      jumpi\n        /* \"#utility.yul\":17137:17155   */\n      tag_706\n      tag_573\n      jump\t// in\n    tag_706:\n        /* \"#utility.yul\":17099:17157   */\n      pop\n      pop\n        /* \"#utility.yul\":16906:17163   */\n      swap3\n      swap2\n      pop\n      pop\n      jump\t// out\n        /* \"#utility.yul\":17520:17700   */\n    tag_379:\n        /* \"#utility.yul\":17587:17605   */\n      0xffffffffffffffff\n        /* \"#utility.yul\":17625:17635   */\n      dup2\n      dup2\n      and\n        /* \"#utility.yul\":17637:17647   */\n      dup4\n      dup3\n      and\n        /* \"#utility.yul\":17621:17648   */\n      add\n      swap1\n        /* \"#utility.yul\":17660:17671   */\n      dup1\n      dup3\n      gt\n        /* \"#utility.yul\":17657:17694   */\n      iszero\n      tag_710\n      jumpi\n        /* \"#utility.yul\":17674:17692   */\n      tag_710\n      tag_573\n      jump\t// in\n    tag_710:\n        /* \"#utility.yul\":17657:17694   */\n      pop\n        /* \"#utility.yul\":17520:17700   */\n      swap3\n      swap2\n      pop\n      pop\n      jump\t// out\n        /* \"#utility.yul\":18317:18501   */\n    tag_401:\n        /* \"#utility.yul\":18387:18393   */\n      0x00\n        /* \"#utility.yul\":18440:18442   */\n      0x20\n        /* \"#utility.yul\":18428:18437   */\n      dup3\n        /* \"#utility.yul\":18419:18426   */\n      dup5\n        /* \"#utility.yul\":18415:18438   */\n      sub\n        /* \"#utility.yul\":18411:18443   */\n      slt\n        /* \"#utility.yul\":18408:18460   */\n      iszero\n      tag_714\n      jumpi\n        /* \"#utility.yul\":18456:18457   */\n      0x00\n        /* \"#utility.yul\":18453:18454   */\n      dup1\n        /* \"#utility.yul\":18446:18458   */\n      revert\n        /* \"#utility.yul\":18408:18460   */\n    tag_714:\n      pop\n        /* \"#utility.yul\":18479:18495   */\n      mload\n      swap2\n        /* \"#utility.yul\":18317:18501   */\n      swap1\n      pop\n      jump\t// out\n        /* \"#utility.yul\":18808:19053   */\n    tag_408:\n        /* \"#utility.yul\":18875:18881   */\n      0x00\n        /* \"#utility.yul\":18928:18930   */\n      0x20\n        /* \"#utility.yul\":18916:18925   */\n      dup3\n        /* \"#utility.yul\":18907:18914   */\n      dup5\n        /* \"#utility.yul\":18903:18926   */\n      sub\n        /* \"#utility.yul\":18899:18931   */\n      slt\n        /* \"#utility.yul\":18896:18948   */\n      iszero\n      tag_717\n      jumpi\n        /* \"#utility.yul\":18944:18945   */\n      0x00\n        /* \"#utility.yul\":18941:18942   */\n      dup1\n        /* \"#utility.yul\":18934:18946   */\n      revert\n        /* \"#utility.yul\":18896:18948   */\n    tag_717:\n        /* \"#utility.yul\":18976:18985   */\n      dup2\n        /* \"#utility.yul\":18970:18986   */\n      mload\n        /* \"#utility.yul\":18995:19023   */\n      tag_580\n        /* \"#utility.yul\":19017:19022   */\n      dup2\n        /* \"#utility.yul\":18995:19023   */\n      tag_569\n      jump\t// in\n        /* \"#utility.yul\":21712:22224   */\n    tag_515:\n        /* \"#utility.yul\":21906:21910   */\n      0x00\n      sub(shl(0xa0, 0x01), 0x01)\n        /* \"#utility.yul\":22016:22018   */\n      dup1\n        /* \"#utility.yul\":22008:22014   */\n      dup8\n        /* \"#utility.yul\":22004:22019   */\n      and\n        /* \"#utility.yul\":21993:22002   */\n      dup4\n        /* \"#utility.yul\":21986:22020   */\n      mstore\n        /* \"#utility.yul\":22068:22070   */\n      dup1\n        /* \"#utility.yul\":22060:22066   */\n      dup7\n        /* \"#utility.yul\":22056:22071   */\n      and\n        /* \"#utility.yul\":22051:22053   */\n      0x20\n        /* \"#utility.yul\":22040:22049   */\n      dup5\n        /* \"#utility.yul\":22036:22054   */\n      add\n        /* \"#utility.yul\":22029:22072   */\n      mstore\n      pop\n        /* \"#utility.yul\":22108:22114   */\n      dup4\n        /* \"#utility.yul\":22103:22105   */\n      0x40\n        /* \"#utility.yul\":22092:22101   */\n      dup4\n        /* \"#utility.yul\":22088:22106   */\n      add\n        /* \"#utility.yul\":22081:22115   */\n      mstore\n        /* \"#utility.yul\":22151:22154   */\n      0x80\n        /* \"#utility.yul\":22146:22148   */\n      0x60\n        /* \"#utility.yul\":22135:22144   */\n      dup4\n        /* \"#utility.yul\":22131:22149   */\n      add\n        /* \"#utility.yul\":22124:22155   */\n      mstore\n        /* \"#utility.yul\":22172:22218   */\n      tag_727\n        /* \"#utility.yul\":22213:22216   */\n      0x80\n        /* \"#utility.yul\":22202:22211   */\n      dup4\n        /* \"#utility.yul\":22198:22217   */\n      add\n        /* \"#utility.yul\":22190:22196   */\n      dup5\n        /* \"#utility.yul\":22172:22218   */\n      tag_566\n      jump\t// in\n    tag_727:\n        /* \"#utility.yul\":22164:22218   */\n      swap7\n        /* \"#utility.yul\":21712:22224   */\n      swap6\n      pop\n      pop\n      pop\n      pop\n      pop\n      pop\n      jump\t// out\n        /* \"#utility.yul\":22229:22478   */\n    tag_518:\n        /* \"#utility.yul\":22298:22304   */\n      0x00\n        /* \"#utility.yul\":22351:22353   */\n      0x20\n        /* \"#utility.yul\":22339:22348   */\n      dup3\n        /* \"#utility.yul\":22330:22337   */\n      dup5\n        /* \"#utility.yul\":22326:22349   */\n      sub\n        /* \"#utility.yul\":22322:22354   */\n      slt\n        /* \"#utility.yul\":22319:22371   */\n      iszero\n      tag_729\n      jumpi\n        /* \"#utility.yul\":22367:22368   */\n      0x00\n        /* \"#utility.yul\":22364:22365   */\n      dup1\n        /* \"#utility.yul\":22357:22369   */\n      revert\n        /* \"#utility.yul\":22319:22371   */\n    tag_729:\n        /* \"#utility.yul\":22399:22408   */\n      dup2\n        /* \"#utility.yul\":22393:22409   */\n      mload\n        /* \"#utility.yul\":22418:22448   */\n      tag_580\n        /* \"#utility.yul\":22442:22447   */\n      dup2\n        /* \"#utility.yul\":22418:22448   */\n      tag_564\n      jump\t// in\n\n    auxdata: 0xa2646970667358221220c67bf960801f62704aaa0ef27ae8b08cabaa3e44ccfbf76f204d2fd8aff0ccf064736f6c63430008110033\n}\n",
    "bytecode": {
      "linkReferences": {},
      "object": "60806040526008805461ffff60a01b191690553480156200001f57600080fd5b506040518060400160405280600f81526020016e536d6f6b6c657953204c6f756e676560881b8152506040518060400160405280600381526020016214d4d360ea1b8152508160009081620000759190620001cd565b506001620000848282620001cd565b505050620000a16200009b620000d260201b60201c565b620000d6565b6001600755600880546001600160a01b03191673694aa1769357215de4fac081bf1f309adc32530617905562000299565b3390565b600680546001600160a01b038381166001600160a01b0319831681179093556040519116919082907f8be0079c531659141344cd1fd0a4f28419497f9722a3daafe3b4186f6b6457e090600090a35050565b634e487b7160e01b600052604160045260246000fd5b600181811c908216806200015357607f821691505b6020821081036200017457634e487b7160e01b600052602260045260246000fd5b50919050565b601f821115620001c857600081815260208120601f850160051c81016020861015620001a35750805b601f850160051c820191505b81811015620001c457828155600101620001af565b5050505b505050565b81516001600160401b03811115620001e957620001e962000128565b6200020181620001fa84546200013e565b846200017a565b602080601f831160018114620002395760008415620002205750858301515b600019600386901b1c1916600185901b178555620001c4565b600085815260208120601f198616915b828110156200026a5788860151825594840194600190910190840162000249565b5085821015620002895787850151600019600388901b60f8161c191681555b5050505050600190811b01905550565b61278680620002a96000396000f3fe6080604052600436106102195760003560e01c8063772ccf5d1161011d578063c2f1f14a116100b0578063e030565e1161007f578063f2fde38b11610064578063f2fde38b146105f3578063f4f3b20014610613578063ffe0afc71461063357600080fd5b8063e030565e14610597578063e985e9c5146105aa57600080fd5b8063c2f1f14a1461052c578063c657d33f1461054c578063c87b56dd14610562578063d547cfb71461058257600080fd5b806395d89b41116100ec57806395d89b41146104c2578063a22cb465146104d7578063ad567b7d146104f7578063b88d4fde1461050c57600080fd5b8063772ccf5d1461043f5780638da5cb5b1461046f5780638e15f4731461048d5780638fc88c48146104a257600080fd5b80633ccfd60b116101b05780636352211e1161017f578063715018a611610164578063715018a6146103f3578063735de3661461040857806376e925591461042957600080fd5b80636352211e146103b357806370a08231146103d357600080fd5b80633ccfd60b1461035457806342842e0e146103695780635bc109771461038957806362a6068f1461039e57600080fd5b80630aa0a175116101ec5780630aa0a175146102cf5780631829a936146102f357806323b872dd1461031457806330176e131461033457600080fd5b806301ffc9a71461021e57806306fdde0314610253578063081812fc14610275578063095ea7b3146102ad575b600080fd5b34801561022a57600080fd5b5061023e610239366004612078565b610653565b60405190151581526020015b60405180910390f35b34801561025f57600080fd5b5061026861067e565b60405161024a91906120ec565b34801561028157600080fd5b506102956102903660046120ff565b610710565b6040516001600160a01b03909116815260200161024a565b3480156102b957600080fd5b506102cd6102c836600461212f565b610737565b005b3480156102db57600080fd5b506102e5600a5481565b60405190815260200161024a565b3480156102ff57600080fd5b5060085461023e90600160a81b900460ff1681565b34801561032057600080fd5b506102cd61032f366004612159565b61086f565b34801561034057600080fd5b506102cd61034f366004612221565b6108e6565b34801561036057600080fd5b506102cd6108fe565b34801561037557600080fd5b506102cd610384366004612159565b6109c1565b34801561039557600080fd5b506102cd6109dc565b3480156103aa57600080fd5b506102cd610a20565b3480156103bf57600080fd5b506102956103ce3660046120ff565b610b2b565b3480156103df57600080fd5b506102e56103ee36600461226a565b610b90565b3480156103ff57600080fd5b506102cd610c2a565b34801561041457600080fd5b5060085461023e90600160a01b900460ff1681565b34801561043557600080fd5b506102e5600b5481565b34801561044b57600080fd5b5061023e61045a36600461226a565b600d6020526000908152604090205460ff1681565b34801561047b57600080fd5b506006546001600160a01b0316610295565b34801561049957600080fd5b506102e5610c3c565b3480156104ae57600080fd5b506102e56104bd3660046120ff565b610ce2565b3480156104ce57600080fd5b50610268610d3a565b3480156104e357600080fd5b506102cd6104f2366004612293565b610d49565b34801561050357600080fd5b506102cd610d54565b34801561051857600080fd5b506102cd6105273660046122ca565b610d98565b34801561053857600080fd5b506102956105473660046120ff565b610e16565b34801561055857600080fd5b506102e560095481565b34801561056e57600080fd5b5061026861057d3660046120ff565b610e59565b34801561058e57600080fd5b50610268610efe565b6102cd6105a5366004612346565b610f8c565b3480156105b657600080fd5b5061023e6105c5366004612393565b6001600160a01b03918216600090815260056020908152604080832093909416825291909152205460ff1690565b3480156105ff57600080fd5b506102cd61060e36600461226a565b61131a565b34801561061f57600080fd5b506102cd61062e36600461226a565b6113aa565b34801561063f57600080fd5b506102cd61064e3660046123c6565b61150b565b60006001600160e01b03198216632b424ad760e21b148061067857506106788261151e565b92915050565b60606000805461068d906123e8565b80601f01602080910402602001604051908101604052809291908181526020018280546106b9906123e8565b80156107065780601f106106db57610100808354040283529160200191610706565b820191906000526020600020905b8154815290600101906020018083116106e957829003601f168201915b5050505050905090565b600061071b8261156e565b506000908152600460205260409020546001600160a01b031690565b600061074282610b2b565b9050806001600160a01b0316836001600160a01b0316036107b45760405162461bcd60e51b815260206004820152602160248201527f4552433732313a20617070726f76616c20746f2063757272656e74206f776e656044820152603960f91b60648201526084015b60405180910390fd5b336001600160a01b03821614806107ee57506001600160a01b038116600090815260056020908152604080832033845290915290205460ff165b6108605760405162461bcd60e51b815260206004820152603d60248201527f4552433732313a20617070726f76652063616c6c6572206973206e6f7420746f60448201527f6b656e206f776e6572206f7220617070726f76656420666f7220616c6c00000060648201526084016107ab565b61086a83836115d2565b505050565b6108793382611640565b6108db5760405162461bcd60e51b815260206004820152602d60248201527f4552433732313a2063616c6c6572206973206e6f7420746f6b656e206f776e6560448201526c1c881bdc88185c1c1c9bdd9959609a1b60648201526084016107ab565b61086a8383836116bf565b6108ee6118ac565b600c6108fa8282612470565b5050565b6109066118ac565b61090e611906565b60006109226006546001600160a01b031690565b6001600160a01b03164760405160006040518083038185875af1925050503d806000811461096c576040519150601f19603f3d011682016040523d82523d6000602084013e610971565b606091505b50509050806109b45760405162461bcd60e51b815260206004820152600f60248201526e151c985b9cd9995c8819985a5b1959608a1b60448201526064016107ab565b506109bf6001600755565b565b61086a83838360405180602001604052806000815250610d98565b6109e46118ac565b600880547fffffffffffffffffffff00ffffffffffffffffffffffffffffffffffffffffff8116600160a81b9182900460ff1615909102179055565b610a28611906565b600854600160a81b900460ff16610a815760405162461bcd60e51b815260206004820152601160248201527f6d656d6265727368697020636c6f73656400000000000000000000000000000060448201526064016107ab565b336000908152600d602052604090205460ff1615610ae15760405162461bcd60e51b815260206004820152601d60248201527f616c72656164792068617665206d656d6265727368697020746f6b656e00000060448201526064016107ab565b600b54610aee338261195f565b6001600b6000828254610b019190612546565b9091555050336000908152600d60205260409020805460ff19166001179055506109bf6001600755565b6000818152600260205260408120546001600160a01b0316806106785760405162461bcd60e51b815260206004820152601860248201527f4552433732313a20696e76616c696420746f6b656e204944000000000000000060448201526064016107ab565b60006001600160a01b038216610c0e5760405162461bcd60e51b815260206004820152602960248201527f4552433732313a2061646472657373207a65726f206973206e6f74206120766160448201527f6c6964206f776e6572000000000000000000000000000000000000000000000060648201526084016107ab565b506001600160a01b031660009081526003602052604090205490565b610c326118ac565b6109bf6000611979565b600080600860009054906101000a90046001600160a01b03166001600160a01b031663feaf968c6040518163ffffffff1660e01b815260040160a060405180830381865afa158015610c92573d6000803e3d6000fd5b505050506040513d601f19601f82011682018060405250810190610cb69190612573565b505050915050600a5481610cca91906125c3565b610cdc90670de0b6b3a76400006125c3565b91505090565b6000818152600e602052604081205442600160a01b90910467ffffffffffffffff1610610d2d57506000908152600e6020526040902054600160a01b900467ffffffffffffffff1690565b506000919050565b919050565b60606001805461068d906123e8565b6108fa3383836119cb565b610d5c6118ac565b600880547fffffffffffffffffffffff00ffffffffffffffffffffffffffffffffffffffff8116600160a01b9182900460ff1615909102179055565b610da23383611640565b610e045760405162461bcd60e51b815260206004820152602d60248201527f4552433732313a2063616c6c6572206973206e6f7420746f6b656e206f776e6560448201526c1c881bdc88185c1c1c9bdd9959609a1b60648201526084016107ab565b610e1084848484611a99565b50505050565b6000818152600e602052604081205442600160a01b90910467ffffffffffffffff1610610d2d57506000908152600e60205260409020546001600160a01b031690565b6000818152600260205260409020546060906001600160a01b0316610ec05760405162461bcd60e51b815260206004820152601160248201527f6e6f6e6578697374656e7420746f6b656e00000000000000000000000000000060448201526064016107ab565b6000610eca611b17565b905080610ed684611b26565b604051602001610ee79291906125ff565b604051602081830303815290604052915050919050565b600c8054610f0b906123e8565b80601f0160208091040260200160405190810160405280929190818152602001828054610f37906123e8565b8015610f845780601f10610f5957610100808354040283529160200191610f84565b820191906000526020600020905b815481529060010190602001808311610f6757829003601f168201915b505050505081565b610f94611906565b610f9e3384611640565b610fea5760405162461bcd60e51b815260206004820152601960248201527f796f212043616e7420646f20746861742073686974206c6f6c0000000000000060448201526064016107ab565b816001600160a01b0316610ffd84610b2b565b6001600160a01b0316146110535760405162461bcd60e51b815260206004820152601260248201527f6f776e6572206d7573742062652075736572000000000000000000000000000060448201526064016107ab565b600854600160a01b900460ff166110ac5760405162461bcd60e51b815260206004820152601760248201527f737562736372697074696f6e206e6f742061637469766500000000000000000060448201526064016107ab565b336000908152600d602052604090205460ff1661110b5760405162461bcd60e51b815260206004820152601a60248201527f6e6f742061206d656d6265722c2063616e6e6f742072656e657700000000000060448201526064016107ab565b6009548167ffffffffffffffff1611156111675760405162461bcd60e51b815260206004820152601660248201527f45786365656473206d61782073756220706572696f640000000000000000000060448201526064016107ab565b6000611171610c3c565b9050346111888267ffffffffffffffff8516612656565b146111d55760405162461bcd60e51b815260206004820152601960248201527f76616c75652073656e74206973206e6f7420636f72726563740000000000000060448201526064016107ab565b60006111e48362278d0061266d565b6000868152600e602052604090208054919250429167ffffffffffffffff808416600160a01b909204161061125b5760405162461bcd60e51b815260206004820152601760248201527f7573657220616c7265616479207375627363726962656400000000000000000060448201526064016107ab565b80546001600160a01b0319166001600160a01b03871617815561127e8284612699565b815467ffffffffffffffff91909116600160a01b027fffffffff0000000000000000ffffffffffffffffffffffffffffffffffffffff9091161781556001600160a01b038616877f4e06b4e7000e659094299b3533b47b6aa8ad048e95e872d23d1f4ee55af89cfe6112f08587612699565b60405167ffffffffffffffff909116815260200160405180910390a35050505061086a6001600755565b6113226118ac565b6001600160a01b03811661139e5760405162461bcd60e51b815260206004820152602660248201527f4f776e61626c653a206e6577206f776e657220697320746865207a65726f206160448201527f646472657373000000000000000000000000000000000000000000000000000060648201526084016107ab565b6113a781611979565b50565b6113b26118ac565b6113ba611906565b6040516370a0823160e01b815230600482015281906000906001600160a01b038316906370a0823190602401602060405180830381865afa158015611403573d6000803e3d6000fd5b505050506040513d601f19601f8201168201806040525081019061142791906126c1565b90506000826001600160a01b031663a9059cbb61144c6006546001600160a01b031690565b6040516001600160e01b031960e084901b1681526001600160a01b039091166004820152602481018590526044016020604051808303816000875af1158015611499573d6000803e3d6000fd5b505050506040513d601f19601f820116820180604052508101906114bd91906126da565b9050806114fe5760405162461bcd60e51b815260206004820152600f60248201526e151c985b9cd9995c8819985a5b1959608a1b60448201526064016107ab565b5050506113a76001600755565b6115136118ac565b600a91909155600955565b60006001600160e01b031982166380ac58cd60e01b148061154f57506001600160e01b03198216635b5e139f60e01b145b8061067857506301ffc9a760e01b6001600160e01b0319831614610678565b6000818152600260205260409020546001600160a01b03166113a75760405162461bcd60e51b815260206004820152601860248201527f4552433732313a20696e76616c696420746f6b656e204944000000000000000060448201526064016107ab565b600081815260046020526040902080546001600160a01b0319166001600160a01b038416908117909155819061160782610b2b565b6001600160a01b03167f8c5be1e5ebec7d5bd14f71427d1e84f3dd0314c0f7b2291e5b200ac8c7c3b92560405160405180910390a45050565b60008061164c83610b2b565b9050806001600160a01b0316846001600160a01b0316148061169357506001600160a01b0380821660009081526005602090815260408083209388168352929052205460ff165b806116b75750836001600160a01b03166116ac84610710565b6001600160a01b0316145b949350505050565b826001600160a01b03166116d282610b2b565b6001600160a01b0316146117365760405162461bcd60e51b815260206004820152602560248201527f4552433732313a207472616e736665722066726f6d20696e636f72726563742060448201526437bbb732b960d91b60648201526084016107ab565b6001600160a01b0382166117985760405162461bcd60e51b8152602060048201526024808201527f4552433732313a207472616e7366657220746f20746865207a65726f206164646044820152637265737360e01b60648201526084016107ab565b6117a58383836001611bc6565b826001600160a01b03166117b882610b2b565b6001600160a01b03161461181c5760405162461bcd60e51b815260206004820152602560248201527f4552433732313a207472616e736665722066726f6d20696e636f72726563742060448201526437bbb732b960d91b60648201526084016107ab565b600081815260046020908152604080832080546001600160a01b03199081169091556001600160a01b0387811680865260038552838620805460001901905590871680865283862080546001019055868652600290945282852080549092168417909155905184937fddf252ad1be2c89b69c2b068fc378daa952ba7f163c4a11628f55a4df523b3ef91a4505050565b6006546001600160a01b031633146109bf5760405162461bcd60e51b815260206004820181905260248201527f4f776e61626c653a2063616c6c6572206973206e6f7420746865206f776e657260448201526064016107ab565b6002600754036119585760405162461bcd60e51b815260206004820152601f60248201527f5265656e7472616e637947756172643a207265656e7472616e742063616c6c0060448201526064016107ab565b6002600755565b6108fa828260405180602001604052806000815250611c1d565b600680546001600160a01b038381166001600160a01b0319831681179093556040519116919082907f8be0079c531659141344cd1fd0a4f28419497f9722a3daafe3b4186f6b6457e090600090a35050565b816001600160a01b0316836001600160a01b031603611a2c5760405162461bcd60e51b815260206004820152601960248201527f4552433732313a20617070726f766520746f2063616c6c65720000000000000060448201526064016107ab565b6001600160a01b03838116600081815260056020908152604080832094871680845294825291829020805460ff191686151590811790915591519182527f17307eab39ab6107e8899845ad3d59bd9653f200f220920489ca2b5937696c31910160405180910390a3505050565b611aa48484846116bf565b611ab084848484611c9b565b610e105760405162461bcd60e51b815260206004820152603260248201527f4552433732313a207472616e7366657220746f206e6f6e20455243373231526560448201527131b2b4bb32b91034b6b83632b6b2b73a32b960711b60648201526084016107ab565b6060600c805461068d906123e8565b60606000611b3383611de7565b600101905060008167ffffffffffffffff811115611b5357611b53612195565b6040519080825280601f01601f191660200182016040528015611b7d576020820181803683370190505b5090508181016020015b600019017f3031323334353637383961626364656600000000000000000000000000000000600a86061a8153600a8504945084611b8757509392505050565b6001600160a01b03841615610e105760405162461bcd60e51b815260206004820152601460248201527f63616e2774207472616e7366657220746f6b656e00000000000000000000000060448201526064016107ab565b611c278383611ec9565b611c346000848484611c9b565b61086a5760405162461bcd60e51b815260206004820152603260248201527f4552433732313a207472616e7366657220746f206e6f6e20455243373231526560448201527131b2b4bb32b91034b6b83632b6b2b73a32b960711b60648201526084016107ab565b60006001600160a01b0384163b15611ddc57604051630a85bd0160e11b81526001600160a01b0385169063150b7a0290611cdf9033908990889088906004016126f7565b6020604051808303816000875af1925050508015611d1a575060408051601f3d908101601f19168201909252611d1791810190612733565b60015b611dc2573d808015611d48576040519150601f19603f3d011682016040523d82523d6000602084013e611d4d565b606091505b508051600003611dba5760405162461bcd60e51b815260206004820152603260248201527f4552433732313a207472616e7366657220746f206e6f6e20455243373231526560448201527131b2b4bb32b91034b6b83632b6b2b73a32b960711b60648201526084016107ab565b805181602001fd5b6001600160e01b031916630a85bd0160e11b1490506116b7565b506001949350505050565b6000807a184f03e93ff9f4daa797ed6e38ed64bf6a1f0100000000000000008310611e30577a184f03e93ff9f4daa797ed6e38ed64bf6a1f010000000000000000830492506040015b6d04ee2d6d415b85acef81000000008310611e5c576d04ee2d6d415b85acef8100000000830492506020015b662386f26fc100008310611e7a57662386f26fc10000830492506010015b6305f5e1008310611e92576305f5e100830492506008015b6127108310611ea657612710830492506004015b60648310611eb8576064830492506002015b600a83106106785760010192915050565b6001600160a01b038216611f1f5760405162461bcd60e51b815260206004820181905260248201527f4552433732313a206d696e7420746f20746865207a65726f206164647265737360448201526064016107ab565b6000818152600260205260409020546001600160a01b031615611f845760405162461bcd60e51b815260206004820152601c60248201527f4552433732313a20746f6b656e20616c7265616479206d696e7465640000000060448201526064016107ab565b611f92600083836001611bc6565b6000818152600260205260409020546001600160a01b031615611ff75760405162461bcd60e51b815260206004820152601c60248201527f4552433732313a20746f6b656e20616c7265616479206d696e7465640000000060448201526064016107ab565b6001600160a01b038216600081815260036020908152604080832080546001019055848352600290915280822080546001600160a01b0319168417905551839291907fddf252ad1be2c89b69c2b068fc378daa952ba7f163c4a11628f55a4df523b3ef908290a45050565b6001600160e01b0319811681146113a757600080fd5b60006020828403121561208a57600080fd5b813561209581612062565b9392505050565b60005b838110156120b757818101518382015260200161209f565b50506000910152565b600081518084526120d881602086016020860161209c565b601f01601f19169290920160200192915050565b60208152600061209560208301846120c0565b60006020828403121561211157600080fd5b5035919050565b80356001600160a01b0381168114610d3557600080fd5b6000806040838503121561214257600080fd5b61214b83612118565b946020939093013593505050565b60008060006060848603121561216e57600080fd5b61217784612118565b925061218560208501612118565b9150604084013590509250925092565b634e487b7160e01b600052604160045260246000fd5b600067ffffffffffffffff808411156121c6576121c6612195565b604051601f8501601f19908116603f011681019082821181831017156121ee576121ee612195565b8160405280935085815286868601111561220757600080fd5b858560208301376000602087830101525050509392505050565b60006020828403121561223357600080fd5b813567ffffffffffffffff81111561224a57600080fd5b8201601f8101841361225b57600080fd5b6116b7848235602084016121ab565b60006020828403121561227c57600080fd5b61209582612118565b80151581146113a757600080fd5b600080604083850312156122a657600080fd5b6122af83612118565b915060208301356122bf81612285565b809150509250929050565b600080600080608085870312156122e057600080fd5b6122e985612118565b93506122f760208601612118565b925060408501359150606085013567ffffffffffffffff81111561231a57600080fd5b8501601f8101871361232b57600080fd5b61233a878235602084016121ab565b91505092959194509250565b60008060006060848603121561235b57600080fd5b8335925061236b60208501612118565b9150604084013567ffffffffffffffff8116811461238857600080fd5b809150509250925092565b600080604083850312156123a657600080fd5b6123af83612118565b91506123bd60208401612118565b90509250929050565b600080604083850312156123d957600080fd5b50508035926020909101359150565b600181811c908216806123fc57607f821691505b60208210810361241c57634e487b7160e01b600052602260045260246000fd5b50919050565b601f82111561086a57600081815260208120601f850160051c810160208610156124495750805b601f850160051c820191505b8181101561246857828155600101612455565b505050505050565b815167ffffffffffffffff81111561248a5761248a612195565b61249e8161249884546123e8565b84612422565b602080601f8311600181146124d357600084156124bb5750858301515b600019600386901b1c1916600185901b178555612468565b600085815260208120601f198616915b82811015612502578886015182559484019460019091019084016124e3565b50858210156125205787850151600019600388901b60f8161c191681555b5050505050600190811b01905550565b634e487b7160e01b600052601160045260246000fd5b8082018082111561067857610678612530565b805169ffffffffffffffffffff81168114610d3557600080fd5b600080600080600060a0868803121561258b57600080fd5b61259486612559565b94506020860151935060408601519250606086015191506125b760808701612559565b90509295509295909350565b6000826125e057634e487b7160e01b600052601260045260246000fd5b600160ff1b8214600019841416156125fa576125fa612530565b500590565b6000835161261181846020880161209c565b83519083019061262581836020880161209c565b7f2e6a736f6e0000000000000000000000000000000000000000000000000000009101908152600501949350505050565b808202811582820484141761067857610678612530565b67ffffffffffffffff81811683821602808216919082811461269157612691612530565b505092915050565b67ffffffffffffffff8181168382160190808211156126ba576126ba612530565b5092915050565b6000602082840312156126d357600080fd5b5051919050565b6000602082840312156126ec57600080fd5b815161209581612285565b60006001600160a01b0380871683528086166020840152508360408301526080606083015261272960808301846120c0565b9695505050505050565b60006020828403121561274557600080fd5b81516120958161206256fea2646970667358221220c67bf960801f62704aaa0ef27ae8b08cabaa3e44ccfbf76f204d2fd8aff0ccf064736f6c63430008110033",
      "opcodes": "PUSH1 0x80 PUSH1 0x40 MSTORE PUSH1 0x8 DUP1 SLOAD PUSH2 0xFFFF PUSH1 0xA0 SHL NOT AND SWAP1 SSTORE CALLVALUE DUP1 ISZERO PUSH3 0x1F JUMPI PUSH1 0x0 DUP1 REVERT JUMPDEST POP PUSH1 0x40 MLOAD DUP1 PUSH1 0x40 ADD PUSH1 0x40 MSTORE DUP1 PUSH1 0xF DUP2 MSTORE PUSH1 0x20 ADD PUSH15 0x536D6F6B6C657953204C6F756E6765 PUSH1 0x88 SHL DUP2 MSTORE POP PUSH1 0x40 MLOAD DUP1 PUSH1 0x40 ADD PUSH1 0x40 MSTORE DUP1 PUSH1 0x3 DUP2 MSTORE PUSH1 0x20 ADD PUSH3 0x14D4D3 PUSH1 0xEA SHL DUP2 MSTORE POP DUP2 PUSH1 0x0 SWAP1 DUP2 PUSH3 0x75 SWAP2 SWAP1 PUSH3 0x1CD JUMP JUMPDEST POP PUSH1 0x1 PUSH3 0x84 DUP3 DUP3 PUSH3 0x1CD JUMP JUMPDEST POP POP POP PUSH3 0xA1 PUSH3 0x9B PUSH3 0xD2 PUSH1 0x20 SHL PUSH1 0x20 SHR JUMP JUMPDEST PUSH3 0xD6 JUMP JUMPDEST PUSH1 0x1 PUSH1 0x7 SSTORE PUSH1 0x8 DUP1 SLOAD PUSH1 0x1 PUSH1 0x1 PUSH1 0xA0 SHL SUB NOT AND PUSH20 0x694AA1769357215DE4FAC081BF1F309ADC325306 OR SWAP1 SSTORE PUSH3 0x299 JUMP JUMPDEST CALLER SWAP1 JUMP JUMPDEST PUSH1 0x6 DUP1 SLOAD PUSH1 0x1 PUSH1 0x1 PUSH1 0xA0 SHL SUB DUP4 DUP2 AND PUSH1 0x1 PUSH1 0x1 PUSH1 0xA0 SHL SUB NOT DUP4 AND DUP2 OR SWAP1 SWAP4 SSTORE PUSH1 0x40 MLOAD SWAP2 AND SWAP2 SWAP1 DUP3 SWAP1 PUSH32 0x8BE0079C531659141344CD1FD0A4F28419497F9722A3DAAFE3B4186F6B6457E0 SWAP1 PUSH1 0x0 SWAP1 LOG3 POP POP JUMP JUMPDEST PUSH4 0x4E487B71 PUSH1 0xE0 SHL PUSH1 0x0 MSTORE PUSH1 0x41 PUSH1 0x4 MSTORE PUSH1 0x24 PUSH1 0x0 REVERT JUMPDEST PUSH1 0x1 DUP2 DUP2 SHR SWAP1 DUP3 AND DUP1 PUSH3 0x153 JUMPI PUSH1 0x7F DUP3 AND SWAP2 POP JUMPDEST PUSH1 0x20 DUP3 LT DUP2 SUB PUSH3 0x174 JUMPI PUSH4 0x4E487B71 PUSH1 0xE0 SHL PUSH1 0x0 MSTORE PUSH1 0x22 PUSH1 0x4 MSTORE PUSH1 0x24 PUSH1 0x0 REVERT JUMPDEST POP SWAP2 SWAP1 POP JUMP JUMPDEST PUSH1 0x1F DUP3 GT ISZERO PUSH3 0x1C8 JUMPI PUSH1 0x0 DUP2 DUP2 MSTORE PUSH1 0x20 DUP2 KECCAK256 PUSH1 0x1F DUP6 ADD PUSH1 0x5 SHR DUP2 ADD PUSH1 0x20 DUP7 LT ISZERO PUSH3 0x1A3 JUMPI POP DUP1 JUMPDEST PUSH1 0x1F DUP6 ADD PUSH1 0x5 SHR DUP3 ADD SWAP2 POP JUMPDEST DUP2 DUP2 LT ISZERO PUSH3 0x1C4 JUMPI DUP3 DUP2 SSTORE PUSH1 0x1 ADD PUSH3 0x1AF JUMP JUMPDEST POP POP POP JUMPDEST POP POP POP JUMP JUMPDEST DUP2 MLOAD PUSH1 0x1 PUSH1 0x1 PUSH1 0x40 SHL SUB DUP2 GT ISZERO PUSH3 0x1E9 JUMPI PUSH3 0x1E9 PUSH3 0x128 JUMP JUMPDEST PUSH3 0x201 DUP2 PUSH3 0x1FA DUP5 SLOAD PUSH3 0x13E JUMP JUMPDEST DUP5 PUSH3 0x17A JUMP JUMPDEST PUSH1 0x20 DUP1 PUSH1 0x1F DUP4 GT PUSH1 0x1 DUP2 EQ PUSH3 0x239 JUMPI PUSH1 0x0 DUP5 ISZERO PUSH3 0x220 JUMPI POP DUP6 DUP4 ADD MLOAD JUMPDEST PUSH1 0x0 NOT PUSH1 0x3 DUP7 SWAP1 SHL SHR NOT AND PUSH1 0x1 DUP6 SWAP1 SHL OR DUP6 SSTORE PUSH3 0x1C4 JUMP JUMPDEST PUSH1 0x0 DUP6 DUP2 MSTORE PUSH1 0x20 DUP2 KECCAK256 PUSH1 0x1F NOT DUP7 AND SWAP2 JUMPDEST DUP3 DUP2 LT ISZERO PUSH3 0x26A JUMPI DUP9 DUP7 ADD MLOAD DUP3 SSTORE SWAP5 DUP5 ADD SWAP5 PUSH1 0x1 SWAP1 SWAP2 ADD SWAP1 DUP5 ADD PUSH3 0x249 JUMP JUMPDEST POP DUP6 DUP3 LT ISZERO PUSH3 0x289 JUMPI DUP8 DUP6 ADD MLOAD PUSH1 0x0 NOT PUSH1 0x3 DUP9 SWAP1 SHL PUSH1 0xF8 AND SHR NOT AND DUP2 SSTORE JUMPDEST POP POP POP POP POP PUSH1 0x1 SWAP1 DUP2 SHL ADD SWAP1 SSTORE POP JUMP JUMPDEST PUSH2 0x2786 DUP1 PUSH3 0x2A9 PUSH1 0x0 CODECOPY PUSH1 0x0 RETURN INVALID PUSH1 0x80 PUSH1 0x40 MSTORE PUSH1 0x4 CALLDATASIZE LT PUSH2 0x219 JUMPI PUSH1 0x0 CALLDATALOAD PUSH1 0xE0 SHR DUP1 PUSH4 0x772CCF5D GT PUSH2 0x11D JUMPI DUP1 PUSH4 0xC2F1F14A GT PUSH2 0xB0 JUMPI DUP1 PUSH4 0xE030565E GT PUSH2 0x7F JUMPI DUP1 PUSH4 0xF2FDE38B GT PUSH2 0x64 JUMPI DUP1 PUSH4 0xF2FDE38B EQ PUSH2 0x5F3 JUMPI DUP1 PUSH4 0xF4F3B200 EQ PUSH2 0x613 JUMPI DUP1 PUSH4 0xFFE0AFC7 EQ PUSH2 0x633 JUMPI PUSH1 0x0 DUP1 REVERT JUMPDEST DUP1 PUSH4 0xE030565E EQ PUSH2 0x597 JUMPI DUP1 PUSH4 0xE985E9C5 EQ PUSH2 0x5AA JUMPI PUSH1 0x0 DUP1 REVERT JUMPDEST DUP1 PUSH4 0xC2F1F14A EQ PUSH2 0x52C JUMPI DUP1 PUSH4 0xC657D33F EQ PUSH2 0x54C JUMPI DUP1 PUSH4 0xC87B56DD EQ PUSH2 0x562 JUMPI DUP1 PUSH4 0xD547CFB7 EQ PUSH2 0x582 JUMPI PUSH1 0x0 DUP1 REVERT JUMPDEST DUP1 PUSH4 0x95D89B41 GT PUSH2 0xEC JUMPI DUP1 PUSH4 0x95D89B41 EQ PUSH2 0x4C2 JUMPI DUP1 PUSH4 0xA22CB465 EQ PUSH2 0x4D7 JUMPI DUP1 PUSH4 0xAD567B7D EQ PUSH2 0x4F7 JUMPI DUP1 PUSH4 0xB88D4FDE EQ PUSH2 0x50C JUMPI PUSH1 0x0 DUP1 REVERT JUMPDEST DUP1 PUSH4 0x772CCF5D EQ PUSH2 0x43F JUMPI DUP1 PUSH4 0x8DA5CB5B EQ PUSH2 0x46F JUMPI DUP1 PUSH4 0x8E15F473 EQ PUSH2 0x48D JUMPI DUP1 PUSH4 0x8FC88C48 EQ PUSH2 0x4A2 JUMPI PUSH1 0x0 DUP1 REVERT JUMPDEST DUP1 PUSH4 0x3CCFD60B GT PUSH2 0x1B0 JUMPI DUP1 PUSH4 0x6352211E GT PUSH2 0x17F JUMPI DUP1 PUSH4 0x715018A6 GT PUSH2 0x164 JUMPI DUP1 PUSH4 0x715018A6 EQ PUSH2 0x3F3 JUMPI DUP1 PUSH4 0x735DE366 EQ PUSH2 0x408 JUMPI DUP1 PUSH4 0x76E92559 EQ PUSH2 0x429 JUMPI PUSH1 0x0 DUP1 REVERT JUMPDEST DUP1 PUSH4 0x6352211E EQ PUSH2 0x3B3 JUMPI DUP1 PUSH4 0x70A08231 EQ PUSH2 0x3D3 JUMPI PUSH1 0x0 DUP1 REVERT JUMPDEST DUP1 PUSH4 0x3CCFD60B EQ PUSH2 0x354 JUMPI DUP1 PUSH4 0x42842E0E EQ PUSH2 0x369 JUMPI DUP1 PUSH4 0x5BC10977 EQ PUSH2 0x389 JUMPI DUP1 PUSH4 0x62A6068F EQ PUSH2 0x39E JUMPI PUSH1 0x0 DUP1 REVERT JUMPDEST DUP1 PUSH4 0xAA0A175 GT PUSH2 0x1EC JUMPI DUP1 PUSH4 0xAA0A175 EQ PUSH2 0x2CF JUMPI DUP1 PUSH4 0x1829A936 EQ PUSH2 0x2F3 JUMPI DUP1 PUSH4 0x23B872DD EQ PUSH2 0x314 JUMPI DUP1 PUSH4 0x30176E13 EQ PUSH2 0x334 JUMPI PUSH1 0x0 DUP1 REVERT JUMPDEST DUP1 PUSH4 0x1FFC9A7 EQ PUSH2 0x21E JUMPI DUP1 PUSH4 0x6FDDE03 EQ PUSH2 0x253 JUMPI DUP1 PUSH4 0x81812FC EQ PUSH2 0x275 JUMPI DUP1 PUSH4 0x95EA7B3 EQ PUSH2 0x2AD JUMPI JUMPDEST PUSH1 0x0 DUP1 REVERT JUMPDEST CALLVALUE DUP1 ISZERO PUSH2 0x22A JUMPI PUSH1 0x0 DUP1 REVERT JUMPDEST POP PUSH2 0x23E PUSH2 0x239 CALLDATASIZE PUSH1 0x4 PUSH2 0x2078 JUMP JUMPDEST PUSH2 0x653 JUMP JUMPDEST PUSH1 0x40 MLOAD SWAP1 ISZERO ISZERO DUP2 MSTORE PUSH1 0x20 ADD JUMPDEST PUSH1 0x40 MLOAD DUP1 SWAP2 SUB SWAP1 RETURN JUMPDEST CALLVALUE DUP1 ISZERO PUSH2 0x25F JUMPI PUSH1 0x0 DUP1 REVERT JUMPDEST POP PUSH2 0x268 PUSH2 0x67E JUMP JUMPDEST PUSH1 0x40 MLOAD PUSH2 0x24A SWAP2 SWAP1 PUSH2 0x20EC JUMP JUMPDEST CALLVALUE DUP1 ISZERO PUSH2 0x281 JUMPI PUSH1 0x0 DUP1 REVERT JUMPDEST POP PUSH2 0x295 PUSH2 0x290 CALLDATASIZE PUSH1 0x4 PUSH2 0x20FF JUMP JUMPDEST PUSH2 0x710 JUMP JUMPDEST PUSH1 0x40 MLOAD PUSH1 0x1 PUSH1 0x1 PUSH1 0xA0 SHL SUB SWAP1 SWAP2 AND DUP2 MSTORE PUSH1 0x20 ADD PUSH2 0x24A JUMP JUMPDEST CALLVALUE DUP1 ISZERO PUSH2 0x2B9 JUMPI PUSH1 0x0 DUP1 REVERT JUMPDEST POP PUSH2 0x2CD PUSH2 0x2C8 CALLDATASIZE PUSH1 0x4 PUSH2 0x212F JUMP JUMPDEST PUSH2 0x737 JUMP JUMPDEST STOP JUMPDEST CALLVALUE DUP1 ISZERO PUSH2 0x2DB JUMPI PUSH1 0x0 DUP1 REVERT JUMPDEST POP PUSH2 0x2E5 PUSH1 0xA SLOAD DUP2 JUMP JUMPDEST PUSH1 0x40 MLOAD SWAP1 DUP2 MSTORE PUSH1 0x20 ADD PUSH2 0x24A JUMP JUMPDEST CALLVALUE DUP1 ISZERO PUSH2 0x2FF JUMPI PUSH1 0x0 DUP1 REVERT JUMPDEST POP PUSH1 0x8 SLOAD PUSH2 0x23E SWAP1 PUSH1 0x1 PUSH1 0xA8 SHL SWAP1 DIV PUSH1 0xFF AND DUP2 JUMP JUMPDEST CALLVALUE DUP1 ISZERO PUSH2 0x320 JUMPI PUSH1 0x0 DUP1 REVERT JUMPDEST POP PUSH2 0x2CD PUSH2 0x32F CALLDATASIZE PUSH1 0x4 PUSH2 0x2159 JUMP JUMPDEST PUSH2 0x86F JUMP JUMPDEST CALLVALUE DUP1 ISZERO PUSH2 0x340 JUMPI PUSH1 0x0 DUP1 REVERT JUMPDEST POP PUSH2 0x2CD PUSH2 0x34F CALLDATASIZE PUSH1 0x4 PUSH2 0x2221 JUMP JUMPDEST PUSH2 0x8E6 JUMP JUMPDEST CALLVALUE DUP1 ISZERO PUSH2 0x360 JUMPI PUSH1 0x0 DUP1 REVERT JUMPDEST POP PUSH2 0x2CD PUSH2 0x8FE JUMP JUMPDEST CALLVALUE DUP1 ISZERO PUSH2 0x375 JUMPI PUSH1 0x0 DUP1 REVERT JUMPDEST POP PUSH2 0x2CD PUSH2 0x384 CALLDATASIZE PUSH1 0x4 PUSH2 0x2159 JUMP JUMPDEST PUSH2 0x9C1 JUMP JUMPDEST CALLVALUE DUP1 ISZERO PUSH2 0x395 JUMPI PUSH1 0x0 DUP1 REVERT JUMPDEST POP PUSH2 0x2CD PUSH2 0x9DC JUMP JUMPDEST CALLVALUE DUP1 ISZERO PUSH2 0x3AA JUMPI PUSH1 0x0 DUP1 REVERT JUMPDEST POP PUSH2 0x2CD PUSH2 0xA20 JUMP JUMPDEST CALLVALUE DUP1 ISZERO PUSH2 0x3BF JUMPI PUSH1 0x0 DUP1 REVERT JUMPDEST POP PUSH2 0x295 PUSH2 0x3CE CALLDATASIZE PUSH1 0x4 PUSH2 0x20FF JUMP JUMPDEST PUSH2 0xB2B JUMP JUMPDEST CALLVALUE DUP1 ISZERO PUSH2 0x3DF JUMPI PUSH1 0x0 DUP1 REVERT JUMPDEST POP PUSH2 0x2E5 PUSH2 0x3EE CALLDATASIZE PUSH1 0x4 PUSH2 0x226A JUMP JUMPDEST PUSH2 0xB90 JUMP JUMPDEST CALLVALUE DUP1 ISZERO PUSH2 0x3FF JUMPI PUSH1 0x0 DUP1 REVERT JUMPDEST POP PUSH2 0x2CD PUSH2 0xC2A JUMP JUMPDEST CALLVALUE DUP1 ISZERO PUSH2 0x414 JUMPI PUSH1 0x0 DUP1 REVERT JUMPDEST POP PUSH1 0x8 SLOAD PUSH2 0x23E SWAP1 PUSH1 0x1 PUSH1 0xA0 SHL SWAP1 DIV PUSH1 0xFF AND DUP2 JUMP JUMPDEST CALLVALUE DUP1 ISZERO PUSH2 0x435 JUMPI PUSH1 0x0 DUP1 REVERT JUMPDEST POP PUSH2 0x2E5 PUSH1 0xB SLOAD DUP2 JUMP JUMPDEST CALLVALUE DUP1 ISZERO PUSH2 0x44B JUMPI PUSH1 0x0 DUP1 REVERT JUMPDEST POP PUSH2 0x23E PUSH2 0x45A CALLDATASIZE PUSH1 0x4 PUSH2 0x226A JUMP JUMPDEST PUSH1 0xD PUSH1 0x20 MSTORE PUSH1 0x0 SWAP1 DUP2 MSTORE PUSH1 0x40 SWAP1 KECCAK256 SLOAD PUSH1 0xFF AND DUP2 JUMP JUMPDEST CALLVALUE DUP1 ISZERO PUSH2 0x47B JUMPI PUSH1 0x0 DUP1 REVERT JUMPDEST POP PUSH1 0x6 SLOAD PUSH1 0x1 PUSH1 0x1 PUSH1 0xA0 SHL SUB AND PUSH2 0x295 JUMP JUMPDEST CALLVALUE DUP1 ISZERO PUSH2 0x499 JUMPI PUSH1 0x0 DUP1 REVERT JUMPDEST POP PUSH2 0x2E5 PUSH2 0xC3C JUMP JUMPDEST CALLVALUE DUP1 ISZERO PUSH2 0x4AE JUMPI PUSH1 0x0 DUP1 REVERT JUMPDEST POP PUSH2 0x2E5 PUSH2 0x4BD CALLDATASIZE PUSH1 0x4 PUSH2 0x20FF JUMP JUMPDEST PUSH2 0xCE2 JUMP JUMPDEST CALLVALUE DUP1 ISZERO PUSH2 0x4CE JUMPI PUSH1 0x0 DUP1 REVERT JUMPDEST POP PUSH2 0x268 PUSH2 0xD3A JUMP JUMPDEST CALLVALUE DUP1 ISZERO PUSH2 0x4E3 JUMPI PUSH1 0x0 DUP1 REVERT JUMPDEST POP PUSH2 0x2CD PUSH2 0x4F2 CALLDATASIZE PUSH1 0x4 PUSH2 0x2293 JUMP JUMPDEST PUSH2 0xD49 JUMP JUMPDEST CALLVALUE DUP1 ISZERO PUSH2 0x503 JUMPI PUSH1 0x0 DUP1 REVERT JUMPDEST POP PUSH2 0x2CD PUSH2 0xD54 JUMP JUMPDEST CALLVALUE DUP1 ISZERO PUSH2 0x518 JUMPI PUSH1 0x0 DUP1 REVERT JUMPDEST POP PUSH2 0x2CD PUSH2 0x527 CALLDATASIZE PUSH1 0x4 PUSH2 0x22CA JUMP JUMPDEST PUSH2 0xD98 JUMP JUMPDEST CALLVALUE DUP1 ISZERO PUSH2 0x538 JUMPI PUSH1 0x0 DUP1 REVERT JUMPDEST POP PUSH2 0x295 PUSH2 0x547 CALLDATASIZE PUSH1 0x4 PUSH2 0x20FF JUMP JUMPDEST PUSH2 0xE16 JUMP JUMPDEST CALLVALUE DUP1 ISZERO PUSH2 0x558 JUMPI PUSH1 0x0 DUP1 REVERT JUMPDEST POP PUSH2 0x2E5 PUSH1 0x9 SLOAD DUP2 JUMP JUMPDEST CALLVALUE DUP1 ISZERO PUSH2 0x56E JUMPI PUSH1 0x0 DUP1 REVERT JUMPDEST POP PUSH2 0x268 PUSH2 0x57D CALLDATASIZE PUSH1 0x4 PUSH2 0x20FF JUMP JUMPDEST PUSH2 0xE59 JUMP JUMPDEST CALLVALUE DUP1 ISZERO PUSH2 0x58E JUMPI PUSH1 0x0 DUP1 REVERT JUMPDEST POP PUSH2 0x268 PUSH2 0xEFE JUMP JUMPDEST PUSH2 0x2CD PUSH2 0x5A5 CALLDATASIZE PUSH1 0x4 PUSH2 0x2346 JUMP JUMPDEST PUSH2 0xF8C JUMP JUMPDEST CALLVALUE DUP1 ISZERO PUSH2 0x5B6 JUMPI PUSH1 0x0 DUP1 REVERT JUMPDEST POP PUSH2 0x23E PUSH2 0x5C5 CALLDATASIZE PUSH1 0x4 PUSH2 0x2393 JUMP JUMPDEST PUSH1 0x1 PUSH1 0x1 PUSH1 0xA0 SHL SUB SWAP2 DUP3 AND PUSH1 0x0 SWAP1 DUP2 MSTORE PUSH1 0x5 PUSH1 0x20 SWAP1 DUP2 MSTORE PUSH1 0x40 DUP1 DUP4 KECCAK256 SWAP4 SWAP1 SWAP5 AND DUP3 MSTORE SWAP2 SWAP1 SWAP2 MSTORE KECCAK256 SLOAD PUSH1 0xFF AND SWAP1 JUMP JUMPDEST CALLVALUE DUP1 ISZERO PUSH2 0x5FF JUMPI PUSH1 0x0 DUP1 REVERT JUMPDEST POP PUSH2 0x2CD PUSH2 0x60E CALLDATASIZE PUSH1 0x4 PUSH2 0x226A JUMP JUMPDEST PUSH2 0x131A JUMP JUMPDEST CALLVALUE DUP1 ISZERO PUSH2 0x61F JUMPI PUSH1 0x0 DUP1 REVERT JUMPDEST POP PUSH2 0x2CD PUSH2 0x62E CALLDATASIZE PUSH1 0x4 PUSH2 0x226A JUMP JUMPDEST PUSH2 0x13AA JUMP JUMPDEST CALLVALUE DUP1 ISZERO PUSH2 0x63F JUMPI PUSH1 0x0 DUP1 REVERT JUMPDEST POP PUSH2 0x2CD PUSH2 0x64E CALLDATASIZE PUSH1 0x4 PUSH2 0x23C6 JUMP JUMPDEST PUSH2 0x150B JUMP JUMPDEST PUSH1 0x0 PUSH1 0x1 PUSH1 0x1 PUSH1 0xE0 SHL SUB NOT DUP3 AND PUSH4 0x2B424AD7 PUSH1 0xE2 SHL EQ DUP1 PUSH2 0x678 JUMPI POP PUSH2 0x678 DUP3 PUSH2 0x151E JUMP JUMPDEST SWAP3 SWAP2 POP POP JUMP JUMPDEST PUSH1 0x60 PUSH1 0x0 DUP1 SLOAD PUSH2 0x68D SWAP1 PUSH2 0x23E8 JUMP JUMPDEST DUP1 PUSH1 0x1F ADD PUSH1 0x20 DUP1 SWAP2 DIV MUL PUSH1 0x20 ADD PUSH1 0x40 MLOAD SWAP1 DUP2 ADD PUSH1 0x40 MSTORE DUP1 SWAP3 SWAP2 SWAP1 DUP2 DUP2 MSTORE PUSH1 0x20 ADD DUP3 DUP1 SLOAD PUSH2 0x6B9 SWAP1 PUSH2 0x23E8 JUMP JUMPDEST DUP1 ISZERO PUSH2 0x706 JUMPI DUP1 PUSH1 0x1F LT PUSH2 0x6DB JUMPI PUSH2 0x100 DUP1 DUP4 SLOAD DIV MUL DUP4 MSTORE SWAP2 PUSH1 0x20 ADD SWAP2 PUSH2 0x706 JUMP JUMPDEST DUP3 ADD SWAP2 SWAP1 PUSH1 0x0 MSTORE PUSH1 0x20 PUSH1 0x0 KECCAK256 SWAP1 JUMPDEST DUP2 SLOAD DUP2 MSTORE SWAP1 PUSH1 0x1 ADD SWAP1 PUSH1 0x20 ADD DUP1 DUP4 GT PUSH2 0x6E9 JUMPI DUP3 SWAP1 SUB PUSH1 0x1F AND DUP3 ADD SWAP2 JUMPDEST POP POP POP POP POP SWAP1 POP SWAP1 JUMP JUMPDEST PUSH1 0x0 PUSH2 0x71B DUP3 PUSH2 0x156E JUMP JUMPDEST POP PUSH1 0x0 SWAP1 DUP2 MSTORE PUSH1 0x4 PUSH1 0x20 MSTORE PUSH1 0x40 SWAP1 KECCAK256 SLOAD PUSH1 0x1 PUSH1 0x1 PUSH1 0xA0 SHL SUB AND SWAP1 JUMP JUMPDEST PUSH1 0x0 PUSH2 0x742 DUP3 PUSH2 0xB2B JUMP JUMPDEST SWAP1 POP DUP1 PUSH1 0x1 PUSH1 0x1 PUSH1 0xA0 SHL SUB AND DUP4 PUSH1 0x1 PUSH1 0x1 PUSH1 0xA0 SHL SUB AND SUB PUSH2 0x7B4 JUMPI PUSH1 0x40 MLOAD PUSH3 0x461BCD PUSH1 0xE5 SHL DUP2 MSTORE PUSH1 0x20 PUSH1 0x4 DUP3 ADD MSTORE PUSH1 0x21 PUSH1 0x24 DUP3 ADD MSTORE PUSH32 0x4552433732313A20617070726F76616C20746F2063757272656E74206F776E65 PUSH1 0x44 DUP3 ADD MSTORE PUSH1 0x39 PUSH1 0xF9 SHL PUSH1 0x64 DUP3 ADD MSTORE PUSH1 0x84 ADD JUMPDEST PUSH1 0x40 MLOAD DUP1 SWAP2 SUB SWAP1 REVERT JUMPDEST CALLER PUSH1 0x1 PUSH1 0x1 PUSH1 0xA0 SHL SUB DUP3 AND EQ DUP1 PUSH2 0x7EE JUMPI POP PUSH1 0x1 PUSH1 0x1 PUSH1 0xA0 SHL SUB DUP2 AND PUSH1 0x0 SWAP1 DUP2 MSTORE PUSH1 0x5 PUSH1 0x20 SWAP1 DUP2 MSTORE PUSH1 0x40 DUP1 DUP4 KECCAK256 CALLER DUP5 MSTORE SWAP1 SWAP2 MSTORE SWAP1 KECCAK256 SLOAD PUSH1 0xFF AND JUMPDEST PUSH2 0x860 JUMPI PUSH1 0x40 MLOAD PUSH3 0x461BCD PUSH1 0xE5 SHL DUP2 MSTORE PUSH1 0x20 PUSH1 0x4 DUP3 ADD MSTORE PUSH1 0x3D PUSH1 0x24 DUP3 ADD MSTORE PUSH32 0x4552433732313A20617070726F76652063616C6C6572206973206E6F7420746F PUSH1 0x44 DUP3 ADD MSTORE PUSH32 0x6B656E206F776E6572206F7220617070726F76656420666F7220616C6C000000 PUSH1 0x64 DUP3 ADD MSTORE PUSH1 0x84 ADD PUSH2 0x7AB JUMP JUMPDEST PUSH2 0x86A DUP4 DUP4 PUSH2 0x15D2 JUMP JUMPDEST POP POP POP JUMP JUMPDEST PUSH2 0x879 CALLER DUP3 PUSH2 0x1640 JUMP JUMPDEST PUSH2 0x8DB JUMPI PUSH1 0x40 MLOAD PUSH3 0x461BCD PUSH1 0xE5 SHL DUP2 MSTORE PUSH1 0x20 PUSH1 0x4 DUP3 ADD MSTORE PUSH1 0x2D PUSH1 0x24 DUP3 ADD MSTORE PUSH32 0x4552433732313A2063616C6C6572206973206E6F7420746F6B656E206F776E65 PUSH1 0x44 DUP3 ADD MSTORE PUSH13 0x1C881BDC88185C1C1C9BDD9959 PUSH1 0x9A SHL PUSH1 0x64 DUP3 ADD MSTORE PUSH1 0x84 ADD PUSH2 0x7AB JUMP JUMPDEST PUSH2 0x86A DUP4 DUP4 DUP4 PUSH2 0x16BF JUMP JUMPDEST PUSH2 0x8EE PUSH2 0x18AC JUMP JUMPDEST PUSH1 0xC PUSH2 0x8FA DUP3 DUP3 PUSH2 0x2470 JUMP JUMPDEST POP POP JUMP JUMPDEST PUSH2 0x906 PUSH2 0x18AC JUMP JUMPDEST PUSH2 0x90E PUSH2 0x1906 JUMP JUMPDEST PUSH1 0x0 PUSH2 0x922 PUSH1 0x6 SLOAD PUSH1 0x1 PUSH1 0x1 PUSH1 0xA0 SHL SUB AND SWAP1 JUMP JUMPDEST PUSH1 0x1 PUSH1 0x1 PUSH1 0xA0 SHL SUB AND SELFBALANCE PUSH1 0x40 MLOAD PUSH1 0x0 PUSH1 0x40 MLOAD DUP1 DUP4 SUB DUP2 DUP6 DUP8 GAS CALL SWAP3 POP POP POP RETURNDATASIZE DUP1 PUSH1 0x0 DUP2 EQ PUSH2 0x96C JUMPI PUSH1 0x40 MLOAD SWAP2 POP PUSH1 0x1F NOT PUSH1 0x3F RETURNDATASIZE ADD AND DUP3 ADD PUSH1 0x40 MSTORE RETURNDATASIZE DUP3 MSTORE RETURNDATASIZE PUSH1 0x0 PUSH1 0x20 DUP5 ADD RETURNDATACOPY PUSH2 0x971 JUMP JUMPDEST PUSH1 0x60 SWAP2 POP JUMPDEST POP POP SWAP1 POP DUP1 PUSH2 0x9B4 JUMPI PUSH1 0x40 MLOAD PUSH3 0x461BCD PUSH1 0xE5 SHL DUP2 MSTORE PUSH1 0x20 PUSH1 0x4 DUP3 ADD MSTORE PUSH1 0xF PUSH1 0x24 DUP3 ADD MSTORE PUSH15 0x151C985B9CD9995C8819985A5B1959 PUSH1 0x8A SHL PUSH1 0x44 DUP3 ADD MSTORE PUSH1 0x64 ADD PUSH2 0x7AB JUMP JUMPDEST POP PUSH2 0x9BF PUSH1 0x1 PUSH1 0x7 SSTORE JUMP JUMPDEST JUMP JUMPDEST PUSH2 0x86A DUP4 DUP4 DUP4 PUSH1 0x40 MLOAD DUP1 PUSH1 0x20 ADD PUSH1 0x40 MSTORE DUP1 PUSH1 0x0 DUP2 MSTORE POP PUSH2 0xD98 JUMP JUMPDEST PUSH2 0x9E4 PUSH2 0x18AC JUMP JUMPDEST PUSH1 0x8 DUP1 SLOAD PUSH32 0xFFFFFFFFFFFFFFFFFFFF00FFFFFFFFFFFFFFFFFFFFFFFFFFFFFFFFFFFFFFFFFF DUP2 AND PUSH1 0x1 PUSH1 0xA8 SHL SWAP2 DUP3 SWAP1 DIV PUSH1 0xFF AND ISZERO SWAP1 SWAP2 MUL OR SWAP1 SSTORE JUMP JUMPDEST PUSH2 0xA28 PUSH2 0x1906 JUMP JUMPDEST PUSH1 0x8 SLOAD PUSH1 0x1 PUSH1 0xA8 SHL SWAP1 DIV PUSH1 0xFF AND PUSH2 0xA81 JUMPI PUSH1 0x40 MLOAD PUSH3 0x461BCD PUSH1 0xE5 SHL DUP2 MSTORE PUSH1 0x20 PUSH1 0x4 DUP3 ADD MSTORE PUSH1 0x11 PUSH1 0x24 DUP3 ADD MSTORE PUSH32 0x6D656D6265727368697020636C6F736564000000000000000000000000000000 PUSH1 0x44 DUP3 ADD MSTORE PUSH1 0x64 ADD PUSH2 0x7AB JUMP JUMPDEST CALLER PUSH1 0x0 SWAP1 DUP2 MSTORE PUSH1 0xD PUSH1 0x20 MSTORE PUSH1 0x40 SWAP1 KECCAK256 SLOAD PUSH1 0xFF AND ISZERO PUSH2 0xAE1 JUMPI PUSH1 0x40 MLOAD PUSH3 0x461BCD PUSH1 0xE5 SHL DUP2 MSTORE PUSH1 0x20 PUSH1 0x4 DUP3 ADD MSTORE PUSH1 0x1D PUSH1 0x24 DUP3 ADD MSTORE PUSH32 0x616C72656164792068617665206D656D6265727368697020746F6B656E000000 PUSH1 0x44 DUP3 ADD MSTORE PUSH1 0x64 ADD PUSH2 0x7AB JUMP JUMPDEST PUSH1 0xB SLOAD PUSH2 0xAEE CALLER DUP3 PUSH2 0x195F JUMP JUMPDEST PUSH1 0x1 PUSH1 0xB PUSH1 0x0 DUP3 DUP3 SLOAD PUSH2 0xB01 SWAP2 SWAP1 PUSH2 0x2546 JUMP JUMPDEST SWAP1 SWAP2 SSTORE POP POP CALLER PUSH1 0x0 SWAP1 DUP2 MSTORE PUSH1 0xD PUSH1 0x20 MSTORE PUSH1 0x40 SWAP1 KECCAK256 DUP1 SLOAD PUSH1 0xFF NOT AND PUSH1 0x1 OR SWAP1 SSTORE POP PUSH2 0x9BF PUSH1 0x1 PUSH1 0x7 SSTORE JUMP JUMPDEST PUSH1 0x0 DUP2 DUP2 MSTORE PUSH1 0x2 PUSH1 0x20 MSTORE PUSH1 0x40 DUP2 KECCAK256 SLOAD PUSH1 0x1 PUSH1 0x1 PUSH1 0xA0 SHL SUB AND DUP1 PUSH2 0x678 JUMPI PUSH1 0x40 MLOAD PUSH3 0x461BCD PUSH1 0xE5 SHL DUP2 MSTORE PUSH1 0x20 PUSH1 0x4 DUP3 ADD MSTORE PUSH1 0x18 PUSH1 0x24 DUP3 ADD MSTORE PUSH32 0x4552433732313A20696E76616C696420746F6B656E2049440000000000000000 PUSH1 0x44 DUP3 ADD MSTORE PUSH1 0x64 ADD PUSH2 0x7AB JUMP JUMPDEST PUSH1 0x0 PUSH1 0x1 PUSH1 0x1 PUSH1 0xA0 SHL SUB DUP3 AND PUSH2 0xC0E JUMPI PUSH1 0x40 MLOAD PUSH3 0x461BCD PUSH1 0xE5 SHL DUP2 MSTORE PUSH1 0x20 PUSH1 0x4 DUP3 ADD MSTORE PUSH1 0x29 PUSH1 0x24 DUP3 ADD MSTORE PUSH32 0x4552433732313A2061646472657373207A65726F206973206E6F742061207661 PUSH1 0x44 DUP3 ADD MSTORE PUSH32 0x6C6964206F776E65720000000000000000000000000000000000000000000000 PUSH1 0x64 DUP3 ADD MSTORE PUSH1 0x84 ADD PUSH2 0x7AB JUMP JUMPDEST POP PUSH1 0x1 PUSH1 0x1 PUSH1 0xA0 SHL SUB AND PUSH1 0x0 SWAP1 DUP2 MSTORE PUSH1 0x3 PUSH1 0x20 MSTORE PUSH1 0x40 SWAP1 KECCAK256 SLOAD SWAP1 JUMP JUMPDEST PUSH2 0xC32 PUSH2 0x18AC JUMP JUMPDEST PUSH2 0x9BF PUSH1 0x0 PUSH2 0x1979 JUMP JUMPDEST PUSH1 0x0 DUP1 PUSH1 0x8 PUSH1 0x0 SWAP1 SLOAD SWAP1 PUSH2 0x100 EXP SWAP1 DIV PUSH1 0x1 PUSH1 0x1 PUSH1 0xA0 SHL SUB AND PUSH1 0x1 PUSH1 0x1 PUSH1 0xA0 SHL SUB AND PUSH4 0xFEAF968C PUSH1 0x40 MLOAD DUP2 PUSH4 0xFFFFFFFF AND PUSH1 0xE0 SHL DUP2 MSTORE PUSH1 0x4 ADD PUSH1 0xA0 PUSH1 0x40 MLOAD DUP1 DUP4 SUB DUP2 DUP7 GAS STATICCALL ISZERO DUP1 ISZERO PUSH2 0xC92 JUMPI RETURNDATASIZE PUSH1 0x0 DUP1 RETURNDATACOPY RETURNDATASIZE PUSH1 0x0 REVERT JUMPDEST POP POP POP POP PUSH1 0x40 MLOAD RETURNDATASIZE PUSH1 0x1F NOT PUSH1 0x1F DUP3 ADD AND DUP3 ADD DUP1 PUSH1 0x40 MSTORE POP DUP2 ADD SWAP1 PUSH2 0xCB6 SWAP2 SWAP1 PUSH2 0x2573 JUMP JUMPDEST POP POP POP SWAP2 POP POP PUSH1 0xA SLOAD DUP2 PUSH2 0xCCA SWAP2 SWAP1 PUSH2 0x25C3 JUMP JUMPDEST PUSH2 0xCDC SWAP1 PUSH8 0xDE0B6B3A7640000 PUSH2 0x25C3 JUMP JUMPDEST SWAP2 POP POP SWAP1 JUMP JUMPDEST PUSH1 0x0 DUP2 DUP2 MSTORE PUSH1 0xE PUSH1 0x20 MSTORE PUSH1 0x40 DUP2 KECCAK256 SLOAD TIMESTAMP PUSH1 0x1 PUSH1 0xA0 SHL SWAP1 SWAP2 DIV PUSH8 0xFFFFFFFFFFFFFFFF AND LT PUSH2 0xD2D JUMPI POP PUSH1 0x0 SWAP1 DUP2 MSTORE PUSH1 0xE PUSH1 0x20 MSTORE PUSH1 0x40 SWAP1 KECCAK256 SLOAD PUSH1 0x1 PUSH1 0xA0 SHL SWAP1 DIV PUSH8 0xFFFFFFFFFFFFFFFF AND SWAP1 JUMP JUMPDEST POP PUSH1 0x0 SWAP2 SWAP1 POP JUMP JUMPDEST SWAP2 SWAP1 POP JUMP JUMPDEST PUSH1 0x60 PUSH1 0x1 DUP1 SLOAD PUSH2 0x68D SWAP1 PUSH2 0x23E8 JUMP JUMPDEST PUSH2 0x8FA CALLER DUP4 DUP4 PUSH2 0x19CB JUMP JUMPDEST PUSH2 0xD5C PUSH2 0x18AC JUMP JUMPDEST PUSH1 0x8 DUP1 SLOAD PUSH32 0xFFFFFFFFFFFFFFFFFFFFFF00FFFFFFFFFFFFFFFFFFFFFFFFFFFFFFFFFFFFFFFF DUP2 AND PUSH1 0x1 PUSH1 0xA0 SHL SWAP2 DUP3 SWAP1 DIV PUSH1 0xFF AND ISZERO SWAP1 SWAP2 MUL OR SWAP1 SSTORE JUMP JUMPDEST PUSH2 0xDA2 CALLER DUP4 PUSH2 0x1640 JUMP JUMPDEST PUSH2 0xE04 JUMPI PUSH1 0x40 MLOAD PUSH3 0x461BCD PUSH1 0xE5 SHL DUP2 MSTORE PUSH1 0x20 PUSH1 0x4 DUP3 ADD MSTORE PUSH1 0x2D PUSH1 0x24 DUP3 ADD MSTORE PUSH32 0x4552433732313A2063616C6C6572206973206E6F7420746F6B656E206F776E65 PUSH1 0x44 DUP3 ADD MSTORE PUSH13 0x1C881BDC88185C1C1C9BDD9959 PUSH1 0x9A SHL PUSH1 0x64 DUP3 ADD MSTORE PUSH1 0x84 ADD PUSH2 0x7AB JUMP JUMPDEST PUSH2 0xE10 DUP5 DUP5 DUP5 DUP5 PUSH2 0x1A99 JUMP JUMPDEST POP POP POP POP JUMP JUMPDEST PUSH1 0x0 DUP2 DUP2 MSTORE PUSH1 0xE PUSH1 0x20 MSTORE PUSH1 0x40 DUP2 KECCAK256 SLOAD TIMESTAMP PUSH1 0x1 PUSH1 0xA0 SHL SWAP1 SWAP2 DIV PUSH8 0xFFFFFFFFFFFFFFFF AND LT PUSH2 0xD2D JUMPI POP PUSH1 0x0 SWAP1 DUP2 MSTORE PUSH1 0xE PUSH1 0x20 MSTORE PUSH1 0x40 SWAP1 KECCAK256 SLOAD PUSH1 0x1 PUSH1 0x1 PUSH1 0xA0 SHL SUB AND SWAP1 JUMP JUMPDEST PUSH1 0x0 DUP2 DUP2 MSTORE PUSH1 0x2 PUSH1 0x20 MSTORE PUSH1 0x40 SWAP1 KECCAK256 SLOAD PUSH1 0x60 SWAP1 PUSH1 0x1 PUSH1 0x1 PUSH1 0xA0 SHL SUB AND PUSH2 0xEC0 JUMPI PUSH1 0x40 MLOAD PUSH3 0x461BCD PUSH1 0xE5 SHL DUP2 MSTORE PUSH1 0x20 PUSH1 0x4 DUP3 ADD MSTORE PUSH1 0x11 PUSH1 0x24 DUP3 ADD MSTORE PUSH32 0x6E6F6E6578697374656E7420746F6B656E000000000000000000000000000000 PUSH1 0x44 DUP3 ADD MSTORE PUSH1 0x64 ADD PUSH2 0x7AB JUMP JUMPDEST PUSH1 0x0 PUSH2 0xECA PUSH2 0x1B17 JUMP JUMPDEST SWAP1 POP DUP1 PUSH2 0xED6 DUP5 PUSH2 0x1B26 JUMP JUMPDEST PUSH1 0x40 MLOAD PUSH1 0x20 ADD PUSH2 0xEE7 SWAP3 SWAP2 SWAP1 PUSH2 0x25FF JUMP JUMPDEST PUSH1 0x40 MLOAD PUSH1 0x20 DUP2 DUP4 SUB SUB DUP2 MSTORE SWAP1 PUSH1 0x40 MSTORE SWAP2 POP POP SWAP2 SWAP1 POP JUMP JUMPDEST PUSH1 0xC DUP1 SLOAD PUSH2 0xF0B SWAP1 PUSH2 0x23E8 JUMP JUMPDEST DUP1 PUSH1 0x1F ADD PUSH1 0x20 DUP1 SWAP2 DIV MUL PUSH1 0x20 ADD PUSH1 0x40 MLOAD SWAP1 DUP2 ADD PUSH1 0x40 MSTORE DUP1 SWAP3 SWAP2 SWAP1 DUP2 DUP2 MSTORE PUSH1 0x20 ADD DUP3 DUP1 SLOAD PUSH2 0xF37 SWAP1 PUSH2 0x23E8 JUMP JUMPDEST DUP1 ISZERO PUSH2 0xF84 JUMPI DUP1 PUSH1 0x1F LT PUSH2 0xF59 JUMPI PUSH2 0x100 DUP1 DUP4 SLOAD DIV MUL DUP4 MSTORE SWAP2 PUSH1 0x20 ADD SWAP2 PUSH2 0xF84 JUMP JUMPDEST DUP3 ADD SWAP2 SWAP1 PUSH1 0x0 MSTORE PUSH1 0x20 PUSH1 0x0 KECCAK256 SWAP1 JUMPDEST DUP2 SLOAD DUP2 MSTORE SWAP1 PUSH1 0x1 ADD SWAP1 PUSH1 0x20 ADD DUP1 DUP4 GT PUSH2 0xF67 JUMPI DUP3 SWAP1 SUB PUSH1 0x1F AND DUP3 ADD SWAP2 JUMPDEST POP POP POP POP POP DUP2 JUMP JUMPDEST PUSH2 0xF94 PUSH2 0x1906 JUMP JUMPDEST PUSH2 0xF9E CALLER DUP5 PUSH2 0x1640 JUMP JUMPDEST PUSH2 0xFEA JUMPI PUSH1 0x40 MLOAD PUSH3 0x461BCD PUSH1 0xE5 SHL DUP2 MSTORE PUSH1 0x20 PUSH1 0x4 DUP3 ADD MSTORE PUSH1 0x19 PUSH1 0x24 DUP3 ADD MSTORE PUSH32 0x796F212043616E7420646F20746861742073686974206C6F6C00000000000000 PUSH1 0x44 DUP3 ADD MSTORE PUSH1 0x64 ADD PUSH2 0x7AB JUMP JUMPDEST DUP2 PUSH1 0x1 PUSH1 0x1 PUSH1 0xA0 SHL SUB AND PUSH2 0xFFD DUP5 PUSH2 0xB2B JUMP JUMPDEST PUSH1 0x1 PUSH1 0x1 PUSH1 0xA0 SHL SUB AND EQ PUSH2 0x1053 JUMPI PUSH1 0x40 MLOAD PUSH3 0x461BCD PUSH1 0xE5 SHL DUP2 MSTORE PUSH1 0x20 PUSH1 0x4 DUP3 ADD MSTORE PUSH1 0x12 PUSH1 0x24 DUP3 ADD MSTORE PUSH32 0x6F776E6572206D75737420626520757365720000000000000000000000000000 PUSH1 0x44 DUP3 ADD MSTORE PUSH1 0x64 ADD PUSH2 0x7AB JUMP JUMPDEST PUSH1 0x8 SLOAD PUSH1 0x1 PUSH1 0xA0 SHL SWAP1 DIV PUSH1 0xFF AND PUSH2 0x10AC JUMPI PUSH1 0x40 MLOAD PUSH3 0x461BCD PUSH1 0xE5 SHL DUP2 MSTORE PUSH1 0x20 PUSH1 0x4 DUP3 ADD MSTORE PUSH1 0x17 PUSH1 0x24 DUP3 ADD MSTORE PUSH32 0x737562736372697074696F6E206E6F7420616374697665000000000000000000 PUSH1 0x44 DUP3 ADD MSTORE PUSH1 0x64 ADD PUSH2 0x7AB JUMP JUMPDEST CALLER PUSH1 0x0 SWAP1 DUP2 MSTORE PUSH1 0xD PUSH1 0x20 MSTORE PUSH1 0x40 SWAP1 KECCAK256 SLOAD PUSH1 0xFF AND PUSH2 0x110B JUMPI PUSH1 0x40 MLOAD PUSH3 0x461BCD PUSH1 0xE5 SHL DUP2 MSTORE PUSH1 0x20 PUSH1 0x4 DUP3 ADD MSTORE PUSH1 0x1A PUSH1 0x24 DUP3 ADD MSTORE PUSH32 0x6E6F742061206D656D6265722C2063616E6E6F742072656E6577000000000000 PUSH1 0x44 DUP3 ADD MSTORE PUSH1 0x64 ADD PUSH2 0x7AB JUMP JUMPDEST PUSH1 0x9 SLOAD DUP2 PUSH8 0xFFFFFFFFFFFFFFFF AND GT ISZERO PUSH2 0x1167 JUMPI PUSH1 0x40 MLOAD PUSH3 0x461BCD PUSH1 0xE5 SHL DUP2 MSTORE PUSH1 0x20 PUSH1 0x4 DUP3 ADD MSTORE PUSH1 0x16 PUSH1 0x24 DUP3 ADD MSTORE PUSH32 0x45786365656473206D61782073756220706572696F6400000000000000000000 PUSH1 0x44 DUP3 ADD MSTORE PUSH1 0x64 ADD PUSH2 0x7AB JUMP JUMPDEST PUSH1 0x0 PUSH2 0x1171 PUSH2 0xC3C JUMP JUMPDEST SWAP1 POP CALLVALUE PUSH2 0x1188 DUP3 PUSH8 0xFFFFFFFFFFFFFFFF DUP6 AND PUSH2 0x2656 JUMP JUMPDEST EQ PUSH2 0x11D5 JUMPI PUSH1 0x40 MLOAD PUSH3 0x461BCD PUSH1 0xE5 SHL DUP2 MSTORE PUSH1 0x20 PUSH1 0x4 DUP3 ADD MSTORE PUSH1 0x19 PUSH1 0x24 DUP3 ADD MSTORE PUSH32 0x76616C75652073656E74206973206E6F7420636F727265637400000000000000 PUSH1 0x44 DUP3 ADD MSTORE PUSH1 0x64 ADD PUSH2 0x7AB JUMP JUMPDEST PUSH1 0x0 PUSH2 0x11E4 DUP4 PUSH3 0x278D00 PUSH2 0x266D JUMP JUMPDEST PUSH1 0x0 DUP7 DUP2 MSTORE PUSH1 0xE PUSH1 0x20 MSTORE PUSH1 0x40 SWAP1 KECCAK256 DUP1 SLOAD SWAP2 SWAP3 POP TIMESTAMP SWAP2 PUSH8 0xFFFFFFFFFFFFFFFF DUP1 DUP5 AND PUSH1 0x1 PUSH1 0xA0 SHL SWAP1 SWAP3 DIV AND LT PUSH2 0x125B JUMPI PUSH1 0x40 MLOAD PUSH3 0x461BCD PUSH1 0xE5 SHL DUP2 MSTORE PUSH1 0x20 PUSH1 0x4 DUP3 ADD MSTORE PUSH1 0x17 PUSH1 0x24 DUP3 ADD MSTORE PUSH32 0x7573657220616C72656164792073756273637269626564000000000000000000 PUSH1 0x44 DUP3 ADD MSTORE PUSH1 0x64 ADD PUSH2 0x7AB JUMP JUMPDEST DUP1 SLOAD PUSH1 0x1 PUSH1 0x1 PUSH1 0xA0 SHL SUB NOT AND PUSH1 0x1 PUSH1 0x1 PUSH1 0xA0 SHL SUB DUP8 AND OR DUP2 SSTORE PUSH2 0x127E DUP3 DUP5 PUSH2 0x2699 JUMP JUMPDEST DUP2 SLOAD PUSH8 0xFFFFFFFFFFFFFFFF SWAP2 SWAP1 SWAP2 AND PUSH1 0x1 PUSH1 0xA0 SHL MUL PUSH32 0xFFFFFFFF0000000000000000FFFFFFFFFFFFFFFFFFFFFFFFFFFFFFFFFFFFFFFF SWAP1 SWAP2 AND OR DUP2 SSTORE PUSH1 0x1 PUSH1 0x1 PUSH1 0xA0 SHL SUB DUP7 AND DUP8 PUSH32 0x4E06B4E7000E659094299B3533B47B6AA8AD048E95E872D23D1F4EE55AF89CFE PUSH2 0x12F0 DUP6 DUP8 PUSH2 0x2699 JUMP JUMPDEST PUSH1 0x40 MLOAD PUSH8 0xFFFFFFFFFFFFFFFF SWAP1 SWAP2 AND DUP2 MSTORE PUSH1 0x20 ADD PUSH1 0x40 MLOAD DUP1 SWAP2 SUB SWAP1 LOG3 POP POP POP POP PUSH2 0x86A PUSH1 0x1 PUSH1 0x7 SSTORE JUMP JUMPDEST PUSH2 0x1322 PUSH2 0x18AC JUMP JUMPDEST PUSH1 0x1 PUSH1 0x1 PUSH1 0xA0 SHL SUB DUP2 AND PUSH2 0x139E JUMPI PUSH1 0x40 MLOAD PUSH3 0x461BCD PUSH1 0xE5 SHL DUP2 MSTORE PUSH1 0x20 PUSH1 0x4 DUP3 ADD MSTORE PUSH1 0x26 PUSH1 0x24 DUP3 ADD MSTORE PUSH32 0x4F776E61626C653A206E6577206F776E657220697320746865207A65726F2061 PUSH1 0x44 DUP3 ADD MSTORE PUSH32 0x6464726573730000000000000000000000000000000000000000000000000000 PUSH1 0x64 DUP3 ADD MSTORE PUSH1 0x84 ADD PUSH2 0x7AB JUMP JUMPDEST PUSH2 0x13A7 DUP2 PUSH2 0x1979 JUMP JUMPDEST POP JUMP JUMPDEST PUSH2 0x13B2 PUSH2 0x18AC JUMP JUMPDEST PUSH2 0x13BA PUSH2 0x1906 JUMP JUMPDEST PUSH1 0x40 MLOAD PUSH4 0x70A08231 PUSH1 0xE0 SHL DUP2 MSTORE ADDRESS PUSH1 0x4 DUP3 ADD MSTORE DUP2 SWAP1 PUSH1 0x0 SWAP1 PUSH1 0x1 PUSH1 0x1 PUSH1 0xA0 SHL SUB DUP4 AND SWAP1 PUSH4 0x70A08231 SWAP1 PUSH1 0x24 ADD PUSH1 0x20 PUSH1 0x40 MLOAD DUP1 DUP4 SUB DUP2 DUP7 GAS STATICCALL ISZERO DUP1 ISZERO PUSH2 0x1403 JUMPI RETURNDATASIZE PUSH1 0x0 DUP1 RETURNDATACOPY RETURNDATASIZE PUSH1 0x0 REVERT JUMPDEST POP POP POP POP PUSH1 0x40 MLOAD RETURNDATASIZE PUSH1 0x1F NOT PUSH1 0x1F DUP3 ADD AND DUP3 ADD DUP1 PUSH1 0x40 MSTORE POP DUP2 ADD SWAP1 PUSH2 0x1427 SWAP2 SWAP1 PUSH2 0x26C1 JUMP JUMPDEST SWAP1 POP PUSH1 0x0 DUP3 PUSH1 0x1 PUSH1 0x1 PUSH1 0xA0 SHL SUB AND PUSH4 0xA9059CBB PUSH2 0x144C PUSH1 0x6 SLOAD PUSH1 0x1 PUSH1 0x1 PUSH1 0xA0 SHL SUB AND SWAP1 JUMP JUMPDEST PUSH1 0x40 MLOAD PUSH1 0x1 PUSH1 0x1 PUSH1 0xE0 SHL SUB NOT PUSH1 0xE0 DUP5 SWAP1 SHL AND DUP2 MSTORE PUSH1 0x1 PUSH1 0x1 PUSH1 0xA0 SHL SUB SWAP1 SWAP2 AND PUSH1 0x4 DUP3 ADD MSTORE PUSH1 0x24 DUP2 ADD DUP6 SWAP1 MSTORE PUSH1 0x44 ADD PUSH1 0x20 PUSH1 0x40 MLOAD DUP1 DUP4 SUB DUP2 PUSH1 0x0 DUP8 GAS CALL ISZERO DUP1 ISZERO PUSH2 0x1499 JUMPI RETURNDATASIZE PUSH1 0x0 DUP1 RETURNDATACOPY RETURNDATASIZE PUSH1 0x0 REVERT JUMPDEST POP POP POP POP PUSH1 0x40 MLOAD RETURNDATASIZE PUSH1 0x1F NOT PUSH1 0x1F DUP3 ADD AND DUP3 ADD DUP1 PUSH1 0x40 MSTORE POP DUP2 ADD SWAP1 PUSH2 0x14BD SWAP2 SWAP1 PUSH2 0x26DA JUMP JUMPDEST SWAP1 POP DUP1 PUSH2 0x14FE JUMPI PUSH1 0x40 MLOAD PUSH3 0x461BCD PUSH1 0xE5 SHL DUP2 MSTORE PUSH1 0x20 PUSH1 0x4 DUP3 ADD MSTORE PUSH1 0xF PUSH1 0x24 DUP3 ADD MSTORE PUSH15 0x151C985B9CD9995C8819985A5B1959 PUSH1 0x8A SHL PUSH1 0x44 DUP3 ADD MSTORE PUSH1 0x64 ADD PUSH2 0x7AB JUMP JUMPDEST POP POP POP PUSH2 0x13A7 PUSH1 0x1 PUSH1 0x7 SSTORE JUMP JUMPDEST PUSH2 0x1513 PUSH2 0x18AC JUMP JUMPDEST PUSH1 0xA SWAP2 SWAP1 SWAP2 SSTORE PUSH1 0x9 SSTORE JUMP JUMPDEST PUSH1 0x0 PUSH1 0x1 PUSH1 0x1 PUSH1 0xE0 SHL SUB NOT DUP3 AND PUSH4 0x80AC58CD PUSH1 0xE0 SHL EQ DUP1 PUSH2 0x154F JUMPI POP PUSH1 0x1 PUSH1 0x1 PUSH1 0xE0 SHL SUB NOT DUP3 AND PUSH4 0x5B5E139F PUSH1 0xE0 SHL EQ JUMPDEST DUP1 PUSH2 0x678 JUMPI POP PUSH4 0x1FFC9A7 PUSH1 0xE0 SHL PUSH1 0x1 PUSH1 0x1 PUSH1 0xE0 SHL SUB NOT DUP4 AND EQ PUSH2 0x678 JUMP JUMPDEST PUSH1 0x0 DUP2 DUP2 MSTORE PUSH1 0x2 PUSH1 0x20 MSTORE PUSH1 0x40 SWAP1 KECCAK256 SLOAD PUSH1 0x1 PUSH1 0x1 PUSH1 0xA0 SHL SUB AND PUSH2 0x13A7 JUMPI PUSH1 0x40 MLOAD PUSH3 0x461BCD PUSH1 0xE5 SHL DUP2 MSTORE PUSH1 0x20 PUSH1 0x4 DUP3 ADD MSTORE PUSH1 0x18 PUSH1 0x24 DUP3 ADD MSTORE PUSH32 0x4552433732313A20696E76616C696420746F6B656E2049440000000000000000 PUSH1 0x44 DUP3 ADD MSTORE PUSH1 0x64 ADD PUSH2 0x7AB JUMP JUMPDEST PUSH1 0x0 DUP2 DUP2 MSTORE PUSH1 0x4 PUSH1 0x20 MSTORE PUSH1 0x40 SWAP1 KECCAK256 DUP1 SLOAD PUSH1 0x1 PUSH1 0x1 PUSH1 0xA0 SHL SUB NOT AND PUSH1 0x1 PUSH1 0x1 PUSH1 0xA0 SHL SUB DUP5 AND SWAP1 DUP2 OR SWAP1 SWAP2 SSTORE DUP2 SWAP1 PUSH2 0x1607 DUP3 PUSH2 0xB2B JUMP JUMPDEST PUSH1 0x1 PUSH1 0x1 PUSH1 0xA0 SHL SUB AND PUSH32 0x8C5BE1E5EBEC7D5BD14F71427D1E84F3DD0314C0F7B2291E5B200AC8C7C3B925 PUSH1 0x40 MLOAD PUSH1 0x40 MLOAD DUP1 SWAP2 SUB SWAP1 LOG4 POP POP JUMP JUMPDEST PUSH1 0x0 DUP1 PUSH2 0x164C DUP4 PUSH2 0xB2B JUMP JUMPDEST SWAP1 POP DUP1 PUSH1 0x1 PUSH1 0x1 PUSH1 0xA0 SHL SUB AND DUP5 PUSH1 0x1 PUSH1 0x1 PUSH1 0xA0 SHL SUB AND EQ DUP1 PUSH2 0x1693 JUMPI POP PUSH1 0x1 PUSH1 0x1 PUSH1 0xA0 SHL SUB DUP1 DUP3 AND PUSH1 0x0 SWAP1 DUP2 MSTORE PUSH1 0x5 PUSH1 0x20 SWAP1 DUP2 MSTORE PUSH1 0x40 DUP1 DUP4 KECCAK256 SWAP4 DUP9 AND DUP4 MSTORE SWAP3 SWAP1 MSTORE KECCAK256 SLOAD PUSH1 0xFF AND JUMPDEST DUP1 PUSH2 0x16B7 JUMPI POP DUP4 PUSH1 0x1 PUSH1 0x1 PUSH1 0xA0 SHL SUB AND PUSH2 0x16AC DUP5 PUSH2 0x710 JUMP JUMPDEST PUSH1 0x1 PUSH1 0x1 PUSH1 0xA0 SHL SUB AND EQ JUMPDEST SWAP5 SWAP4 POP POP POP POP JUMP JUMPDEST DUP3 PUSH1 0x1 PUSH1 0x1 PUSH1 0xA0 SHL SUB AND PUSH2 0x16D2 DUP3 PUSH2 0xB2B JUMP JUMPDEST PUSH1 0x1 PUSH1 0x1 PUSH1 0xA0 SHL SUB AND EQ PUSH2 0x1736 JUMPI PUSH1 0x40 MLOAD PUSH3 0x461BCD PUSH1 0xE5 SHL DUP2 MSTORE PUSH1 0x20 PUSH1 0x4 DUP3 ADD MSTORE PUSH1 0x25 PUSH1 0x24 DUP3 ADD MSTORE PUSH32 0x4552433732313A207472616E736665722066726F6D20696E636F727265637420 PUSH1 0x44 DUP3 ADD MSTORE PUSH5 0x37BBB732B9 PUSH1 0xD9 SHL PUSH1 0x64 DUP3 ADD MSTORE PUSH1 0x84 ADD PUSH2 0x7AB JUMP JUMPDEST PUSH1 0x1 PUSH1 0x1 PUSH1 0xA0 SHL SUB DUP3 AND PUSH2 0x1798 JUMPI PUSH1 0x40 MLOAD PUSH3 0x461BCD PUSH1 0xE5 SHL DUP2 MSTORE PUSH1 0x20 PUSH1 0x4 DUP3 ADD MSTORE PUSH1 0x24 DUP1 DUP3 ADD MSTORE PUSH32 0x4552433732313A207472616E7366657220746F20746865207A65726F20616464 PUSH1 0x44 DUP3 ADD MSTORE PUSH4 0x72657373 PUSH1 0xE0 SHL PUSH1 0x64 DUP3 ADD MSTORE PUSH1 0x84 ADD PUSH2 0x7AB JUMP JUMPDEST PUSH2 0x17A5 DUP4 DUP4 DUP4 PUSH1 0x1 PUSH2 0x1BC6 JUMP JUMPDEST DUP3 PUSH1 0x1 PUSH1 0x1 PUSH1 0xA0 SHL SUB AND PUSH2 0x17B8 DUP3 PUSH2 0xB2B JUMP JUMPDEST PUSH1 0x1 PUSH1 0x1 PUSH1 0xA0 SHL SUB AND EQ PUSH2 0x181C JUMPI PUSH1 0x40 MLOAD PUSH3 0x461BCD PUSH1 0xE5 SHL DUP2 MSTORE PUSH1 0x20 PUSH1 0x4 DUP3 ADD MSTORE PUSH1 0x25 PUSH1 0x24 DUP3 ADD MSTORE PUSH32 0x4552433732313A207472616E736665722066726F6D20696E636F727265637420 PUSH1 0x44 DUP3 ADD MSTORE PUSH5 0x37BBB732B9 PUSH1 0xD9 SHL PUSH1 0x64 DUP3 ADD MSTORE PUSH1 0x84 ADD PUSH2 0x7AB JUMP JUMPDEST PUSH1 0x0 DUP2 DUP2 MSTORE PUSH1 0x4 PUSH1 0x20 SWAP1 DUP2 MSTORE PUSH1 0x40 DUP1 DUP4 KECCAK256 DUP1 SLOAD PUSH1 0x1 PUSH1 0x1 PUSH1 0xA0 SHL SUB NOT SWAP1 DUP2 AND SWAP1 SWAP2 SSTORE PUSH1 0x1 PUSH1 0x1 PUSH1 0xA0 SHL SUB DUP8 DUP2 AND DUP1 DUP7 MSTORE PUSH1 0x3 DUP6 MSTORE DUP4 DUP7 KECCAK256 DUP1 SLOAD PUSH1 0x0 NOT ADD SWAP1 SSTORE SWAP1 DUP8 AND DUP1 DUP7 MSTORE DUP4 DUP7 KECCAK256 DUP1 SLOAD PUSH1 0x1 ADD SWAP1 SSTORE DUP7 DUP7 MSTORE PUSH1 0x2 SWAP1 SWAP5 MSTORE DUP3 DUP6 KECCAK256 DUP1 SLOAD SWAP1 SWAP3 AND DUP5 OR SWAP1 SWAP2 SSTORE SWAP1 MLOAD DUP5 SWAP4 PUSH32 0xDDF252AD1BE2C89B69C2B068FC378DAA952BA7F163C4A11628F55A4DF523B3EF SWAP2 LOG4 POP POP POP JUMP JUMPDEST PUSH1 0x6 SLOAD PUSH1 0x1 PUSH1 0x1 PUSH1 0xA0 SHL SUB AND CALLER EQ PUSH2 0x9BF JUMPI PUSH1 0x40 MLOAD PUSH3 0x461BCD PUSH1 0xE5 SHL DUP2 MSTORE PUSH1 0x20 PUSH1 0x4 DUP3 ADD DUP2 SWAP1 MSTORE PUSH1 0x24 DUP3 ADD MSTORE PUSH32 0x4F776E61626C653A2063616C6C6572206973206E6F7420746865206F776E6572 PUSH1 0x44 DUP3 ADD MSTORE PUSH1 0x64 ADD PUSH2 0x7AB JUMP JUMPDEST PUSH1 0x2 PUSH1 0x7 SLOAD SUB PUSH2 0x1958 JUMPI PUSH1 0x40 MLOAD PUSH3 0x461BCD PUSH1 0xE5 SHL DUP2 MSTORE PUSH1 0x20 PUSH1 0x4 DUP3 ADD MSTORE PUSH1 0x1F PUSH1 0x24 DUP3 ADD MSTORE PUSH32 0x5265656E7472616E637947756172643A207265656E7472616E742063616C6C00 PUSH1 0x44 DUP3 ADD MSTORE PUSH1 0x64 ADD PUSH2 0x7AB JUMP JUMPDEST PUSH1 0x2 PUSH1 0x7 SSTORE JUMP JUMPDEST PUSH2 0x8FA DUP3 DUP3 PUSH1 0x40 MLOAD DUP1 PUSH1 0x20 ADD PUSH1 0x40 MSTORE DUP1 PUSH1 0x0 DUP2 MSTORE POP PUSH2 0x1C1D JUMP JUMPDEST PUSH1 0x6 DUP1 SLOAD PUSH1 0x1 PUSH1 0x1 PUSH1 0xA0 SHL SUB DUP4 DUP2 AND PUSH1 0x1 PUSH1 0x1 PUSH1 0xA0 SHL SUB NOT DUP4 AND DUP2 OR SWAP1 SWAP4 SSTORE PUSH1 0x40 MLOAD SWAP2 AND SWAP2 SWAP1 DUP3 SWAP1 PUSH32 0x8BE0079C531659141344CD1FD0A4F28419497F9722A3DAAFE3B4186F6B6457E0 SWAP1 PUSH1 0x0 SWAP1 LOG3 POP POP JUMP JUMPDEST DUP2 PUSH1 0x1 PUSH1 0x1 PUSH1 0xA0 SHL SUB AND DUP4 PUSH1 0x1 PUSH1 0x1 PUSH1 0xA0 SHL SUB AND SUB PUSH2 0x1A2C JUMPI PUSH1 0x40 MLOAD PUSH3 0x461BCD PUSH1 0xE5 SHL DUP2 MSTORE PUSH1 0x20 PUSH1 0x4 DUP3 ADD MSTORE PUSH1 0x19 PUSH1 0x24 DUP3 ADD MSTORE PUSH32 0x4552433732313A20617070726F766520746F2063616C6C657200000000000000 PUSH1 0x44 DUP3 ADD MSTORE PUSH1 0x64 ADD PUSH2 0x7AB JUMP JUMPDEST PUSH1 0x1 PUSH1 0x1 PUSH1 0xA0 SHL SUB DUP4 DUP2 AND PUSH1 0x0 DUP2 DUP2 MSTORE PUSH1 0x5 PUSH1 0x20 SWAP1 DUP2 MSTORE PUSH1 0x40 DUP1 DUP4 KECCAK256 SWAP5 DUP8 AND DUP1 DUP5 MSTORE SWAP5 DUP3 MSTORE SWAP2 DUP3 SWAP1 KECCAK256 DUP1 SLOAD PUSH1 0xFF NOT AND DUP7 ISZERO ISZERO SWAP1 DUP2 OR SWAP1 SWAP2 SSTORE SWAP2 MLOAD SWAP2 DUP3 MSTORE PUSH32 0x17307EAB39AB6107E8899845AD3D59BD9653F200F220920489CA2B5937696C31 SWAP2 ADD PUSH1 0x40 MLOAD DUP1 SWAP2 SUB SWAP1 LOG3 POP POP POP JUMP JUMPDEST PUSH2 0x1AA4 DUP5 DUP5 DUP5 PUSH2 0x16BF JUMP JUMPDEST PUSH2 0x1AB0 DUP5 DUP5 DUP5 DUP5 PUSH2 0x1C9B JUMP JUMPDEST PUSH2 0xE10 JUMPI PUSH1 0x40 MLOAD PUSH3 0x461BCD PUSH1 0xE5 SHL DUP2 MSTORE PUSH1 0x20 PUSH1 0x4 DUP3 ADD MSTORE PUSH1 0x32 PUSH1 0x24 DUP3 ADD MSTORE PUSH32 0x4552433732313A207472616E7366657220746F206E6F6E204552433732315265 PUSH1 0x44 DUP3 ADD MSTORE PUSH18 0x31B2B4BB32B91034B6B83632B6B2B73A32B9 PUSH1 0x71 SHL PUSH1 0x64 DUP3 ADD MSTORE PUSH1 0x84 ADD PUSH2 0x7AB JUMP JUMPDEST PUSH1 0x60 PUSH1 0xC DUP1 SLOAD PUSH2 0x68D SWAP1 PUSH2 0x23E8 JUMP JUMPDEST PUSH1 0x60 PUSH1 0x0 PUSH2 0x1B33 DUP4 PUSH2 0x1DE7 JUMP JUMPDEST PUSH1 0x1 ADD SWAP1 POP PUSH1 0x0 DUP2 PUSH8 0xFFFFFFFFFFFFFFFF DUP2 GT ISZERO PUSH2 0x1B53 JUMPI PUSH2 0x1B53 PUSH2 0x2195 JUMP JUMPDEST PUSH1 0x40 MLOAD SWAP1 DUP1 DUP3 MSTORE DUP1 PUSH1 0x1F ADD PUSH1 0x1F NOT AND PUSH1 0x20 ADD DUP3 ADD PUSH1 0x40 MSTORE DUP1 ISZERO PUSH2 0x1B7D JUMPI PUSH1 0x20 DUP3 ADD DUP2 DUP1 CALLDATASIZE DUP4 CALLDATACOPY ADD SWAP1 POP JUMPDEST POP SWAP1 POP DUP2 DUP2 ADD PUSH1 0x20 ADD JUMPDEST PUSH1 0x0 NOT ADD PUSH32 0x3031323334353637383961626364656600000000000000000000000000000000 PUSH1 0xA DUP7 MOD BYTE DUP2 MSTORE8 PUSH1 0xA DUP6 DIV SWAP5 POP DUP5 PUSH2 0x1B87 JUMPI POP SWAP4 SWAP3 POP POP POP JUMP JUMPDEST PUSH1 0x1 PUSH1 0x1 PUSH1 0xA0 SHL SUB DUP5 AND ISZERO PUSH2 0xE10 JUMPI PUSH1 0x40 MLOAD PUSH3 0x461BCD PUSH1 0xE5 SHL DUP2 MSTORE PUSH1 0x20 PUSH1 0x4 DUP3 ADD MSTORE PUSH1 0x14 PUSH1 0x24 DUP3 ADD MSTORE PUSH32 0x63616E2774207472616E7366657220746F6B656E000000000000000000000000 PUSH1 0x44 DUP3 ADD MSTORE PUSH1 0x64 ADD PUSH2 0x7AB JUMP JUMPDEST PUSH2 0x1C27 DUP4 DUP4 PUSH2 0x1EC9 JUMP JUMPDEST PUSH2 0x1C34 PUSH1 0x0 DUP5 DUP5 DUP5 PUSH2 0x1C9B JUMP JUMPDEST PUSH2 0x86A JUMPI PUSH1 0x40 MLOAD PUSH3 0x461BCD PUSH1 0xE5 SHL DUP2 MSTORE PUSH1 0x20 PUSH1 0x4 DUP3 ADD MSTORE PUSH1 0x32 PUSH1 0x24 DUP3 ADD MSTORE PUSH32 0x4552433732313A207472616E7366657220746F206E6F6E204552433732315265 PUSH1 0x44 DUP3 ADD MSTORE PUSH18 0x31B2B4BB32B91034B6B83632B6B2B73A32B9 PUSH1 0x71 SHL PUSH1 0x64 DUP3 ADD MSTORE PUSH1 0x84 ADD PUSH2 0x7AB JUMP JUMPDEST PUSH1 0x0 PUSH1 0x1 PUSH1 0x1 PUSH1 0xA0 SHL SUB DUP5 AND EXTCODESIZE ISZERO PUSH2 0x1DDC JUMPI PUSH1 0x40 MLOAD PUSH4 0xA85BD01 PUSH1 0xE1 SHL DUP2 MSTORE PUSH1 0x1 PUSH1 0x1 PUSH1 0xA0 SHL SUB DUP6 AND SWAP1 PUSH4 0x150B7A02 SWAP1 PUSH2 0x1CDF SWAP1 CALLER SWAP1 DUP10 SWAP1 DUP9 SWAP1 DUP9 SWAP1 PUSH1 0x4 ADD PUSH2 0x26F7 JUMP JUMPDEST PUSH1 0x20 PUSH1 0x40 MLOAD DUP1 DUP4 SUB DUP2 PUSH1 0x0 DUP8 GAS CALL SWAP3 POP POP POP DUP1 ISZERO PUSH2 0x1D1A JUMPI POP PUSH1 0x40 DUP1 MLOAD PUSH1 0x1F RETURNDATASIZE SWAP1 DUP2 ADD PUSH1 0x1F NOT AND DUP3 ADD SWAP1 SWAP3 MSTORE PUSH2 0x1D17 SWAP2 DUP2 ADD SWAP1 PUSH2 0x2733 JUMP JUMPDEST PUSH1 0x1 JUMPDEST PUSH2 0x1DC2 JUMPI RETURNDATASIZE DUP1 DUP1 ISZERO PUSH2 0x1D48 JUMPI PUSH1 0x40 MLOAD SWAP2 POP PUSH1 0x1F NOT PUSH1 0x3F RETURNDATASIZE ADD AND DUP3 ADD PUSH1 0x40 MSTORE RETURNDATASIZE DUP3 MSTORE RETURNDATASIZE PUSH1 0x0 PUSH1 0x20 DUP5 ADD RETURNDATACOPY PUSH2 0x1D4D JUMP JUMPDEST PUSH1 0x60 SWAP2 POP JUMPDEST POP DUP1 MLOAD PUSH1 0x0 SUB PUSH2 0x1DBA JUMPI PUSH1 0x40 MLOAD PUSH3 0x461BCD PUSH1 0xE5 SHL DUP2 MSTORE PUSH1 0x20 PUSH1 0x4 DUP3 ADD MSTORE PUSH1 0x32 PUSH1 0x24 DUP3 ADD MSTORE PUSH32 0x4552433732313A207472616E7366657220746F206E6F6E204552433732315265 PUSH1 0x44 DUP3 ADD MSTORE PUSH18 0x31B2B4BB32B91034B6B83632B6B2B73A32B9 PUSH1 0x71 SHL PUSH1 0x64 DUP3 ADD MSTORE PUSH1 0x84 ADD PUSH2 0x7AB JUMP JUMPDEST DUP1 MLOAD DUP2 PUSH1 0x20 ADD REVERT JUMPDEST PUSH1 0x1 PUSH1 0x1 PUSH1 0xE0 SHL SUB NOT AND PUSH4 0xA85BD01 PUSH1 0xE1 SHL EQ SWAP1 POP PUSH2 0x16B7 JUMP JUMPDEST POP PUSH1 0x1 SWAP5 SWAP4 POP POP POP POP JUMP JUMPDEST PUSH1 0x0 DUP1 PUSH27 0x184F03E93FF9F4DAA797ED6E38ED64BF6A1F010000000000000000 DUP4 LT PUSH2 0x1E30 JUMPI PUSH27 0x184F03E93FF9F4DAA797ED6E38ED64BF6A1F010000000000000000 DUP4 DIV SWAP3 POP PUSH1 0x40 ADD JUMPDEST PUSH14 0x4EE2D6D415B85ACEF8100000000 DUP4 LT PUSH2 0x1E5C JUMPI PUSH14 0x4EE2D6D415B85ACEF8100000000 DUP4 DIV SWAP3 POP PUSH1 0x20 ADD JUMPDEST PUSH7 0x2386F26FC10000 DUP4 LT PUSH2 0x1E7A JUMPI PUSH7 0x2386F26FC10000 DUP4 DIV SWAP3 POP PUSH1 0x10 ADD JUMPDEST PUSH4 0x5F5E100 DUP4 LT PUSH2 0x1E92 JUMPI PUSH4 0x5F5E100 DUP4 DIV SWAP3 POP PUSH1 0x8 ADD JUMPDEST PUSH2 0x2710 DUP4 LT PUSH2 0x1EA6 JUMPI PUSH2 0x2710 DUP4 DIV SWAP3 POP PUSH1 0x4 ADD JUMPDEST PUSH1 0x64 DUP4 LT PUSH2 0x1EB8 JUMPI PUSH1 0x64 DUP4 DIV SWAP3 POP PUSH1 0x2 ADD JUMPDEST PUSH1 0xA DUP4 LT PUSH2 0x678 JUMPI PUSH1 0x1 ADD SWAP3 SWAP2 POP POP JUMP JUMPDEST PUSH1 0x1 PUSH1 0x1 PUSH1 0xA0 SHL SUB DUP3 AND PUSH2 0x1F1F JUMPI PUSH1 0x40 MLOAD PUSH3 0x461BCD PUSH1 0xE5 SHL DUP2 MSTORE PUSH1 0x20 PUSH1 0x4 DUP3 ADD DUP2 SWAP1 MSTORE PUSH1 0x24 DUP3 ADD MSTORE PUSH32 0x4552433732313A206D696E7420746F20746865207A65726F2061646472657373 PUSH1 0x44 DUP3 ADD MSTORE PUSH1 0x64 ADD PUSH2 0x7AB JUMP JUMPDEST PUSH1 0x0 DUP2 DUP2 MSTORE PUSH1 0x2 PUSH1 0x20 MSTORE PUSH1 0x40 SWAP1 KECCAK256 SLOAD PUSH1 0x1 PUSH1 0x1 PUSH1 0xA0 SHL SUB AND ISZERO PUSH2 0x1F84 JUMPI PUSH1 0x40 MLOAD PUSH3 0x461BCD PUSH1 0xE5 SHL DUP2 MSTORE PUSH1 0x20 PUSH1 0x4 DUP3 ADD MSTORE PUSH1 0x1C PUSH1 0x24 DUP3 ADD MSTORE PUSH32 0x4552433732313A20746F6B656E20616C7265616479206D696E74656400000000 PUSH1 0x44 DUP3 ADD MSTORE PUSH1 0x64 ADD PUSH2 0x7AB JUMP JUMPDEST PUSH2 0x1F92 PUSH1 0x0 DUP4 DUP4 PUSH1 0x1 PUSH2 0x1BC6 JUMP JUMPDEST PUSH1 0x0 DUP2 DUP2 MSTORE PUSH1 0x2 PUSH1 0x20 MSTORE PUSH1 0x40 SWAP1 KECCAK256 SLOAD PUSH1 0x1 PUSH1 0x1 PUSH1 0xA0 SHL SUB AND ISZERO PUSH2 0x1FF7 JUMPI PUSH1 0x40 MLOAD PUSH3 0x461BCD PUSH1 0xE5 SHL DUP2 MSTORE PUSH1 0x20 PUSH1 0x4 DUP3 ADD MSTORE PUSH1 0x1C PUSH1 0x24 DUP3 ADD MSTORE PUSH32 0x4552433732313A20746F6B656E20616C7265616479206D696E74656400000000 PUSH1 0x44 DUP3 ADD MSTORE PUSH1 0x64 ADD PUSH2 0x7AB JUMP JUMPDEST PUSH1 0x1 PUSH1 0x1 PUSH1 0xA0 SHL SUB DUP3 AND PUSH1 0x0 DUP2 DUP2 MSTORE PUSH1 0x3 PUSH1 0x20 SWAP1 DUP2 MSTORE PUSH1 0x40 DUP1 DUP4 KECCAK256 DUP1 SLOAD PUSH1 0x1 ADD SWAP1 SSTORE DUP5 DUP4 MSTORE PUSH1 0x2 SWAP1 SWAP2 MSTORE DUP1 DUP3 KECCAK256 DUP1 SLOAD PUSH1 0x1 PUSH1 0x1 PUSH1 0xA0 SHL SUB NOT AND DUP5 OR SWAP1 SSTORE MLOAD DUP4 SWAP3 SWAP2 SWAP1 PUSH32 0xDDF252AD1BE2C89B69C2B068FC378DAA952BA7F163C4A11628F55A4DF523B3EF SWAP1 DUP3 SWAP1 LOG4 POP POP JUMP JUMPDEST PUSH1 0x1 PUSH1 0x1 PUSH1 0xE0 SHL SUB NOT DUP2 AND DUP2 EQ PUSH2 0x13A7 JUMPI PUSH1 0x0 DUP1 REVERT JUMPDEST PUSH1 0x0 PUSH1 0x20 DUP3 DUP5 SUB SLT ISZERO PUSH2 0x208A JUMPI PUSH1 0x0 DUP1 REVERT JUMPDEST DUP2 CALLDATALOAD PUSH2 0x2095 DUP2 PUSH2 0x2062 JUMP JUMPDEST SWAP4 SWAP3 POP POP POP JUMP JUMPDEST PUSH1 0x0 JUMPDEST DUP4 DUP2 LT ISZERO PUSH2 0x20B7 JUMPI DUP2 DUP2 ADD MLOAD DUP4 DUP3 ADD MSTORE PUSH1 0x20 ADD PUSH2 0x209F JUMP JUMPDEST POP POP PUSH1 0x0 SWAP2 ADD MSTORE JUMP JUMPDEST PUSH1 0x0 DUP2 MLOAD DUP1 DUP5 MSTORE PUSH2 0x20D8 DUP2 PUSH1 0x20 DUP7 ADD PUSH1 0x20 DUP7 ADD PUSH2 0x209C JUMP JUMPDEST PUSH1 0x1F ADD PUSH1 0x1F NOT AND SWAP3 SWAP1 SWAP3 ADD PUSH1 0x20 ADD SWAP3 SWAP2 POP POP JUMP JUMPDEST PUSH1 0x20 DUP2 MSTORE PUSH1 0x0 PUSH2 0x2095 PUSH1 0x20 DUP4 ADD DUP5 PUSH2 0x20C0 JUMP JUMPDEST PUSH1 0x0 PUSH1 0x20 DUP3 DUP5 SUB SLT ISZERO PUSH2 0x2111 JUMPI PUSH1 0x0 DUP1 REVERT JUMPDEST POP CALLDATALOAD SWAP2 SWAP1 POP JUMP JUMPDEST DUP1 CALLDATALOAD PUSH1 0x1 PUSH1 0x1 PUSH1 0xA0 SHL SUB DUP2 AND DUP2 EQ PUSH2 0xD35 JUMPI PUSH1 0x0 DUP1 REVERT JUMPDEST PUSH1 0x0 DUP1 PUSH1 0x40 DUP4 DUP6 SUB SLT ISZERO PUSH2 0x2142 JUMPI PUSH1 0x0 DUP1 REVERT JUMPDEST PUSH2 0x214B DUP4 PUSH2 0x2118 JUMP JUMPDEST SWAP5 PUSH1 0x20 SWAP4 SWAP1 SWAP4 ADD CALLDATALOAD SWAP4 POP POP POP JUMP JUMPDEST PUSH1 0x0 DUP1 PUSH1 0x0 PUSH1 0x60 DUP5 DUP7 SUB SLT ISZERO PUSH2 0x216E JUMPI PUSH1 0x0 DUP1 REVERT JUMPDEST PUSH2 0x2177 DUP5 PUSH2 0x2118 JUMP JUMPDEST SWAP3 POP PUSH2 0x2185 PUSH1 0x20 DUP6 ADD PUSH2 0x2118 JUMP JUMPDEST SWAP2 POP PUSH1 0x40 DUP5 ADD CALLDATALOAD SWAP1 POP SWAP3 POP SWAP3 POP SWAP3 JUMP JUMPDEST PUSH4 0x4E487B71 PUSH1 0xE0 SHL PUSH1 0x0 MSTORE PUSH1 0x41 PUSH1 0x4 MSTORE PUSH1 0x24 PUSH1 0x0 REVERT JUMPDEST PUSH1 0x0 PUSH8 0xFFFFFFFFFFFFFFFF DUP1 DUP5 GT ISZERO PUSH2 0x21C6 JUMPI PUSH2 0x21C6 PUSH2 0x2195 JUMP JUMPDEST PUSH1 0x40 MLOAD PUSH1 0x1F DUP6 ADD PUSH1 0x1F NOT SWAP1 DUP2 AND PUSH1 0x3F ADD AND DUP2 ADD SWAP1 DUP3 DUP3 GT DUP2 DUP4 LT OR ISZERO PUSH2 0x21EE JUMPI PUSH2 0x21EE PUSH2 0x2195 JUMP JUMPDEST DUP2 PUSH1 0x40 MSTORE DUP1 SWAP4 POP DUP6 DUP2 MSTORE DUP7 DUP7 DUP7 ADD GT ISZERO PUSH2 0x2207 JUMPI PUSH1 0x0 DUP1 REVERT JUMPDEST DUP6 DUP6 PUSH1 0x20 DUP4 ADD CALLDATACOPY PUSH1 0x0 PUSH1 0x20 DUP8 DUP4 ADD ADD MSTORE POP POP POP SWAP4 SWAP3 POP POP POP JUMP JUMPDEST PUSH1 0x0 PUSH1 0x20 DUP3 DUP5 SUB SLT ISZERO PUSH2 0x2233 JUMPI PUSH1 0x0 DUP1 REVERT JUMPDEST DUP2 CALLDATALOAD PUSH8 0xFFFFFFFFFFFFFFFF DUP2 GT ISZERO PUSH2 0x224A JUMPI PUSH1 0x0 DUP1 REVERT JUMPDEST DUP3 ADD PUSH1 0x1F DUP2 ADD DUP5 SGT PUSH2 0x225B JUMPI PUSH1 0x0 DUP1 REVERT JUMPDEST PUSH2 0x16B7 DUP5 DUP3 CALLDATALOAD PUSH1 0x20 DUP5 ADD PUSH2 0x21AB JUMP JUMPDEST PUSH1 0x0 PUSH1 0x20 DUP3 DUP5 SUB SLT ISZERO PUSH2 0x227C JUMPI PUSH1 0x0 DUP1 REVERT JUMPDEST PUSH2 0x2095 DUP3 PUSH2 0x2118 JUMP JUMPDEST DUP1 ISZERO ISZERO DUP2 EQ PUSH2 0x13A7 JUMPI PUSH1 0x0 DUP1 REVERT JUMPDEST PUSH1 0x0 DUP1 PUSH1 0x40 DUP4 DUP6 SUB SLT ISZERO PUSH2 0x22A6 JUMPI PUSH1 0x0 DUP1 REVERT JUMPDEST PUSH2 0x22AF DUP4 PUSH2 0x2118 JUMP JUMPDEST SWAP2 POP PUSH1 0x20 DUP4 ADD CALLDATALOAD PUSH2 0x22BF DUP2 PUSH2 0x2285 JUMP JUMPDEST DUP1 SWAP2 POP POP SWAP3 POP SWAP3 SWAP1 POP JUMP JUMPDEST PUSH1 0x0 DUP1 PUSH1 0x0 DUP1 PUSH1 0x80 DUP6 DUP8 SUB SLT ISZERO PUSH2 0x22E0 JUMPI PUSH1 0x0 DUP1 REVERT JUMPDEST PUSH2 0x22E9 DUP6 PUSH2 0x2118 JUMP JUMPDEST SWAP4 POP PUSH2 0x22F7 PUSH1 0x20 DUP7 ADD PUSH2 0x2118 JUMP JUMPDEST SWAP3 POP PUSH1 0x40 DUP6 ADD CALLDATALOAD SWAP2 POP PUSH1 0x60 DUP6 ADD CALLDATALOAD PUSH8 0xFFFFFFFFFFFFFFFF DUP2 GT ISZERO PUSH2 0x231A JUMPI PUSH1 0x0 DUP1 REVERT JUMPDEST DUP6 ADD PUSH1 0x1F DUP2 ADD DUP8 SGT PUSH2 0x232B JUMPI PUSH1 0x0 DUP1 REVERT JUMPDEST PUSH2 0x233A DUP8 DUP3 CALLDATALOAD PUSH1 0x20 DUP5 ADD PUSH2 0x21AB JUMP JUMPDEST SWAP2 POP POP SWAP3 SWAP6 SWAP2 SWAP5 POP SWAP3 POP JUMP JUMPDEST PUSH1 0x0 DUP1 PUSH1 0x0 PUSH1 0x60 DUP5 DUP7 SUB SLT ISZERO PUSH2 0x235B JUMPI PUSH1 0x0 DUP1 REVERT JUMPDEST DUP4 CALLDATALOAD SWAP3 POP PUSH2 0x236B PUSH1 0x20 DUP6 ADD PUSH2 0x2118 JUMP JUMPDEST SWAP2 POP PUSH1 0x40 DUP5 ADD CALLDATALOAD PUSH8 0xFFFFFFFFFFFFFFFF DUP2 AND DUP2 EQ PUSH2 0x2388 JUMPI PUSH1 0x0 DUP1 REVERT JUMPDEST DUP1 SWAP2 POP POP SWAP3 POP SWAP3 POP SWAP3 JUMP JUMPDEST PUSH1 0x0 DUP1 PUSH1 0x40 DUP4 DUP6 SUB SLT ISZERO PUSH2 0x23A6 JUMPI PUSH1 0x0 DUP1 REVERT JUMPDEST PUSH2 0x23AF DUP4 PUSH2 0x2118 JUMP JUMPDEST SWAP2 POP PUSH2 0x23BD PUSH1 0x20 DUP5 ADD PUSH2 0x2118 JUMP JUMPDEST SWAP1 POP SWAP3 POP SWAP3 SWAP1 POP JUMP JUMPDEST PUSH1 0x0 DUP1 PUSH1 0x40 DUP4 DUP6 SUB SLT ISZERO PUSH2 0x23D9 JUMPI PUSH1 0x0 DUP1 REVERT JUMPDEST POP POP DUP1 CALLDATALOAD SWAP3 PUSH1 0x20 SWAP1 SWAP2 ADD CALLDATALOAD SWAP2 POP JUMP JUMPDEST PUSH1 0x1 DUP2 DUP2 SHR SWAP1 DUP3 AND DUP1 PUSH2 0x23FC JUMPI PUSH1 0x7F DUP3 AND SWAP2 POP JUMPDEST PUSH1 0x20 DUP3 LT DUP2 SUB PUSH2 0x241C JUMPI PUSH4 0x4E487B71 PUSH1 0xE0 SHL PUSH1 0x0 MSTORE PUSH1 0x22 PUSH1 0x4 MSTORE PUSH1 0x24 PUSH1 0x0 REVERT JUMPDEST POP SWAP2 SWAP1 POP JUMP JUMPDEST PUSH1 0x1F DUP3 GT ISZERO PUSH2 0x86A JUMPI PUSH1 0x0 DUP2 DUP2 MSTORE PUSH1 0x20 DUP2 KECCAK256 PUSH1 0x1F DUP6 ADD PUSH1 0x5 SHR DUP2 ADD PUSH1 0x20 DUP7 LT ISZERO PUSH2 0x2449 JUMPI POP DUP1 JUMPDEST PUSH1 0x1F DUP6 ADD PUSH1 0x5 SHR DUP3 ADD SWAP2 POP JUMPDEST DUP2 DUP2 LT ISZERO PUSH2 0x2468 JUMPI DUP3 DUP2 SSTORE PUSH1 0x1 ADD PUSH2 0x2455 JUMP JUMPDEST POP POP POP POP POP POP JUMP JUMPDEST DUP2 MLOAD PUSH8 0xFFFFFFFFFFFFFFFF DUP2 GT ISZERO PUSH2 0x248A JUMPI PUSH2 0x248A PUSH2 0x2195 JUMP JUMPDEST PUSH2 0x249E DUP2 PUSH2 0x2498 DUP5 SLOAD PUSH2 0x23E8 JUMP JUMPDEST DUP5 PUSH2 0x2422 JUMP JUMPDEST PUSH1 0x20 DUP1 PUSH1 0x1F DUP4 GT PUSH1 0x1 DUP2 EQ PUSH2 0x24D3 JUMPI PUSH1 0x0 DUP5 ISZERO PUSH2 0x24BB JUMPI POP DUP6 DUP4 ADD MLOAD JUMPDEST PUSH1 0x0 NOT PUSH1 0x3 DUP7 SWAP1 SHL SHR NOT AND PUSH1 0x1 DUP6 SWAP1 SHL OR DUP6 SSTORE PUSH2 0x2468 JUMP JUMPDEST PUSH1 0x0 DUP6 DUP2 MSTORE PUSH1 0x20 DUP2 KECCAK256 PUSH1 0x1F NOT DUP7 AND SWAP2 JUMPDEST DUP3 DUP2 LT ISZERO PUSH2 0x2502 JUMPI DUP9 DUP7 ADD MLOAD DUP3 SSTORE SWAP5 DUP5 ADD SWAP5 PUSH1 0x1 SWAP1 SWAP2 ADD SWAP1 DUP5 ADD PUSH2 0x24E3 JUMP JUMPDEST POP DUP6 DUP3 LT ISZERO PUSH2 0x2520 JUMPI DUP8 DUP6 ADD MLOAD PUSH1 0x0 NOT PUSH1 0x3 DUP9 SWAP1 SHL PUSH1 0xF8 AND SHR NOT AND DUP2 SSTORE JUMPDEST POP POP POP POP POP PUSH1 0x1 SWAP1 DUP2 SHL ADD SWAP1 SSTORE POP JUMP JUMPDEST PUSH4 0x4E487B71 PUSH1 0xE0 SHL PUSH1 0x0 MSTORE PUSH1 0x11 PUSH1 0x4 MSTORE PUSH1 0x24 PUSH1 0x0 REVERT JUMPDEST DUP1 DUP3 ADD DUP1 DUP3 GT ISZERO PUSH2 0x678 JUMPI PUSH2 0x678 PUSH2 0x2530 JUMP JUMPDEST DUP1 MLOAD PUSH10 0xFFFFFFFFFFFFFFFFFFFF DUP2 AND DUP2 EQ PUSH2 0xD35 JUMPI PUSH1 0x0 DUP1 REVERT JUMPDEST PUSH1 0x0 DUP1 PUSH1 0x0 DUP1 PUSH1 0x0 PUSH1 0xA0 DUP7 DUP9 SUB SLT ISZERO PUSH2 0x258B JUMPI PUSH1 0x0 DUP1 REVERT JUMPDEST PUSH2 0x2594 DUP7 PUSH2 0x2559 JUMP JUMPDEST SWAP5 POP PUSH1 0x20 DUP7 ADD MLOAD SWAP4 POP PUSH1 0x40 DUP7 ADD MLOAD SWAP3 POP PUSH1 0x60 DUP7 ADD MLOAD SWAP2 POP PUSH2 0x25B7 PUSH1 0x80 DUP8 ADD PUSH2 0x2559 JUMP JUMPDEST SWAP1 POP SWAP3 SWAP6 POP SWAP3 SWAP6 SWAP1 SWAP4 POP JUMP JUMPDEST PUSH1 0x0 DUP3 PUSH2 0x25E0 JUMPI PUSH4 0x4E487B71 PUSH1 0xE0 SHL PUSH1 0x0 MSTORE PUSH1 0x12 PUSH1 0x4 MSTORE PUSH1 0x24 PUSH1 0x0 REVERT JUMPDEST PUSH1 0x1 PUSH1 0xFF SHL DUP3 EQ PUSH1 0x0 NOT DUP5 EQ AND ISZERO PUSH2 0x25FA JUMPI PUSH2 0x25FA PUSH2 0x2530 JUMP JUMPDEST POP SDIV SWAP1 JUMP JUMPDEST PUSH1 0x0 DUP4 MLOAD PUSH2 0x2611 DUP2 DUP5 PUSH1 0x20 DUP9 ADD PUSH2 0x209C JUMP JUMPDEST DUP4 MLOAD SWAP1 DUP4 ADD SWAP1 PUSH2 0x2625 DUP2 DUP4 PUSH1 0x20 DUP9 ADD PUSH2 0x209C JUMP JUMPDEST PUSH32 0x2E6A736F6E000000000000000000000000000000000000000000000000000000 SWAP2 ADD SWAP1 DUP2 MSTORE PUSH1 0x5 ADD SWAP5 SWAP4 POP POP POP POP JUMP JUMPDEST DUP1 DUP3 MUL DUP2 ISZERO DUP3 DUP3 DIV DUP5 EQ OR PUSH2 0x678 JUMPI PUSH2 0x678 PUSH2 0x2530 JUMP JUMPDEST PUSH8 0xFFFFFFFFFFFFFFFF DUP2 DUP2 AND DUP4 DUP3 AND MUL DUP1 DUP3 AND SWAP2 SWAP1 DUP3 DUP2 EQ PUSH2 0x2691 JUMPI PUSH2 0x2691 PUSH2 0x2530 JUMP JUMPDEST POP POP SWAP3 SWAP2 POP POP JUMP JUMPDEST PUSH8 0xFFFFFFFFFFFFFFFF DUP2 DUP2 AND DUP4 DUP3 AND ADD SWAP1 DUP1 DUP3 GT ISZERO PUSH2 0x26BA JUMPI PUSH2 0x26BA PUSH2 0x2530 JUMP JUMPDEST POP SWAP3 SWAP2 POP POP JUMP JUMPDEST PUSH1 0x0 PUSH1 0x20 DUP3 DUP5 SUB SLT ISZERO PUSH2 0x26D3 JUMPI PUSH1 0x0 DUP1 REVERT JUMPDEST POP MLOAD SWAP2 SWAP1 POP JUMP JUMPDEST PUSH1 0x0 PUSH1 0x20 DUP3 DUP5 SUB SLT ISZERO PUSH2 0x26EC JUMPI PUSH1 0x0 DUP1 REVERT JUMPDEST DUP2 MLOAD PUSH2 0x2095 DUP2 PUSH2 0x2285 JUMP JUMPDEST PUSH1 0x0 PUSH1 0x1 PUSH1 0x1 PUSH1 0xA0 SHL SUB DUP1 DUP8 AND DUP4 MSTORE DUP1 DUP7 AND PUSH1 0x20 DUP5 ADD MSTORE POP DUP4 PUSH1 0x40 DUP4 ADD MSTORE PUSH1 0x80 PUSH1 0x60 DUP4 ADD MSTORE PUSH2 0x2729 PUSH1 0x80 DUP4 ADD DUP5 PUSH2 0x20C0 JUMP JUMPDEST SWAP7 SWAP6 POP POP POP POP POP POP JUMP JUMPDEST PUSH1 0x0 PUSH1 0x20 DUP3 DUP5 SUB SLT ISZERO PUSH2 0x2745 JUMPI PUSH1 0x0 DUP1 REVERT JUMPDEST DUP2 MLOAD PUSH2 0x2095 DUP2 PUSH2 0x2062 JUMP INVALID LOG2 PUSH5 0x6970667358 0x22 SLT KECCAK256 0xC6 PUSH28 0xF960801F62704AAA0EF27AE8B08CABAA3E44CCFBF76F204D2FD8AFF0 0xCC CREATE PUSH5 0x736F6C6343 STOP ADDMOD GT STOP CALLER "
    },
    "gasEstimates": {
      "creation": {
        "codeDepositCost": "2023600",
        "executionCost": "infinite",
        "totalCost": "infinite"
      },
      "external": {
        "approve(address,uint256)": "infinite",
        "balanceOf(address)": "2679",
        "baseTokenURI()": "infinite",
        "flipMembershipState()": "26662",
        "flipSubscriptionState()": "26661",
        "getApproved(uint256)": "4815",
        "getLatestPrice()": "infinite",
        "getMembersToken()": "infinite",
        "isApprovedForAll(address,address)": "infinite",
        "maxMonthlySubs()": "2362",
        "membership(address)": "2566",
        "membershipIsActive()": "2384",
        "name()": "infinite",
        "owner()": "2399",
        "ownerOf(uint256)": "2600",
        "renounceOwnership()": "infinite",
        "safeTransferFrom(address,address,uint256)": "infinite",
        "safeTransferFrom(address,address,uint256,bytes)": "infinite",
        "setApprovalForAll(address,bool)": "26779",
        "setBaseTokenURI(string)": "infinite",
        "setFeesMaxMonth(uint256,uint256)": "46733",
        "setUser(uint256,address,uint64)": "infinite",
        "subscriptionFee()": "2341",
        "subscriptionIsActive()": "2405",
        "supportsInterface(bytes4)": "infinite",
        "symbol()": "infinite",
        "tokenURI(uint256)": "infinite",
        "totalMembers()": "2406",
        "transferFrom(address,address,uint256)": "infinite",
        "transferOwnership(address)": "28402",
        "userExpires(uint256)": "4800",
        "userOf(uint256)": "4749",
        "withdraw()": "infinite",
        "withdrawERC20(address)": "infinite"
      },
      "internal": {
        "_baseURI()": "infinite",
        "_beforeTokenTransfer(address,address,uint256,uint256)": "infinite"
      }
    },
    "methodIdentifiers": {
      "approve(address,uint256)": "095ea7b3",
      "balanceOf(address)": "70a08231",
      "baseTokenURI()": "d547cfb7",
      "flipMembershipState()": "5bc10977",
      "flipSubscriptionState()": "ad567b7d",
      "getApproved(uint256)": "081812fc",
      "getLatestPrice()": "8e15f473",
      "getMembersToken()": "62a6068f",
      "isApprovedForAll(address,address)": "e985e9c5",
      "maxMonthlySubs()": "c657d33f",
      "membership(address)": "772ccf5d",
      "membershipIsActive()": "1829a936",
      "name()": "06fdde03",
      "owner()": "8da5cb5b",
      "ownerOf(uint256)": "6352211e",
      "renounceOwnership()": "715018a6",
      "safeTransferFrom(address,address,uint256)": "42842e0e",
      "safeTransferFrom(address,address,uint256,bytes)": "b88d4fde",
      "setApprovalForAll(address,bool)": "a22cb465",
      "setBaseTokenURI(string)": "30176e13",
      "setFeesMaxMonth(uint256,uint256)": "ffe0afc7",
      "setUser(uint256,address,uint64)": "e030565e",
      "subscriptionFee()": "0aa0a175",
      "subscriptionIsActive()": "735de366",
      "supportsInterface(bytes4)": "01ffc9a7",
      "symbol()": "95d89b41",
      "tokenURI(uint256)": "c87b56dd",
      "totalMembers()": "76e92559",
      "transferFrom(address,address,uint256)": "23b872dd",
      "transferOwnership(address)": "f2fde38b",
      "userExpires(uint256)": "8fc88c48",
      "userOf(uint256)": "c2f1f14a",
      "withdraw()": "3ccfd60b",
      "withdrawERC20(address)": "f4f3b200"
    }
  },
  "storageLayout": {
    "storage": [
      {
        "astId": 878,
        "contract": "SmokleySLounge.sol:Solscription",
        "label": "_name",
        "offset": 0,
        "slot": "0",
        "type": "t_string_storage"
      },
      {
        "astId": 880,
        "contract": "SmokleySLounge.sol:Solscription",
        "label": "_symbol",
        "offset": 0,
        "slot": "1",
        "type": "t_string_storage"
      },
      {
        "astId": 884,
        "contract": "SmokleySLounge.sol:Solscription",
        "label": "_owners",
        "offset": 0,
        "slot": "2",
        "type": "t_mapping(t_uint256,t_address)"
      },
      {
        "astId": 888,
        "contract": "SmokleySLounge.sol:Solscription",
        "label": "_balances",
        "offset": 0,
        "slot": "3",
        "type": "t_mapping(t_address,t_uint256)"
      },
      {
        "astId": 892,
        "contract": "SmokleySLounge.sol:Solscription",
        "label": "_tokenApprovals",
        "offset": 0,
        "slot": "4",
        "type": "t_mapping(t_uint256,t_address)"
      },
      {
        "astId": 898,
        "contract": "SmokleySLounge.sol:Solscription",
        "label": "_operatorApprovals",
        "offset": 0,
        "slot": "5",
        "type": "t_mapping(t_address,t_mapping(t_address,t_bool))"
      },
      {
        "astId": 615,
        "contract": "SmokleySLounge.sol:Solscription",
        "label": "_owner",
        "offset": 0,
        "slot": "6",
        "type": "t_address"
      },
      {
        "astId": 731,
        "contract": "SmokleySLounge.sol:Solscription",
        "label": "_status",
        "offset": 0,
        "slot": "7",
        "type": "t_uint256"
      },
      {
        "astId": 56,
        "contract": "SmokleySLounge.sol:Solscription",
        "label": "priceFeed",
        "offset": 0,
        "slot": "8",
        "type": "t_contract(AggregatorV3Interface)607"
      },
      {
        "astId": 62,
        "contract": "SmokleySLounge.sol:Solscription",
        "label": "subscriptionIsActive",
        "offset": 20,
        "slot": "8",
        "type": "t_bool"
      },
      {
        "astId": 65,
        "contract": "SmokleySLounge.sol:Solscription",
        "label": "membershipIsActive",
        "offset": 21,
        "slot": "8",
        "type": "t_bool"
      },
      {
        "astId": 67,
        "contract": "SmokleySLounge.sol:Solscription",
        "label": "maxMonthlySubs",
        "offset": 0,
        "slot": "9",
        "type": "t_uint256"
      },
      {
        "astId": 69,
        "contract": "SmokleySLounge.sol:Solscription",
        "label": "subscriptionFee",
        "offset": 0,
        "slot": "10",
        "type": "t_uint256"
      },
      {
        "astId": 71,
        "contract": "SmokleySLounge.sol:Solscription",
        "label": "totalMembers",
        "offset": 0,
        "slot": "11",
        "type": "t_uint256"
      },
      {
        "astId": 73,
        "contract": "SmokleySLounge.sol:Solscription",
        "label": "baseTokenURI",
        "offset": 0,
        "slot": "12",
        "type": "t_string_storage"
      },
      {
        "astId": 82,
        "contract": "SmokleySLounge.sol:Solscription",
        "label": "membership",
        "offset": 0,
        "slot": "13",
        "type": "t_mapping(t_address,t_bool)"
      },
      {
        "astId": 87,
        "contract": "SmokleySLounge.sol:Solscription",
        "label": "_users",
        "offset": 0,
        "slot": "14",
        "type": "t_mapping(t_uint256,t_struct(UserInfo)78_storage)"
      }
    ],
    "types": {
      "t_address": {
        "encoding": "inplace",
        "label": "address",
        "numberOfBytes": "20"
      },
      "t_bool": {
        "encoding": "inplace",
        "label": "bool",
        "numberOfBytes": "1"
      },
      "t_contract(AggregatorV3Interface)607": {
        "encoding": "inplace",
        "label": "contract AggregatorV3Interface",
        "numberOfBytes": "20"
      },
      "t_mapping(t_address,t_bool)": {
        "encoding": "mapping",
        "key": "t_address",
        "label": "mapping(address => bool)",
        "numberOfBytes": "32",
        "value": "t_bool"
      },
      "t_mapping(t_address,t_mapping(t_address,t_bool))": {
        "encoding": "mapping",
        "key": "t_address",
        "label": "mapping(address => mapping(address => bool))",
        "numberOfBytes": "32",
        "value": "t_mapping(t_address,t_bool)"
      },
      "t_mapping(t_address,t_uint256)": {
        "encoding": "mapping",
        "key": "t_address",
        "label": "mapping(address => uint256)",
        "numberOfBytes": "32",
        "value": "t_uint256"
      },
      "t_mapping(t_uint256,t_address)": {
        "encoding": "mapping",
        "key": "t_uint256",
        "label": "mapping(uint256 => address)",
        "numberOfBytes": "32",
        "value": "t_address"
      },
      "t_mapping(t_uint256,t_struct(UserInfo)78_storage)": {
        "encoding": "mapping",
        "key": "t_uint256",
        "label": "mapping(uint256 => struct Solscription.UserInfo)",
        "numberOfBytes": "32",
        "value": "t_struct(UserInfo)78_storage"
      },
      "t_string_storage": {
        "encoding": "bytes",
        "label": "string",
        "numberOfBytes": "32"
      },
      "t_struct(UserInfo)78_storage": {
        "encoding": "inplace",
        "label": "struct Solscription.UserInfo",
        "members": [
          {
            "astId": 75,
            "contract": "SmokleySLounge.sol:Solscription",
            "label": "user",
            "offset": 0,
            "slot": "0",
            "type": "t_address"
          },
          {
            "astId": 77,
            "contract": "SmokleySLounge.sol:Solscription",
            "label": "expires",
            "offset": 20,
            "slot": "0",
            "type": "t_uint64"
          }
        ],
        "numberOfBytes": "32"
      },
      "t_uint256": {
        "encoding": "inplace",
        "label": "uint256",
        "numberOfBytes": "32"
      },
      "t_uint64": {
        "encoding": "inplace",
        "label": "uint64",
        "numberOfBytes": "8"
      }
    }
  },
  "userdoc": {
    "events": {
      "UpdateUser(uint256,address,uint64)": {
        "notice": "Emitted when the `user` of an NFT or the `expires` of the `user` is changed The zero address for user indicates that there is no user address"
      }
    },
    "kind": "user",
    "methods": {
      "getLatestPrice()": {
        "notice": "Returns the latest price."
      },
      "getMembersToken()": {
        "notice": "public membership"
      },
      "setBaseTokenURI(string)": {
        "notice": "Change BaseTokenUri "
      },
      "setUser(uint256,address,uint64)": {
        "notice": "set the user and expires of an NFT"
      },
      "userExpires(uint256)": {
        "notice": "Get the user expires of an NFT"
      },
      "userOf(uint256)": {
        "notice": "Get the user address of an NFT"
      }
    },
    "version": 1
  }
}